:100000000C9401050C940F420C943A420C946542F6
:100010000C94251E0C94251E0C94251E0C94251E54
:100020000C9430050C9430050C9430050C9430057C
:100030000C9430050C94F33B0C9430050C94300573
:100040000C94EE0B0C9430050C9490420C943005FB
:100050000C94D2450C9408460C9430050C94300551
:100060000C9430050C9430050C9430050C9430053C
:100070000C947F460C94B5460C9430050C943005D6
:100080000C9430050C9430050C943005C80FCE103C
:100090007812B813FF1432166116D316C743CA4339
:1000A000BD43C143E143E143CE43D243D843DC43A4
:1000B000084AD73B3BCE016E84BCBFFDC12F3D6CCF
:1000C00074319ABD56833DDA3D00C77F11BED9E435
:1000D000BB4C3E916BAAAABE000000803F072C7A61
:1000E000A5BA6CC590DA3B9365FC8BBC53F810FD48
:1000F0003C5692834DBD879D3AB63DCBC9BF5BBE92
:1001000073DA0FC93F05A84CCDB2D44EB93836A921
:10011000020C50B9918688083CA6AAAA2ABE000003
:1001200000803F002A0024002A0024000A2A2A2AEC
:100130002A2A2A2A2A2020204C6F672064756D7095
:10014000202A2A2A2A2A2A2A2A00556E6B6E6F77BD
:100150006E204C434420647269766572206368693E
:10016000703A200053657475702066696E69736813
:100170006564004C6F672023207265636F7264733F
:100180002073617665643A004C6F67206E65787401
:10019000207265616420616464723A004C6F67206C
:1001A0006E65787420777269746520616464723A50
:1001B000004C6F67206461746120696E69746961C5
:1001C0006C697A6564005665723A00475053205452
:1001D000454C454D4554525900696E69742066611D
:1001E000696C656400496E697469616C697A696EED
:1001F000672E2E2E0047505320414E442054454C2C
:10020000454D45545259204D4F44554C4500000032
:100210000000003E5B4F5B3E3E6B4F6B3E1C3E7CE6
:100220003E1C183C7E3C181C577D571C1C5E7F5E94
:100230001C00183C1800FFE7C3E7FF001824180053
:10024000FFE7DBE7FF30483A060E262979292640EA
:100250007F050507407F05253F5A3CE73C5A7F3E16
:100260001C1C08081C1C3E7F14227F22145F5F00A8
:100270005F5F06097F017F006689956A6060606044
:100280006094A2FFA29408047E040810207E20102F
:1002900008082A1C08081C2A08081E101010100C38
:1002A0001E0C1E0C30383E3830060E3E0E06000086
:1002B00000000000005F00000007000700147F142A
:1002C0007F14242A7F2A1223130864623649562099
:1002D000500008070300001C2241000041221C00BE
:1002E0002A1C7F1C2A08083E08080080703000087D
:1002F00008080808000060600020100804023E5151
:1003000049453E00427F40007249494946214149E2
:100310004D331814127F1027454545393C4A494949
:100320003141211109073649494936464949291EB3
:1003300000001400000040340000000814224114A2
:1003400014141414004122140802015909063E41F4
:100350005D594E7C1211127C7F494949363E41411C
:1003600041227F4141413E7F494949417F09090975
:10037000013E414151737F0808087F00417F4100E1
:100380002040413F017F081422417F404040407F90
:10039000021C027F7F0408107F3E4141413E7F09DD
:1003A0000909063E4151215E7F091929462649491E
:1003B000493203017F01033F4040403F1F2040205E
:1003C0001F3F4038403F631408146303047804035C
:1003D0006159494D43007F4141410204081020000A
:1003E0004141417F0402010204404040404000037B
:1003F00007080020545478407F2844443838444447
:100400004428384444287F385454541800087E093E
:100410000218A4A49C787F0804047800447D40005E
:100420002040403D007F1028440000417F40007C78
:10043000047804787C080404783844444438FC1870
:1004400024241818242418FC7C0804040848545454
:10045000542404043F44243C4040207C1C20402081
:100460001C3C4030403C44281028444C9090907CE8
:100470004464544C440008364100000077000000FA
:100480004136080002010204023C2623263C1EA13C
:10049000A161123A4040207A38545455592155559B
:1004A000794122545478422155547840205455794A
:1004B000400C1E52721239555555593954545459DD
:1004C00039555454580000457C410002457D420096
:1004D00001457C407D1211127DF0282528F07C54C6
:1004E0005545002054547C547C0A097F49324949BF
:1004F00049323A4444443A324A4848303A41412128
:100500007A3A42402078009DA0A07D3D4242423D83
:100510003D4040403D3C24FF2424487E4943662B17
:100520002FFC2F2BFF0929F620C0887E09032054B9
:100530005479410000447D413048484A32384040B7
:10054000227A007A0A0A727D0D19317D2629292F17
:1005500028262929292630484D402038080808082F
:1005600008080808382F10C8ACBA2F102834FA0031
:10057000007B000008142A142222142A14085500B3
:10058000550055AA55AA55AAFF55FF55FF00000072
:10059000FF00101010FF00141414FF001010FF00D3
:1005A000FF1010F010F0141414FC001414F700FFE6
:1005B0000000FF00FF1414F404FC141417101F10A3
:1005C000101F101F1414141F00101010F000000052
:1005D000001F101010101F10101010F0100000005D
:1005E000FF101010101010101010FF10000000FF6E
:1005F000140000FF00FF00001F10170000FC04F4AF
:1006000014141710171414F404F40000FF00F71466
:10061000141414141414F700F714141417141010ED
:100620001F101F141414F4141010F010F000001F09
:10063000101F0000001F14000000FC140000F01048
:10064000F01010FF10FF141414FF141010101F00EE
:10065000000000F010FFFFFFFFFFF0F0F0F0F0FFF0
:10066000FFFF0000000000FFFF0F0F0F0F0F3844C7
:10067000443844FC4A4A4A347E02020606027E029C
:100680007E0263554941633844443C04407E201E49
:100690002006027E020299A5E7A5991C2A492A1C78
:1006A0004C7201724C304A4D4D303048784830BC65
:1006B000625A463D3E494949007E0101017E2A2A8F
:1006C0002A2A2A44445F444440514A444040444A10
:1006D00051400000FF0103E080FF000008086B6B41
:1006E000083612362436060F090F060000181800C7
:1006F00000001010003040FF0101001F01011E002A
:10070000191D1712003C3C3C3C000000000000009A
:100710000100FF0032000100000102000007030099
:1007200030100400000008000202090000000A0066
:1007300000000C0000000D0000000F000000100081
:100740000000110007001200000013000000FF006D
:10075000C8001000901611002702FF00320012009E
:100760001A00FF0032001300001829002A00FF00C1
:10077000320030000000310000003200000035007F
:100780000602360008083700070038000102390069
:1007900000003C0000003D0000002000000021009F
:1007A0000000500000005100EF0052000000530014
:1007B0003F01600000A7610003006A000000900094
:1007C00010009200000093000300950000119700B4
:1007D000000098000000070033010100B903FF8307
:1007E00057FFFAB30400000606B60125B00168CC35
:1007F0000105B10600151C1C83AAC0065050013C1F
:100800001E08B4070240002A2A0D783A0155360125
:10081000C0350100440200021100FF962900FF329A
:100820002E89298F2B02E200E401E510E601E71092
:10083000E870F200EA00EB20EC3CEDC8E938F10189
:100840001B1A1A022461255C183619011F88FF053E
:100850001F80FF051F90FF051FD4FF0517053609F0
:100860002838FF28283C02000300040005EF06009A
:1008700007000801093F72740092740048940078E0
:10088000C400000000010200090A00000000040387
:100890000807000000000000000000000000000049
:1008A000000001020408102040800102040810200A
:1008B000408001020408102040800102040810203A
:1008C0004080020202020202020204040404040440
:1008D00004040303030303030303010101010101F2
:1008E0000101000020002300260029000000220052
:1008F000250028002B0000002100240027002A00EA
:1009000000407A10F35A00A0724E18090010A5D4C6
:10091000E80000E87648170000E40B54020000CA23
:100920009A3B000000E1F505000080969800000069
:1009300040420F000000A0860100000010270000C8
:100940000000E803000000006400000000000A004E
:10095000000000000100000000002C76D888DC6751
:100960004F0823DFC1DFAE59E1B1B796E5E3E453A9
:10097000C63AE651997696E8E6C28426EB898C9BC6
:1009800062ED407C6FFCEFBC9C9F40F2BAA56FA566
:10099000F490055A2AF75C936B6CF9676DC11BFCE8
:1009A000E0E40D47FEF520E6B500D0ED902E030003
:1009B000943577050080841E080000204E0A000050
:1009C00000C80C333333330F986E12831141EF8D0F
:1009D0002114893BE65516CFFEE6DB18D1844B384F
:1009E0001BF77C1D901DA4BBE424203284725E2280
:1009F0008100C9F124ECA1E53D27680DAC383C46E7
:100A0000E94611241FBECFEFD0E4DEBFCDBF14E016
:100A1000A0E0B1E0E4EAF6EA00E00BBF02C0079014
:100A20000D92A83FB107D9F72CE0A8EFB4E001C0C0
:100A30001D92AC35B207E1F719E0C2E0DAE000E060
:100A400006C022970109FE010BBF0E94E74DCA3F75
:100A5000D10780E00807A9F70E942D470C94505356
:100A60000C9400008F929F92AF92BF92CF92DF9230
:100A7000EF92FF92CF93DF93EC016A017B0183EC4D
:100A800099E00E94BB3F8F3FD1F5B701A6014150CD
:100A9000504F6F4F7F4F83EC99E00E94BB3F8F3FD9
:100AA00071F58C89882309F44FC080E1D80EE11CD0
:100AB000F11C62E171E082E29BE00E949D472AE026
:100AC00030E0B701A60182E29BE00E94C848B7016E
:100AD000A60183EC99E00E94BB3F460157019FEFBE
:100AE000891A990AA90AB90A8F32F1F4B501A40149
:100AF00083EC99E00E94BB3F8A32B1F421C0B70178
:100B0000A60183EC99E00E941D4069E271E082E257
:100B10009BE00E949D472AE030E0B701A60182E2F7
:100B20009BE00E94C848BDCF750164018114910407
:100B300088E0A806B10458F2C12CD12C7601C7CFA9
:100B4000CC82DD82EE82FF82DF91CF91FF90EF9029
:100B5000DF90CF90BF90AF909F908F900895CF93EC
:100B6000DF93EC0183EC99E00E9411401C821D820E
:100B70001E821F82188219821A821B821886198689
:100B80001A861B861C8ADF91CF9108954F925F923F
:100B90006F927F928F929F92AF92BF92CF92DF928D
:100BA000EF92FF920F931F93CF93DF93CDB7DEB7F2
:100BB000A4970FB6F894DEBF0FBECDBF29A33AA30A
:100BC0004BA35CA3E986FA860B871C87840125E387
:100BD0003AEF4EE85CE30E949D4C2B013C0125E37B
:100BE0003AEF4EE85CE369A17AA18BA19CA10E9437
:100BF0009D4C6D877E878F87988B0E94BD4A6D8B39
:100C00007E8B8F8B988FC301B2010E94BD4A69838E
:100C10007A838B839C839B01AC016D897E898F894C
:100C2000988D0E949D4C6D8B7E8B8F8B988F6D85E0
:100C30007E858F8598890E94004D29813A814B815C
:100C40005C810E949D4C69837A838B839C83C30162
:100C5000B2010E94004D6D837E838F83988725E3C8
:100C60003AEF4EE85CE369857A858B859C850E9426
:100C70009D4C2B013C0125E33AEF4EE85CE3C601B5
:100C8000B5010E949D4C69877A878B879C870E945B
:100C9000BD4A698B7A8B8B8B9C8BC301B2010E94FE
:100CA000BD4A6D877E878F87988B9B01AC016989D0
:100CB0007A898B899C890E949D4C698B7A8B8B8B5E
:100CC0009C8B69857A858B859C850E94004D2D853E
:100CD0003E854F8558890E949D4C6D8F7E8F8F8FEA
:100CE00098A3C301B2010E94004D69877A878B8760
:100CF0009C8729893A894B895C896D897E898F898E
:100D0000988D0E942C4A2B013C012D8D3E8D4F8DDC
:100D100058A169817A818B819C810E942C4A6D87C0
:100D20007E878F87988B29853A854B855C856D8179
:100D30007E818F8198850E942C4A698F7A8F8B8F54
:100D40009C8FA3019201C301B2010E949D4C2B0113
:100D50003C012D853E854F855889CA01B9010E9405
:100D60009D4C9B01AC01C301B2010E942D4A2B0195
:100D70003C01298D3A8D4B8D5C8DCA01B9010E94D1
:100D80009D4C9B01AC01C301B2010E942D4A29E98F
:100D90003AE743E156E50E949D4C0E940A4D20E04F
:100DA00030E040E05FE30E949D4C2B013C019B0141
:100DB000AC010E949D4C9B01AC0169E97AE783E19B
:100DC00096E50E942C4A0E940A4D9B01AC01C3018A
:100DD000B2010E94C04A0E94914A20E33EE442ECE4
:100DE0005AE40E949D4C9B01AC010E942D4A6D87E4
:100DF0007E878F87988B20E030E0A9010E94B94A56
:100E0000811108C0AFA9B8AD1D921D921D921C9210
:100E1000139761C129853A854B855C8569817A8103
:100E20008B819C810E949D4C2B013C012D8D3E8D20
:100E30004F8D58A16D817E818F8198850E949D4C38
:100E40009B01AC01C301B2010E942C4A2B013C0161
:100E500029893A894B895C896D817E818F8198854A
:100E60000E949D4C6D837E838F83988729853A8568
:100E70004B855C856D897E898F89988D0E949D4CFC
:100E80009B01AC016D817E818F8198850E942C4AE7
:100E9000698F7A8F8B8F9C8F2D8D3E8D4F8D58A1B2
:100EA0006D897E898F89988D0E949D4C6D837E838C
:100EB0008F83988729893A894B895C8969817A81EE
:100EC0008B819C810E949D4C9B01AC016D817E8138
:100ED0008F8198850E942C4A698B7A8B8B8B9C8B97
:100EE000A3019201C301B2010E949D4C6D837E83D8
:100EF0008F839887298D3A8D4B8D5C8DCA01B901FE
:100F00000E949D4C9B01AC016D817E818F819885F3
:100F10000E942D4A6D837E838F83988729893A8921
:100F20004B895C89CA01B9010E949D4C9B01AC01AF
:100F30006D817E818F8198850E942D4A0E940A4D85
:100F40006D837E838F83988789819A81AB81BC81F1
:100F5000B05889839A83AB83BC839C01AD01BC01EB
:100F6000CD010E949D4C69877A878B879C872D894C
:100F70003E894F89588DCA01B9010E949D4C9B0141
:100F8000AC0169857A858B859C850E942D4A20E07D
:100F900030E0A9010E942D4A0E940A4D69877A8794
:100FA0008B879C879B01AC0169817A818B819C81B5
:100FB0000E94C04A69837A838B839C832D813E8102
:100FC0004F815885C301B2010E94C04A9B01AC0108
:100FD00069817A818B819C810E949D4C69837A838F
:100FE0008B839C8329853A854B855C856D897E89B9
:100FF0008F89988D0E94C04A2B013C012D813E8132
:101000004F815885698D7A8D8B8D9C8D0E94C04A49
:101010009B01AC01C301B2010E949D4C9B01AC013C
:1010200069817A818B819C810E942D4A2B013C0130
:1010300029853A854B855C8560E070E0CB010E9494
:10104000C04A69837A838B839C832D813E814F8143
:10105000588569897A898B899C890E94C04A9B013D
:10106000AC0169817A818B819C810E949D4C9B019E
:10107000AC01C301B2010E942D4A0E941E4A25E321
:101080003AEF4EE85CE30E94C04A2B013C0129A1E3
:101090003AA14BA15CA1C601B5010E94924C181661
:1010A0004CF4A301920160E070E084E393E40E94B9
:1010B0002C4A08C020E030E044E353E4C301B2010D
:1010C0000E942D4A0E94284BAFA9B8AD6D937D9325
:1010D0008D939C93139720E030E44CE156E46D85AA
:1010E0007E858F8598890E94924C87FD13C020E0F1
:1010F00030E04AE754E46D857E858F8598890E94AB
:10110000C04A0E94284BF8016083718382839383D5
:1011100081E00DC06D857E858F8598890E94284B62
:10112000D8016D937D938D939C93139780E0A49643
:101130000FB6F894DEBF0FBECDBFDF91CF911F91E8
:101140000F91FF90EF90DF90CF90BF90AF909F9066
:101150008F907F906F905F904F90089580910A01DB
:101160008F5F893008F081E080930A0108951F9312
:10117000CF93DF93182FEB0161E00E941B44BE0167
:10118000882777FD8095982F0E94094360E0812F82
:10119000DF91CF911F910C941B44AC0184E0440F6C
:1011A000551F8A95E1F78CE0869F9001879F300D4F
:1011B0001124B9018FE899E00C944323FC019F01AD
:1011C000281B390B41914111FACFC9010895CF93E2
:1011D000DF93EC010E94DE08FE0140E099279F01A9
:1011E0002C1B3D0B281739071CF421914227F7CF00
:1011F000842FDF91CF9108952F923F924F925F926B
:101200006F927F928F929F92AF92BF92CF92DF9216
:10121000EF92FF920F931F93CF93DF93CDB7DEB77B
:10122000C154D1090FB6F894DEBF0FBECDBF6A9688
:101230002FAD6A972BAB6B963FAD6B973CAB6C9623
:101240006FAD6C976DAB6D968FAD6D978AAF6E96E7
:101250009FAD6E979BAFAD96CCACDDACEEACFFAC6A
:10126000AD97AE96AFADAE97A9ABE2964CAC5DAC88
:101270006EAC7FACE297E396BFADE397BAABC70124
:10128000B6010E94284B4B015C0120E030E44CE1A8
:1012900056E4C701B6010E949D4C6B017C0100E140
:1012A00017E2089DB001099D700D189D700D112465
:1012B000882777FD8095982F0E945B4B9B01AC019E
:1012C000C701B6010E942C4A0E94284B6CAF7DAF2B
:1012D000C301B2010E94284B6B017C0120E030E485
:1012E0004CE156E4C301B2010E949D4C2B013C012C
:1012F0000C9DB0010D9D700D1C9D700D1124882753
:1013000077FD8095982F0E945B4B9B01AC01C30138
:10131000B2010E942C4A0E94284B562E472E9E0155
:10132000275E3F4F3AA729A7E7966CAD7DAD8EADFE
:101330009FADE797890121E044E00E94EB4DCE018B
:1013400041969CA78BA7A5966CAD7DAD8EAD9FAD4C
:10135000A5970850110922E044E00E94EB4DDE0100
:101360001996BEA7ADA7A9966CAD7DAD8EAD9FAD0C
:10137000A9978D0122E044E00E94EB4D1E01B1E2ED
:101380002B0E311CED966CAD7DAD8EAD9FADED9706
:10139000810122E041E00E94EB4DC358DF4F68819C
:1013A00079818A819B81CD57D0409E012F5F3F4F2D
:1013B00038AB2FA7890121E044E00E94EB4D61E3A7
:1013C00071E085ED96E00E94234E3BAD3F936AAD00
:1013D0006F931F928DA98F931F929CA99F931F9229
:1013E000ABA9AF93A8E3B1E0BF93AF938BED96E0C9
:1013F0009F938F930E942A4E8C010552194F89A901
:10140000992787FD90959FAB8EAB9F9399A99F934A
:10141000ADADAF93BCADBF939F928F924AE451E0C4
:101420005F934F931F930F934EAF5FAF0E942A4E6F
:10143000080F191F2AA9332727FD309539AF28AF88
:101440003F933AA93F934F925F92DF92CF9228E564
:1014500031E03F932F931F930F9321962FAF219746
:1014600022963FAF22970E942A4E080F191F0FB6EF
:10147000F894DEBF0FBECDBF66E671E0C8010E94E2
:10148000234E0E5F1F4FE9968FADE9971F928F9302
:1014900089E691E09F938F931F930F930E942A4EAA
:1014A000080F191F3F922F929FE6692E91E0792E27
:1014B0007F926F921F930F930E942A4E080F191F5D
:1014C0009AA59F93A9A5AF9383E791E09F938F93EC
:1014D0001F930F930E942A4EB8A9BF936FA56F93D5
:1014E00069E771E07F936F93800F911F9F938F93B4
:1014F0000E942A4E85ED96E00E94E7081F928F9386
:1015000000E811E01F930F931E0187E2280E311CA3
:101510003F922F920E942A4E6AE271E082E29BE0A3
:101520000E947A4765ED76E082E29BE00E949D474B
:1015300068E271E082E29BE00E947A47B10182E2B8
:101540009BE00E94BC4765E871E085E896E00E9458
:10155000234E9BAD9F93AAADAF931F92BDA9BF939E
:101560001F926CA96F931F928BA98F93A8E3B1E090
:10157000BF93AF938BE896E09F938F930E942A4E80
:101580008557994F1C010FB6F894DEBF0FBECDBF33
:1015900065E371E00E94234E92E0290E311CAFA951
:1015A000AF93B9A9BF936DAD6F938CAD8F939F929D
:1015B0008F924EAD5FAD5F934F933F922F920E94FB
:1015C0002A4E280E391E99AD9F93AAA9AF934F9228
:1015D0005F92DF92CF9221962FAD219722963FAD59
:1015E00022973F932F933F922F920E942A4E280ECC
:1015F000391EBCA5BF932BA52F937F926F923F926C
:101600002F920E942A4E280E391E3EA53F936DA5AB
:101610006F937F926F923F922F920E942A4E0FB645
:10162000F894DEBF0FBECDBFA1962FADA1971F923C
:101630002F93A0962FADA0971F922F936F962FAD4B
:101640006F971F922F932CE831E03F932F93820DD9
:10165000931D9F938F930E942A4E85E896E00E94E7
:10166000E7081F928F931F930F938E010B5D1F4FFF
:101670001F930F930E942A4E66E271E082E29BE084
:101680000E947A4765E876E082E29BE00E949D47EF
:1016900064E271E082E29BE00E947A47B80182E254
:1016A0009BE00E94BC470FB6F894DEBF0FBECDBFD3
:1016B000CF5BDF4F0FB6F894DEBF0FBECDBFDF911B
:1016C000CF911F910F91FF90EF90DF90CF90BF903F
:1016D000AF909F908F907F906F905F904F903F90D2
:1016E0002F900895EF92FF920F931F93CF93DF9364
:1016F0001F92CDB7DEB77C018B01211105C0498354
:101700000E94DE08498102C080E090E0F701E80F06
:10171000F91F801791071CF401964193FACFF70146
:10172000E80FF91F1082C7010F90DF91CF911F9131
:101730000F91FF90EF900895CF93C82F60E070E075
:101740008AE090E00E94CD0840E050E06FEF7FEF2C
:101750008FE899E00E94552321E040E269E170E0C2
:1017600088E495E00E94720BBC018FE899E00E942A
:101770009D4760E070E08AE090E00E94CD08C0FFE5
:101780000EC040E058EF6FEF7FEF8FE899E00E94C6
:1017900055236DE971E08FE899E00E949D47C1FFF4
:1017A0000EC040E05CEF60E070E08FE899E00E94DE
:1017B000552363EA71E08FE899E00E949D4760E05D
:1017C00070E080E090E00E94CD0840E050E06FEFD4
:1017D0007FEF8FE899E0CF910C9455231F920F92E1
:1017E0000FB60F9211240BB60F922F933F934F9386
:1017F0005F936F937F938F939F93AF93BF93EF9379
:10180000FF9389EF94E00E947B23FF91EF91BF91BA
:10181000AF919F918F917F916F915F914F913F9188
:101820002F910F900BBE0F900FBE0F901F90189529
:101830004F925F926F927F928F929F92AF92BF92E0
:10184000CF92DF92EF92FF920F931F93CF93DF938C
:1018500000D000D0CDB7DEB78C0148E350E060E0A7
:1018600070E0FC0144875587668777874FEF53E226
:1018700060E070E0408B518B628B738B148A108216
:1018800011821282138214821582168217824FEF00
:101890005FEF67E070E083EC99E00E94BB3F8F3F11
:1018A00009F0A4C040E050EF67E070E083EC99E0FD
:1018B0000E94BB3F8F3F09F499C0CC24CA94DC2C12
:1018C00047E0E42EF12C88248A94982C57E0A52E2A
:1018D000B12C240135014C185D086E087F08B70152
:1018E000A60183EC99E00E94BB3F8F3F31F4F1E009
:1018F000CF1AD108E108F108ECCF81E0F801848B20
:10190000FFEFCF1ADF0AEF0AFF0AF801C082D18287
:10191000E282F382CC24CA943FEED32E37E0E32E4A
:10192000F12CB701A60183EC99E00E94BB3F8F3FE9
:1019300041F0C114F0E1DF06E104F10408F060C0F9
:1019400015C0B701A6014F5F5F406109710983ECC3
:1019500099E00E94BB3F8F3F61F7460157012FEF8F
:10196000C216D20627E0E206F10431F181E0F80167
:10197000848B46015701B501A40183EC99E00E94D4
:10198000BB3FA50194012F5F3F4F4F4F5F4F29830E
:101990003A834B835C838F32C1F5BA01A90183EC92
:1019A00099E00E94BB3F8A3281F5F80184829582DA
:1019B000A682B78246015701B501A40183EC99E0E4
:1019C0000E94BB3F8F3F81F581149104A104B104B3
:1019D00091F540E050E0BA0183EC99E00E94BB3FF2
:1019E0008F3FA1F1812C912C540167C0412C512CC7
:1019F0003201CC24CA94DC2C27E0E22EF12C91CFCA
:101A0000F0E1DF1AE108F1088CCF89809A80AB8081
:101A1000BC808114910428E0A206B10409F0ABCF88
:101A2000812C912C5401A7CF81149104A104B104FD
:101A300009F043C0CECFFFEF4F1A5F0A6F0A7F0A4B
:101A400021E0821A9108A108B108B6CFF801848973
:101A5000811105C0F8011082118212821382FFEFFA
:101A60004F1A5F0A6F0A7F0A60E070E088E090E03A
:101A70006419750986099709F80124853585468515
:101A800057850E94774DF801208731874287538719
:101A90000F900F900F900F90DF91CF911F910F91AA
:101AA000FF90EF90DF90CF90BF90AF909F908F907E
:101AB0007F906F905F904F900895FFEF8F1A9F0A6D
:101AC000AF0ABF0AF80180829182A282B382CCCF92
:101AD000EF92FF920F9340E35FEE67E183EC99E0B2
:101AE0000E943C3F6CE2E62EFF24F3940AE129E1D8
:101AF00048E16BE18BEB99E00E94CC41E12C05E1E0
:101B000024E143E162E18FE899E00E947E2428E02D
:101B10003BE042E064E08FE598E00E94353C41E024
:101B20006FE578E084E597E00E94B6388FE29AE2AC
:101B3000A0E080934D0690934E06A0934F068093AD
:101B4000150690931606A09317068093DD059093D3
:101B5000DE05A093DF056FEB7BE089EF94E00F914A
:101B6000FF90EF900C943924CF92DF92EF92FF9286
:101B70000F931F93C0908106D0908206E090830659
:101B8000F09084062DEC3CEC4CE450E4C701B60127
:101B90000E94B94A87FF33C0E12C98EFF92E0CE080
:101BA00010E02EE030E040E050E06CEC70E08FE8B8
:101BB00099E00E94592EE0918F09F09190090484D8
:101BC000F585E02DE12CF12C2EE030E040E050E0F6
:101BD0006CEC70E08FE899E009952EE030E040E091
:101BE00050E068ED70E08FE899E00E94592EE09196
:101BF0008F09F09190090484F585E02D4DC026E60B
:101C000036E646E650E4C701B6010E94B94A87FFAE
:101C10005EC02DEC3CEC4CE450E4C701B6010E94E0
:101C2000924C87FD54C0B0EEEB2EFF24FA940CE0EA
:101C300010E02EE030E040E050E06CEC70E08FE827
:101C400099E00E94592EE0918F09F0919009048447
:101C5000F585E02DE12CF12C2EE030E040E050E065
:101C60006CEC70E08FE899E0099580EEE82EFF2497
:101C7000FA942EE030E040E050E068ED70E08FE84C
:101C800099E00E94592EE0918F09F0919009048407
:101C9000F585E02DE12CF12C2EE030E040E050E025
:101CA00068ED70E08FE899E009952EE030E040E0C3
:101CB00050E064EE70E08FE899E00E94592EE091C8
:101CC0008F09F09190090484F585E02D59C0E0EE6C
:101CD000EE2EE7E0FE2E0CE010E02EE030E040E0DB
:101CE00050E06CEC70E08FE899E00E94592EE09192
:101CF0008F09F09190090484F585E02DE12CF12CF9
:101D00002EE030E040E050E06CEC70E08FE899E0CD
:101D10000995F0EEEF2EF7E0FF2E2EE030E040E0E8
:101D200050E068ED70E08FE899E00E94592EE09154
:101D30008F09F09190090484F585E02DE12CF12CB8
:101D40002EE030E040E050E068ED70E08FE899E090
:101D50000995A0EEEA2EA7E0FA2E2EE030E040E052
:101D600050E064EE70E08FE899E00E94592EE09117
:101D70008F09F09190090484F585E02DE12CF12C78
:101D80002EE030E040E050E064EE70E08FE899E053
:101D9000099540E050E06AE570E08FE899E00E9424
:101DA0004323809150068A3030F464EF72E08FE86C
:101DB00099E00E949D474AE050E0609150068FE80C
:101DC00099E00E94944862EE72E08FE899E00E94E8
:101DD0009D47809151068A3030F464EF72E08FE8BD
:101DE00099E00E949D474AE050E0609151068FE8DB
:101DF00099E00E949448E0918F09F0919009068043
:101E0000F781E02DE12C78EFF72E04E110E020EFD0
:101E100030E044E150E060E070E08FE899E009953F
:101E20001F910F91FF90EF90DF90CF900895EF9268
:101E3000FF920F931F9360E070E08FE899E00E949B
:101E4000E52EE12C28EFF22E08E710E028E730E03D
:101E500048EC50E060E070E08FE899E00E94592E75
:101E6000E0918F09F09190090484F585E02DEE242E
:101E7000EA94FE2C28E730E048EC50E060E070E0A7
:101E80008FE899E0099540EEE42EFF24FA9428E7C4
:101E900030E048EC50E068E770E08FE899E00E949D
:101EA000592EE0918F09F09190090484F585E02D79
:101EB000EE24EA94FE2C28E730E048EC50E068E796
:101EC00070E08FE899E0099564E070E080E190E0CF
:101ED0000E94CD086FEF7FEF8FE899E00E944F23BB
:101EE00064E08FE899E00E94492369EA71E08FE895
:101EF00099E00E94BC476EE070E080E190E00E94B3
:101F0000CD086FE170E08FE899E00E944F2364E014
:101F10008FE899E00E9449236CEA71E08FE899E02C
:101F20000E94BC4762E08FE899E00E94492360E08C
:101F30008FE899E00E94B33140E050E06FEF7FEF0F
:101F40008FE899E00E94552361E08FE899E00E94B4
:101F50005B2340E050E060E070E08FE899E01F9183
:101F60000F91FF90EF900C944323EF92FF920F9309
:101F70001F93CF93DF9390E0FC013197E830F10598
:101F800008F069C7EA5BFF4F2091F8040C94B84D44
:101F9000213019F4662309F4A2C081E08093F8048B
:101FA0000E94170F60E070E082E090E00E94CD0890
:101FB0006FEA71E08FE899E00E949D4760E070E071
:101FC00083E090E00E94CD0880916F061F928F936E
:101FD0008AEB91E09F938F93C0E7D5E0DF93CF9397
:101FE0000E942A4EBE018FE899E00E949D4760E062
:101FF00070E084E090E00E94CD0880916E061F9210
:102000008F9381EC91E09F938F93DF93CF930E9406
:102010002A4EBE018FE899E00E949D4760E070E083
:1020200085E090E00E94CD08609170067091710685
:10203000809172069091730608E415E022E045E075
:102040000E94EB4D9F938F9389EC91E09F938F9328
:10205000DF93CF930E942A4EBE018FE899E00E9441
:102060009D4760E070E086E090E00E94CD0880919E
:102070004B078F9380914A078F9381ED91E09F9357
:102080008F93DF93CF930E942A4EBE018FE899E091
:102090000E949D4760E070E087E090E00E94CD08DC
:1020A00060918106709182068091830690918406EA
:1020B00022E044E00E94EB4D9F938F938CED91E0E2
:1020C0009F938F93DF93CF930E942A4E8DB79EB735
:1020D0004E960FB6F8949EBF0FBE8DBF8EC464E0BF
:1020E00070E083E090E00E94CD084AE050E060910B
:1020F0006F068FE899E00E94944865E070E084E004
:1021000090E00E94CD084AE050E060916E068FE8B2
:1021100099E00E94944865E070E085E090E00E94BC
:10212000CD08609170067091710680917206909151
:10213000730608E415E022E045E00E94EB4DBC0187
:1021400080E795E00E94234E60E775E08FE899E014
:102150000E949D4768E070E086E090E00E94CD0814
:1021600060914A0770914B074AE050E08FE899E090
:102170000E94674867E070E087E090E00E94CD0829
:102180006091810670918206809183069091840609
:1021900022E044E00E94EB4DBC018EC5223019F4D0
:1021A000662309F4BAC082E08093F8040E94170FF6
:1021B00060E070E082E090E00E94CD0868EE71E09F
:1021C0008FE899E00E949D4760913D0770913E071E
:1021D00080913F07909140070E945B4B9B01AC01AF
:1021E00060916A0670916B0680916C0690916D0605
:1021F0000E942C4A08E415E020E044E00E94EB4DE8
:102200009F938F9381EF91E09F938F93C0E7D5E0E9
:10221000DF93CF930E942A4E60E070E083E090E06D
:102220000E94CD08BE018FE899E00E949D4726E5F7
:102230003EE04DEE5FE36091580670915906809143
:102240005A0690915B060E949D4C20E044E00E945B
:10225000EB4D9F938F938AEF91E09F938F93DF9342
:10226000CF930E942A4E60E070E084E090E00E94EC
:10227000CD08BE018FE899E00E949D47609141071B
:102280007091420780914307909144070E945B4BF5
:1022900020E044E00E94EB4D9F938F9386E092E014
:1022A0009F938F93DF93CF930E942A4E60E070E05C
:1022B00085E090E00E94CD08BE018FE899E00E9481
:1022C0009D4760E070E086E090E00E94CD0860915C
:1022D00035077091360780913707909138070E9433
:1022E0005B4B20E044E00E94EB4D9F938F9381E194
:1022F00092E09F938F93DF93CF930E942A4EBE016B
:102300008FE899E00E949D478DB79EB748960FB61B
:10231000F8949EBF0FBE8DBFA2C060913D07709123
:102320003E0780913F07909140070E945B4B9B01C5
:10233000AC0160916A0670916B0680916C06909179
:102340006D060E942C4A08E415E020E044E00E945B
:10235000EB4D9F938F9380E292E09F938F93C0E722
:10236000D5E0DF93CF930E942A4E64E070E083E0D3
:1023700090E00E94CD08BE018FE899E00E949D4741
:1023800026E53EE04DEE5FE36091580670915906F8
:1023900080915A0690915B060E949D4C20E044E09B
:1023A0000E94EB4D9F938F938BE292E09F938F93CC
:1023B000DF93CF930E942A4E64E070E084E090E0C7
:1023C0000E94CD08BE018FE899E00E949D47609170
:1023D00041077091420780914307909144070E9402
:1023E0005B4B20E044E00E94EB4D9F938F9389E389
:1023F00092E09F938F93DF93CF930E942A4E64E0E5
:1024000070E085E090E00E94CD08BE018FE899E081
:102410000E949D4764E070E086E090E00E94CD0855
:102420006091350770913607809137079091380792
:102430000E945B4B20E044E00E94EB4DBC01CE01CA
:102440000E94234EBE018FE899E00E949D478DB700
:102450009EB742960FB6F8949EBF0FBE8DBF809177
:102460004807811103C068E172E002C06CE172E0CC
:102470008FE899E00E949D4764E08FE899E00E9410
:10248000492360E070E088E090E00E94CD08609110
:10249000250770912607809127079091280708E467
:1024A00015E020E041E00E94EB4D9F938F938EEF6B
:1024B00091E09F938F9380E795E09F938F930E9485
:1024C0002A4E60E775E08FE899E00E949D470F90E3
:1024D0000F900F900F900F900F9062E08FE899E0AF
:1024E000DF91CF911F910F91FF90EF900C944923B2
:1024F000233019F4662309F4A2C083E08093F80422
:102500000E94170F60E070E082E090E00E94CD082A
:1025100066E472E08FE899E00E949D4760E070E019
:1025200083E090E00E94CD08609125077091260716
:10253000809127079091280708E415E020E044E007
:102540000E94EB4D9F938F9382E592E09F938F9330
:10255000C0E7D5E0DF93CF930E942A4EBE018FE8FB
:1025600099E00E949D4760E070E084E090E00E9466
:10257000CD0880913C078F9380913B078F9380918A
:102580003A078F93809139078F938FE592E09F935D
:102590008F93DF93CF930E942A4EBE018FE899E07C
:1025A0000E949D4760E070E085E090E00E94CD08C9
:1025B000809134078F93809133078F9380913207F6
:1025C0008F93809131078F938BE692E09F938F9347
:1025D000DF93CF930E942A4EBE018FE899E00E94BC
:1025E0009D478DB79EB746960FB6F8949EBF0FBE17
:1025F0008DBF80914807811103C068E172E002C07D
:102600006CE172E08FE899E00E949D4760E070E025
:1026100087E090E00E94CD0860916A0670916B0699
:1026200080916C0690916D0608E415E020E045E08D
:102630000E94EB4D9F938F9385E792E08AC066E0FE
:1026400070E083E090E00E94CD08609125077091D2
:102650002607809127079091280708E415E020E0DD
:1026600044E00E94EB4DBC0180E795E00E94234EC0
:1026700060E775E08FE899E00E949D4766E070E0B2
:1026800084E090E00E94CD0880913C078F93809178
:102690003B078F9380913A078F93809139078F93EF
:1026A00001E712E01F930F93C0E7D5E0DF93CF93CC
:1026B0000E942A4EBE018FE899E00E949D4766E085
:1026C00070E085E090E00E94CD08809134078F9300
:1026D000809133078F93809132078F9380913107D8
:1026E0008F931F930F93DF93CF930E942A4EBE01C7
:1026F0008FE899E00E949D478DB79EB740960FB630
:10270000F8949EBF0FBE8DBF80914807811103C012
:1027100068E172E002C06CE172E08FE899E00E942B
:102720009D4768E070E087E090E00E94CD086091EE
:102730006A0670916B0680916C0690916D0608E4B4
:1027400015E020E045E00E94EB4D9F938F9382E8D7
:1027500092E09F938F9380E795E09F938F930E94E1
:102760002A4E0F900F900F900F900F900F9067C30D
:10277000243019F4662309F4B1C084E08093F8048E
:102780000E94170F60E070E082E090E00E94CD08A8
:1027900066E872E08FE899E00E949D4760E070E093
:1027A00083E090E00E94CD08609160067091610620
:1027B000809162069091630608E415E024E049E008
:1027C0000E94EB4D9F938F9320916406822F99274F
:1027D00087FD90959F932F9381E992E09F938F932C
:1027E000C0E7D5E0DF93CF930E942A4EBE018FE869
:1027F00099E00E949D4760E070E084E090E00E94D4
:10280000CD0860916506709166068091670690918B
:10281000680624E049E00E94EB4D9F938F9320913E
:102820006906822F992787FD90959F932F938BE9B7
:1028300092E09F938F93DF93CF930E942A4EBE0125
:102840008FE899E00E949D4760E070E085E090E0AD
:102850000E94CD0865EA72E0CE010E94234EBE01BF
:102860008FE899E00E949D4760E070E086E090E08C
:102870000E94CD08609178067091790680917A0661
:1028800090917B0626E04AE00E94EB4DBC01CE0110
:102890000E94234EBE018FE899E00E949D4760E0B0
:1028A00070E087E090E00E94CD0860917C06709116
:1028B0007D0680917E0690917F0626E04AE00E9488
:1028C000EB4DBC01CE010E94234E8DB79EB74096C2
:1028D0000FB6F8949EBF0FBE8DBF8FC064E070E04E
:1028E00083E090E00E94CD086091600670916106DF
:1028F000809162069091630608E415E024E049E0C7
:102900000E94EB4D9F938F9320916406822F99270D
:1029100087FD90959F932F936FE9E62E62E0F62E48
:10292000FF92EF92C0E7D5E0DF93CF930E942A4E4B
:10293000BE018FE899E00E949D4764E070E084E06A
:1029400090E00E94CD0860916506709166068091C6
:1029500067069091680624E049E00E94EB4D9F9342
:102960008F9320916906822F992787FD90959F93D9
:102970002F93FF92EF92DF93CF930E942A4EBE01D6
:102980008FE899E00E949D4760E070E086E090E06B
:102990000E94CD08609178067091790680917A0640
:1029A00090917B0626E04AE00E94EB4DBC01CE01EF
:1029B0000E94234EBE018FE899E00E949D4760E08F
:1029C00070E087E090E00E94CD0860917C067091F5
:1029D0007D0680917E0690917F0626E04AE00E9467
:1029E000EB4DBC01CE010E94234E8DB79EB74096A1
:1029F0000FB6F8949EBF0FBE8DBFBE0122C2253018
:102A000019F4662309F4ABC085E08093F8040E94B2
:102A1000170F60E070E082E090E00E94CD0863EB69
:102A200072E08FE899E00E949D4760E070E083E0EB
:102A300090E00E94CD0865EA72E08FE899E00E947C
:102A40009D4760E070E084E090E00E94CD086091D6
:102A500078067091790680917A0690917B0608E459
:102A600015E026E049E00E94EB4DBC0180E795E0CF
:102A70000E94234E60E775E08FE899E00E949D4731
:102A800060E070E085E090E00E94CD0860917C06F7
:102A900070917D0680917E0690917F0626E049E048
:102AA0000E94EB4DBC0180E795E00E94234E60E759
:102AB00075E08FE899E00E949D4760E070E086E055
:102AC00090E00E94CD08809144078F938091430746
:102AD0008F93809142078F93809141078F9380EC71
:102AE00092E09F938F93C0E7D5E0DF93CF930E944E
:102AF0002A4EBE018FE899E00E949D4760E070E099
:102B000087E090E00E94CD08809138078F938091F4
:102B100037078F93809136078F93809135078F9376
:102B200087EC92E09F938F93DF93CF930E942A4E7E
:102B3000BE018FE899E00E949D478DB79EB74096F1
:102B40000FB6F8949EBF0FBE8DBF809148078111CC
:102B500003C069E672E075C16DE172E072C160E0C8
:102B600070E084E090E00E94CD086091780670915A
:102B7000790680917A0690917B0608E415E026E0BC
:102B800049E00E94EB4DBC0180E795E00E94234E96
:102B900060E775E08FE899E00E949D4760E070E093
:102BA00085E090E00E94CD0860917C0670917D06E2
:102BB00080917E0690917F0626E049E00E94EB4DD1
:102BC000BC0180E795E00E94234E60E775E08FE846
:102BD00099E00E949D4764E070E086E090E00E94EA
:102BE000CD08809144078F93809143078F93809104
:102BF00042078F93809141078F9309ED11E01F9356
:102C00000F93C0E7D5E0DF93CF930E942A4EBE0119
:102C10008FE899E00E949D4764E070E087E090E0D3
:102C20000E94CD08809138078F93809137078F934A
:102C3000809136078F93809135078F931F930F9361
:102C4000DF93CF930E942A4EBE018FE899E00E9445
:102C50009D478DB79EB740960FB6F8949EBF0FBEA6
:102C60008DBF73CF263019F4662309F4F4C086E0D3
:102C70008093F8040E94170F60E070E082E090E01B
:102C80000E94CD086EEC72E08FE899E00E949D47AB
:102C900060E070E083E090E00E94CD0868ED72E0B3
:102CA0008FE899E00E949D4760E070E084E090E04A
:102CB0000E94CD0864EE72E080E795E00E94234E0A
:102CC000BEC0273019F4662309F448C087E080931A
:102CD000F8040E94170F60E070E082E090E00E942C
:102CE000CD0866EF72E08FE899E00E949D4760E0B2
:102CF00070E083E090E00E94CD08809185098F9379
:102D0000809184098F93809183098F9380918209A8
:102D10008F9381E093E09F938F9380E795E09F935B
:102D20008F930E942A4E60E775E08FE899E00E9439
:102D30009D4760E070E084E090E00E94CD086EE086
:102D400073E080E795E00E94234E8DB79EB708960A
:102D50000FB6F8949EBF0FBE8DBF71C069E070E0E2
:102D600083E090E00E94CD08809185098F93809147
:102D700084098F93809183098F93809182098F9327
:102D80008AE093E09F938F9380E795E09F938F93E2
:102D90000E942A4E8DB79EB708960FB6F8949EBF34
:102DA0000FBE8DBF4CC0283019F4662309F453C000
:102DB00088E08093F8040E94170F60E070E082E0E2
:102DC00090E00E94CD0861E273E08FE899E00E94F4
:102DD0009D4760E070E083E090E00E94CD08809124
:102DE00085098F93809184098F93809183098F93B4
:102DF000809182098F938EE293E09F938F9380E777
:102E000095E09F938F930E942A4E60E775E08FE8CC
:102E100099E00E949D4760E070E084E090E00E94AD
:102E2000CD086CE373E080E795E00E94234E8DB7F8
:102E30009EB708960FB6F8949EBF0FBE8DBF60E791
:102E400075E08FE899E0DF91CF911F910F91FF908E
:102E5000EF900C949D47DF91CF911F910F91FF90C0
:102E6000EF900895CF93DF9326E040E052EC61E0CD
:102E700070E082E29BE00E94704565EF71E082E2C3
:102E80009BE00E94AA4764EE72E082E29BE00E940F
:102E9000BC4765EE71E082E29BE00E94AA4784E5B0
:102EA00097E00E94D536882349F040E050E069ED74
:102EB00073E48FE598E00E94B63C06C069ED71E0CE
:102EC00082E29BE00E94AA4760E875E289EF94E005
:102ED0000E944A248FEA87BD80916E0082608093B1
:102EE0006E0062E08CE00E94E24362E08DE00E94AE
:102EF000E24310924C0710924D0710924E07109229
:102F00004F0761E08EE00E94E24382E00E94C71D0D
:102F10008FE899E00E9431258FE899E00E94F82817
:102F2000EC01C13483E9D80709F0BEC061E473E95C
:102F30008FE899E00E94F93260E070E08FE899E054
:102F40000E94E52E62E08FE899E00E94492360E04C
:102F50008FE899E00E94B33140E050E06FEF7FEFDF
:102F60008FE899E00E94552361E08FE899E00E9484
:102F70005B2360E070E082E090E00E94CD086BECA3
:102F800071E08FE899E00E94AA4766EC71E08FE853
:102F900099E00E94AA4764EE72E08FE899E00E94EF
:102FA000BC4768EB7BE080E090E00E94094360E072
:102FB00070E088E090E00E94CD086FEF7FEF8FE82F
:102FC00099E00E944F2362E08FE899E00E94492334
:102FD0006EE473E08FE899E00E94BC4761E673E01D
:102FE0008FE899E00E94BC476DE476E08AE799E0BB
:102FF0000E94180C61EB71E082E29BE00E94AA47FC
:103000006CE971E082E29BE00E947A4740917A0984
:1030100050917B0960917C0970917D092AE030E034
:1030200082E29BE00E94C84868E871E082E29BE08F
:103030000E947A4740917E0950917F0960918009F2
:10304000709181092AE030E082E29BE00E94C8484A
:1030500063E771E082E29BE00E947A474091820937
:103060005091830960918409709185092AE030E0CC
:1030700082E29BE00E94C84860E080910A010E94C1
:10308000B50F64E671E082E29BE00E94AA470E94CD
:10309000DA426093D8057093D9058093DA0590934E
:1030A000DB05DF91CF9108956AE471E082E29BE055
:1030B0000E947A4740E150E0BE0182E29BE0DF914E
:1030C000CF910C94B24810922507109226071092C7
:1030D000270710922807109231071092320710929A
:1030E0003307109234071092390710923A07109262
:1030F0003B0710923C07109247071092410710922D
:1031000042071092430710924407809178069091ED
:103110007906A0917A06B0917B0680932D07909353
:103120002E07A0932F07B093300780917C069091D3
:103130007D06A0917E06B0917F068093290790932B
:103140002A07A0932B07B0932C070E94170F65E75F
:1031500073E08FE899E00E94BC476CE873E08FE869
:1031600099E00E94BC4740912D0750912E07609135
:103170002F077091300728E030E08FE899E00E9437
:10318000C54961E973E08FE899E00E94BC4740912E
:10319000290750912A0760912B0770912C0728E08E
:1031A00030E08FE899E00E94C54960916A0670910D
:1031B0006B0680916C0690916D060E94284B60937F
:1031C0003D0770933E0780933F079093400760ED63
:1031D00077E080E090E00E94094361E080910A017D
:1031E0000C94B50F3F924F925F926F927F928F92A5
:1031F0009F92AF92BF92CF92DF92EF92FF920F9386
:103200001F93CF93DF93CDB7DEB7EF970FB6F89448
:10321000DEBF0FBECDBF0E94B40D8BEB99E00E94C4
:10322000424029AF3AAF4BAF5CAF6DAF7EAF09AD57
:103230001AAD8BAC9CAC61E089E10E94E24361E095
:1032400088E10E94E2438DAD9EAD0B978D3D93408A
:1032500008F05FC08FE899E00E9473235C01CC24E2
:10326000B7FCC094DC2CB801882777FD8095982F97
:103270001F921F921F921F9218E9E12E13E0F12E68
:1032800000E010E026E930E040E050E00E94D7493D
:103290002B013C018FE899E00E9477235C01CC244C
:1032A000B7FCC094DC2CB401882777FD8095982F5B
:1032B0001F921F921F921F921CEAE12E13E0F12E23
:1032C00000E010E028E730E040E050E00E94D749FD
:1032D0006F5071090FB6F894DEBF0FBECDBF693CC9
:1032E0007105BCF095E0491A5108E8E74E16510403
:1032F0004CF465E070E08EE00E94B70881E08093B6
:10330000460707C0F0EF4F1651041CF481E080938C
:1033100045078CE00E945144892B21F481E0809381
:10332000460708C08DE00E945144892B19F481E0C2
:103330008093450780914607882359F010924607ED
:103340000E94AE0861E080910A010E94B50F1092C0
:10335000DC0580914507882309F463C11092450775
:1033600080910A01873070F4823008F058C18130B2
:1033700009F055C165E070E08EE00E94B7080E9438
:1033800063184DC1873009F470C0883009F047C117
:103390006AE070E08EE00E94B70860E070E081E0D3
:1033A00090E00E94CD0821E040E269E170E080E712
:1033B00095E00E94720BBC018FE899E00E949D4746
:1033C00060E070E082E090E00E94CD0821E040E201
:1033D00069E170E080E795E00E94720BBC018FE824
:1033E00099E00E949D4760E070E083E090E00E94D9
:1033F000CD0821E040E269E170E080E795E00E94BD
:10340000720BBC018FE899E00E949D4760E070E07C
:1034100082E090E00E94CD0865EA73E080E795E0E5
:103420000E94234E60E775E08FE899E00E949D4777
:1034300080907E0990907F09A0908009B0908109CA
:103440008FE29AE2A0E089839A83AB836CE271E019
:1034500082E29BE00E94AA47F89401E010E0CE01CE
:1034600001967C01F8E33F2EB0C06AE070E08EE088
:103470000E94B70860E070E081E090E00E94CD0813
:1034800021E040E269E170E080E795E00E94720B84
:10349000BC018FE899E00E949D4760E070E082E007
:1034A00090E00E94CD0821E040E269E170E080E711
:1034B00095E00E94720BBC018FE899E00E949D4745
:1034C00060E070E083E090E00E94CD0821E040E2FF
:1034D00069E170E080E795E00E94720BBC018FE823
:1034E00099E00E949D4760E070E082E090E00E94D9
:1034F000CD0866E973E080E795E00E94234E60E71F
:1035000075E08FE899E00E949D478AE799E00E9464
:10351000AF0580C02A013B019FEF491A590A690A89
:10352000790A83EC99E00E94BB3FF60181936F0119
:1035300041145104F8E06F06710418F0412C512C2D
:103540003201B301A2014090860950908709609032
:10355000880970908909C6018E199F09A0E0B0E022
:1035600084159505A605B705A8F280917E0990916E
:103570007F09A0918009B0918109840D951DA61D38
:10358000B71DA770BB2780937E0990937F09A093F6
:103590008009B09381098DB79EB7C8970FB6F8948C
:1035A0009EBF0FBE8DBFADB7BEB71196F701832D7D
:1035B00001900D928A95E1F70E94FC080F5F1F4F62
:1035C0000FB6F894DEBF0FBECDBFA80160E070E07B
:1035D0008091820990918309A0918409B091850915
:1035E000481759076A077B0750F440917E095091AC
:1035F0007F0960918009709181096701A4CFAA2495
:10360000BB2480927E0990927F09A0928009B0929B
:103610008109789461E080910A010E94B50F1092AF
:10362000DC05C090D805D090D905E090DA05F0907F
:10363000DB050E94DA426C157D058E059F0550F46E
:103640000E94DA426093D8057093D9058093DA0519
:103650009093DB0584E597E00E947436882309F493
:10366000AEC18091DC058E7F8093DC0588E38FAF4F
:10367000C12CD12CE12CF12C00E010E09E012F5F39
:103680003F4FAE01415C5F4F6DE476E084E597E02B
:103690000E94ED38882309F4DDC10E94DA4260936C
:1036A000D8057093D9058093DA059093DB058FE5F3
:1036B00098E00E943338992787FD909590934B07A7
:1036C00080934A0780918006882309F4E4C08091A2
:1036D0004907811102C00E94631881E08093490765
:1036E0008091DC058D7F8093DC05A0907C06B090F6
:1036F0007D06C0907E06D0907F06E0907806F09020
:10370000790600917A0610917B0620912907309165
:103710002A0740912B0750912C0760912D0770913B
:103720002E0780912F0790913007E1E4F7E0FF9397
:10373000EF93E5E38E2EE7E09E2E0E94C605182F3C
:1037400080934807C0906A06D0906B06E0906C06A4
:10375000F0906D0680903D0790903E07A0903F0747
:10376000B09040076091390770913A0780913B070C
:1037700090913C07680D791D8A1D9B1D0E945B4B33
:103780009B01AC010F900F90C701B6010E94924CB3
:103790001816A4F4C501B4010E945B4B9B01AC0157
:1037A000C701B6010E942C4A0E94284B609339073A
:1037B00070933A0780933B0790933C0740913507FD
:1037C000509136076091370770913807111103C087
:1037D0001092470708C080914707811104C081E01B
:1037E000809347070DC08091310790913207A091D7
:1037F0003307B091340784179507A607B70744F439
:103800004093310750933207609333077093340726
:1038100026E53EE04DEE5FE3609158067091590653
:1038200080915A0690915B060E949D4C20E030E00A
:1038300040E85FE30E94B94A87FF08C0109258062B
:103840001092590610925A0610925B0626E53EE049
:103850004DEE5FE3609158067091590680915A06CB
:1038600090915B060E949D4C6B017C012091250785
:103870003091260740912707509128070E94924CCB
:10388000181674F4C0922507D0922607E0922707F5
:10389000F092280705C08091DC0582608093DC05EA
:1038A000C0907A09D0907B09E0907C09F0907D0966
:1038B0000DE416E0A8014D54564060E070E08091A0
:1038C000860990918709A0918809B09189094817C4
:1038D00059076A077B0760F5F80121918F01B7014D
:1038E000A60183EC99E00E94E63FD701C6019F70D4
:1038F000AA27BB27892B8A2B8B2B59F4B701A6014A
:10390000505F6F4F7F4F677077278AE799E00E947B
:103910003205FFEFCF1ADF0AEF0AFF0AC114D10404
:1039200028E0E206F10430F2C12CD12C7601C2CF9E
:10393000C0927A09D0927B09E0927C09F0927D09CD
:103940008091820990918309A0918409B0918509A1
:1039500040918A0950918B0960918C0970918D0971
:1039600084179507A607B70758F40196A11DB11D46
:103970008093820990938309A0938409B093850969
:103980008DB79EB7C8970FB6F8949EBF0FBE8DBF78
:10399000ADB7BEB7119688E3EDE4F6E001900D9265
:1039A0008A95E1F70E94FC080FB6F894DEBF0FBEBF
:1039B000CDBF60E080910A010E94B50F4BC00E940C
:1039C000DA420091D8051091D9052091DA0530919D
:1039D000DB0508571C4E2F4F3F4F061717072807C8
:1039E0003907C0F58091DC0581608093DC050E9479
:1039F000DA42609350077093510780935207909377
:103A0000530700914C0710914D0720914E073091BC
:103A10004F070053184F2F4F3F4F06171707280720
:103A20003907C0F460934C0770934D0780934E079D
:103A300090934F0765E070E08EE00E94B70864E65F
:103A400070E080E090E00E94094365E070E08EE065
:103A50000E94B7080E94DA420091D4051091D50562
:103A60002091D6053091D70560177107820793071B
:103A700050F40E94DA426093D4057093D505809388
:103A8000D6059093D7050E94DA420091D405109193
:103A9000D5052091D6053091D7050053184F2F4FEB
:103AA0003F4F061717072807390778F48091DC0580
:103AB00090E00E949C0B0E94DA426093D4057093C0
:103AC000D5058093D6059093D705EF960FB6F89459
:103AD000DEBF0FBECDBFDF91CF911F910F91FF9041
:103AE000EF90DF90CF90BF90AF909F908F907F909E
:103AF0006F905F904F903F900895CF93CFB7F89419
:103B00008091CD09811127C0E6ECF8E08491E6EAC6
:103B1000F8E09491E82FF0E0EE0FFF1FEA50F74F26
:103B2000A591B4918C91892321F461E084E00E94F5
:103B30001B4461E084E00E94E2438CB580618CBD4F
:103B40008CB580648CBD61E087E00E94E24361E057
:103B500085E00E94E2438091CD098F5F8093CD097B
:103B6000CFBFCF9108959FB7F8948091CD09882356
:103B700019F081508093CD098091CD09811105C044
:103B80008CB58F7B8CBD1092CC099FBF08952FB749
:103B9000F894813061F020F0823021F484E008C094
:103BA00081E006C082E08093CC0980E001C082E021
:103BB0009091CB09982B9093CB098091CC098111DE
:103BC00003C081E08093CC092FBF0895E091100AD3
:103BD000F091110AE817F90769F4A389B4899C9157
:103BE0008589809589238C931092110A1092100A6E
:103BF00081E0089580E00895CF93DF93EC018A8DF2
:103C00009B8D892BF1F08091100A9091110A8C17ED
:103C10009D07B9F0009711F00E94E61D8E8D8E7FF2
:103C20008E8F1092CF091092CE09D093110AC093B3
:103C3000100AEB89FC8980819D89892B808381E032
:103C400001C080E0DF91CF9108951F920F920FB6CF
:103C50000F9211240BB60F922F933F934F935F93C4
:103C60006F937F938F939F93AF93BF93EF93FF9344
:103C7000E091100AF091110A309709F451C0868D35
:103C8000A685B785958581FF04C08C91892329F489
:103C900047C08C91892309F043C0A389B4899C91C2
:103CA0008589809589238C93868997890197F1F777
:103CB000208D318DA685B785758558E040E0C90116
:103CC0000197F1F7842F90E095958795482F6C9197
:103CD000672309F04068515091F7868D81FD40952A
:103CE0008091CF0990E001968F7399272091CE099A
:103CF000281749F0A091CF09B0E0A053B64F4C93DC
:103D00008093CF0903C0868D8160868F828D938DCD
:103D10000197F1F7A389B4898C919589892B8C93AC
:103D2000FF91EF91BF91AF919F918F917F916F9193
:103D30005F914F913F912F910F900BBE0F900FBE4F
:103D40000F901F901895CF93DF93EC019A01AB0170
:103D50001B8E1A8E198E188E1F8A1E8A60E079E0DB
:103D60008DE390E00E94994DC9012430310520F087
:103D7000B9016350710902C061E070E07D8F6C8F02
:103D8000EC85EF3108F05AC0B9017695679564313A
:103D9000710518F06351710902C061E070E07F8B1A
:103DA0006E8B069718F0C901059702C081E090E07C
:103DB000998F888FC901880F991F820F931F96953D
:103DC0008795969587958D30910510F00C9702C0D8
:103DD00081E090E09B8F8A8F90916800E83030F00E
:103DE000E03130F0E83130F484E005C082E003C017
:103DF00088E001C081E0892B809368002C85283001
:103E000038F02E3040F0263148F48CE690E008C0BF
:103E10008DE690E005C08BE690E002C080E090E087
:103E20009C8B8B8B277081E090E001C0880F2A95D6
:103E3000EAF78D8B8C8D9D8D0197F1F7CE01DF9187
:103E4000CF910C94FC1D2F923F924F925F926F92F4
:103E50007F928F929F92AF92BF92CF92DF92EF921A
:103E6000FF920F931F93CF93DF9300D000D0CDB775
:103E7000DEB74C017C836B836A015901C80187015D
:103E8000AC014C195D0957FF03C05195419551098B
:103E900095016B817C81261B370B37FF03C0319561
:103EA0002195310922242394312C2417350714F04D
:103EB000212C312C2114310459F03A2D2B2D5C0189
:103EC000832F922F3B812C81DC82CB82C32ED22E7A
:103ED000AB81BC81AA16BB065CF43C2D2D2D6C0178
:103EE000832F922F3B812C81BC82AB82A32EB22EDA
:103EF0002501EB81FC814E1A5F0A3C016C187D089C
:103F000077FE03C0719461947108720157FE03C07B
:103F1000FFEFEF1AFF0AF594E794C816D9062CF4C0
:103F200021E030E03A83298324C06FEF7FEF7A836A
:103F300069831FC0D401ED91FC910480F581E02DCF
:103F4000980121143104D9F04B815C81B601C40180
:103F50000995E618F708F7FE06C0E981FA81CE0E4A
:103F6000DF1EE40CF51C2B813C812F5F3F4F3C830F
:103F70002B836B817C81A616B706E4F604C0A601EC
:103F80006B817C81E4CF0F900F900F900F90DF91A9
:103F9000CF911F910F91FF90EF90DF90CF90BF9046
:103FA000AF909F908F907F906F905F904F903F90D9
:103FB0002F9008956F927F928F929F92AF92BF92AF
:103FC000CF92DF92EF92FF920F931F93CF93DF93E5
:103FD000EC015B016A0139014801E881F981028441
:103FE000F385E02D87010995E881F981A601480D47
:103FF000591D415051090284F385E02D9301B5010B
:10400000CE010995E881F9810084F185E02D9401C4
:10401000A601B501CE010995E881F981B501660DCA
:10402000771D615071090084F185E02D9401A6018E
:10403000CE010995DF91CF911F910F91FF90EF90E5
:10404000DF90CF90BF90AF909F908F907F906F90B8
:104050000895EF92FF920F931F93DC01ED91FC9175
:10406000240F351F215031090680F781E02D78019A
:1040700089019B0109951F910F91FF90EF90089581
:10408000EF92FF920F931F93DC01ED91FC91260FAD
:10409000371F215031090680F781E02D78018A0110
:1040A00009951F910F91FF90EF9008956F927F9265
:1040B0008F929F92AF92BF92CF92DF92EF92FF9238
:1040C0000F931F93CF93DF935C014A01690138017D
:1040D000EB01C60ED71ECC15DD0574F4D501ED91AC
:1040E000FC910084F185E02D87019301A401BE01BC
:1040F000C50109952196EFCFDF91CF911F910F91C7
:10410000FF90EF90DF90CF90BF90AF909F908F90F7
:104110007F906F900895EF92FF920F931F93DC01B1
:10412000ED91FC9111971A960D911C911B97189681
:104130002D913C9119970684F785E02D7B0140E095
:1041400050E060E070E009951F910F91FF90EF90B3
:1041500008950895FC011382128288EB93E0918305
:104160008083758364835783468371876087538711
:104170004287158A158614861786168621E0248BB9
:104180008FEF9FEF938B828B918B808B268B178A7F
:10419000118E108E08952F923F924F925F926F92E0
:1041A0007F928F929F92AF92BF92CF92DF92EF92C7
:1041B000FF920F931F93CF93DF93CDB7DEB76A972C
:1041C0000FB6F894DEBF0FBECDBF1C0158874F83DA
:1041D0001C870B87FA86E986CC82DC0158964D91C4
:1041E0005C9159974115510509F0A6C018968D911B
:1041F0009C911997681779070CF056C11A968D9102
:104200009C911B97EF81F885E817F9070CF04CC1DA
:10421000D12CCB013C81F6E03F9F800D911D1124F4
:10422000181619060CF040C1C60103E0880F991F4B
:104230000A95E1F74F815885840F951F18161906C6
:104240000CF032C157968C91811103C0203B08F0CD
:104250002F5F7E876D874B0119821EE0A12E12E031
:10426000B12EA61AB70A55E0259FA00CB11C112447
:104270008981853039F0ED85FE85EA0DFB1D94912D
:104280009A8301C01A826F8078842301A8E0AD83ED
:10429000BA81B0FF12C0D101ED91FC91BC81B13067
:1042A00031F40480F581E02D2B853C8518C006840F
:1042B000F785E02DEB84FC841DC0E985FA852B850C
:1042C0003C85E217F307E1F0D101ED91FC91BC814F
:1042D000B13059F40480F581E02D29853A85A20199
:1042E0006D857E85C10109950BC00684F785E02D9B
:1042F000E984FA8486019601A301B401C1010995FC
:10430000EA81E695EA83FD81F150FD836C0C7D1C0A
:104310002FEF421A520AF111BBCF39813F5F398327
:104320008C0C9D1C4D855E854F5F5F4F5E874D8772
:10433000363009F09DCFB8C0FA01349634913297E7
:1043400085919491231BA7E02A9F800D911D112434
:10435000FA0125913491398B288BFC0145915491B8
:104360005A8F498FFC013296549159873196A49106
:10437000AF873196E491FC01359624913196849172
:10438000BC81B23050F0622E772467FC7094E82F25
:10439000FF27E7FDF095FE87ED87FC81CF2ED12C1E
:1043A0006C9C40016D9C900C7C9C900C1124860EA2
:1043B000971EA12C1982DE8ACD8AAB01420F511DB6
:1043C00027FD5A955E834D83AF81B885A80FB11D37
:1043D00087FDBA95B88FAF8B59818F85581708F034
:1043E00063C0852F90E02D853E85280F391F2C9DB9
:1043F000D0012D9DB00D3C9DB00D1124EF81F885AD
:10440000EA0FFB1FFB83EA836D807E802401FA2D77
:104410002D81F21BFA8B4F89588D480F591F5C8BE9
:104420004B8B9A89960D862D2D81821B398583179A
:10443000B0F5977061F4898D9A8D0196E889F989B4
:10444000298D3A8DE20FF31FB4909A8F898FB7FEB2
:104450001DC0D101ED91FC91BC81B13059F40480B3
:10446000F581E02D2B853C854B895C89B301C10129
:1044700009950CC00684F785E02DEB84FC84860149
:1044800096014A815B81B201C1010995BB0CED899E
:10449000FE894E0E5F1EFFEF6F1A7F0AC2CFA30E7A
:1044A00049814F5F498398CF6A960FB6F894DEBF73
:1044B0000FBECDBFDF91CF911F910F91FF90EF9075
:1044C000DF90CF90BF90AF909F908F907F906F9034
:1044D0005F904F903F902F900895AF92BF92CF92F0
:1044E000EF92FF920F931F93CF93DF93EC01262F50
:1044F000888D998D009709F042C06A3069F42C8943
:104500008E859F8538E0239F800D911D11249F8704
:104510008E871D861C86ABC06D3009F4A8C08E89BD
:104520008823C1F03C898C859D8546E0349F800DB1
:10453000911D112448855985841795075CF01D86C7
:104540001C868E859F85E8E03E9F800D911D11247D
:104550009F878E87EA88FB88088919894E855F8541
:104560006C857D85CC88CE010E94CB202C898C85E2
:104570009D85F6E02F9F800D911D112441C06A306A
:1045800079F41D861C864C89FC01369684912E8513
:104590003F85489F200D311D11243F872E8767C01E
:1045A0006D3009F464C0AC014C5F5F4FFA01349187
:1045B000631708F45CC03196E491E61708F457C01D
:1045C000FA014491362F341BFC013296A590B49029
:1045D000F7E03F9FA00CB11C1124F5013296A49185
:1045E0003196E491AA2311F0E1110DC0F501349642
:1045F000A4902C898C859D85A29E800D911D1124EF
:104600009D878C8734C0F5013596E4913E8933232C
:1046100009F13C89B0E0AE0FB11DE7FDBA953A9FB4
:10462000A0013B9F500D11246C857D85460F571FBF
:1046300068857985461757076CF01D861C86FC0136
:10464000369684914E855F85389F400D511D11240B
:104650005F874E87EA88FB88088919894E855F85C0
:104660006C857D85CC88CE010E94CB20BFCF81E0B8
:1046700090E0DF91CF911F910F91FF90EF90CF903D
:10468000BF90AF900895FC01758764875787468770
:104690000895611101C061E0FC01648B0895FC0183
:1046A000738B628B718B608B0895FC01718B608BB7
:1046B000538B428B0895FC01668B0895FC01637057
:1046C000658B8481958126813781613039F0633033
:1046D00029F0918780873387228708953187208743
:1046E000938782870895FC01808591850895FC0158
:1046F000828593850895CF93DF93FC01E65BFF4F9E
:104700002081222311F080E065C0EC01C55BDF4F02
:10471000A881B981109741F0ED91FC911197048027
:10472000F581E02DCD010BC0EC01C35BDF4F88812B
:104730009981DC01ED91FC910480F581E02D0995D2
:10474000892B09F388819981DC01ED91FC91068028
:10475000F781E02D09958A3049F59091170AE0918B
:10476000150AF091160AE90FF11D10822091150A21
:104770003091160ABAE020393B0739F448E15AE093
:104780005093160A4093150A08C020E93AE0309386
:10479000160A2093150A28E13AE03093140A209370
:1047A000130A1092170A91E09093120AE091150AE9
:1047B000F091160A9091170A21E0290F2093170A09
:1047C000E90FF11D80839091170A983718F097E749
:1047D0009093170ADF91CF910895FC01DC01A55B4E
:1047E000BF4F11961C921E92129611961C921E9209
:1047F0001092120A13971C921092170A80E99AE0FD
:104800009093160A8093150A88E19AE09093140A0F
:104810008093130A15AE14AE15821482138212828D
:104820001182108212AE11AE10AE13AE1782168234
:1048300014AA15AA16AA17AA10AA11AA12AA13AA8C
:1048400014A615A616A617A610A611A612A613A69C
:1048500014A215A216A217A210A211A212A213A2AC
:10486000148615861686178610861186128613867C
:1048700008950F931F93CF93DF93EC018B010E9458
:10488000ED23C35BDF4F19830883DF91CF911F9125
:104890000F910895FC01E55BFF4F20813181AB0151
:1048A00060E070E02115310521F0C9010E94A31ECE
:1048B00008C0FC01E35BFF4F26E0808191810E94EC
:1048C00070456AE070E080E090E00C940943FC01E0
:1048D0008FEF81B9158A158614861786168681E0B2
:1048E000848B8FEF9FEF918B808B80EF90E091878F
:1048F000808780E491E09387828708959F92AF92AA
:10490000BF92CF92DF92EF92FF920F931F93CF93BC
:10491000DF93EC01A62EF42EB22E902E40E451E04F
:1049200060EF70E00E94AA2085EE93E0998388836F
:10493000EBA66A2D70E0FB01EE53F74FE491F0E037
:10494000EE0FFF1FE451F74FA591B491BC8FAB8FD1
:104950004F2D50E0FA01EE53F74FE491F0E0EE0FE7
:10496000FF1FE451F74F859194919E8F8D8F2B2DD2
:1049700030E0F901EE53F74FE491F0E0EE0FFF1F46
:10498000E451F74F8591949198A38F8F10E0F8012F
:10499000EE53F74FE491F0E0EE0FFF1FE451F74FB5
:1049A000C590D490DAA2C9A2FB01EE55F74F6491ED
:1049B0006BA3FA01EE55F74F44914CA3F901EE5564
:1049C000F74F24912DA3F801EE55F74F04910EA354
:1049D0009BA1892F80958FA38CA1809588A78DA1FD
:1049E000809589A700950AA78C91892B8C93ED8DD2
:1049F000FE8D80819CA1892B8083EF8DF8A1808121
:104A00009DA1892B8083E9A1FAA180819EA1892B98
:104A1000808361E08A2D0E94E24361E08F2D0E9435
:104A2000E24361E08B2D0E94E24361E0892D0E9408
:104A3000E243EE2041F061E08E2D0E941B4461E0D4
:104A40008E2D0E94E243CE01DF91CF911F910F91F5
:104A5000FF90EF90DF90CF90BF90AF909F900C941D
:104A60006724CF93DF93EC01EB8DFC8D80819BA1BC
:104A7000892B8083EF8DF8A180819DA1892B808374
:104A8000E9A1FAA180819EA1892B80838BA588232F
:104A900069F060E00E941B4462E070E080E090E01A
:104AA0000E94094361E08BA50E941B44EB8DFC8DA5
:104AB00080819FA189238083ED8DFE8D808198A5C3
:104AC0008923808312B8EF8DF8A1808199A589236D
:104AD0008083EF8DF8A180819DA1892B808383E065
:104AE000EF8DF8A1908129A592239083EF8DF8A1F5
:104AF00090812DA1922B9083815091F7EB8DFC8DAD
:104B000080819BA1892B8083DF91CF910895FC0147
:104B1000A38DB48D8C9197A189238C9380859185E9
:104B20009C01215031098150A58DB68D9C9120A505
:104B300092239C9394E092B9A78DB0A19C9121A55A
:104B400092239C93A78DB0A19C9125A1922B9C931D
:104B5000A58DB68D9C9124A1922B9C9332B9A78DE3
:104B6000B0A19C9121A592239C93A78DB0A19C916B
:104B700025A1922B9C93A58DB68D9C9120A5922367
:104B80009C9395E092B9A78DB0A19C9121A5922309
:104B90009C93A78DB0A19C9125A1922B9C93A58D50
:104BA000B68D9C9124A1922B9C9382B9A78DB0A124
:104BB0008C9191A589238C93A78DB0A18C9195A1FF
:104BC000892B8C93828593859C01215031098150DA
:104BD000A58DB68D9C9120A592239C9398E092B9C7
:104BE000A78DB0A19C9121A592239C93A78DB0A1E4
:104BF0009C9125A1922B9C93A58DB68D9C9124A16F
:104C0000922B9C9332B9A78DB0A19C9121A59223A0
:104C10009C93A78DB0A19C9125A1922B9C93A58DCF
:104C2000B68D9C9120A592239C9399E092B9A78D73
:104C3000B0A19C9121A592239C93A78DB0A19C919A
:104C400025A1922B9C93A58DB68D9C9124A1922B8E
:104C50009C9382B9A78DB0A18C9191A589238C9347
:104C6000A78DB0A18C9195A1892B8C93A38DB48D28
:104C70008C9193A1892B8C930895FF920F931F938E
:104C8000CF93DF93FC01EB01A38DB48D8C9197A1A1
:104C900089238C93A58DB68D8C9190A589238C93B7
:104CA000828D823091F081110EC012B8A78DB0A113
:104CB0008C9191A589238C93A78DB0A18C9195A1FE
:104CC000892B8C9304C0833011F48CE201C082E202
:104CD00082B9A78DB0A18C9191A589238C93A78DC2
:104CE000B0A18C9195A1892B8C93A58DB68D8C91BB
:104CF00094A1892B8C93D2B9A78DB0A18C9191A549
:104D000089238C93A78DB0A18C9195A1892B8C932D
:104D1000C2B9A78DB0A18C9191A589238C93A78D41
:104D2000B0A18C9195A1892B8C93BA01A901415016
:104D30005109610971098A019B0196E03695279511
:104D4000179507959A95D1F780E090E0DC13FEC0A7
:104D50000817190709F466C020E1A78DB0A13C919E
:104D6000C1A53C233C93A78DB0A13C91C5A13C2B90
:104D70003C93A78DB0A13C91C1A53C233C93A78D4A
:104D8000B0A13C91C5A13C2B3C93A78DB0A13C9117
:104D9000C1A53C233C93A78DB0A13C91C5A13C2B60
:104DA0003C93A78DB0A13C91C1A53C233C93A78D1A
:104DB000B0A13C91C5A13C2B3C93A78DB0A13C91E7
:104DC000C1A53C233C93A78DB0A13C91C5A13C2B30
:104DD0003C93A78DB0A13C91C1A53C233C93A78DEA
:104DE000B0A13C91C5A13C2B3C93A78DB0A13C91B7
:104DF000C1A53C233C93A78DB0A13C91C5A13C2B00
:104E00003C93A78DB0A13C91C1A53C233C93A78DB9
:104E1000B0A13C91C5A13C2B3C93215009F09DCF02
:104E2000019696CF4F734150C8F0A78DB0A18C91D9
:104E300091A589238C93A78DB0A18C9195A1892BE5
:104E40008C93A78DB0A18C9191A589238C93A78D6C
:104E5000B0A18C9195A1892B8C93E5CFA38DB48DB6
:104E60008C9193A1892B8C93DF91CF911F910F91FE
:104E7000FF900895D2B9A78DB0A13C91F1A43F2134
:104E80003C93A78DB0A13C91F5A03F293C93C2B9BA
:104E9000A78DB0A13C91F1A43F213C93A78DB0A177
:104EA0003C91F5A03F293C93D2B9A78DB0A13C918C
:104EB000F1A43F213C93A78DB0A13C91F5A03F29DF
:104EC0003C93C2B9A78DB0A13C91F1A43F213C9382
:104ED000A78DB0A13C91F5A03F293C93D2B9A78DF5
:104EE000B0A13C91F1A43F213C93A78DB0A13C918E
:104EF000F5A03F293C93C2B9A78DB0A13C91F1A484
:104F00003F213C93A78DB0A13C91F5A03F293C9354
:104F1000D2B9A78DB0A13C91F1A43F213C93A78DBC
:104F2000B0A13C91F5A03F293C93C2B9A78DB0A197
:104F30003C91F1A43F213C93A78DB0A13C91F5A0F9
:104F40003F293C93215009F095CF01960817190786
:104F500011F020E18FCF4F73415008F47FCFD2B9C9
:104F6000A78DB0A18C9191A589238C93A78DB0A119
:104F70008C9195A1892B8C93C2B9A78DB0A18C91EE
:104F800091A589238C93A78DB0A18C9195A1892B94
:104F90008C93E2CFFC01A1A1B2A18C9192A58923AF
:104FA0008C9300C000C000C0000080B1A1A1B2A1DC
:104FB0009C9126A1922B9C930895CF92DF92EF9221
:104FC000FF92CF93DF93EC01EB8DFC8D80819FA14D
:104FD00089238083ED8DFE8D808198A58923808330
:104FE00062B9EF8DF8A1808199A589238083EF8D27
:104FF000F8A180819DA1892B808311B8ED8DFE8D54
:1050000080819CA1892B808382E390E00E944343AE
:10501000CE010E94CA27C82ED12CE12CF12CFE2CE7
:10502000ED2CDC2CCC24CE010E94CA27C82AFE2CF1
:10503000ED2CDC2CCC24CE010E94CA27C82AFE2CE1
:10504000ED2CDC2CCC24CE010E94CA27EB8DFC8DEC
:1050500090812BA1922B90839FEF91B9A70196018C
:10506000282BCA01B901DF91CF91FF90EF90DF901B
:10507000CF900895CF92DF92EF92FF920F931F93FC
:10508000CF93DF9300D000D0CDB7DEB78C01DC0129
:105090005B96ED91FC915C97808197969C91979798
:1050A000892380835D96ED91FC915E97808198962F
:1050B0009C9198978923808362B95F96ED91FC91CA
:1050C0009097808199969C919997892380835F9688
:1050D000ED91FC919097808195969C919597892B65
:1050E00080835D96ED91FC915E97808194969C9172
:1050F000892B80838AE090E029833A834B835C8309
:105100000E94434329813A814B815C81CA01AA27CD
:10511000BB2782B9D8015F96ED91FC919097808171
:1051200099969C919997892380835F96ED91FC9144
:105130009097808195969C91892B80838AE090E05E
:1051400029833A834B835C830E94434329813A81BC
:105150004B815C81C32ED42EE52EFF24C2B8D8012A
:105160005F96ED91FC919097808199969C9199978B
:10517000892380835F96ED91FC919097808195962D
:105180009C91892B80838AE090E029833A834B832A
:105190005C830E944343298122B9D8015F96ED9137
:1051A000FC919097808199969C919997892380830F
:1051B0005F96ED91FC919097808195969C91959743
:1051C000892B80835B96ED91FC915C97808193960F
:1051D0009C91892B80830F900F900F900F90DF91FF
:1051E000CF911F910F91FF90EF90DF90CF90089596
:1051F0001F93CF93DF93EC0164E00E94DD276115DC
:1052000070488105910509F449C063EDCE010E9403
:10521000DD276134734909F45CC0EB8DFC8D80811E
:105220009FA189238083ED8DFE8D808198A58923A0
:10523000808312B8EF8DF8A1808199A5892380839E
:10524000EF8DF8A180819DA1892B8083EF8DF8A13E
:10525000808199A589238083EF8DF8A180819DA10C
:10526000892B808311B8ED8DFE8D80819CA1892BC7
:105270008083CE010E94CA27182FCE010E94CA2720
:105280009FEF91B9EB8DFC8D90812BA1922B908398
:10529000212F30E0322F2227282B1DC027E533E8AD
:1052A0004FEF50E069EBCE010E943A286CE271E0CA
:1052B00080E090E00E94094360EDCE010E94DD276E
:1052C000611571058949910509F09FCF27E533E8FC
:1052D00002C021E433E9C901DF91CF911F91089504
:1052E000CF92DF92EF92FF920F931F93CF93DF93B2
:1052F00000D000D0CDB7DEB78C01DC015B96ED911C
:10530000FC915C97808197969C91979789238083E5
:105310005D96ED91FC915E97808198969C9198970F
:105320008923808362B95F96ED91FC91909780818B
:1053300099969C919997892380835F96ED91FC9132
:105340009097808195969C919597892B80835D9607
:10535000ED91FC915E97808194969C91892B80833E
:105360008AE090E029833A834B835C830E94434325
:1053700029813A814B815C81852F9927AA27BB27F8
:1053800082B9D8015F96ED91FC91909780819996B2
:105390009C919997892380835F96ED91FC919097DA
:1053A000808195969C91892B80838AE090E0298367
:1053B0003A834B835C830E94434329813A814B812A
:1053C0005C81CA01AA27BB2782B9D8015F96ED91FB
:1053D000FC919097808199969C91999789238083DD
:1053E0005F96ED91FC919097808195969C91892B89
:1053F00080838AE090E029833A834B835C830E9418
:10540000434329813A814B815C81C32ED42EE52E02
:10541000FF24C2B8D8015F96ED91FC9190978081EE
:1054200099969C919997892380835F96ED91FC9141
:105430009097808195969C91892B80838AE090E05B
:1054400029833A834B835C830E944343298122B999
:10545000D8015F96ED91FC919097808199969C91EF
:105460009997892380835F96ED91FC919097808135
:1054700095969C919597892B80835B96ED91FC91F5
:105480005C97808193969C91892B80830F900F90DD
:105490000F900F90DF91CF911F910F91FF90EF90A0
:1054A000DF90CF900895EF92FF920F931F93CF93C9
:1054B000DF93EC017A01C901EB8DFC8D20813FA1C6
:1054C000232320832A8D2111B2C12D89223081F01E
:1054D000233019F1213079F52FEE30E0F901E01B8E
:1054E000F10B241B350BAB01D9018C01C90112C092
:1054F0002FEE30E0F901E81BF90BC901861B970B71
:105500002FE331E0B901601B710B8901041B150BFE
:10551000A801DC017B01BF010FC02FE331E0F901DD
:10552000E81BF90B261B370BA901D701C80189011C
:10553000B7017F0101C0DB01ED8DFE8D208138A513
:105540002323208312B8EF8DF8A1208139A52323CE
:105550002083EF8DF8A120813DA1232B208320E51E
:1055600022B9EF8DF8A1208139A523232083EF8D67
:10557000F8A120813DA1232B2083ED8DFE8D20817C
:105580003CA1232B208372B9EF8DF8A1208139A58E
:1055900023232083EF8DF8A120813DA1232B20839D
:1055A00062B9EF8DF8A1208139A523232083EF8DE7
:1055B000F8A120813DA1232B2083ED8DFE8D20813C
:1055C00038A52323208312B8EF8DF8A1208139A5B7
:1055D00023232083EF8DF8A120813DA1232B20835D
:1055E00021E522B9EF8DF8A1208139A5232320835D
:1055F000EF8DF8A120813DA1232B2083ED8DFE8D21
:1056000020813CA1232B208392B9EF8DF8A19081BA
:1056100029A592239083EF8DF8A190812DA1922B43
:10562000908382B9EF8DF8A1808199A58923808329
:10563000EF8DF8A180819DA1892B8083ED8DFE8D5A
:10564000808198A58923808312B8EF8DF8A180818D
:1056500099A589238083EF8DF8A180819DA1892B55
:10566000808382E582B9EF8DF8A1808199A5892395
:105670008083EF8DF8A180819DA1892B8083ED8DA2
:10568000FE8D80819CA1892B8083F2B8EF8DF8A1DB
:10569000808199A589238083EF8DF8A180819DA1C8
:1056A000892B8083E2B8EF8DF8A1808199A58923A9
:1056B0008083EF8DF8A180819DA1892B8083ED8D62
:1056C000FE8D808198A58923808312B8EF8DF8A183
:1056D000808199A589238083EF8DF8A180819DA188
:1056E000892B808383E582B9EF8DF8A1808199A50C
:1056F00089238083EF8DF8A180819DA1892B8083F0
:10570000ED8DFE8D80819CA1892B808312B9EF8D58
:10571000F8A1808199A589238083EF8DF8A18081EC
:105720009DA1892B808302B9EF8DF8A1808199A575
:1057300089238083EF8DF8A180819DA1892B8083AF
:10574000ED8DFE8D808198A58923808312B8EF8D21
:10575000F8A1808199A589238083EF8DF8A18081AC
:105760009DA1892B808380E282B9EF8DF8A1808191
:1057700099A589238083EF8DF8A180819DA1892B34
:105780008083ED8DFE8D80819CA1892B8083B2B9B1
:10579000EF8DF8A1808199A589238083EF8DF8A1F1
:1057A00080819DA1892B8083A2B9EF8DF8A1808192
:1057B00099A589238083EF8DF8A180819DA1892BF4
:1057C0008083ED8DFE8D808198A58923808312B81A
:1057D000EF8DF8A1808199A589238083EF8DF8A1B1
:1057E00080819DA1892B808381E282B9EF8DF8A110
:1057F000808199A589238083EF8DF8A180819DA167
:10580000892B8083ED8DFE8D80819CA1892B8083E7
:1058100052B9EF8DF8A1808199A589238083EF8DFE
:10582000F8A180819DA1892B808342B92FC12130AD
:1058300009F039C1ED8DFE8D208138A52323208309
:1058400022E022B9EF8DF8A1208139A523232083FE
:10585000EF8DF8A120813DA1232B2083ED8DFE8DBE
:1058600020813CA1232B208372B9EF8DF8A12081E8
:1058700039A523232083EF8DF8A120813DA1232B7F
:105880002083ED8DFE8D208138A52323208323E006
:1058900022B9EF8DF8A1208139A523232083EF8D34
:1058A000F8A120813DA1232B2083ED8DFE8D208149
:1058B0003CA1232B208362B9EF8DF8A1208139A56B
:1058C00023232083EF8DF8A120813DA1232B20836A
:1058D000ED8DFE8D208138A52323208326E022B97B
:1058E000EF8DF8A1208139A523232083EF8DF8A126
:1058F00020813DA1232B2083ED8DFE8D20813CA1B5
:10590000232B2083F2B8EF8DF8A1208139A5232322
:105910002083EF8DF8A120813DA1232B2083ED8DE5
:10592000FE8D208138A52323208327E022B9EF8D27
:10593000F8A1208139A523232083EF8DF8A12081B0
:105940003DA1232B2083ED8DFE8D20813CA1232BB7
:10595000208342B9EF8DF8A1208139A5232320832C
:10596000EF8DF8A120813DA1232B2083ED8DFE8DAD
:10597000208138A52323208324E022B9EF8DF8A1CC
:10598000208139A523232083EF8DF8A120813DA11B
:10599000232B2083ED8DFE8D20813CA1232B2083A2
:1059A00092B9EF8DF8A1908129A592239083EF8D74
:1059B000F8A190812DA1922B9083ED8DFE8D908189
:1059C00028A59223908395E092B9EF8DF8A190815C
:1059D00029A592239083EF8DF8A190812DA1922B80
:1059E0009083ED8DFE8D90812CA1922B908382B9B6
:1059F000EF8DF8A1808199A589238083EF8DF8A18F
:105A000080819DA1892B8083ED8DFE8D808198A55D
:105A10008923808388E082B9EF8DF8A1808199A5E0
:105A200089238083EF8DF8A180819DA1892B8083BC
:105A3000ED8DFE8D80819CA1892B808312B9EF8D25
:105A4000F8A1808199A589238083EF8DF8A18081B9
:105A50009DA1892B8083ED8DFE8D808198A5892362
:105A6000808389E082B9EF8DF8A1808199A589238F
:105A70008083EF8DF8A180819DA1892B8083ED8D9E
:105A8000FE8D80819CA1892B808302B9EF8DF8A1C6
:105A9000808199A589238083EF8DF8A180819DA1C4
:105AA000892B80832BC02250223040F5AB01662722
:105AB00057FD6095762F33272227AA2797FDA095BB
:105AC000BA2F282B392B4A2B5B2B6AE2CE010E947E
:105AD0007029C701AA2797FDA095BA2FAC013327DB
