:100000000C9437040C94F52E0C94202F0C944B2F49
:100010000C94341A0C94341A0C94341A0C94341A28
:100020000C9466040C9466040C9466040C946604A8
:100030000C9466040C94752A0C9466040C94660463
:100040000C940E0B0C9466040C94762F0C9466049E
:100050000C9490320C94C6320C9466040C94660492
:100060000C9466040C9466040C9466040C94660468
:100070000C943D330C9473330C9466040C94660416
:100080000C9466040C9466040C946604100D160E11
:10009000C90F0B1152128513B41326148530883002
:1000A0007B307F309F309F308C30903096309A304C
:1000B000084AD73B3BCE016E84BCBFFDC12F3D6CCF
:1000C00074319ABD56833DDA3D00C77F11BED9E435
:1000D000BB4C3E916BAAAABE000000803F072C7A61
:1000E000A5BA6CC590DA3B9365FC8BBC53F810FD48
:1000F0003C5692834DBD879D3AB63DCBC9BF5BBE92
:1001000073DA0FC93F05A84CCDB2D44EB93836A921
:10011000020C50B9918688083CA6AAAA2ABE000003
:1001200000803F002A0024002A0024000A2A2A2AEC
:100130002A2A2A2A2A2020204C6F672064756D7095
:10014000202A2A2A2A2A2A2A2A005365747570200E
:1001500066696E6973686564004C6F67202320725E
:1001600065636F7264732073617665643A004C6FE7
:1001700067206E65787420726561642061646472C2
:100180003A004C6F67206E657874207772697465E9
:1001900020616464723A004C6F672064617461206E
:1001A000696E697469616C697A656400696E697405
:1001B000206661696C656400496E697469616C6987
:1001C0007A696E672E2E2E0047505320414E4420F0
:1001D00054454C454D45545259204D4F44554C457E
:1001E0000000000000003E5B4F5B3E3E6B4F6B3EED
:1001F0001C3E7C3E1C183C7E3C181C577D571C1C2A
:100200005E7F5E1C00183C1800FFE7C3E7FF001884
:10021000241800FFE7DBE7FF30483A060E2629796D
:100220002926407F050507407F05253F5A3CE73CCE
:100230005A7F3E1C1C08081C1C3E7F14227F22147F
:100240005F5F005F5F06097F017F006689956A60D6
:100250006060606094A2FFA29408047E04081020ED
:100260007E201008082A1C08081C2A08081E1010E6
:1002700010100C1E0C1E0C30383E3830060E3E0E90
:1002800006000000000000005F00000007000700FB
:10029000147F147F14242A7F2A12231308646236E1
:1002A000495620500008070300001C22410000416D
:1002B000221C002A1C7F1C2A08083E0808008070A7
:1002C00030000808080808000060600020100804DA
:1002D000023E5149453E00427F400072494949462D
:1002E0002141494D331814127F1027454545393CAB
:1002F0004A49493141211109073649494936464998
:1003000049291E00001400000040340000000814B9
:100310002241141414141400412214080201590932
:10032000063E415D594E7C1211127C7F4949493687
:100330003E414141227F4141413E7F494949417F00
:10034000090909013E414151737F0808087F0041B6
:100350007F41002040413F017F081422417F4040FF
:1003600040407F021C027F7F0408107F3E414141D4
:100370003E7F090909063E4151215E7F0919294640
:10038000264949493203017F01033F4040403F1F56
:100390002040201F3F4038403F631408146303048B
:1003A0007804036159494D43007F414141020408EB
:1003B0001020004141417F040201020440404040BE
:1003C00040000307080020545478407F28444438F4
:1003D0003844444428384444287F3854545418003E
:1003E000087E090218A4A49C787F080404780044BD
:1003F0007D40002040403D007F1028440000417FA8
:1004000040007C047804787C080404783844444430
:1004100038FC1824241818242418FC7C0804040828
:10042000485454542404043F44243C4040207C1C41
:100430002040201C3C4030403C44281028444C9034
:1004400090907C4464544C4400083641000000778E
:100450000000004136080002010204023C26232667
:100460003C1EA1A161123A4040207A38545455599B
:1004700021555579412254547842215554784020D1
:10048000545579400C1E52721239555555593954EC
:1004900054545939555454580000457C4100024584
:1004A0007D420001457C407D1211127DF0282528F7
:1004B000F07C545545002054547C547C0A097F49F3
:1004C00032494949323A4444443A324A4848303A37
:1004D0004141217A3A42402078009DA0A07D3D42D2
:1004E00042423D3D4040403D3C24FF2424487E495B
:1004F00043662B2FFC2F2BFF0929F620C0887E098D
:100500000320545479410000447D413048484A3228
:10051000384040227A007A0A0A727D0D19317D2610
:1005200029292F28262929292630484D40203808F6
:1005300008080808080808382F10C8ACBA2F102877
:1005400034FA00007B000008142A142222142A1412
:10055000085500550055AA55AA55AAFF55FF55FF45
:10056000000000FF00101010FF00141414FF001012
:1005700010FF00FF1010F010F0141414FC001414FD
:10058000F700FF0000FF00FF1414F404FC1414171C
:10059000101F10101F101F1414141F00101010F043
:1005A000000000001F101010101F10101010F0108D
:1005B000000000FF101010101010101010FF10009D
:1005C0000000FF140000FF00FF00001F10170000D4
:1005D000FC04F414141710171414F404F40000FFAE
:1005E00000F714141414141414F700F71414141747
:1005F0001410101F101F141414F4141010F010F025
:1006000000001F101F0000001F14000000FC140059
:1006100000F010F01010FF10FF141414FF1410104D
:10062000101F00000000F010FFFFFFFFFFF0F0F0D0
:10063000F0F0FFFFFF0000000000FFFF0F0F0F0FA3
:100640000F3844443844FC4A4A4A347E02020606C3
:10065000027E027E0263554941633844443C0440B3
:100660007E201E2006027E020299A5E7A5991C2A7B
:10067000492A1C4C7201724C304A4D4D303048783A
:100680004830BC625A463D3E494949007E0101015D
:100690007E2A2A2A2A2A44445F444440514A44403C
:1006A00040444A51400000FF0103E080FF00000881
:1006B000086B6B083612362436060F090F06000049
:1006C00018180000001010003040FF0101001F0149
:1006D000011E00191D1712003C3C3C3C00000000AC
:1006E0000072740092740048940078C40000000006
:1006F000010200090A0000000004030807000000CE
:1007000000000000000000000000000000010204E2
:1007100008102040800102040810204080010204DB
:1007200008102040800102040810204080020202CC
:100730000202020202040404040404040403030386
:100740000303030303010101010101010100002072
:100750000023002600290000002200250028002B8D
:100760000000002100240027002A0000407A10F336
:100770005A00A0724E18090010A5D4E80000E876CF
:1007800048170000E40B54020000CA9A3B00000026
:10079000E1F505000080969800000040420F00003F
:1007A00000A08601000000102700000000E8030000
:1007B0000000006400000000000A000000000001CA
:1007C00000000000002C76D888DC674F0823DFC1CA
:1007D000DFAE59E1B1B796E5E3E453C63AE6519985
:1007E0007696E8E6C28426EB898C9B62ED407C6FAE
:1007F000FCEFBC9C9F40F2BAA56FA5F490055A2A65
:10080000F75C936B6CF9676DC11BFCE0E40D47FE70
:10081000F520E6B500D0ED902E0300943577050065
:1008200080841E080000204E0A000000C80C3333EC
:1008300033330F986E12831141EF8D2114893BE6FB
:100840005516CFFEE6DB18D1844B381BF77C1D9084
:100850001DA4BBE424203284725E228100C9F124ED
:10086000ECA1E53D2700A00C2E27FA32A733112476
:100870001FBECFEFD0E4DEBFCDBF14E0A0E0B1E0FB
:10088000E4EFFEE700E00BBF02C007900D92A63F29
:10089000B107D9F72CE0A6EFB4E001C01D92AD344A
:1008A000B207E1F718E0CEE6D8E000E006C02297F4
:1008B0000109FE010BBF0E940F3AC636D10780E046
:1008C0000807A9F70E94EB330C94783F0C940000C2
:1008D0008F929F92AF92BF92CF92DF92EF92FF9250
:1008E000CF93DF93EC016A017B0184EB99E00E94D6
:1008F0003D2E8F3FD1F5B701A6014150504F6F4FAC
:100900007F4F84EB99E00E943D2E8F3F71F58C89DB
:10091000882309F44FC080E1D80EE11CF11C61E18D
:1009200071E083E19BE00E945B342AE030E0B70194
:10093000A60183E19BE00E947035B701A60184EB1C
:1009400099E00E943D2E460157019FEF891A990AAE
:10095000A90AB90A8F32F1F4B501A40184EB99E038
:100960000E943D2E8A32B1F421C0B701A60184EB6A
:1009700099E00E949F2E68E271E083E19BE00E9473
:100980005B342AE030E0B701A60183E19BE00E94DE
:100990007035BDCF750164018114910488E0A8060B
:1009A000B10458F2C12CD12C7601C7CFCC82DD82A4
:1009B000EE82FF82DF91CF91FF90EF90DF90CF909A
:1009C000BF90AF909F908F900895CF93DF93EC01ED
:1009D00084EB99E00E94932E1C821D821E821F824E
:1009E000188219821A821B82188619861A861B861B
:1009F0001C8ADF91CF9108954F925F926F927F9200
:100A00008F929F92AF92BF92CF92DF92EF92FF921E
:100A10000F931F93CF93DF93CDB7DEB7A4970FB695
:100A2000F894DEBF0FBECDBF29A33AA34BA35CA3AE
:100A3000E986FA860B871C87840125E33AEF4EE8A6
:100A40005CE30E94FE382B013C0125E33AEF4EE8BF
:100A50005CE369A17AA18BA19CA10E94FE386D87FD
:100A60007E878F87988B0E941E376D8B7E8B8F8B36
:100A7000988FC301B2010E941E3769837A838B83EA
:100A80009C839B01AC016D897E898F89988D0E9422
:100A9000FE386D8B7E8B8F8B988F6D857E858F85D5
:100AA00098890E94613929813A814B815C810E9439
:100AB000FE3869837A838B839C83C301B2010E94D1
:100AC00061396D837E838F83988725E33AEF4EE803
:100AD0005CE369857A858B859C850E94FE382B01B5
:100AE0003C0125E33AEF4EE85CE3C601B5010E9404
:100AF000FE3869877A878B879C870E941E37698BAF
:100B00007A8B8B8B9C8BC301B2010E941E376D8741
:100B10007E878F87988B9B01AC0169897A898B8945
:100B20009C890E94FE38698B7A8B8B8B9C8B6985A4
:100B30007A858B859C850E9461392D853E854F8500
:100B400058890E94FE386D8F7E8F8F8F98A3C301C6
:100B5000B2010E94613969877A878B879C872989CE
:100B60003A894B895C896D897E898F89988D0E942D
:100B70008D362B013C012D8D3E8D4F8D58A1698105
:100B80007A818B819C810E948D366D877E878F87CD
:100B9000988B29853A854B855C856D817E818F8117
:100BA00098850E948D36698F7A8F8B8F9C8FA301D9
:100BB0009201C301B2010E94FE382B013C012D8538
:100BC0003E854F855889CA01B9010E94FE389B01B4
:100BD000AC01C301B2010E948E362B013C01298D6C
:100BE0003A8D4B8D5C8DCA01B9010E94FE389B0184
:100BF000AC01C301B2010E948E3629E93AE743E114
:100C000056E50E94FE380E946B3920E030E040E05B
:100C10005FE30E94FE382B013C019B01AC010E9466
:100C2000FE389B01AC0169E97AE783E196E50E9411
:100C30008D360E946B399B01AC01C301B2010E9449
:100C400021370E94F23620E33EE442EC5AE40E944F
:100C5000FE389B01AC010E948E366D877E878F87A0
:100C6000988B20E030E0A9010E941A37811108C05A
:100C7000AFA9B8AD1D921D921D921C92139761C130
:100C800029853A854B855C8569817A818B819C8138
:100C90000E94FE382B013C012D8D3E8D4F8D58A1B9
:100CA0006D817E818F8198850E94FE389B01AC0109
:100CB000C301B2010E948D362B013C0129893A897A
:100CC0004B895C896D817E818F8198850E94FE3879
:100CD0006D837E838F83988729853A854B855C85D4
:100CE0006D897E898F89988D0E94FE389B01AC01A9
:100CF0006D817E818F8198850E948D36698F7A8F74
:100D00008B8F9C8F2D8D3E8D4F8D58A16D897E8947
:100D10008F89988D0E94FE386D837E838F8398879C
:100D200029893A894B895C8969817A818B819C8187
:100D30000E94FE389B01AC016D817E818F81988578
:100D40000E948D36698B7A8B8B8B9C8BA3019201D1
:100D5000C301B2010E94FE386D837E838F83988722
:100D6000298D3A8D4B8D5C8DCA01B9010E94FE38E8
:100D70009B01AC016D817E818F8198850E948E36AA
:100D80006D837E838F83988729893A894B895C8913
:100D9000CA01B9010E94FE389B01AC016D817E81C0
:100DA0008F8198850E948E360E946B396D837E8379
:100DB0008F83988789819A81AB81BC81B058898360
:100DC0009A83AB83BC839C01AD01BC01CD010E9421
:100DD000FE3869877A878B879C872D893E894F8962
:100DE000588DCA01B9010E94FE389B01AC0169858A
:100DF0007A858B859C850E948E3620E030E0A901A3
:100E00000E948E360E946B3969877A878B879C8710
:100E10009B01AC0169817A818B819C810E94213781
:100E200069837A838B839C832D813E814F81588592
:100E3000C301B2010E9421379B01AC0169817A8113
:100E40008B819C810E94FE3869837A838B839C838B
:100E500029853A854B855C856D897E898F89988D3A
:100E60000E9421372B013C012D813E814F81588505
:100E7000698D7A8D8B8D9C8D0E9421379B01AC01F1
:100E8000C301B2010E94FE389B01AC0169817A81E5
:100E90008B819C810E948E362B013C0129853A85ED
:100EA0004B855C8560E070E0CB010E94213769834F
:100EB0007A838B839C832D813E814F8158856989FC
:100EC0007A898B899C890E9421379B01AC016981B9
:100ED0007A818B819C810E94FE389B01AC01C30109
:100EE000B2010E948E360E947F3625E33AEF4EE82B
:100EF0005CE30E9421372B013C0129A13AA14BA1BF
:100F00005CA1C601B5010E94F33818164CF4A30188
:100F1000920160E070E084E393E40E948D3608C0A3
:100F200020E030E044E353E4C301B2010E948E3676
:100F30000E948937AFA9B8AD6D937D938D939C9333
:100F4000139720E030E44CE156E46D857E858F8573
:100F500098890E94F33887FD13C020E030E04AE70B
:100F600054E46D857E858F8598890E9421370E9483
:100F70008937F801608371838283938381E00DC098
:100F80006D857E858F8598890E948937D8016D93FC
:100F90007D938D939C93139780E0A4960FB6F8945D
:100FA000DEBF0FBECDBFDF91CF911F910F91FF909C
:100FB000EF90DF90CF90BF90AF909F908F907F90F9
:100FC0006F905F904F90089580910A018F5F8930F4
:100FD00008F081E080930A010895AC0184E0440F99
:100FE000551F8A95E1F78CE0869F9001879F300D11
:100FF0001124B90184E899E00C94521FFC019F016F
:10100000281B390B41914111FACFC9010895CF93A3
:10101000DF93EC010E94FE07FE0140E099279F014B
:101020002C1B3D0B281739071CF421914227F7CFC1
:10103000842FDF91CF9108952F923F924F925F922C
:101040006F927F928F929F92AF92BF92CF92DF92D8
:10105000EF92FF920F931F93CF93DF93CDB7DEB73D
:10106000C154D1090FB6F894DEBF0FBECDBF6A964A
:101070002FAD6A972BAB6B963FAD6B973CAB6C96E5
:101080006FAD6C976DAB6D968FAD6D978AAF6E96A9
:101090009FAD6E979BAFAD96CCACDDACEEACFFAC2C
:1010A000AD97AE96AFADAE97A9ABE2964CAC5DAC4A
:1010B0006EAC7FACE297E396BFADE397BAABC701E6
:1010C000B6010E9489374B015C0120E030E44CE11D
:1010D00056E4C701B6010E94FE386B017C0100E1B5
:1010E00017E2089DB001099D700D189D700D112427
:1010F000882777FD8095982F0E94BC379B01AC0113
:10110000C701B6010E948D360E9489376CAF7DAF52
:10111000C301B2010E9489376B017C0120E030E4F9
:101120004CE156E4C301B2010E94FE382B013C01A0
:101130000C9DB0010D9D700D1C9D700D1124882714
:1011400077FD8095982F0E94BC379B01AC01C301AD
:10115000B2010E948D360E948937562E472E9E017D
:10116000275E3F4F3AA729A7E7966CAD7DAD8EADC0
:101170009FADE797890121E044E00E94133ACE0138
:1011800041969CA78BA7A5966CAD7DAD8EAD9FAD0E
:10119000A5970850110922E044E00E94133ADE01AD
:1011A0001996BEA7ADA7A9966CAD7DAD8EAD9FADCE
:1011B000A9978D0122E044E00E94133A1E01B1E29A
:1011C0002B0E311CED966CAD7DAD8EAD9FADED97C8
:1011D000810122E041E00E94133AC358DF4F688149
:1011E00079818A819B81CD57D0409E012F5F3F4FEF
:1011F00038AB2FA7890121E044E00E94133A60E355
:1012000071E084ED96E00E944B3A3BAD3F936AADAE
:101210006F931F928DA98F931F929CA99F931F92EA
:10122000ABA9AF93A7E3B1E0BF93AF938AED96E08C
:101230009F938F930E94523A8C010652194F89A9AD
:10124000992787FD90959FAB8EAB9F9399A99F930C
:10125000ADADAF93BCADBF939F928F9249E451E087
:101260005F934F931F930F934EAF5FAF0E94523A1D
:10127000080F191F2AA9332727FD309539AF28AF4A
:101280003F933AA93F934F925F92DF92CF9227E527
:1012900031E03F932F931F930F9321962FAF219708
:1012A00022963FAF22970E94523A080F191F0FB69D
:1012B000F894DEBF0FBECDBF65E671E0C8010E94A5
:1012C0004B3A0E5F1F4FE9968FADE9971F928F93B0
:1012D00088E691E09F938F931F930F930E94523A59
:1012E000080F191F3F922F929EE6692E91E0792EEA
:1012F0007F926F921F930F930E94523A080F191F0B
:101300009AA59F93A9A5AF9382E791E09F938F93AE
:101310001F930F930E94523AB8A9BF936FA56F9382
:1013200068E771E07F936F93800F911F9F938F9376
:101330000E94523A84ED96E00E9407081F928F9314
:101340000FE711E01F930F931E0187E2280E311C57
:101350003F922F920E94523A6AE271E083E19BE051
:101360000E94383464ED76E083E19BE00E945B34B8
:1013700068E271E083E19BE00E943834B10183E1CF
:101380009BE00E947A3464E871E084E896E00E9471
:101390004B3A9BAD9F93AAADAF931F92BDA9BF934C
:1013A0001F926CA96F931F928BA98F93A7E3B1E053
:1013B000BF93AF938AE896E09F938F930E94523A2F
:1013C0008657994F1C010FB6F894DEBF0FBECDBFF4
:1013D00064E371E00E944B3A92E0290E311CAFA900
:1013E000AF93B9A9BF936DAD6F938CAD8F939F925F
:1013F0008F924EAD5FAD5F934F933F922F920E94BD
:10140000523A280E391E99AD9F93AAA9AF934F92D5
:101410005F92DF92CF9221962FAD219722963FAD1A
:1014200022973F932F933F922F920E94523A280E79
:10143000391EBCA5BF932BA52F937F926F923F922D
:101440002F920E94523A280E391E3EA53F936DA559
:101450006F937F926F923F922F920E94523A0FB6F3
:10146000F894DEBF0FBECDBFA1962FADA1971F92FE
:101470002F93A0962FADA0971F922F936F962FAD0D
:101480006F971F922F932BE831E03F932F93820D9C
:10149000931D9F938F930E94523A84E896E00E9496
:1014A00007081F928F931F930F938E010B5D1F4FA1
:1014B0001F930F930E94523A66E271E083E19BE032
:1014C0000E94383464E876E083E19BE00E945B345C
:1014D00064E271E083E19BE00E943834B80183E16B
:1014E0009BE00E947A340FB6F894DEBF0FBECDBFEA
:1014F000CF5BDF4F0FB6F894DEBF0FBECDBFDF91DD
:10150000CF911F910F91FF90EF90DF90CF90BF9000
:10151000AF909F908F907F906F905F904F903F9093
:101520002F900895EF92FF920F931F93CF93DF9325
:101530001F92CDB7DEB77C018B01211105C0498315
:101540000E94FE07498102C080E090E0F701E80FA9
:10155000F91F801791071CF401964193FACFF70108
:10156000E80FF91F1082C7010F90DF91CF911F91F3
:101570000F91FF90EF900895CF93C82F60E070E037
:101580008EE090E00E94ED0740E050E06FEF7FEFCB
:1015900084E899E00E945E1F21E040E269E170E08A
:1015A00087E495E00E94920ABC0184E899E00E94D9
:1015B0005B3460E070E08EE090E00E94ED07C0FFD9
:1015C0000EC040E058EF6FEF7FEF84E899E00E9493
:1015D0005E1F6CE971E084E899E00E945B34C1FF12
:1015E0000EC040E05CEF60E070E084E899E00E94AB
:1015F0005E1F62EA71E084E899E00E945B3460E07B
:1016000070E080E090E00E94ED0740E050E06FEF76
:101610007FEF84E899E0CF910C945E1F1F920F92A8
:101620000FB60F9211240BB60F922F933F934F9347
:101630005F936F937F938F939F93AF93BF93EF933A
:10164000FF9388EF94E00E94671F81118093C6008A
:10165000FF91EF91BF91AF919F918F917F916F918A
:101660005F914F913F912F910F900BBE0F900FBE46
:101670000F901F901895882359F08FEA87BD8091AD
:101680006E00826080936E0081E08093F70408957D
:1016900080916E008D7F80936E001092F704089504
:1016A0004F925F926F927F928F929F92AF92BF9272
:1016B000CF92DF92EF92FF920F931F93CF93DF931E
:1016C00000D000D0CDB7DEB78C0148E350E060E039
:1016D00070E0FC0144875587668777874FEF53E2B8
:1016E00060E070E0408B518B628B738B148A1082A8
:1016F00011821282138214821582168217824FEF92
:101700005FEF67E070E084EB99E00E943D2E8F3F31
:1017100009F0A4C040E050EF67E070E084EB99E08E
:101720000E943D2E8F3F09F499C0CC24CA94DC2C32
:1017300047E0E42EF12C88248A94982C57E0A52EBB
:10174000B12C240135014C185D086E087F08B701E3
:10175000A60184EB99E00E943D2E8F3F31F4F1E029
:10176000CF1AD108E108F108ECCF81E0F801848BB1
:10177000FFEFCF1ADF0AEF0AFF0AF801C082D18219
:10178000E282F382CC24CA943FEED32E37E0E32EDC
:10179000F12CB701A60184EB99E00E943D2E8F3F0A
:1017A00041F0C114F0E1DF06E104F10408F060C08B
:1017B00015C0B701A6014F5F5F406109710984EB55
:1017C00099E00E943D2E8F3F61F7460157012FEFB0
:1017D000C216D20627E0E206F10431F181E0F801F9
:1017E000848B46015701B501A40184EB99E00E9466
:1017F0003D2EA50194012F5F3F4F4F4F5F4F29832F
:101800003A834B835C838F32C1F5BA01A90184EB23
:1018100099E00E943D2E8A3281F5F80184829582FA
:10182000A682B78246015701B501A40184EB99E075
:101830000E943D2E8F3F81F581149104A104B104D3
:1018400091F540E050E0BA0184EB99E00E943D2E12
:101850008F3FA1F1812C912C540167C0412C512C58
:101860003201CC24CA94DC2C27E0E22EF12C91CF5B
:10187000F0E1DF1AE108F1088CCF89809A80AB8013
:10188000BC808114910428E0A206B10409F0ABCF1A
:10189000812C912C5401A7CF81149104A104B1048F
:1018A00009F043C0CECFFFEF4F1A5F0A6F0A7F0ADD
:1018B00021E0821A9108A108B108B6CFF801848905
:1018C000811105C0F8011082118212821382FFEF8C
:1018D0004F1A5F0A6F0A7F0A60E070E088E090E0CC
:1018E0006419750986099709F801248535854685A7
:1018F00057850E94C839F80120873187428753876E
:101900000F900F900F900F90DF91CF911F910F913B
:10191000FF90EF90DF90CF90BF90AF909F908F900F
:101920007F906F905F904F900895FFEF8F1A9F0AFE
:10193000AF0ABF0AF80180829182A282B382CCCF23
:1019400040E35FEE67E184EB99E00E94BE2D2DE15C
:101950004CE16BE184E899E00E94712029EF3AE0C4
:1019600042E064E084E598E00E94B72A41E064E543
:1019700078E089E497E00E9438278FE29AE2A0E0BD
:1019800080934C0690934D06A0934E0680931406C8
:1019900090931506A09316068093DC059093DD05C1
:1019A000A093DE0560EB7BE088EF94E00C942520AB
:1019B00060E070E084E899E00E94532062E084E8EF
:1019C00099E00E94581F61E084E899E00E94C124D8
:1019D00040E050E06FEF7FEF84E899E00E945E1FE7
:1019E00061E084E899E00E94641F40E050E060E01C
:1019F00070E084E899E00C94521FEF92FF920F93ED
:101A00001F93CF93DF9390E0FC013197E830F1050D
:101A100008F074C7EA5BFF4F2091F6040C94093A72
:101A2000213019F4662309F4A2C081E08093F60402
:101A30000E94D80C60E070E080E090E00E94ED072A
:101A400068EA71E084E899E00E945B3460E070E04D
:101A500081E090E00E94ED0780916E061F928F93C7
:101A600083EB91E09F938F93CFE6D5E0DF93CF9305
:101A70000E94523ABE0184E899E00E945B3460E023
:101A800070E082E090E00E94ED0780916D061F9269
:101A90008F938AEB91E09F938F93DF93CF930E9474
:101AA000523ABE0184E899E00E945B3460E070E045
:101AB00083E090E00E94ED0760916F0670917006E0
:101AC000809171069091720607E415E022E045E0EE
:101AD0000E94133A9F938F9382EC91E09F938F9390
:101AE000DF93CF930E94523ABE0184E899E00E94AE
:101AF0005B3460E070E084E090E00E94ED0780914C
:101B000048078F93809147078F938AEC91E09F93CA
:101B10008F93DF93CF930E94523ABE0184E899E0FD
:101B20000E945B3460E070E085E090E00E94ED0789
:101B30006091800670918106809182069091830663
:101B400022E044E00E94133A9F938F9385ED91E049
:101B50009F938F93DF93CF930E94523A8DB79EB796
:101B60004E960FB6F8949EBF0FBE8DBF99C464E029
:101B700070E081E090E00E94ED074AE050E0609163
:101B80006E0684E899E00E94523565E070E082E0DC
:101B900090E00E94ED074AE050E060916D0684E815
:101BA00099E00E94523565E070E083E090E00E9489
:101BB000ED0760916F0670917006809171069091AB
:101BC000720607E415E022E045E00E94133ABC01EA
:101BD0008FE695E00E944B3A6FE675E084E899E065
:101BE0000E945B3468E070E084E090E00E94ED07C2
:101BF00060914707709148074AE050E084E899E017
:101C00000E94253567E070E085E090E00E94ED07D6
:101C10006091800670918106809182069091830682
:101C200022E044E00E94133ABC0199C5223019F425
:101C3000662309F4C3C082E08093F6040E94D80CA6
:101C400060E070E080E090E00E94ED0761EE71E0FE
:101C500084E899E00E945B3460913C0770913D07F5
:101C600080913E0790913F070E94BC379B01AC01D9
:101C70006091690670916A0680916B0690916C067E
:101C80000E948D3607E415E020E044E00E94133AFC
:101C90009F938F938AEE91E09F938F93CFE6D5E049
:101CA000DF93CF930E94523A60E070E081E090E0D1
:101CB0000E94ED07BE0184E899E00E945B3426E5AE
:101CC0003EE04DEE5FE360915706709158068091BB
:101CD000590690915A060E94FE3820E044E00E9486
:101CE000133A9F938F9383EF91E09F938F93DF93AA
:101CF000CF930E94523A60E070E082E090E00E9450
:101D0000ED07BE0184E899E00E945B3460914007D2
:101D10007091410780914207909143070E94BC3720
:101D200020E044E00E94133A9F938F938FEF91E05D
:101D30009F938F93DF93CF930E94523A60E070E0BD
:101D400083E090E00E94ED07BE0184E899E00E94E4
:101D50005B3460E070E084E090E00E94ED07609109
:101D600034077091350780913607909137070E94AC
:101D7000BC3720E044E00E94133A9F938F938AE09F
:101D800092E09F938F93DF93CF930E94523ABE01CC
:101D900084E899E00E945B348DB79EB748960FB6F1
:101DA000F8949EBF0FBE8DBF80914507811103C07F
:101DB00061EF71E0AEC061E172E0ABC060913C07E1
:101DC00070913D0780913E0790913F070E94BC377C
:101DD0009B01AC016091690670916A0680916B0667
:101DE00090916C060E948D3607E415E020E044E0F7
:101DF0000E94133A9F938F9384E192E09F938F9375
:101E0000CFE6D5E0DF93CF930E94523A64E070E0D2
:101E100081E090E00E94ED07BE0184E899E00E9415
:101E20005B3426E53EE04DEE5FE36091570670912E
:101E300058068091590690915A060E94FE3820E07B
:101E400044E00E94133A9F938F938FE192E09F9317
:101E50008F93DF93CF930E94523A64E070E082E068
:101E600090E00E94ED07BE0184E899E00E945B3497
:101E7000609140077091410780914207909143071C
:101E80000E94BC3720E044E00E94133A9F938F9356
:101E90008DE292E09F938F93DF93CF930E94523A0B
:101EA00064E070E083E090E00E94ED07BE0184E80A
:101EB00099E00E945B3464E070E084E090E00E946E
:101EC000ED07609134077091350780913607909146
:101ED00037070E94BC3720E044E00E94133ABC015F
:101EE000CE010E944B3ABE0184E899E00E945B3427
:101EF0008DB79EB742960FB6F8949EBF0FBE8DBFAA
:101F000080914507811103C06AE372E002C061E479
:101F100072E084E899E00E945B3464E084E899E030
:101F20000E94581F60E070E085E090E00E94ED079D
:101F300060912407709125078091260790912707CB
:101F400007E415E020E041E00E94133A9F938F934D
:101F500087EF91E09F938F938FE695E09F938F9308
:101F60000E94523A6FE675E084E899E00E945B3483
:101F70000F900F900F900F900F900F9062E084E8F9
:101F800099E0DF91CF911F910F91FF90EF900C940A
:101F9000581F233019F4662309F4A2C083E080930C
:101FA000F6040E94D80C60E070E080E090E00E94AF
:101FB000ED076AE472E084E899E00E945B3460E037
:101FC00070E081E090E00E94ED076091240770913D
:101FD0002507809126079091270707E415E020E068
:101FE00044E00E94133A9F938F9386E592E09F937B
:101FF0008F93CFE6D5E0DF93CF930E94523ABE0194
:1020000084E899E00E945B3460E070E082E090E058
:102010000E94ED0780913B078F9380913A078F9341
:10202000809139078F93809138078F938FE592E0E5
:102030009F938F93DF93CF930E94523ABE0184E81F
:1020400099E00E945B3460E070E083E090E00E94E1
:10205000ED07809133078F93809132078F938091A2
:1020600031078F93809130078F9389E692E09F9399
:102070008F93DF93CF930E94523ABE0184E899E098
:102080000E945B348DB79EB746960FB6F8949EBFFC
:102090000FBE8DBF80914507811103C061EF71E0D4
:1020A00002C061E172E084E899E00E945B3460E084
:1020B00070E084E090E00E94ED0760916906709105
:1020C0006A0680916B0690916C0607E415E020E0AB
:1020D00045E00E94133A9F938F9382E792E08CC071
:1020E00066E070E081E090E00E94ED0760912407D7
:1020F00070912507809126079091270707E415E046
:1021000020E044E00E94133ABC018FE695E00E9473
:102110004B3A6FE675E084E899E00E945B3466E034
:1021200070E082E090E00E94ED0780913B078F9382
:1021300080913A078F93809139078F938091380768
:102140008F9385E692E09F938F93CFE6D5E0DF9360
:10215000CF930E94523ABE0184E899E00E945B341A
:1021600066E070E083E090E00E94ED078091330725
:102170008F93809132078F93809131078F93809155
:1021800030078F9382ED91E09F938F93DF93CF93EE
:102190000E94523ABE0184E899E00E945B348DB7F8
:1021A0009EB740960FB6F8949EBF0FBE8DBF80912C
:1021B0004507811103C061EF71E002C061E172E087
:1021C00084E899E00E945B3468E070E085E090E08C
:1021D0000E94ED076091690670916A0680916B0616
:1021E00090916C0607E415E020E045E00E94133A68
:1021F0009F938F938EE792E09F938F938FE695E066
:102200009F938F930E94523A0F900F900F900F90D0
:102210000F900F9067C3243019F4662309F4B1C0FE
:1022200084E08093F6040E94D80C60E070E080E0C7
:1022300090E00E94ED0762E872E084E899E00E9475
:102240005B3460E070E081E090E00E94ED07609117
:102250005F0670916006809161069091620607E4C6
:1022600015E024E049E00E94133A9F938F93209158
:102270006306822F992787FD90959F932F938DE872
:1022800092E09F938F93CFE6D5E0DF93CF930E94A8
:10229000523ABE0184E899E00E945B3460E070E04D
:1022A00082E090E00E94ED076091640670916506FF
:1022B000809166069091670624E049E00E94133AF7
:1022C0009F938F9320916806822F992787FD909581
:1022D0009F932F9387E992E09F938F93DF93CF9300
:1022E0000E94523ABE0184E899E00E945B3460E0AB
:1022F00070E083E090E00E94ED0761EA72E0CE01B9
:102300000E944B3ABE0184E899E00E945B3460E091
:1023100070E084E090E00E94ED0760917706709194
:1023200078068091790690917A0626E04AE00E942C
:10233000133ABC01CE010E944B3ABE0184E899E0F9
:102340000E945B3460E070E085E090E00E94ED0761
:1023500060917B0670917C0680917D0690917E064F
:1023600026E04AE00E94133ABC01CE010E944B3A9B
:102370008DB79EB740960FB6F8949EBF0FBE8DBF27
:102380008FC064E070E081E090E00E94ED07609112
:102390005F0670916006809161069091620607E485
:1023A00015E024E049E00E94133A9F938F93209117
:1023B0006306822F992787FD90959F932F936BE952
:1023C000E62E62E0F62EFF92EF92CFE6D5E0DF93A5
:1023D000CF930E94523ABE0184E899E00E945B3498
:1023E00064E070E082E090E00E94ED076091640696
:1023F00070916506809166069091670624E049E039
:102400000E94133A9F938F9320916806822F9927F9
:1024100087FD90959F932F93FF92EF92DF93CF9339
:102420000E94523ABE0184E899E00E945B3460E069
:1024300070E084E090E00E94ED0760917706709173
:1024400078068091790690917A0626E04AE00E940B
:10245000133ABC01CE010E944B3ABE0184E899E0D8
:102460000E945B3460E070E085E090E00E94ED0740
:1024700060917B0670917C0680917D0690917E062E
:1024800026E04AE00E94133ABC01CE010E944B3A7A
:102490008DB79EB740960FB6F8949EBF0FBE8DBF06
:1024A000BE0122C2253019F4662309F4ABC085E0D1
:1024B0008093F6040E94D80C60E070E080E090E029
:1024C0000E94ED076FEA72E084E899E00E945B34B5
:1024D00060E070E081E090E00E94ED0761EA72E068
:1024E00084E899E00E945B3460E070E082E090E074
:1024F0000E94ED07609177067091780680917906C9
:1025000090917A0607E415E026E049E00E94133A2C
:10251000BC018FE695E00E944B3A6FE675E084E8D7
:1025200099E00E945B3460E070E083E090E00E94FC
:10253000ED0760917B0670917C0680917D069091FD
:102540007E0626E049E00E94133ABC018FE695E042
:102550000E944B3A6FE675E084E899E00E945B3494
:1025600060E070E084E090E00E94ED078091430716
:102570008F93809142078F93809141078F93809131
:1025800040078F938CEB92E09F938F93CFE6D5E03B
:10259000DF93CF930E94523ABE0184E899E00E94F3
:1025A0005B3460E070E085E090E00E94ED07809190
:1025B00037078F93809136078F93809135078F93DC
:1025C000809134078F9383EC92E09F938F93DF93F6
:1025D000CF930E94523ABE0184E899E00E945B3496
:1025E0008DB79EB740960FB6F8949EBF0FBE8DBFB5
:1025F00080914507811103C061EF71E075C161E110
:1026000072E072C160E070E082E090E00E94ED074D
:1026100060917706709178068091790690917A069C
:1026200007E415E026E049E00E94133ABC018FE67A
:1026300095E00E944B3A6FE675E084E899E00E94CD
:102640005B3460E070E083E090E00E94ED07609111
:102650007B0670917C0680917D0690917E0626E037
:1026600049E00E94133ABC018FE695E00E944B3A84
:102670006FE675E084E899E00E945B3464E070E006
:1026800084E090E00E94ED07809143078F93809152
:1026900042078F93809141078F93809140078F93DA
:1026A00002ED11E01F930F93CFE6D5E0DF93CF93B8
:1026B0000E94523ABE0184E899E00E945B3464E0D3
:1026C00070E085E090E00E94ED07809137078F93DE
:1026D000809136078F93809135078F9380913407CF
:1026E0008F931F930F93DF93CF930E94523ABE01B3
:1026F00084E899E00E945B348DB79EB740960FB690
:10270000F8949EBF0FBE8DBF73CF263019F4662399
:1027100009F4F4C086E08093F6040E94D80C60E0CF
:1027200070E080E090E00E94ED076AEC72E084E8DF
:1027300099E00E945B3460E070E081E090E00E94EC
:10274000ED0764ED72E084E899E00E945B3460E09C
:1027500070E082E090E00E94ED0760EE72E08FE6AC
:1027600095E00E944B3ABEC0273019F4662309F465
:1027700048C087E08093F6040E94D80C60E070E0C7
:1027800080E090E00E94ED0762EF72E084E899E05B
:102790000E945B3460E070E081E090E00E94ED0711
:1027A00080917A098F93809179098F93809178092C
:1027B0008F93809177098F938DEF92E09F938F9302
:1027C0008FE695E09F938F930E94523A6FE675E0F3
:1027D00084E899E00E945B3460E070E082E090E081
:1027E0000E94ED076AE073E08FE695E00E944B3AA5
:1027F0008DB79EB708960FB6F8949EBF0FBE8DBFDB
:1028000071C069E070E081E090E00E94ED07809186
:102810007A098F93809179098F93809178098F93AA
:10282000809177098F9386E093E09F938F938FE653
:1028300095E09F938F930E94523A8DB79EB708966A
:102840000FB6F8949EBF0FBE8DBF4CC0283019F450
:10285000662309F453C088E08093F6040E94D80CE4
:1028600060E070E080E090E00E94ED076DE173E0D1
:1028700084E899E00E945B3460E070E081E090E0E1
:102880000E94ED0780917A098F93809179098F9347
:10289000809178098F93809177098F938AE293E0F2
:1028A0009F938F938FE695E09F938F930E94523A68
:1028B0006FE675E084E899E00E945B3460E070E0C8
:1028C00082E090E00E94ED0768E373E08FE695E018
:1028D0000E944B3A8DB79EB708960FB6F8949EBFEC
:1028E0000FBE8DBF6FE675E084E899E0DF91CF9170
:1028F0001F910F91FF90EF900C945B34DF91CF917B
:102900001F910F91FF90EF90089526E040E052EC68
:1029100061E070E083E19BE00E942E3268EC71E0A0
:1029200083E19BE00E94683460EE72E083E19BE00B
:102930000E947A3468EB71E083E19BE00E94683486
:1029400089E497E00E945725882349F040E050E051
:1029500069ED73E484E598E00E94382B06C06CEAC8
:1029600071E083E19BE00E94683460E875E288EFE3
:1029700094E00E94362081E00E943B0B62E08FE1F0
:102980000E94A03062E08EE10E94A03082E00E94AE
:10299000D61984E899E00E9412210E94D80C6AE4BA
:1029A00073E084E899E00E947A3460E673E084E89A
:1029B00099E00E945B3460EE72E084E899E00E9446
:1029C0007A3465E673E083E19BE00E947A346CE43C
:1029D00076E08FE699E00E94500B67E971E083E1B1
:1029E0009BE00E94683462E871E083E19BE00E9412
:1029F000383440916F09509170096091710970915C
:102A000072092AE030E083E19BE00E9470356EE6B7
:102A100071E083E19BE00E9438344091730950914A
:102A2000740960917509709176092AE030E083E1BC
:102A30009BE00E94703569E571E083E19BE00E94B4
:102A400038344091770950917809609179097091F3
:102A50007A092AE030E083E19BE00E94703560E073
:102A600080910A010E94FD0C6AE471E083E19BE021
:102A70000E9468340E94C02F6093D7057093D805D8
:102A80008093D9059093DA05089510922407109247
:102A900025071092260710922707109230071092F0
:102AA00031071092320710923307109238071092B4
:102AB000390710923A0710923B0710924407109280
:102AC00040071092410710924207109243078091ED
:102AD000770690917806A0917906B0917A06809356
:102AE0002C0790932D07A0932E07B0932F0780916A
:102AF0007B0690917C06A0917D06B0917E06809326
:102B0000280790932907A0932A07B0932B070E94C8
:102B1000D80C67E873E084E899E00E947A346EE9A3
:102B200073E084E899E00E947A3440912C07509138
:102B30002D0760912E0770912F0728E030E084E880
:102B400099E00E946D3663EA73E084E899E00E94A0
:102B50007A34409128075091290760912A07709193
:102B60002B0728E030E084E899E00E946D36609100
:102B7000690670916A0680916B0690916C060E94BE
:102B8000893760933C0770933D0780933E0790938D
:102B90003F0760ED77E080E090E00E94EF2F61E07A
:102BA00080910A010C94FD0C3F924F925F926F92BC
:102BB0007F928F929F92AF92BF92CF92DF92EF92CD
:102BC000FF920F931F93CF93DF93CDB7DEB7E997B3
:102BD0000FB6F894DEBF0FBECDBF8FE10E940F315C
:102BE000892B49F40E94E40761E080910A010E9468
:102BF000FD0C1092DB058EE10E940F31892B09F04C
:102C000052C180910A01873048F4823008F049C1EE
:102C1000813009F046C10E94451543C1873009F44F
:102C20006BC0883009F03DC160E070E081E090E069
:102C30000E94ED0721E040E269E170E08FE695E057
:102C40000E94920ABC0184E899E00E945B3460E033
:102C500070E082E090E00E94ED0721E040E269E14F
:102C600070E08FE695E00E94920ABC0184E899E04A
:102C70000E945B3460E070E083E090E00E94ED072A
:102C800021E040E269E170E08FE695E00E94920A5F
:102C9000BC0184E899E00E945B3460E070E082E06F
:102CA00090E00E94ED0767EB73E08FE695E00E94ED
:102CB0004B3A6FE675E084E899E00E945B348090BF
:102CC000730990907409A0907509B09076098FE20D
:102CD0009AE2A0E089839A83AB836CE271E083E19E
:102CE0009BE00E946834F89401E010E0CE01019668
:102CF0007C01F8E33F2EABC060E070E081E090E043
:102D00000E94ED0721E040E269E170E08FE695E086
:102D10000E94920ABC0184E899E00E945B3460E062
:102D200070E082E090E00E94ED0721E040E269E17E
:102D300070E08FE695E00E94920ABC0184E899E079
:102D40000E945B3460E070E083E090E00E94ED0759
:102D500021E040E269E170E08FE695E00E94920A8E
:102D6000BC0184E899E00E945B3460E070E082E09E
:102D700090E00E94ED0768EA73E08FE695E00E941C
:102D80004B3A6FE675E084E899E00E945B348FE689
:102D900099E00E94E50480C02A013B019FEF491A97
:102DA000590A690A790A84EB99E00E943D2EF601DE
:102DB00081936F0141145104F8E06F06710418F01B
:102DC000412C512C3201B301A20140907B0950905B
:102DD0007C0960907D0970907E09C6018E199F095B
:102DE000A0E0B0E084159505A605B705A8F280918E
:102DF000730990917409A0917509B0917609840DB9
:102E0000951DA61DB71DA770BB27809373099093CE
:102E10007409A0937509B09376098DB79EB7C897CA
:102E20000FB6F8949EBF0FBE8DBFADB7BEB711965B
:102E3000F701832D01900D928A95E1F70E941C08FD
:102E40000F5F1F4F0FB6F894DEBF0FBECDBFA801B6
:102E500060E070E08091770990917809A0917909FC
:102E6000B0917A09481759076A077B0750F44091D7
:102E70007309509174096091750970917609670121
:102E8000A4CFAA24BB248092730990927409A092C3
:102E90007509B0927609789461E080910A010E94E8
:102EA000FD0C1092DB05C090D705D090D805E090BE
:102EB000D905F090DA050E94C02F6C157D058E05AE
:102EC0009F0550F40E94C02F6093D7057093D805DA
:102ED0008093D9059093DA0589E497E00E94F6245F
:102EE000882309F4AEC18091DB058E7F8093DB05DA
:102EF00088E389AFC12CD12CE12CF12C00E010E04B
:102F00009E012F5F3F4FAE01475C5F4F6CE476E060
:102F100089E497E00E946F27882309F4AAC10E94E0
:102F2000C02F6093D7057093D8058093D9059093EF
:102F3000DA0584E598E00E94B526992787FD9095EB
:102F4000909348078093470780917F06882309F470
:102F5000E4C080914607811102C00E94451581E0BE
:102F6000809346078091DB058D7F8093DB05A090E1
:102F70007B06B0907C06C0907D06D0907E06E090E7
:102F80007706F09078060091790610917A062091E4
:102F900028073091290740912A0750912B0760910B
:102FA0002C0770912D0780912E0790912F07E0E458
:102FB000F7E0FF93EF93E4E38E2EE7E09E2E0E946E
:102FC000FC04182F80934507C0906906D0906A06CC
:102FD000E0906B06F0906C0680903C0790903D0767
:102FE000A0903E07B0903F07609138077091390775
:102FF00080913A0790913B07680D791D8A1D9B1DB2
:103000000E94BC379B01AC010F900F90C701B60125
:103010000E94F3381816A4F4C501B4010E94BC370D
:103020009B01AC01C701B6010E948D360E94893711
:10303000609338077093390780933A0790933B0762
:1030400040913407509135076091360770913707EA
:10305000111103C01092440708C0809144078111E8
:1030600004C081E0809344070DC0809130079091A7
:103070003107A0913207B091330784179507A6074F
:10308000B70744F4409330075093310760933207F9
:103090007093330726E53EE04DEE5FE360915706FF
:1030A000709158068091590690915A060E94FE38F8
:1030B00020E030E040E85FE30E941A3787FF08C055
:1030C00010925706109258061092590610925A06FE
:1030D00026E53EE04DEE5FE360915706709158069D
:1030E0008091590690915A060E94FE386B017C012E
:1030F00020912407309125074091260750912707FA
:103100000E94F338181674F4C0922407D092250751
:10311000E0922607F092270705C08091DB058260C8
:103120008093DB05C0906F09D0907009E090710921
:10313000F09072090CE416E0A8014C54564060E08F
:1031400070E080917B0990917C09A0917D09B091FC
:103150007E09481759076A077B0760F5F801219136
:103160008F01B701A60184EB99E00E94682ED70178
:10317000C6019F70AA27BB27892B8A2B8B2B59F45A
:10318000B701A601505F6F4F7F4F677077278FE6BB
:1031900099E00E946804FFEFCF1ADF0AEF0AFF0AE6
:1031A000C114D10488E0E806F10430F2C12CD12C1E
:1031B0007601C2CFC0926F09D0927009E092710976
:1031C000F09272098091770990917809A09179091C
:1031D000B0917A0940917F095091800960918109ED
:1031E0007091820984179507A607B70758F40196CE
:1031F000A11DB11D8093770990937809A093790957
:10320000B0937A09EDB7FEB7F8970FB6F894FEBF02
:103210000FBEEDBFADB7BEB7119688E3ECE4F6E0A4
:1032200001900D928A95E1F70E941C080FB6F89460
:10323000DEBF0FBECDBF60E080910A010E94FD0C91
:1032400018C00E94C02F0091D7051091D805209179
:10325000D9053091DA0508571C4E2F4F3F4F0617FE
:1032600017072807390728F48091DB0581608093D0
:10327000DB050E94C02F0091D3051091D405209149
:10328000D5053091D605601771078207930750F472
:103290000E94C02F6093D3057093D4058093D50509
:1032A0009093D6050E94C02F0091D3051091D405AC
:1032B0002091D5053091D6050053184F2F4F3F4F21
:1032C000061717072807390778F48091DB0590E087
:1032D0000E94BC0A0E94C02F6093D3057093D4054E
:1032E0008093D5059093D605E9960FB6F894DEBF86
:1032F0000FBECDBFDF91CF911F910F91FF90EF9047
:10330000DF90CF90BF90AF909F908F907F906F9005
:103310005F904F903F900895CF93CFB7F8948091EE
:10332000BE09811127C0E1E3F7E08491E1E1F7E014
:103330009491E82FF0E0EE0FFF1FEF59F84FA591A1
:10334000B4918C91892321F461E084E00E94D9300A
:1033500061E084E00E94A0308CB580618CBD8CB5AA
:1033600080648CBD61E087E00E94A03061E085E070
:103370000E94A0308091BE098F5F8093BE09CFBFAD
:10338000CF9108959FB7F8948091BE09882319F0D2
:1033900081508093BE098091BE09811105C08CB512
:1033A0008F7B8CBD1092BD099FBF08952FB7F894F5
:1033B000813061F020F0823021F484E008C081E0A7
:1033C00006C082E08093BD0980E001C082E0909158
:1033D000BC09982B9093BC098091BD09811103C051
:1033E00081E08093BD092FBF0895E091010AF0911B
:1033F000020AE817F90769F4A389B4899C918589C1
:10340000809589238C931092020A1092010A81E020
:10341000089580E00895CF93DF93EC018A8D9B8D12
:10342000892BF1F08091010A9091020A8C179D0777
:10343000B9F0009711F00E94F5198E8D8E7F8E8F56
:103440001092C0091092BF09D093020AC093010ADA
:10345000EB89FC8980819D89892B808381E001C073
:1034600080E0DF91CF9108951F920F920FB60F92D7
:1034700011240BB60F922F933F934F935F936F934B
:103480007F938F939F93AF93BF93EF93FF93E091BD
:10349000010AF091020A309709F451C0868DA68581
:1034A000B785958581FF04C08C91892329F447C095
:1034B0008C91892309F043C0A389B4899C918589A3
:1034C000809589238C93868997890197F1F7208DC0
:1034D000318DA685B785758558E040E0C901019713
:1034E000F1F7842F90E095958795482F6C9167238D
:1034F00009F04068515091F7868D81FD409580918B
:10350000C00990E001968F7399272091BF09281771
:1035100049F0A091C009B0E0AF53B64F4C938093EF
:10352000C00903C0868D8160868F828D938D01973F
:10353000F1F7A389B4898C919589892B8C93FF919C
:10354000EF91BF91AF919F918F917F916F915F911B
:103550004F913F912F910F900BBE0F900FBE0F9088
:103560001F901895CF93DF93EC019A01AB011B8E4E
:103570001A8E198E188E1F8A1E8A60E079E08DE3FC
:1035800090E00E94EA39C9012430310520F0B901E8
:103590006350710902C061E070E07D8F6C8FEC8533
:1035A000EF3108F05AC0B90176956795643171051D
:1035B00018F06351710902C061E070E07F8B6E8B7F
:1035C000069718F0C901059702C081E090E0998F35
:1035D000888FC901880F991F820F931F9695879531
:1035E000969587958D30910510F00C9702C081E07B
:1035F00090E09B8F8A8F90916800E83030F0E03146
:1036000030F0E83130F484E005C082E003C088E0A7
:1036100001C081E0892B809368002C85283038F028
:103620002E3040F0263148F48CE690E008C08DE65C
:1036300090E005C08BE690E002C080E090E09C8BBB
:103640008B8B277081E090E001C0880F2A95EAF704
:103650008D8B8C8D9D8D0197F1F7CE01DF91CF91F0
:103660000C940B1A2F923F924F925F926F927F921F
:103670008F929F92AF92BF92CF92DF92EF92FF9282
:103680000F931F93CF93DF9300D000D0CDB7DEB759
:103690004C017C836B836A015901C8018701AC012D
:1036A0004C195D0957FF03C051954195510995018A
:1036B0006B817C81261B370B37FF03C03195219529
:1036C000310922242394312C2417350714F0212C9E
:1036D000312C2114310459F03A2D2B2D5C01832F0C
:1036E000922F3B812C81DC82CB82C32ED22EAB81E8
:1036F000BC81AA16BB065CF43C2D2D2D6C01832FDA
:10370000922F3B812C81BC82AB82A32EB22E25014D
:10371000EB81FC814E1A5F0A3C016C187D0877FE34
:1037200003C0719461947108720157FE03C0FFEFEA
:10373000EF1AFF0AF594E794C816D9062CF421E095
:1037400030E03A83298324C06FEF7FEF7A83698367
:103750001FC0D401ED91FC910480F581E02D98010A
:1037600021143104D9F04B815C81B601C401099563
:10377000E618F708F7FE06C0E981FA81CE0EDF1ED3
:10378000E40CF51C2B813C812F5F3F4F3C832B8346
:103790006B817C81A616B706E4F604C0A6016B8196
:1037A0007C81E4CF0F900F900F900F90DF91CF911D
:1037B0001F910F91FF90EF90DF90CF90BF90AF904F
:1037C0009F908F907F906F905F904F903F902F9041
:1037D00008956F927F928F929F92AF92BF92CF92F5
:1037E000DF92EF92FF920F931F93CF93DF93EC0141
:1037F0005B016A0139014801E881F9810284F3859E
:10380000E02D87010995E881F981A601480D591D30
:10381000415051090284F385E02D9301B501CE0199
:103820000995E881F9810084F185E02D9401A601D4
:10383000B501CE010995E881F981B501660D771DC5
:10384000615071090084F185E02D9401A601CE013B
:103850000995DF91CF911F910F91FF90EF90DF902D
:10386000CF90BF90AF909F908F907F906F90089572
:10387000EF92FF920F931F93DC01ED91FC91240FC7
:10388000351F215031090680F781E02D780189012B
:103890009B0109951F910F91FF90EF900895EF9272
:1038A000FF920F931F93DC01ED91FC91260F371FC0
:1038B000215031090680F781E02D78018A010995B0
:1038C0001F910F91FF90EF9008956F927F928F92CA
:1038D0009F92AF92BF92CF92DF92EF92FF920F939F
:1038E0001F93CF93DF935C014A0169013801EB011B
:1038F000C60ED71ECC15DD0574F4D501ED91FC91F3
:103900000084F185E02D87019301A401BE01C5016A
:1039100009952196EFCFDF91CF911F910F91FF90E5
:10392000EF90DF90CF90BF90AF909F908F907F905F
:103930006F900895EF92FF920F931F93DC01ED912A
:10394000FC9111971A960D911C911B9718962D9129
:103950003C9119970684F785E02D7B0140E050E00B
:1039600060E070E009951F910F91FF90EF9008952E
:103970000895FC01138212828AEC93E09183808384
:103980007583648357834683718760875387428733
:10399000158A158614861786168621E0248B8FEFEC
:1039A0009FEF938B828B918B808B268B178A118E46
:1039B000108E08952F923F924F925F926F927F9256
:1039C0008F929F92AF92BF92CF92DF92EF92FF922F
:1039D0000F931F93CF93DF93CDB7DEB76A970FB6E0
:1039E000F894DEBF0FBECDBF1C0158874F831C87E4
:1039F0000B87FA86E986CC82DC0158964D915C9162
:103A000059974115510509F0A6C018968D919C91C2
:103A10001997681779070CF056C11A968D919C91E9
:103A20001B97EF81F885E817F9070CF04CC1D12CF2
:103A3000CB013C81F6E03F9F800D911D11241816AB
:103A400019060CF040C1C60103E0880F991F0A95C2
:103A5000E1F74F815885840F951F181619060CF051
:103A600032C157968C91811103C0203B08F02F5F23
:103A70007E876D874B01198211EEA12E11E0B12EC8
:103A8000A61AB70A55E0259FA00CB11C1124898104
:103A9000853039F0ED85FE85EA0DFB1D94919A8302
:103AA00001C01A826F8078842301A8E0AD83BA81B7
:103AB000B0FF12C0D101ED91FC91BC81B13031F465
:103AC0000480F581E02D2B853C8518C00684F785A0
:103AD000E02DEB84FC841DC0E985FA852B853C85AF
:103AE000E217F307E1F0D101ED91FC91BC81B13017
:103AF00059F40480F581E02D29853A85A2016D8570
:103B00007E85C10109950BC00684F785E02DE98407
:103B1000FA8486019601A301B401C1010995EA81E5
:103B2000E695EA83FD81F150FD836C0C7D1C2FEF3F
:103B3000421A520AF111BBCF39813F5F39838C0C95
:103B40009D1C4D855E854F5F5F4F5E874D8736308C
:103B500009F09DCFB8C0FA0134963491329785911F
:103B60009491231BA7E02A9F800D911D1124FA0137
:103B700025913491398B288BFC01459154915A8FB2
:103B8000498FFC013296549159873196A491AF87A1
:103B90003196E491FC013596249131968491BC8153
:103BA000B23050F0622E772467FC7094E82FFF2724
:103BB000E7FDF095FE87ED87FC81CF2ED12C6C9C24
:103BC00040016D9C900C7C9C900C1124860E971EDD
:103BD000A12C1982DE8ACD8AAB01420F511D27FD2F
:103BE0005A955E834D83AF81B885A80FB11D87FDBF
:103BF000BA95B88FAF8B59818F85581708F063C07D
:103C0000852F90E02D853E85280F391F2C9DD001F2
:103C10002D9DB00D3C9DB00D1124EF81F885EA0F6C
:103C2000FB1FFB83EA836D807E802401FA2D2D81AA
:103C3000F21BFA8B4F89588D480F591F5C8B4B8BA9
:103C40009A89960D862D2D81821B39858317B0F5B3
:103C5000977061F4898D9A8D0196E889F989298D8B
:103C60003A8DE20FF31FB4909A8F898FB7FE1DC073
:103C7000D101ED91FC91BC81B13059F40480F58102
:103C8000E02D2B853C854B895C89B301C1010995E9
:103C90000CC00684F785E02DEB84FC848601960138
:103CA0004A815B81B201C1010995BB0CED89FE8996
:103CB0004E0E5F1EFFEF6F1A7F0AC2CFA30E49811F
:103CC0004F5F498398CF6A960FB6F894DEBF0FBE58
:103CD000CDBFDF91CF911F910F91FF90EF90DF90BB
:103CE000CF90BF90AF909F908F907F906F905F909C
:103CF0004F903F902F900895AF92BF92CF92EF9246
:103D0000FF920F931F93CF93DF93EC01262F888DA3
:103D1000998D009709F042C06A3069F42C898E852C
:103D20009F8538E0239F800D911D11249F878E87EA
:103D30001D861C86ABC06D3009F4A8C08E8988230F
:103D4000C1F03C898C859D8546E0349F800D911D96
:103D5000112448855985841795075CF01D861C86BB
:103D60008E859F85E8E03E9F800D911D11249F87E1
:103D70008E87EA88FB88088919894E855F856C855E
:103D80007D85CC88CE010E94DA1C2C898C859D858E
:103D9000F6E02F9F800D911D112441C06A3079F407
:103DA0001D861C864C89FC01369684912E853F85A4
:103DB000489F200D311D11243F872E8767C06D302D
:103DC00009F464C0AC014C5F5F4FFA013491631792
:103DD00008F45CC03196E491E61708F457C0FA0184
:103DE0004491362F341BFC013296A590B490F7E035
:103DF0003F9FA00CB11C1124F5013296A49131967D
:103E0000E491AA2311F0E1110DC0F5013496A490BC
:103E10002C898C859D85A29E800D911D11249D87E6
:103E20008C8734C0F5013596E4913E89332309F13E
:103E30003C89B0E0AE0FB11DE7FDBA953A9FA001F5
:103E40003B9F500D11246C857D85460F571F68855B
:103E50007985461757076CF01D861C86FC0136963F
:103E600084914E855F85389F400D511D11245F87D9
:103E70004E87EA88FB88088919894E855F856C859D
:103E80007D85CC88CE010E94DA1CBFCF81E090E016
:103E9000DF91CF911F910F91FF90EF90CF90BF9046
:103EA000AF900895FC01758764875787468708950A
:103EB000611101C061E0FC01648B0895FC01718B0C
:103EC000608B538B428B0895FC01668B0895CF93D2
:103ED000DF93FC01E65BFF4F2081222311F080E09D
:103EE00065C0EC01C55BDF4FA881B981109741F037
:103EF000ED91FC9111970480F581E02DCD010BC06F
:103F0000EC01C35BDF4F88819981DC01ED91FC916D
:103F10000480F581E02D0995892B09F38881998129
:103F2000DC01ED91FC910680F781E02D09958A3046
:103F300049F59091080AE091060AF091070AE90F05
:103F4000F11D10822091060A3091070ABAE021384B
:103F50003B0739F449E05AE05093070A4093060AB8
:103F600008C021E83AE03093070A2093060A29E0C6
:103F70003AE03093050A2093040A1092080A91E06F
:103F80009093030AE091060AF091070A9091080ABB
:103F900021E0290F2093080AE90FF11D80839091F9
:103FA000080A983718F097E79093080ADF91CF91A5
:103FB0000895FC01DC01A55BBF4F11961C921E9277
:103FC000129611961C921E921092030A13971C923D
:103FD0001092080A81E89AE09093070A8093060AF3
:103FE00089E09AE09093050A8093040A15AE14AE16
:103FF00015821482138212821182108212AE11AEC7
:1040000010AE13AE1782168214AA15AA16AA17AA02
:1040100010AA11AA12AA13AA14A615A616A617A6C4
:1040200010A611A612A613A614A215A216A217A2D4
:1040300010A211A212A213A2148615861686178644
:10404000108611861286138608950F931F93CF93BF
:10405000DF93EC018B010E94D91FC35BDF4F1983F3
:104060000883DF91CF911F910F910895FC01E55BCB
:10407000FF4F20813181AB0160E070E021153105F7
:1040800021F0C9010E94B21A08C0FC01E35BFF4F96
:1040900026E0808191810E942E326AE070E080E00B
:1040A00090E00C94EF2FEF92FF920F931F93DC019F
:1040B000ED91FC9111971A960D911C911B971896F2
:1040C0002D913C9119970684F785E02D7B0140E006
:1040D00050E060E070E009951F910F91FF90EF9024
:1040E0000895EF92FF920F931F93CF93DF931F9248
:1040F000CDB7DEB77C01062F142F40E451E060EF0E
:1041000070E029830E94B91C82EE93E0F70191834D
:10411000808306A317A3298120A781E0838F13A69C
:1041200011A60F90DF91CF911F910F91FF90EF900B
:104130000895FC01838D811122C088E090E030E871
:10414000A48DB58D24A5432F462321F04C91422BFD
:104150004C9304C04C91209524232C93A68DB78DAD
:104160002C9145A5242B2C93A68DB78D4C9125A57C
:10417000209524232C933695019711F708956EBD51
:104180000DB407FEFDCF0895CF93DF93EC01E8A1B6
:10419000F9A190818FA5809589238083EE8DFF8D75
:1041A00090818DA5809589238083ECA1FDA19081CC
:1041B0008EA5809589238083CE010E949920ECA151
:1041C000FDA180819EA5892B8083DF91CF910895E9
:1041D000662311F061E201C060E20C94C420CF9329
:1041E000DF93EC01E8A1F9A180819FA5892B808351
:1041F000EE8DFF8D90818DA5809589238083ECA124
:10420000FDA190818EA5809589238083CE010E9497
:104210009920ECA1FDA180819EA5892B8083DF914F
:10422000CF910895CF93DF93EC0161E088A50E94C0
:10423000A03060E088A50E94D93061E08FA10E9483
:10424000A03061E08EA10E94A0304EA150E0FA01A2
:10425000E35DF84FE491F0E0EE0FFF1FE95AF84FED
:10426000859194919DA38CA32FA130E0F901E35D8A
:10427000F84F849190E0880F991F895A984FFC015C
:104280008591949199A388A3FA01E35FF84F449133
:104290004EA7F901E35FF84F24912FA78B8D882358
:1042A00079F00E948C198CB58C7F8CBD8DB58160A6
:1042B0008DBD8CB58F7D8CBD8CB5837F8CBD41C091
:1042C00061E08BA50E94A03061E089A50E94A0302A
:1042D00060E08AA50E94A0304BA550E0FA01E35DA2
:1042E000F84FE491F0E0EE0FFF1FE95AF84FA59167
:1042F000B491BF8FAE8F29A530E0F901E35DF84F8F
:10430000849190E0880F991F895A984FFC018591FC
:1043100094919D8F8C8FFA01E35FF84F44914DA7E4
:10432000F901E35FF84F24912CA78C919DA59095FE
:1043300089238C93EC8DFD8D90818CA580958923AC
:10434000808361E088A50E94D93065E070E080E05C
:1043500090E00E94EF2F60E088A50E94D93064E1D0
:1043600070E080E090E00E94EF2F61E088A50E945D
:10437000D93066E970E080E090E00E94EF2F6FEEA8
:10438000CE010E94C42063E0CE010E94EF2060E8CD
:10439000CE010E94EF2062E0CE010E94EF206FEC80
:1043A000CE010E94C42060E0CE010E94EF2061ECAB
:1043B000CE010E94EF2060E3CE010E94EF206DEE5F
:1043C000CE010E94C42064E6CE010E94EF2063E08B
:1043D000CE010E94EF2062E1CE010E94EF2061E851
:1043E000CE010E94EF2068EECE010E94C42065E855
:1043F000CE010E94EF2060E0CE010E94EF2068E72E
:10440000CE010E94EF206BECCE010E94C42069E334
:10441000CE010E94EF206CE2CE010E94EF2060E00E
:10442000CE010E94EF2064E3CE010E94EF2062E003
:10443000CE010E94EF2067EFCE010E94C42060E20F
:10444000CE010E94EF206AEECE010E94C42060E0FF
:10445000CE010E94EF2060E0CE010E94EF2060ECD0
:10446000CE010E94C42063E2CE010E94EF2061ECE5
:10447000CE010E94C42060E1CE010E94EF2065ECD5
:10448000CE010E94C4206EE3CE010E94EF2068E2BC
:10449000CE010E94EF2067ECCE010E94C42066E8A6
:1044A000CE010E94EF2066E3CE010E94C42068E4A2
:1044B000CE010E94EF206AE3CE010E94C42065E590
:1044C000CE010E94EF2061EBCE010E94C42060E08B
:1044D000CE010E94EF2068E1CE010E94EF2066EB42
:1044E000CE010E94C42068E0CE010E94EF2062E865
:1044F000CE010E94EF2067E2CE010E94EF2062EF22
:10450000CE010E94C42060E0CE010E94EF2066E24E
:10451000CE010E94C42061E0CE010E94EF2060EE37
:10452000CE010E94C4206FE0CE010E94EF2061E323
:10453000CE010E94EF206BE2CE010E94EF206CE0E2
:10454000CE010E94EF206EE0CE010E94EF2068E0D5
:10455000CE010E94EF206EE4CE010E94EF2061EFB9
:10456000CE010E94EF2067E3CE010E94EF2067E0BA
:10457000CE010E94EF2060E1CE010E94EF2063E0B7
:10458000CE010E94EF206EE0CE010E94EF2069E094
:10459000CE010E94EF2060E0CE010E94EF2061EE8C
:1045A000CE010E94C42060E0CE010E94EF206EE0A8
:1045B000CE010E94EF2064E1CE010E94EF2063E073
:1045C000CE010E94EF2061E1CE010E94EF2067E062
:1045D000CE010E94EF2061E3CE010E94EF2061EC4A
:1045E000CE010E94EF2068E4CE010E94EF2068E037
:1045F000CE010E94EF206FE0CE010E94EF206CE020
:10460000CE010E94EF2061E3CE010E94EF2066E31D
:10461000CE010E94EF206FE0CE010E94EF2061E109
:10462000CE010E94C42068E770E080E090E00E9424
:10463000EF2F69E2CE01DF91CF910C94C420CF928D
:10464000DF92FF920F931F93CF93DF9300D000D0A0
:104650001F92CDB7DEB76C01F62E6AE22B833A8348
:104660004D835C8379830E94C4207981672FC601C2
:104670000E94EF206F2DC6010E94EF203A81632F28
:10468000C6010E94EF202B81622FC6010E94EF20FD
:104690006BE2C6010E94C4205C81652FC6010E94A6
:1046A000EF204D81642FC6010E94EF20612FC601CB
:1046B0000E94EF20602FC6010E94EF206CE2C6012D
:1046C0000F900F900F900F900F90DF91CF911F914F
:1046D0000F91FF90DF90CF900C94C420EF92FF9247
:1046E0000F931F93CF93DF93EC01F22EE32E77FD10
:1046F0002FC0288539856217730754F557FD28C0E8
:104700002A853B85421753071CF58A010F5F1F4F0F
:104710009B012F5F3F4F0E941F23E8A1F9A18081D9
:104720009FA5892B8083ECA1FDA190818EA580950A
:10473000892380836E2DCE010E9499206F2DCE019A
:104740000E949920ECA1FDA180819EA5892B8083E8
:10475000DF91CF911F910F91FF90EF900895CF922D
:10476000DF92EF92FF920F931F93CF93DF93EC01B1
:104770007901D02EC12E8885998568177907CCF5E7
:104780008A859B8548175907A4F59A012E0D3F1D70
:10479000821793071CF47C01E41AF50A8A010E0DB6
:1047A0001F1D015011099B01CE010E941F23E8A18A
:1047B000F9A180819FA5892B8083ECA1FDA1908127
:1047C0008EA5809589238083E114F10461F06C2D1E
:1047D000CE010E9499206D2DCE010E94992081E08A
:1047E000E81AF108F1CFECA1FDA180819EA5892BEB
:1047F0008083DF91CF911F910F91FF90EF90DF9019
:10480000CF900895CF92DF92EF92FF920F931F9374
:10481000CF93DF93EC017901D02EC12E8885998545
:1048200068177907CCF52A853B8542175307A4F50D
:104830009B012E0D3F1D821793071CF47C01E61A85
:10484000F70A9B012E0D3F1D215031098A01CE012F
:104850000E941F23E8A1F9A180819FA5892B808355
:10486000ECA1FDA190818EA5809589238083E11420
:10487000F10461F06C2DCE010E9499206D2DCE01C6
:104880000E94992081E0E81AF108F1CFECA1FDA186
:1048900080819EA5892B8083DF91CF911F910F91FD
:1048A000FF90EF90DF90CF900895AF92BF92CF929C
:1048B000DF92EF92FF920F931F93CF93DF93EC0160
:1048C0006901580128853985621773070CF04EC0BD
:1048D0008A859B85481759070CF048C0FB01EC0DF1
:1048E000FD1D2E173F071CF46901C61AD70A9A014D
:1048F0002A0D3B1D821793071CF45C01A41AB50A0C
:104900008A010A0D1B1D015011099B012C0D3D1D33
:1049100021503109CE010E941F23E8A1F9A1808115
:104920009FA5892B8083ECA1FDA190818EA5809508
:10493000892380831A141B049CF486011016110627
:104940005CF46F2DCE010E9499206E2DCE010E9445
:10495000992001501109F2CF81E0A81AB108EACFDD
:10496000ECA1FDA180819EA5892B8083DF91CF9151
:104970001F910F91FF90EF90DF90CF90BF90AF907D
:1049800008951F93CF93DF93EC01162F66E30E94E7
:10499000C420612F63706D8B623041F0633089F009
:1049A000613011F068E403C068E20CC068E8CE0131
:1049B0000E94EF2080EF90E09987888780E491E063
:1049C0000AC068EECE010E94EF2080E491E0998752
:1049D000888780EF90E09B878A87DF91CF911F9136
:1049E0000895FC017183608342830895DC018D91F9
:1049F0009C91DC01ED91FC910280F381E02D099402
:104A0000DC018D919C91DC01ED91FC910484F58594
:104A1000E02D0994DC018D919C91DC01ED91FC91DC
:104A20000488F589E02D0994EF92FF920F931F936C
:104A3000CF93DF931F92CDB7DEB77C018B01622F3E
:104A400049830E940A25D7018D919C91DC01ED914B
:104A5000FC910680F781E02D4981B8010F90DF912C
:104A6000CF911F910F91FF90EF900994DC018D91F0
:104A70009C91DC01ED91FC910688F789E02D099469
:104A80001F93CF93DF93EC01162F88819981DC016E
:104A9000ED91FC910288F389E02D0995612FCE01FB
:104AA0000E9436251A83DF91CF911F9108951F939D
:104AB000CF93DF93EC0188819981DC01ED91FC912A
:104AC0000190F081E02D0995182F882321F06A814B
:104AD000CE010E944025812FDF91CF911F91089533
:104AE000DC018D919C91DC01ED91FC91008CF18DAC
:104AF000E02D0994DC018D919C91DC01ED91FC91FC
:104B0000028CF38DE02D0994DC018D919C91DC01E8
:104B1000ED91FC91068CF78DE02D0994DC018D91CF
:104B20009C91DC01ED91FC9100A0F1A1E02D099494
:104B3000DC018D919C91DC01ED91FC9102A0F3A12F
:104B4000E02D0994DC018D919C91DC01ED91FC91AB
:104B500004A0F5A1E02D0994AF92BF92CF92DF920D
:104B6000EF92FF920F931F93CF93DF93EC015901C4
:104B700088819981DC01ED91FC910480F581E02D23
:104B80000995882309F1A114B10429F0CE010E94EE
:104B90008E25F50180830115110529F0CE010E94B3
:104BA0008425D8018C93E114F10429F0CE010E94F0
:104BB0009825F7018083C114D10441F0CE010E94F1
:104BC000A225D6018C9302C080E001C081E0DF9174
:104BD000CF911F910F91FF90EF90DF90CF90BF90FA
:104BE000AF90089581E00895FC0165830895FC016C
:104BF00064830895FC0162870895FC01638708952A
:104C0000FC01648708954095FC0125854223462BCD
:104C100045870895FC0186810895FC0187810895E8
:104C2000FC0180850895FC018185089580E0089548
:104C3000CF93DF93EC01E881F9810280F381E02DCD
:104C4000CE010995811103C00E94C42EF4CFDF91DB
:104C5000CF910895CF93DF93EC018A819B810397D5
:104C600019F40E94C42EF9CF81E0DF91CF9108950D
:104C70008F929F92AF92BF92CF92DF92EF92FF926C
:104C8000CF93DF93EC016B010E94C02F4B015C01BD
:104C9000E12CF12C0E94C02F681979098A099B091F
:104CA0006C157D058E059F0560F4E881F981028011
:104CB000F381E02DCE010995811105C00E94C42E1B
:104CC000E9CF80E001C081E0DF91CF91FF90EF90CC
:104CD000DF90CF90BF90AF909F908F9008958F926C
:104CE0009F92AF92BF92CF92DF92EF92FF92CF93BB
:104CF000DF93EC016B010E94C02F4B015C01E12CA2
:104D0000F12C0E94C02F681979098A099B096C153A
:104D10007D058E059F0538F48A819B81039729F4D0
:104D20000E94C42EEECF80E001C081E0DF91CF91E0
:104D3000FF90EF90DF90CF90BF90AF909F908F90BB
:104D40000895FC018AEF93E091838083138212829D
:104D50008FEF84838287838714861586108A17864F
:104D6000128A118A148A138A0895FC01868508958F
:104D700008950895FC01758364830895FC01778389
:104D800066830895FC01738362830895FC0186E2C3
:104D900094E0918380837383628355834483378354
:104DA000268308956EBD00000DB407FEFDCF8EB5BD
:104DB00008958CB580688CBD08958CB58F778CBDB7
:104DC0000895FC01268137812115310579F02130C4
:104DD000310541F02230310539F02330310531F40D
:104DE0009CE005C094E003C098E001C090E08CB561
:104DF000837F892B8CBD84819581019719F48CB5B3
:104E0000806202C08CB58F7D8CBD828193810197B9
:104E10008430910528F4FC01EA5CFB4F908101C0CD
:104E200091E02CB5892F83702C7F822B8CBD8DB5A2
:104E300092FB992790F98E7F892B8DBD0C948C194C
:104E40000C94C219CF93DF93EC010E94C6268EE327
:104E500094E099838883DF91CF91089520E030E03A
:104E600040E050E060E070E089EF9AE00C94222787
:104E7000CF93DF93EC010E94F1241B821C821D82E0
:104E80001E821F8288EC90E09987888783E08A875A
:104E9000DF91CF9108950F931F93CF93DF9300D0AD
:104EA000CDB7DEB78C014A830E94702540E060E8F0
:104EB000C8010E947A2581E289832A8141E0BE01EE
:104EC0006F5F7F4FC8010E941425C8010E94002512
:104ED0000F900F90DF91CF911F910F9108952F9216
:104EE0003F924F925F926F927F928F929F92AF927A
:104EF000BF92CF92DF92EF92FF920F931F93CF93C7
:104F0000DF93CDB7DEB728970FB6F894DEBF0FBE9C
:104F1000CDBF5C0119012801470136014F83588735
:104F20006D837E830E94F6244F8158856D817E813A
:104F3000882329F1CE0101966C01DE0112967D01D4
:104F40008E010D5F1F4F9E012C5F3F4FC5010E94D8
:104F5000AC25182F882399F0898187FD10C08B819B
:104F60008F3F29F04C816A81C5010E944B278A81BD
:104F70009C81F501E90FF11D2385821302C010E029
:104F800017C02114310411F0D1019C934114510434
:104F900019F09B81D2019C938114910411F0D401EA
:104FA0008C936114710419F09981D3019C938387C8
:104FB000812F28960FB6F894DEBF0FBECDBFDF91CC
:104FC000CF911F910F91FF90EF90DF90CF90BF9006
:104FD000AF909F908F907F906F905F904F903F9099
:104FE0002F900895CF93DF93EC018D899E89DC018A
:104FF000ED91FC910680F781E02D099561E08F89A4
:105000000E94A03061E08F890E94D93064E670E090
:1050100080E090E00E94EF2F81E0DF91CF91089532
:10502000EF92FF920F931F93CF93DF931F92CDB711
:10503000DEB77C018A0169830E94A12682E594E0A3
:10504000F70191838083168B058B6981678B0F90A5
:10505000DF91CF911F910F91FF90EF9008950F93E3
:105060001F93CF93DF93EC01062F1FB7F89460E0F6
:105070008F890E94D9308D899E89DC01ED91FC9148
:10508000602F6F770190F081E02D09958D899E89C1
:10509000DC01ED91FC910190F081E02D60E009953B
:1050A000082F61E08F890E94D9301FBF802FDF91C8
:1050B000CF911F910F910895EF92FF920F931F933D
:1050C000CF93DF931F92CDB7DEB77C01162F0FB7BA
:1050D000F89460E0DC0157968C9149830E94D930A6
:1050E000F70185899689DC01ED91FC91612F60685B
:1050F0000190F081E02D0995182FF7018589968997
:10510000DC01ED91FC910190F081E02D4981642F4B
:10511000099561E0F70187890E94D9300FBF812F7F
:105120000F90DF91CF911F910F91FF90EF90089515
:10513000AF92BF92DF92EF92FF920F931F93CF93A4
:10514000DF9300D0CDB7DEB78C01D62EF22EEFB6AE
:10515000F89460E0DC0157968C9149835A830E9451
:10516000D930F80185899689DC01ED91FC916D2D8E
:105170006F770190F081E02D0995D82E4981A42EFA
:105180005A81B52EF40EFA1479F0F80185899689C2
:10519000DC01ED91FC910190F081E02D60E009953A
:1051A000F50181935F01EFCF61E0D80157968C91B3
:1051B0000E94D930EFBE8D2D0F900F90DF91CF91CF
:1051C0001F910F91FF90EF90DF90BF90AF900895E7
:1051D000AF92BF92DF92EF92FF920F931F93CF9304
:1051E000DF9300D0CDB7DEB78C01D62EF22EEFB60E
:1051F000F89460E0DC0157968C9149835A830E94B1
:10520000D930F80185899689DC01ED91FC916D2DED
:1052100060680190F081E02D0995D82E4981A42E77
:105220005A81B52EF40EFA1471F0F8018589968929
:10523000D5016D915D01DC01ED91FC910190F08152
:10524000E02D0995F0CF61E0F80187890E94D930FF
:10525000EFBE8D2D0F900F90DF91CF911F910F9189
:10526000FF90EF90DF90BF90AF900895CF93DF93C2
:10527000EC018F890E940F3121E0892B09F420E095
:105280008A8D8227DF91CF910895FC01808D0C9447
:10529000D930FC01238D6227818D0C94D930CF93B6
:1052A000DF93EC018A819B81029761F060E0CE017F
:1052B0000E94492960E0CE010E94452982E090E0E9
:1052C0009B838A83DF91CF910895862F869586955B
:1052D000887098E0980F891749F0E82FF0E0E658B9
:1052E000FB4F2081621719F08F5FF5CF80E00895A2
:1052F0001F93CF93DF93EC010E943629882319F086
:105300009F8D9F5F9F8F9E8D891771F098A190351B
:1053100018F42BE030E002C02DE130E098A1290F15
:10532000311D28A38E8F03C088A18C5E88A388A11D
:10533000803A08F46EC08AA19BA1969587959BA39D
:105340008AA38F8D853028F08AA19BA198609BA3AA
:105350008AA388A1805A88A31F8E89A1882309F473
:1053600046C08CA18F5F8CA38C3008F452C06AA118
:105370007BA16F73CE010E946529182F6AA17BA1C2
:1053800046E0769567954A95E1F7CE010E9465293A
:1053900090E1199F90011124822BBE0167597F4F24
:1053A000FB019081DE01A859BF4F9923B1F0FB01A9
:1053B000908121E0290F2083AE01490F511DFA0190
:1053C00085A3FB0190818C91981778F019A281E058
:1053D0008C8FCE010E944F2908C08C939C919730EE
:1053E00090F09C91943478F4E2CF1CA212C08AA170
:1053F0009BA188339B4069F481E089A31CA2C75913
:10540000DF4F188206C019A28F8598890196988B64
:105410008F87DF91CF911F910895CF92DF92EF9206
:10542000FF920F931F93CF93DF93EC018C010459EC
:105430001F4FF801808191E0980F9083811136C051
:105440006E01FAE6CF0ED11CF6018081EF56FF4FB8
:105450009081891748F0CE010E944F298B899C8941
:1054600001969C8B8B8B22C0FE01E80FF11DE35946
:10547000FF4F608170E07E01FBE6EF0EF11CF7014B
:10548000808191E0980F908302C0759567958A9509
:10549000E2F76170CE010E944529F70180818630D4
:1054A00028F01082F60180818F5F8083F80180816F
:1054B000883008F01082DF91CF911F910F91FF90FB
:1054C000EF90DF90CF900895FC012281338124304A
:1054D000310511F40C947829FC01228133812330A9
:1054E000310511F40C940D2A08951F920F920FB6F6
:1054F0000F9211240BB60F922F933F934F935F930C
:105500006F937F938F939F93AF93BF93EF93FF938B
:105510008091010B9091020B0E94642AFF91EF9100
:10552000BF91AF919F918F917F916F915F914F91BB
:105530003F912F910F900BBE0F900FBE0F901F90B9
:1055400018958BEF0895CF93DF93EC018A819B81AF
:10555000019749F040E061E0CE010E945C2881E0C3
:1055600090E09B838A8381E0DF91CF9108951F9320
:10557000CF93DF93EC01142FA9010E9410288EEA2B
:1055800094E099838883FE01E65EFE4F1082188FB7
:105590008FEF898FDF91CF911F910895FC01828D4C
:1055A0008430D8F0838D8683848D8783858D808732
:1055B000868D81878581811107C0968184819817A6
:1055C00019F086818F3F49F4818992890196928BE7
:1055D000818BE65EFE4F81E0808308952FB7F894BB
:1055E000FC01E65EFE4F1082FC01128E2FBF089573
:1055F000CF92DF92EF92FF920F931F93CF93DF939F
:10560000EC017B018A01E881F9810280F381E02DC0
:105610000995D82E882311F1E114F104E1F0011568
:105620001105C9F0CFB6F8942A8D30E02350310926
:10563000F801408150E0421753071CF09A8D9450B6
:105640009083F801408150E0BE01615E7F4FC70149
:105650000E94423ACFBECE010E94EE2A8D2DDF91EC
:10566000CF911F910F91FF90EF90DF90CF90089511
:10567000CF92DF92EF92FF92CF93DF93EC01CB01B9
:10568000BA0120E034E244E759E40E94FE3820E009
:1056900034E244E752E40E9421370E948E376B01C6
:1056A0007C01A7016627772766E0CE010E945C286F
:1056B00077276F2D5E2D4D2D67E0CE010E945C286F
:1056C0004C2D68E0CE010E945C2881E0DF91CF91F3
:1056D000FF90EF90DF90CF900895CF93DF93EC0190
:1056E0008A819B81029749F041E061E0CE010E94EE
:1056F0005C2882E090E09B838A83DF91CF910895BC
:105700001F93CF93DF93EC0162E10E942F282A813F
:105710003B812430310519F4982F907A41F42A8185
:105720003B8124303105E1F586FD0EC039C08F85FF
:1057300098890196988B8F874FEF62E1CE01DF91B8
:10574000CF911F910C945C2863E1CE010E942F2819
:10575000182F60E1CE010E942F28482F6DE0CE0166
:105760000E945C28212FAE01455E5F4F60E0CE01B4
:105770000E9498281A8F4FEF62E1CE010E945C28A8
:105780006AE1CE010E942F2889588E87CE010E949F
:10579000CE2AFE01E65EFE4F8081882369F20CC0AE
:1057A0002A813B812330310539F683FFC5CF8B89B0
:1057B0009C8901969C8B8B8BCE010E946D2BBCCF5C
:1057C0008091040B9091050B009711F00C94802BA5
:1057D00008958091060B9091070B009711F00C949F
:1057E000802B08958091080B9091090B009711F080
:1057F0000C94802B0895CF93DF93EC018A819B81D9
:10580000049771F045E061E0CE010E945C2840E021
:1058100060E4CE010E945C2884E090E09B838A8350
:10582000DF91CF910895CF93DF93EC018A819B8123
:10583000039739F0CE010E94FB2BC65EDE4F8881B4
:1058400001C080E0DF91CF910895CF93DF93EC0109
:105850008A819B81039771F043E061E0CE010E9451
:105860005C2840E460E4CE010E945C2883E090E084
:105870009B838A83DF91CF910895FF920F931F93AB
:10588000CF93DF93EC018B01F42E8BEF8417A0F103
:10589000E881F9810484F585E02DCE010995CE01DA
:1058A0000E946D2B40E06DE0CE010E945C284A858D
:1058B00060E0CE010E945C284B8560E0CE010E9432
:1058C0005C284C8560E0CE010E945C284D8560E03C
:1058D000CE010E945C282F2DA80160E0CE010E941D
:1058E000E82844E04F0D62E2CE010E945C28CE0120
:1058F0000E94252C81E001C080E0DF91CF911F91B3
:105900000F91FF9008951F93CF93DF93EC01162F13
:1059100068312CF465305CF0653154F001C017E15A
:1059200047E06DE4CE010E945C28135006C015E0EC
:1059300044E06DE4CE010E945C284BEF410F4068CB
:1059400069E0CE01DF91CF911F910C945C280F93F9
:105950001F93CF93DF93EC018B01FB0140816DE13D
:105960000E945C28F80141816EE1CE010E945C2812
:10597000F801428166E2CE01DF91CF911F910F9134
:105980000C945C280F931F93CF93DF9300D01F924A
:10599000CDB7DEB78C0165307105B4F49B01220FE1
:1059A000331F260F371F2F51394F43E050E0B90105
:1059B000CE0101960E94393ABE016F5F7F4FC80148
:1059C0000E94A72C81E001C080E00F900F900F9003
:1059D000DF91CF911F910F9108951F93CF93DF9384
:1059E000EC01162F472F60E20E945C28412F61E2F4
:1059F000CE01DF91CF911F910C945C28FF920F9301
:105A00001F93CF93DF93EC010E94F227F82E8111B0
:105A100002C0F12CA5C0888D8A3039F08B3041F05E
:105A2000823049F402E010E008C000E010E005C058
:105A300001E010E002C00FEF1FEF6DE874E083E1BA
:105A40009BE00E945B344AE050E06AE070E083E152
:105A50009BE00E942D3565E974E083E19BE00E94A4
:105A60005B344AE050E0688D83E19BE00E94593549
:105A70006EE974E083E19BE00E945B344AE050E011
:105A8000B80183E19BE00E942D350F3F8FEF18078F
:105A900009F4BFCF40E861E0CE010E945C286AE0D3
:105AA00070E080E090E00E94EF2F61E0CE010E9464
:105AB0002F28803809F0ADCF60E0888D0E94A0309B
:105AC000898D8F3F51F48091030B843008F0A1CF72
:105AD00091E0980F9093030B898F998DE92FF0E057
