:100000000C9401050C94D2400C94FD400C942841B2
:100010000C94D21C0C94D21C0C94D21C0C94D21CA8
:100020000C9430050C9430050C9430050C9430057C
:100030000C9430050C94B63A0C9430050C943005B1
:100040000C94EE0B0C9430050C9453410C94300539
:100050000C9495440C94CB440C9430050C943005CE
:100060000C9430050C9430050C9430050C9430053C
:100070000C9442450C9478450C9430050C94300552
:100080000C9430050C9430050C943005660E6C0F02
:100090001F116112A813DB140A157C158A428D42C8
:1000A00080428442A442A442914295429B429F4294
:1000B000084AD73B3BCE016E84BCBFFDC12F3D6CCF
:1000C00074319ABD56833DDA3D00C77F11BED9E435
:1000D000BB4C3E916BAAAABE000000803F072C7A61
:1000E000A5BA6CC590DA3B9365FC8BBC53F810FD48
:1000F0003C5692834DBD879D3AB63DCBC9BF5BBE92
:1001000073DA0FC93F05A84CCDB2D44EB93836A921
:10011000020C50B9918688083CA6AAAA2ABE000003
:1001200000803F002A0024002A0024000A2A2A2AEC
:100130002A2A2A2A2A2020204C6F672064756D7095
:10014000202A2A2A2A2A2A2A2A00556E6B6E6F77BD
:100150006E204C434420647269766572206368693E
:10016000703A200053657475702066696E69736813
:100170006564004C6F672023207265636F7264733F
:100180002073617665643A004C6F67206E65787401
:10019000207265616420616464723A004C6F67206C
:1001A0006E65787420777269746520616464723A50
:1001B000004C6F67206461746120696E69746961C5
:1001C0006C697A6564005665723A00475053205452
:1001D000454C454D4554525900696E69742066611D
:1001E000696C656400496E697469616C697A696EED
:1001F000672E2E2E0047505320414E442054454C2C
:10020000454D45545259204D4F44554C4500000032
:100210000000003E5B4F5B3E3E6B4F6B3E1C3E7CE6
:100220003E1C183C7E3C181C577D571C1C5E7F5E94
:100230001C00183C1800FFE7C3E7FF001824180053
:10024000FFE7DBE7FF30483A060E262979292640EA
:100250007F050507407F05253F5A3CE73C5A7F3E16
:100260001C1C08081C1C3E7F14227F22145F5F00A8
:100270005F5F06097F017F006689956A6060606044
:100280006094A2FFA29408047E040810207E20102F
:1002900008082A1C08081C2A08081E101010100C38
:1002A0001E0C1E0C30383E3830060E3E0E06000086
:1002B00000000000005F00000007000700147F142A
:1002C0007F14242A7F2A1223130864623649562099
:1002D000500008070300001C2241000041221C00BE
:1002E0002A1C7F1C2A08083E08080080703000087D
:1002F00008080808000060600020100804023E5151
:1003000049453E00427F40007249494946214149E2
:100310004D331814127F1027454545393C4A494949
:100320003141211109073649494936464949291EB3
:1003300000001400000040340000000814224114A2
:1003400014141414004122140802015909063E41F4
:100350005D594E7C1211127C7F494949363E41411C
:1003600041227F4141413E7F494949417F09090975
:10037000013E414151737F0808087F00417F4100E1
:100380002040413F017F081422417F404040407F90
:10039000021C027F7F0408107F3E4141413E7F09DD
:1003A0000909063E4151215E7F091929462649491E
:1003B000493203017F01033F4040403F1F2040205E
:1003C0001F3F4038403F631408146303047804035C
:1003D0006159494D43007F4141410204081020000A
:1003E0004141417F0402010204404040404000037B
:1003F00007080020545478407F2844443838444447
:100400004428384444287F385454541800087E093E
:100410000218A4A49C787F0804047800447D40005E
:100420002040403D007F1028440000417F40007C78
:10043000047804787C080404783844444438FC1870
:1004400024241818242418FC7C0804040848545454
:10045000542404043F44243C4040207C1C20402081
:100460001C3C4030403C44281028444C9090907CE8
:100470004464544C440008364100000077000000FA
:100480004136080002010204023C2623263C1EA13C
:10049000A161123A4040207A38545455592155559B
:1004A000794122545478422155547840205455794A
:1004B000400C1E52721239555555593954545459DD
:1004C00039555454580000457C410002457D420096
:1004D00001457C407D1211127DF0282528F07C54C6
:1004E0005545002054547C547C0A097F49324949BF
:1004F00049323A4444443A324A4848303A41412128
:100500007A3A42402078009DA0A07D3D4242423D83
:100510003D4040403D3C24FF2424487E4943662B17
:100520002FFC2F2BFF0929F620C0887E09032054B9
:100530005479410000447D413048484A32384040B7
:10054000227A007A0A0A727D0D19317D2629292F17
:1005500028262929292630484D402038080808082F
:1005600008080808382F10C8ACBA2F102834FA0031
:10057000007B000008142A142222142A14085500B3
:10058000550055AA55AA55AAFF55FF55FF00000072
:10059000FF00101010FF00141414FF001010FF00D3
:1005A000FF1010F010F0141414FC001414F700FFE6
:1005B0000000FF00FF1414F404FC141417101F10A3
:1005C000101F101F1414141F00101010F000000052
:1005D000001F101010101F10101010F0100000005D
:1005E000FF101010101010101010FF10000000FF6E
:1005F000140000FF00FF00001F10170000FC04F4AF
:1006000014141710171414F404F40000FF00F71466
:10061000141414141414F700F714141417141010ED
:100620001F101F141414F4141010F010F000001F09
:10063000101F0000001F14000000FC140000F01048
:10064000F01010FF10FF141414FF141010101F00EE
:10065000000000F010FFFFFFFFFFF0F0F0F0F0FFF0
:10066000FFFF0000000000FFFF0F0F0F0F0F3844C7
:10067000443844FC4A4A4A347E02020606027E029C
:100680007E0263554941633844443C04407E201E49
:100690002006027E020299A5E7A5991C2A492A1C78
:1006A0004C7201724C304A4D4D303048784830BC65
:1006B000625A463D3E494949007E0101017E2A2A8F
:1006C0002A2A2A44445F444440514A444040444A10
:1006D00051400000FF0103E080FF000008086B6B41
:1006E000083612362436060F090F060000181800C7
:1006F00000001010003040FF0101001F01011E002A
:10070000191D1712003C3C3C3C000000000000009A
:100710000100FF0032000100000102000007030099
:1007200030100400000008000202090000000A0066
:1007300000000C0000000D0000000F000000100081
:100740000000110007001200000013000000FF006D
:10075000C8001000901611002702FF00320012009E
:100760001A00FF0032001300001829002A00FF00C1
:10077000320030000000310000003200000035007F
:100780000602360008083700070038000102390069
:1007900000003C0000003D0000002000000021009F
:1007A0000000500000005100EF0052000000530014
:1007B0003F01600000A7610003006A000000900094
:1007C00010009200000093000300950000119700B4
:1007D000000098000000070033010100B903FF8307
:1007E00057FFFAB30400000606B60125B00168CC35
:1007F0000105B10600151C1C83AAC0065050013C1F
:100800001E08B4070240002A2A0D783A0155360125
:10081000C0350100440200021100FF962900FF329A
:100820002E89298F2B02E200E401E510E601E71092
:10083000E870F200EA00EB20EC3CEDC8E938F10189
:100840001B1A1A022461255C183619011F88FF053E
:100850001F80FF051F90FF051FD4FF0517053609F0
:100860002838FF28283C02000300040005EF06009A
:1008700007000801093F72740092740048940078E0
:10088000C400000000010200090A00000000040387
:100890000807000000000000000000000000000049
:1008A000000001020408102040800102040810200A
:1008B000408001020408102040800102040810203A
:1008C0004080020202020202020204040404040440
:1008D00004040303030303030303010101010101F2
:1008E0000101000020002300260029000000220052
:1008F000250028002B0000002100240027002A00EA
:1009000000407A10F35A00A0724E18090010A5D4C6
:10091000E80000E87648170000E40B54020000CA23
:100920009A3B000000E1F505000080969800000069
:1009300040420F000000A0860100000010270000C8
:100940000000E803000000006400000000000A004E
:10095000000000000100000000002C76D888DC6751
:100960004F0823DFC1DFAE59E1B1B796E5E3E453A9
:10097000C63AE651997696E8E6C28426EB898C9BC6
:1009800062ED407C6FFCEFBC9C9F40F2BAA56FA566
:10099000F490055A2AF75C936B6CF9676DC11BFCE8
:1009A000E0E40D47FEF520E6B500D0ED902E030003
:1009B000943577050080841E080000204E0A000050
:1009C00000C80C333333330F986E12831141EF8D0F
:1009D0002114893BE65516CFFEE6DB18D1844B384F
:1009E0001BF77C1D901DA4BBE424203284725E2280
:1009F0008100C9F124ECA1E53D27680D6F37FF4464
:100A0000AC4511241FBECFEFD0E4DEBFCDBF14E054
:100A1000A0E0B1E0EAE2F4EA00E00BBF02C0079018
:100A20000D92AC3FB107D9F72CE0ACEFB4E001C0B8
:100A30001D92A036B207E1F719E0C2E0DAE000E06B
:100A400006C022970109FE010BBF0E94AA4CCA3FB3
:100A5000D10780E00807A9F70E94F0450C941352D3
:100A60000C9400008F929F92AF92BF92CF92DF9230
:100A7000EF92FF92CF93DF93EC016A017B0187EC49
:100A800099E00E947E3E8F3FD1F5B701A60141500B
:100A9000504F6F4F7F4F87EC99E00E947E3E8F3F13
:100AA00071F58C89882309F44FC080E1D80EE11CD0
:100AB000F11C62E171E086E29BE00E9460462AE060
:100AC00030E0B701A60186E29BE00E948B47B701A8
:100AD000A60187EC99E00E947E3E460157019FEFF8
:100AE000891A990AA90AB90A8F32F1F4B501A40149
:100AF00087EC99E00E947E3E8A32B1F421C0B701B2
:100B0000A60187EC99E00E94E03E69E271E086E28E
:100B10009BE00E9460462AE030E0B701A60186E231
:100B20009BE00E948B47BDCF750164018114910445
:100B300088E0A806B10458F2C12CD12C7601C7CFA9
:100B4000CC82DD82EE82FF82DF91CF91FF90EF9029
:100B5000DF90CF90BF90AF909F908F900895CF93EC
:100B6000DF93EC0187EC99E00E94D43E1C821D8249
:100B70001E821F82188219821A821B821886198689
:100B80001A861B861C8ADF91CF9108954F925F923F
:100B90006F927F928F929F92AF92BF92CF92DF928D
:100BA000EF92FF920F931F93CF93DF93CDB7DEB7F2
:100BB000A4970FB6F894DEBF0FBECDBF29A33AA30A
:100BC0004BA35CA3E986FA860B871C87840125E387
:100BD0003AEF4EE85CE30E94604B2B013C0125E3B9
:100BE0003AEF4EE85CE369A17AA18BA19CA10E9437
:100BF000604B6D877E878F87988B0E9480496D8BB5
:100C00007E8B8F8B988FC301B2010E9480496983CC
:100C10007A838B839C839B01AC016D897E898F894C
:100C2000988D0E94604B6D8B7E8B8F8B988F6D851E
:100C30007E858F8598890E94C34B29813A814B819B
:100C40005C810E94604B69837A838B839C83C301A0
:100C5000B2010E94C34B6D837E838F83988725E307
:100C60003AEF4EE85CE369857A858B859C850E9426
:100C7000604B2B013C0125E33AEF4EE85CE3C601F3
:100C8000B5010E94604B69877A878B879C870E9499
:100C90008049698B7A8B8B8B9C8BC301B2010E943C
:100CA00080496D877E878F87988B9B01AC0169890E
:100CB0007A898B899C890E94604B698B7A8B8B8B9C
:100CC0009C8B69857A858B859C850E94C34B2D857D
:100CD0003E854F8558890E94604B6D8F7E8F8F8F28
:100CE00098A3C301B2010E94C34B69877A878B879F
:100CF0009C8729893A894B895C896D897E898F898E
:100D0000988D0E94EF482B013C012D8D3E8D4F8D1B
:100D100058A169817A818B819C810E94EF486D87FF
:100D20007E878F87988B29853A854B855C856D8179
:100D30007E818F8198850E94EF48698F7A8F8B8F93
:100D40009C8FA3019201C301B2010E94604B2B0151
:100D50003C012D853E854F855889CA01B9010E9405
:100D6000604B9B01AC01C301B2010E94F0482B0112
:100D70003C01298D3A8D4B8D5C8DCA01B9010E94D1
:100D8000604B9B01AC01C301B2010E94F04829E90C
:100D90003AE743E156E50E94604B0E94CD4B20E0CC
:100DA00030E040E05FE30E94604B2B013C019B017F
:100DB000AC010E94604B9B01AC0169E97AE783E1D9
:100DC00096E50E94EF480E94CD4B9B01AC01C30108
:100DD000B2010E9483490E94544920E33EE442EC60
:100DE0005AE40E94604B9B01AC010E94F0486D8761
:100DF0007E878F87988B20E030E0A9010E947C4994
:100E0000811108C0AFA9B8AD1D921D921D921C9210
:100E1000139761C129853A854B855C8569817A8103
:100E20008B819C810E94604B2B013C012D8D3E8D5E
:100E30004F8D58A16D817E818F8198850E94604B76
:100E40009B01AC01C301B2010E94EF482B013C01A0
:100E500029893A894B895C896D817E818F8198854A
:100E60000E94604B6D837E838F83988729853A85A6
:100E70004B855C856D897E898F89988D0E94604B3A
:100E80009B01AC016D817E818F8198850E94EF4826
:100E9000698F7A8F8B8F9C8F2D8D3E8D4F8D58A1B2
:100EA0006D897E898F89988D0E94604B6D837E83CA
:100EB0008F83988729893A894B895C8969817A81EE
:100EC0008B819C810E94604B9B01AC016D817E8176
:100ED0008F8198850E94EF48698B7A8B8B8B9C8BD6
:100EE000A3019201C301B2010E94604B6D837E8316
:100EF0008F839887298D3A8D4B8D5C8DCA01B901FE
:100F00000E94604B9B01AC016D817E818F81988531
:100F10000E94F0486D837E838F83988729893A8960
:100F20004B895C89CA01B9010E94604B9B01AC01ED
:100F30006D817E818F8198850E94F0480E94CD4B03
:100F40006D837E838F83988789819A81AB81BC81F1
:100F5000B05889839A83AB83BC839C01AD01BC01EB
:100F6000CD010E94604B69877A878B879C872D898A
:100F70003E894F89588DCA01B9010E94604B9B017F
:100F8000AC0169857A858B859C850E94F04820E0BC
:100F900030E0A9010E94F0480E94CD4B69877A8712
:100FA0008B879C879B01AC0169817A818B819C81B5
:100FB0000E94834969837A838B839C832D813E8140
:100FC0004F815885C301B2010E9483499B01AC0146
:100FD00069817A818B819C810E94604B69837A83CD
:100FE0008B839C8329853A854B855C856D897E89B9
:100FF0008F89988D0E9483492B013C012D813E8170
:101000004F815885698D7A8D8B8D9C8D0E94834987
:101010009B01AC01C301B2010E94604B9B01AC017A
:1010200069817A818B819C810E94F0482B013C016F
:1010300029853A854B855C8560E070E0CB010E9494
:10104000834969837A838B839C832D813E814F8181
:10105000588569897A898B899C890E9483499B017B
:10106000AC0169817A818B819C810E94604B9B01DC
:10107000AC01C301B2010E94F0480E94E14825E39F
:101080003AEF4EE85CE30E9483492B013C0129A121
:101090003AA14BA15CA1C601B5010E94554B18169F
:1010A0004CF4A301920160E070E084E393E40E94B9
:1010B000EF4808C020E030E044E353E4C301B2014C
:1010C0000E94F0480E94EB49AFA9B8AD6D937D93A3
:1010D0008D939C93139720E030E44CE156E46D85AA
:1010E0007E858F8598890E94554B87FD13C020E02F
:1010F00030E04AE754E46D857E858F8598890E94AB
:1011000083490E94EB49F801608371838283938352
:1011100081E00DC06D857E858F8598890E94EB49A1
:10112000D8016D937D938D939C93139780E0A49643
:101130000FB6F894DEBF0FBECDBFDF91CF911F91E8
:101140000F91FF90EF90DF90CF90BF90AF909F9066
:101150008F907F906F905F904F90089580910A01DB
:101160008F5F893008F081E080930A0108951F9312
:10117000CF93DF93182FEB0161E00E94DE42BE01A6
:10118000882777FD8095982F0E94CC4160E0812FC1
:10119000DF91CF911F910C94DE42AC0184E0440FAB
:1011A000551F8A95E1F78CE0869F9001879F300D4F
:1011B0001124B90183E999E00C94F021FC019F010D
:1011C000281B390B41914111FACFC9010895CF93E2
:1011D000DF93EC010E94DE08FE0140E099279F01A9
:1011E0002C1B3D0B281739071CF421914227F7CF00
:1011F000842FDF91CF9108952F923F924F925F926B
:101200006F927F928F929F92AF92BF92CF92DF9216
:10121000EF92FF920F931F93CF93DF93CDB7DEB77B
:10122000C154D1090FB6F894DEBF0FBECDBF6A9688
:101230002FAD6A972BAB6B963FAD6B973CAB6C9623
:101240006FAD6C976DAB6D968FAD6D978AAF6E96E7
:101250009FAD6E979BAFAD96CCACDDACEEACFFAC6A
:10126000AD97AE96AFADAE97A9ABE2964CAC5DAC88
:101270006EAC7FACE297E396BFADE397BAABC70124
:10128000B6010E94EB494B015C0120E030E44CE1E7
:1012900056E4C701B6010E94604B6B017C0100E17E
:1012A00017E2089DB001099D700D189D700D112465
:1012B000882777FD8095982F0E941E4A9B01AC01DC
:1012C000C701B6010E94EF480E94EB496CAF7DAFA9
:1012D000C301B2010E94EB496B017C0120E030E4C4
:1012E0004CE156E4C301B2010E94604B2B013C016A
:1012F0000C9DB0010D9D700D1C9D700D1124882753
:1013000077FD8095982F0E941E4A9B01AC01C30176
:10131000B2010E94EF480E94EB49562E472E9E01D3
:10132000275E3F4F3AA729A7E7966CAD7DAD8EADFE
:101330009FADE797890121E044E00E94AE4CCE01C9
:1013400041969CA78BA7A5966CAD7DAD8EAD9FAD4C
:10135000A5970850110922E044E00E94AE4CDE013E
:101360001996BEA7ADA7A9966CAD7DAD8EAD9FAD0C
:10137000A9978D0122E044E00E94AE4C1E01B1E22B
:101380002B0E311CED966CAD7DAD8EAD9FADED9706
:10139000810122E041E00E94AE4CC358DF4F6881DA
:1013A00079818A819B81CD57D0409E012F5F3F4F2D
:1013B00038AB2FA7890121E044E00E94AE4C61E3E5
:1013C00071E089ED96E00E94E64C3BAD3F936AAD3B
:1013D0006F931F928DA98F931F929CA99F931F9229
:1013E000ABA9AF93A8E3B1E0BF93AF938FED96E0C5
:1013F0009F938F930E94ED4C8C010152194F89A944
:10140000992787FD90959FAB8EAB9F9399A99F934A
:10141000ADADAF93BCADBF939F928F924AE451E0C4
:101420005F934F931F930F934EAF5FAF0E94ED4CAE
:10143000080F191F2AA9332727FD309539AF28AF88
:101440003F933AA93F934F925F92DF92CF9228E564
:1014500031E03F932F931F930F9321962FAF219746
:1014600022963FAF22970E94ED4C080F191F0FB62E
:10147000F894DEBF0FBECDBF66E671E0C8010E94E2
:10148000E64C0E5F1F4FE9968FADE9971F928F9341
:1014900089E691E09F938F931F930F930E94ED4CE9
:1014A000080F191F3F922F929FE6692E91E0792E27
:1014B0007F926F921F930F930E94ED4C080F191F9C
:1014C0009AA59F93A9A5AF9383E791E09F938F93EC
:1014D0001F930F930E94ED4CB8A9BF936FA56F9314
:1014E00069E771E07F936F93800F911F9F938F93B4
:1014F0000E94ED4C89ED96E00E94E7081F928F93C1
:1015000000E811E01F930F931E0187E2280E311CA3
:101510003F922F920E94ED4C6AE271E086E29BE0DE
:101520000E943D4669ED76E086E29BE00E946046BF
:1015300068E271E086E29BE00E943D46B10186E2EE
:101540009BE00E947F4665E871E089E896E00E9492
:10155000E64C9BAD9F93AAADAF931F92BDA9BF93DD
:101560001F926CA96F931F928BA98F93A8E3B1E090
:10157000BF93AF938FE896E09F938F930E94ED4CBB
:101580008157994F1C010FB6F894DEBF0FBECDBF37
:1015900065E371E00E94E64C92E0290E311CAFA990
:1015A000AF93B9A9BF936DAD6F938CAD8F939F929D
:1015B0008F924EAD5FAD5F934F933F922F920E94FB
:1015C000ED4C280E391E99AD9F93AAA9AF934F9267
:1015D0005F92DF92CF9221962FAD219722963FAD59
:1015E00022973F932F933F922F920E94ED4C280E0B
:1015F000391EBCA5BF932BA52F937F926F923F926C
:101600002F920E94ED4C280E391E3EA53F936DA5EA
:101610006F937F926F923F922F920E94ED4C0FB684
:10162000F894DEBF0FBECDBFA1962FADA1971F923C
:101630002F93A0962FADA0971F922F936F962FAD4B
:101640006F971F922F932CE831E03F932F93820DD9
:10165000931D9F938F930E94ED4C89E896E00E9422
:10166000E7081F928F931F930F938E010B5D1F4FFF
:101670001F930F930E94ED4C66E271E086E29BE0BF
:101680000E943D4669E876E086E29BE00E94604663
:1016900064E271E086E29BE00E943D46B80186E28A
:1016A0009BE00E947F460FB6F894DEBF0FBECDBF11
:1016B000CF5BDF4F0FB6F894DEBF0FBECDBFDF911B
:1016C000CF911F910F91FF90EF90DF90CF90BF903F
:1016D000AF909F908F907F906F905F904F903F90D2
:1016E0002F900895EF92FF920F931F93CF93DF9364
:1016F0001F92CDB7DEB77C018B01211105C0498354
:101700000E94DE08498102C080E090E0F701E80F06
:10171000F91F801791071CF401964193FACFF70146
:10172000E80FF91F1082C7010F90DF91CF911F9131
:101730000F91FF90EF900895CF93C82F60E070E075
:101740008AE090E00E94CD0840E050E06FEF7FEF2C
:1017500083E999E00E94022221E040E269E170E021
:101760008CE495E00E94720BBC0183E999E00E9431
:10177000604660E070E08AE090E00E94CD08C0FF23
:101780000EC040E058EF6FEF7FEF83E999E00E94D1
:1017900002226DE971E083E999E00E946046C1FF91
:1017A0000EC040E05CEF60E070E083E999E00E94E9
:1017B000022263EA71E083E999E00E94604660E0FA
:1017C00070E080E090E00E94CD0840E050E06FEFD4
:1017D0007FEF83E999E0CF910C9402221F920F9240
:1017E0000FB60F9211240BB60F922F933F934F9386
:1017F0005F936F937F938F939F93AF93BF93EF9379
:10180000FF938DEF94E00E943E22FF91EF91BF91F4
:10181000AF919F918F917F916F915F914F913F9188
:101820002F910F900BBE0F900FBE0F901F90189529
:101830004F925F926F927F928F929F92AF92BF92E0
:10184000CF92DF92EF92FF920F931F93CF93DF938C
:1018500000D000D0CDB7DEB78C0148E350E060E0A7
:1018600070E0FC0144875587668777874FEF53E226
:1018700060E070E0408B518B628B738B148A108216
:1018800011821282138214821582168217824FEF00
:101890005FEF67E070E087EC99E00E947E3E8F3F4B
:1018A00009F0A4C040E050EF67E070E087EC99E0F9
:1018B0000E947E3E8F3F09F499C0CC24CA94DC2C50
:1018C00047E0E42EF12C88248A94982C57E0A52E2A
:1018D000B12C240135014C185D086E087F08B70152
:1018E000A60187EC99E00E947E3E8F3F31F4F1E043
:1018F000CF1AD108E108F108ECCF81E0F801848B20
:10190000FFEFCF1ADF0AEF0AFF0AF801C082D18287
:10191000E282F382CC24CA943FEED32E37E0E32E4A
:10192000F12CB701A60187EC99E00E947E3E8F3F23
:1019300041F0C114F0E1DF06E104F10408F060C0F9
:1019400015C0B701A6014F5F5F406109710987ECBF
:1019500099E00E947E3E8F3F61F7460157012FEFCD
:10196000C216D20627E0E206F10431F181E0F80167
:10197000848B46015701B501A40187EC99E00E94D0
:101980007E3EA50194012F5F3F4F4F4F5F4F29834C
:101990003A834B835C838F32C1F5BA01A90187EC8E
:1019A00099E00E947E3E8A3281F5F8018482958218
:1019B000A682B78246015701B501A40187EC99E0E0
:1019C0000E947E3E8F3F81F581149104A104B104F1
:1019D00091F540E050E0BA0187EC99E00E947E3E2C
:1019E0008F3FA1F1812C912C540167C0412C512CC7
:1019F0003201CC24CA94DC2C27E0E22EF12C91CFCA
:101A0000F0E1DF1AE108F1088CCF89809A80AB8081
:101A1000BC808114910428E0A206B10409F0ABCF88
:101A2000812C912C5401A7CF81149104A104B104FD
:101A300009F043C0CECFFFEF4F1A5F0A6F0A7F0A4B
:101A400021E0821A9108A108B108B6CFF801848973
:101A5000811105C0F8011082118212821382FFEFFA
:101A60004F1A5F0A6F0A7F0A60E070E088E090E03A
:101A70006419750986099709F80124853585468515
:101A800057850E943A4CF801208731874287538757
:101A90000F900F900F900F90DF91CF911F910F91AA
:101AA000FF90EF90DF90CF90BF90AF909F908F907E
:101AB0007F906F905F904F900895FFEF8F1A9F0A6D
:101AC000AF0ABF0AF80180829182A282B382CCCF92
:101AD000EF92FF920F9340E35FEE67E187EC99E0AE
:101AE0000E94FF3D6CE2E62EFF24F3940AE129E117
:101AF00048E16BE18FEB99E00E948F407CE1E72E9B
:101B000005E124E143E162E183E999E00E94412398
:101B10002CE03BE042E064E083E698E00E94F83A83
:101B200041E063E678E088E597E00E9479378FE24C
:101B30009AE2A0E08093510690935206A093530638
:101B40008093190690931A06A0931B068093E105D3
:101B50009093E205A093E30563EC7BE08DEF94E0C6
:101B60000F91FF90EF900C94FC22EF92FF920F9355
:101B70001F9360E070E083E999E00E94A82DE09156
:101B80009309F09194090484F585E02DEE24EA94FC
:101B9000FE2C08E710E028E730E048EC50E060E079
:101BA00070E083E999E00995E12CB8EFFB2E28E776
:101BB00030E048EC50E060E070E083E999E00E949A
:101BC0001C2DE0919309F09194090484F585E02D92
:101BD000EE24EA94FE2C28E730E048EC50E068E779
:101BE00070E083E999E0099590EEE92EFF24FA94DC
:101BF00028E730E048EC50E068E770E083E999E0DE
:101C00000E941C2D64E070E080E190E00E94CD080D
:101C10006FEF7FEF83E999E00E94FC2164E083E9A4
:101C200099E00E94F62169EA71E083E999E00E9457
:101C30007F466EE070E080E190E00E94CD086FE1A9
:101C400070E083E999E00E94FC2164E083E999E077
:101C50000E94F6216CEA71E083E999E00E947F46D8
:101C600062E083E999E00E94F62160E083E999E06F
:101C70000E94763040E050E06FEF7FEF83E999E01B
:101C80000E94022261E083E999E00E94082240E07C
:101C900050E060E070E083E999E01F910F91FF90C0
:101CA000EF900C94F021EF92FF920F931F93CF933C
:101CB000DF9390E0FC013197E830F10508F074C73C
:101CC000EA5BFF4F2091FC040C947B4C213019F40B
:101CD000662309F4A2C081E08093FC040E94B50D44
:101CE00060E070E080E090E00E94CD086FEA71E073
:101CF00083E999E00E94604660E070E081E090E056
:101D00000E94CD08809173061F928F938AEB91E019
:101D10009F938F93C4E7D5E0DF93CF930E94ED4C60
:101D2000BE0183E999E00E94604660E070E082E0D5
:101D300090E00E94CD08809172061F928F9381ECF3
:101D400091E09F938F93DF93CF930E94ED4CBE0160
:101D500083E999E00E94604660E070E083E090E0F3
:101D60000E94CD0860917406709175068091760688
:101D7000909177060CE415E022E045E00E94AE4C1D
:101D80009F938F9389EC91E09F938F93DF93CF93F1
:101D90000E94ED4CBE0183E999E00E94604660E03C
:101DA00070E084E090E00E94CD0880914F078F930F
:101DB00080914E078F9381ED91E09F938F93DF93F6
:101DC000CF930E94ED4CBE0183E999E00E946046EA
:101DD00060E070E085E090E00E94CD0860918506AB
:101DE00070918606809187069091880622E044E0F3
:101DF0000E94AE4C9F938F938CED91E09F938F93B5
:101E0000DF93CF930E94ED4C8DB79EB74E960FB6E1
:101E1000F8949EBF0FBE8DBF99C464E070E081E06E
:101E200090E00E94CD084AE050E06091730683E99B
:101E300099E00E94574765E070E082E090E00E94E0
:101E4000CD084AE050E06091720683E999E00E9473
:101E5000574765E070E083E090E00E94CD08609114
:101E600074067091750680917606909177060CE461
:101E700015E022E045E00E94AE4CBC0184E795E00D
:101E80000E94E64C64E775E083E999E00E946046B1
:101E900068E070E084E090E00E94CD0860914E0719
:101EA00070914F074AE050E083E999E00E942A4789
:101EB00067E070E085E090E00E94CD0860918506C3
:101EC00070918606809187069091880622E044E012
:101ED0000E94AE4CBC0199C5223019F4662309F466
:101EE000C3C082E08093FC040E94B50D60E070E006
:101EF00080E090E00E94CD0868EE71E083E999E00F
:101F00000E946046609141077091420780914307AB
:101F1000909144070E941E4A9B01AC0160916E069D
:101F200070916F0680917006909171060E94EF4843
:101F30000CE415E020E044E00E94AE4C9F938F93A8
:101F400081EF91E09F938F93C4E7D5E0DF93CF9328
:101F50000E94ED4C60E070E081E090E00E94CD08CE
:101F6000BE0183E999E00E94604626E53EE04DEE21
:101F70005FE360915C0670915D0680915E069091D2
:101F80005F060E94604B20E044E00E94AE4C9F93AD
:101F90008F938AEF91E09F938F93DF93CF930E946B
:101FA000ED4C60E070E082E090E00E94CD08BE0160
:101FB00083E999E00E946046609145077091460769
:101FC00080914707909148070E941E4A20E044E014
:101FD0000E94AE4C9F938F9386E092E09F938F93E5
:101FE000DF93CF930E94ED4C60E070E083E090E0DF
:101FF0000E94CD08BE0183E999E00E94604660E03E
:1020000070E084E090E00E94CD0860913907709103
:102010003A0780913B0790913C070E941E4A20E0BE
:1020200044E00E94AE4C9F938F9381E192E09F9396
:102030008F93DF93CF930E94ED4CBE0183E999E02B
:102040000E9460468DB79EB748960FB6F8949EBF23
:102050000FBE8DBF80914C07811103C068EF71E006
:10206000AEC068E172E0ABC0609141077091420779
:1020700080914307909144070E941E4A9B01AC0146
:1020800060916E0670916F06809170069091710656
:102090000E94EF480CE415E020E044E00E94AE4CC2
:1020A0009F938F938BE192E09F938F93C4E7D5E04A
:1020B000DF93CF930E94ED4C64E070E081E090E00C
:1020C0000E94CD08BE0183E999E00E94604626E5A2
:1020D0003EE04DEE5FE360915C0670915D0680919D
:1020E0005E0690915F060E94604B20E044E00E94F3
:1020F000AE4C9F938F9386E292E09F938F93DF93F2
:10210000CF930E94ED4C64E070E082E090E00E948A
:10211000CD08BE0183E999E00E94604660914507C1
:102120007091460780914707909148070E941E4A88
:1021300020E044E00E94AE4C9F938F9384E392E0B2
:102140009F938F93DF93CF930E94ED4C64E070E0F8
:1021500083E090E00E94CD08BE0183E999E00E94EF
:10216000604664E070E084E090E00E94CD086091F9
:10217000390770913A0780913B0790913C070E9484
:102180001E4A20E044E00E94AE4CBC01CE010E94F9
:10219000E64CBE0183E999E00E9460468DB79EB788
:1021A00042960FB6F8949EBF0FBE8DBF80914C072C
:1021B000811103C061E472E002C068E472E083E967
:1021C00099E00E94604664E083E999E00E94F6216C
:1021D00060E070E085E090E00E94CD086091290702
:1021E00070912A0780912B0790912C070CE415E041
:1021F00020E041E00E94AE4C9F938F938EEF91E0E0
:102200009F938F9384E795E09F938F930E94ED4C6B
:1022100064E775E083E999E00E9460460F900F90B3
:102220000F900F900F900F9062E083E999E0DF919B
:10223000CF911F910F91FF90EF900C94F6212330D6
:1022400019F4662309F4A2C083E08093FC040E9481
:10225000B50D60E070E080E090E00E94CD0861E59F
:1022600072E083E999E00E94604660E070E081E0FE
:1022700090E00E94CD086091290770912A07809113
:102280002B0790912C070CE415E020E044E00E941D
:10229000AE4C9F938F938DE592E09F938F93C4E70D
:1022A000D5E0DF93CF930E94ED4CBE0183E999E026
:1022B0000E94604660E070E082E090E00E94CD08FD
:1022C000809140078F9380913F078F9380913E07C5
:1022D0008F9380913D078F9386E692E09F938F9333
:1022E000DF93CF930E94ED4CBE0183E999E00E94F9
:1022F000604660E070E083E090E00E94CD0880914D
:1023000038078F93809137078F93809136078F938B
:10231000809135078F9380E792E09F938F93DF93AF
:10232000CF930E94ED4CBE0183E999E00E94604684
:102330008DB79EB746960FB6F8949EBF0FBE8DBF61
:1023400080914C07811103C068EF71E002C068E121
:1023500072E083E999E00E94604660E070E084E00A
:1023600090E00E94CD0860916E0670916F0680919A
:102370007006909171060CE415E020E045E00E94A3
:10238000AE4C9F938F9389E792E08CC066E070E03B
:1023900081E090E00E94CD086091290770912A07A2
:1023A00080912B0790912C070CE415E020E044E08D
:1023B0000E94AE4CBC0184E795E00E94E64C64E7C5
:1023C00075E083E999E00E94604666E070E082E093
:1023D00090E00E94CD08809140078F9380913F0745
:1023E0008F9380913E078F9380913D078F938CE66A
:1023F00092E09F938F93C4E7D5E0DF93CF930E9441
:10240000ED4CBE0183E999E00E94604666E070E011
:1024100083E090E00E94CD08809138078F938091EF
:1024200037078F93809136078F93809135078F936D
:1024300089ED91E09F938F93DF93CF930E94ED4CB2
:10244000BE0183E999E00E9460468DB79EB7409631
:102450000FB6F8949EBF0FBE8DBF80914C078111BF
:1024600003C068EF71E002C068E172E083E999E0BF
:102470000E94604668E070E085E090E00E94CD0830
:1024800060916E0670916F06809170069091710652
:102490000CE415E020E045E00E94AE4C9F938F9342
:1024A00085E892E09F938F9384E795E09F938F93C5
:1024B0000E94ED4C0F900F900F900F900F900F9087
:1024C00067C3243019F4662309F4B1C084E0809313
:1024D000FC040E94B50D60E070E080E090E00E9496
:1024E000CD0869E872E083E999E00E94604660E007
:1024F00070E081E090E00E94CD08609164067091E8
:10250000650680916606909167060CE415E024E06C
:1025100049E00E94AE4C9F938F9320916806822FD2
:10252000992787FD90959F932F9384E992E09F933D
:102530008F93C4E7D5E0DF93CF930E94ED4CBE01AB
:1025400083E999E00E94604660E070E082E090E0FC
:102550000E94CD086091690670916A0680916B06B1
:1025600090916C0624E049E00E94AE4C9F938F93BB
:1025700020916D06822F992787FD90959F932F9329
:102580008EE992E09F938F93DF93CF930E94ED4C5F
:10259000BE0183E999E00E94604660E070E083E05C
:1025A00090E00E94CD0868EA72E0CE010E94E64CFD
:1025B000BE0183E999E00E94604660E070E084E03B
:1025C00090E00E94CD0860917C0670917D0680911C
:1025D0007E0690917F0626E04AE00E94AE4CBC0148
:1025E000CE010E94E64CBE0183E999E00E9460465C
:1025F00060E070E085E090E00E94CD086091800688
:1026000070918106809182069091830626E04AE0CF
:102610000E94AE4CBC01CE010E94E64C8DB79EB725
:1026200040960FB6F8949EBF0FBE8DBF8FC064E07A
:1026300070E081E090E00E94CD08609164067091A6
:10264000650680916606909167060CE415E024E02B
:1026500049E00E94AE4C9F938F9320916806822F91
:10266000992787FD90959F932F9322EAE22E22E0EF
:10267000F22EFF92EF92C4E7D5E0DF93CF930E9452
:10268000ED4CBE0183E999E00E94604664E070E091
:1026900082E090E00E94CD086091690670916A0620
:1026A00080916B0690916C0624E049E00E94AE4C4C
:1026B0009F938F9320916D06822F992787FD909588
:1026C0009F932F93FF92EF92DF93CF930E94ED4C55
:1026D000BE0183E999E00E94604660E070E084E01A
:1026E00090E00E94CD0860917C0670917D068091FB
:1026F0007E0690917F0626E04AE00E94AE4CBC0127
:10270000CE010E94E64CBE0183E999E00E9460463A
:1027100060E070E085E090E00E94CD086091800666
:1027200070918106809182069091830626E04AE0AE
:102730000E94AE4CBC01CE010E94E64C8DB79EB704
:1027400040960FB6F8949EBF0FBE8DBFBE0122C249
:10275000253019F4662309F4ABC085E08093FC04AE
:102760000E94B50D60E070E080E090E00E94CD082E
:1027700066EB72E083E999E00E94604660E070E0F9
:1027800081E090E00E94CD0868EA72E083E999E078
:102790000E94604660E070E082E090E00E94CD0818
:1027A00060917C0670917D0680917E0690917F06F7
:1027B0000CE415E026E049E00E94AE4CBC0184E741
:1027C00095E00E94E64C64E775E083E999E00E9499
:1027D000604660E070E083E090E00E94CD08609188
:1027E000800670918106809182069091830626E092
:1027F00049E00E94AE4CBC0184E795E00E94E64CA3
:1028000064E775E083E999E00E94604660E070E06B
:1028100084E090E00E94CD08809148078F938091DA
:1028200047078F93809146078F93809145078F9339
:1028300083EC92E09F938F93C4E7D5E0DF93CF932F
:102840000E94ED4CBE0183E999E00E94604660E081
:1028500070E085E090E00E94CD0880913C078F9366
:1028600080913B078F9380913A078F93809139072E
:102870008F938AEC92E09F938F93DF93CF930E9484
:10288000ED4CBE0183E999E00E9460468DB79EB78A
:1028900040960FB6F8949EBF0FBE8DBF80914C0737
:1028A000811103C068EF71E075C168E172E072C127
:1028B00060E070E082E090E00E94CD0860917C06CC
:1028C00070917D0680917E0690917F060CE415E064
:1028D00026E049E00E94AE4CBC0184E795E00E94EE
:1028E000E64C64E775E083E999E00E94604660E0A9
:1028F00070E083E090E00E94CD08609180067091C6
:102900008106809182069091830626E049E00E942C
:10291000AE4CBC0184E795E00E94E64C64E775E0AC
:1029200083E999E00E94604664E070E084E090E012
:102930000E94CD08809148078F93809147078F931D
:10294000809146078F93809145078F9309ED11E0A1
:102950001F930F93C4E7D5E0DF93CF930E94ED4C14
:10296000BE0183E999E00E94604664E070E085E082
:1029700090E00E94CD0880913C078F9380913B07A7
:102980008F9380913A078F93809139078F931F938C
:102990000F93DF93CF930E94ED4CBE0183E999E042
:1029A0000E9460468DB79EB740960FB6F8949EBFC2
:1029B0000FBE8DBF73CF263019F4662309F4F4C01F
:1029C00086E08093FC040E94B50D60E070E080E03A
:1029D00090E00E94CD0861ED72E083E999E00E94E9
:1029E000604660E070E081E090E00E94CD086BED11
:1029F00072E083E999E00E94604660E070E082E066
:102A000090E00E94CD0867EE72E084E795E00E94B6
:102A1000E64CBEC0273019F4662309F448C087E0AD
:102A20008093FC040E94B50D60E070E080E090E0CF
:102A30000E94CD0869EF72E083E999E00E94604648
:102A400060E070E081E090E00E94CD08809189090B
:102A50008F93809188098F93809187098F938091BC
:102A600086098F9384E093E09F938F9384E795E0AA
:102A70009F938F930E94ED4C64E775E083E999E0A2
:102A80000E94604660E070E082E090E00E94CD0825
:102A900061E173E084E795E00E94E64C8DB79EB754
:102AA00008960FB6F8949EBF0FBE8DBF71C069E047
:102AB00070E081E090E00E94CD08809189098F93B9
:102AC000809188098F93809187098F9380918609DF
:102AD0008F938DE093E09F938F9384E795E09F938E
:102AE0008F930E94ED4C8DB79EB708960FB6F89461
:102AF0009EBF0FBE8DBF4CC0283019F4662309F469
:102B000053C088E08093FC040E94B50D60E070E043
:102B100080E090E00E94CD0864E273E083E999E0F0
:102B20000E94604660E070E081E090E00E94CD0885
:102B3000809189098F93809188098F93809187096B
:102B40008F93809186098F9381E393E09F938F9376
:102B500084E795E09F938F930E94ED4C64E775E0C6
:102B600083E999E00E94604660E070E082E090E0D6
:102B70000E94CD086FE373E084E795E00E94E64C85
:102B80008DB79EB708960FB6F8949EBF0FBE8DBF47
:102B900064E775E083E999E0DF91CF911F910F9190
:102BA000FF90EF900C946046DF91CF911F910F91B1
:102BB000FF90EF900895CF93DF9326E040E052EC32
:102BC00061E070E086E29BE00E94334465EF71E0D3
:102BD00086E29BE00E946D4667EE72E086E29BE033
:102BE0000E947F4665EE71E086E29BE00E946D46A2
:102BF00088E597E00E949835882349F040E050E04E
:102C000069ED73E483E698E00E94793B06C069EDC4
:102C100071E086E29BE00E946D4660E875E28DEF10
:102C200094E00E940D238FEA87BD80916E00826040
:102C300080936E0062E08CE00E94A54262E08DE02D
:102C40000E94A5421092500710925107109252070D
:102C50001092530761E08EE00E94A54282E00E943C
:102C6000741C83E999E00E94F42383E999E00E94AF
:102C7000BB27EC01C13483E9D80709F0C4C061E483
:102C800073E983E999E00E94BC3160E070E083E978
:102C900099E00E94A82D62E083E999E00E94F62164
:102CA00060E083E999E00E94763040E050E06FEF09
:102CB0007FEF83E999E00E94022261E083E999E0D5
:102CC0000E94082260E070E082E090E00E94CD085F
:102CD0006BEC71E083E999E00E946D4666EC71E06F
:102CE00083E999E00E946D4667EE72E083E999E01E
:102CF0000E947F4668EB7BE080E090E00E94CC4140
:102D000060E070E088E090E00E94CD086FEF7FEF18
:102D100083E999E00E94FC2162E083E999E00E9446
:102D2000F62161E573E083E999E00E947F4664E65D
:102D300073E083E999E00E947F4660E070E083E9F8
:102D400099E00E94202261E576E08EE799E00E94FA
:102D5000180C61EB71E086E29BE00E946D466CE925
:102D600071E086E29BE00E943D4640917E095091D1
:102D70007F0960918009709181092AE030E086E244
:102D80009BE00E948B4768E871E086E29BE00E942E
:102D90003D46409182095091830960918409709168
:102DA00085092AE030E086E29BE00E948B4763E7DA
:102DB00071E086E29BE00E943D4640918609509179
:102DC000870960918809709189092AE030E086E2DC
:102DD0009BE00E948B4760E080910A010E94530EA5
:102DE00064E671E086E29BE00E946D460E949D4190
:102DF0006093DC057093DD058093DE059093DF051D
:102E0000DF91CF9108956AE471E086E29BE00E9431
:102E10003D4640E150E0BE0186E29BE0DF91CF916C
:102E20000C9475471092290710922A0710922B07CD
:102E300010922C0710923507109236071092370720
:102E40001092380710923D0710923E0710923F07EC
:102E50001092400710924B071092450710924607B8
:102E6000109247071092480780917C0690917D064A
:102E7000A0917E06B0917F06809331079093320730
:102E8000A0933307B0933407809180069091810618
:102E9000A0918206B091830680932D0790932E0710
:102EA000A0932F07B09330070E94B50D68E773E039
:102EB00083E999E00E947F466FE873E083E999E037
:102EC0000E947F464091310750913207609133074D
:102ED0007091340728E030E083E999E00E94884847
:102EE00064E973E083E999E00E947F4640912D07F1
:102EF00050912E0760912F077091300728E030E045
:102F000083E999E00E94884860916E0670916F068F
:102F100080917006909171060E94EB496093410781
:102F200070934207809343079093440760ED77E0E6
:102F300080E090E00E94CC4161E080910A010C9415
:102F4000530E3F924F925F926F927F928F929F9219
:102F5000AF92BF92CF92DF92EF92FF920F931F93A7
:102F6000CF93DF93CDB7DEB7EF970FB6F894DEBF00
:102F70000FBECDBF8FEB99E00E94053F29AF3AAF5E
:102F80004BAF5CAF6DAF7EAF09AD1AAD8BAC9CACF7
:102F900061E089E10E94A54261E088E10E94A542CA
:102FA0008DAD9EAD0B978D3D934008F05FC083E9DA
:102FB00099E00E9436225C01CC24B7FCC094DC2C42
:102FC000B801882777FD8095982F1F921F921F9236
:102FD0001F9218E9E12E13E0F12E00E010E026E93F
:102FE00030E040E050E00E949A482B013C0183E928
:102FF00099E00E943A225C01CC24B7FCC094DC2CFE
:10300000B401882777FD8095982F1F921F921F92F9
:103010001F921CEAE12E13E0F12E00E010E028E7F9
:1030200030E040E050E00E949A486F5071090FB6BE
:10303000F894DEBF0FBECDBF693C7105BCF095E0D2
:10304000491A5108E8E74E1651044CF465E070E067
:103050008EE00E94B70881E080934A0707C0F0EF36
:103060004F1651041CF481E0809349078CE00E94C4
:103070001443892B21F481E080934A0708C08DE036
:103080000E941443892B19F481E0809349078091B1
:103090004A07882359F010924A070E94AE0861E05F
:1030A00080910A010E94530E1092E0058091490719
:1030B000882309F463C11092490780910A0187307F
:1030C00070F4823008F058C1813009F055C165E0D4
:1030D00070E08EE00E94B7080E9412174DC1873041
:1030E00009F470C0883009F047C16AE070E08EE0F2
:1030F0000E94B70860E070E081E090E00E94CD0897
:1031000021E040E269E170E084E795E00E94720B03
:10311000BC0183E999E00E94604660E070E082E0D3
:1031200090E00E94CD0821E040E269E170E084E790
:1031300095E00E94720BBC0183E999E00E94604611
:1031400060E070E083E090E00E94CD0821E040E282
:1031500069E170E084E795E00E94720BBC0183E9AD
:1031600099E00E94604660E070E082E090E00E949A
:10317000CD0868EA73E084E795E00E94E64C64E7D6
:1031800075E083E999E00E94604680908209909002
:103190008309A0908409B09085098FE29AE2A0E0AB
:1031A00089839A83AB836CE271E086E29BE00E94A4
:1031B0006D46F89401E010E0CE0101967C01F8E341
:1031C0003F2EB0C06AE070E08EE00E94B70860E079
:1031D00070E081E090E00E94CD0821E040E269E1EA
:1031E00070E084E795E00E94720BBC0183E999E0EE
:1031F0000E94604660E070E082E090E00E94CD08AE
:1032000021E040E269E170E084E795E00E94720B02
:10321000BC0183E999E00E94604660E070E083E0D1
:1032200090E00E94CD0821E040E269E170E084E78F
:1032300095E00E94720BBC0183E999E00E94604610
:1032400060E070E082E090E00E94CD0869E973E000
:1032500084E795E00E94E64C64E775E083E999E035
:103260000E9460468EE799E00E94AF0580C02A0167
:103270003B019FEF491A590A690A790A87EC99E0DC
:103280000E947E3EF60181936F0141145104F8E0E3
:103290006F06710418F0412C512C3201B301A201C8
:1032A00040908A0950908B0960908C0970908D092C
:1032B000C6018E199F09A0E0B0E084159505A6050A
:1032C000B705A8F28091820990918309A0918409A1
:1032D000B0918509840D951DA61DB71DA770BB274C
:1032E0008093820990938309A0938409B093850900
:1032F0008DB79EB7C8970FB6F8949EBF0FBE8DBF0F
:10330000ADB7BEB71196F701832D01900D928A9546
:10331000E1F70E94FC080F5F1F4F0FB6F894DEBF65
:103320000FBECDBFA80160E070E08091860990914A
:103330008709A0918809B0918909481759076A0738
:103340007B0750F440918209509183096091840970
:10335000709185096701A4CFAA24BB2480928209B9
:1033600090928309A0928409B0928509789461E0D3
:1033700080910A010E94530E1092E005C090DC0576
:10338000D090DD05E090DE05F090DF050E949D41C4
:103390006C157D058E059F0550F40E949D4160933C
:1033A000DC057093DD058093DE059093DF0588E5ED
:1033B00097E00E943735882309F4AEC18091E0057B
:1033C0008E7F8093E00588E38FAFC12CD12CE12C58
:1033D000F12C00E010E09E012F5F3F4FAE01415CF9
:1033E0005F4F61E576E088E597E00E94B03788237B
:1033F00009F4DDC10E949D416093DC057093DD05F9
:103400008093DE059093DF0583E698E00E94F63610
:10341000992787FD909590934F0780934E07809151
:103420008406882309F4E4C080914D07811102C00D
:103430000E94121781E080934D078091E0058D7FF7
:103440008093E005A0908006B0908106C09082062F
:10345000D0908306E0907C06F0907D0600917E0679
:1034600010917F0620912D0730912E0740912F0754
:103470005091300760913107709132078091330786
:1034800090913407E5E4F7E0FF93EF93E9E38E2EA4
:10349000E7E09E2E0E94C605182F80934C07C0902F
:1034A0006E06D0906F06E0907006F09071068090E6
:1034B000410790904207A0904307B0904407609165
:1034C0003D0770913E0780913F0790914007680D3E
:1034D000791D8A1D9B1D0E941E4A9B01AC010F9005
:1034E0000F90C701B6010E94554B1816A4F4C501F0
:1034F000B4010E941E4A9B01AC01C701B6010E94A3
:10350000EF480E94EB4960933D0770933E0780931C
:103510003F07909340074091390750913A076091D7
:103520003B0770913C07111103C010924B0708C074
:1035300080914B07811104C081E080934B070DC03F
:103540008091350790913607A0913707B0913807E1
:1035500084179507A607B70744F44093350750939F
:103560003607609337077093380726E53EE04DEE47
:103570005FE360915C0670915D0680915E069091BC
:103580005F060E94604B20E030E040E85FE30E946D
:103590007C4987FF08C010925C0610925D0610926D
:1035A0005E0610925F0626E53EE04DEE5FE3609119
:1035B0005C0670915D0680915E0690915F060E94A8
:1035C000604B6B017C012091290730912A074091C3
:1035D0002B0750912C070E94554B181674F4C0927B
:1035E0002907D0922A07E0922B07F0922C0705C0FA
:1035F0008091E00582608093E005C0907E09D090C4
:103600007F09E0908009F090810901E516E0A801AA
:103610004155564060E070E080918A0990918B0995
:10362000A0918C09B0918D09481759076A077B074B
:1036300060F5F80121918F01B701A60187EC99E0AF
:103640000E94A93ED701C6019F70AA27BB27892BDC
:103650008A2B8B2B59F4B701A601505F6F4F7F4F18
:10366000677077278EE799E00E943205FFEFCF1A47
:10367000DF0AEF0AFF0AC114D10428E0E206F104D0
:1036800030F2C12CD12C7601C2CFC0927E09D092EB
:103690007F09E0928009F0928109809186099091DA
:1036A0008709A0918809B091890940918E095091AC
:1036B0008F09609190097091910984179507A60769
:1036C000B70758F40196A11DB11D80938609909308
:1036D0008709A0938809B09389098DB79EB7C897C9
:1036E0000FB6F8949EBF0FBE8DBFADB7BEB7119693
:1036F00088E3E1E5F6E001900D928A95E1F70E94FA
:10370000FC080FB6F894DEBF0FBECDBF60E080911D
:103710000A010E94530E4BC00E949D410091DC059E
:103720001091DD052091DE053091DF0508571C4E14
:103730002F4F3F4F0617170728073907C0F580910D
:10374000E00581608093E0050E949D4160935407ED
:103750007093550780935607909357070091500731
:103760001091510720915207309153070053184F81
:103770002F4F3F4F0617170728073907C0F46093EC
:10378000500770935107809352079093530765E059
:1037900070E08EE00E94B70864E670E080E090E0A0
:1037A0000E94CC4165E070E08EE00E94B7080E9464
:1037B0009D410091D8051091D9052091DA053091ED
:1037C000DB05601771078207930750F40E949D4143
:1037D0006093D8057093D9058093DA059093DB0543
:1037E0000E949D410091D8051091D9052091DA05DC
:1037F0003091DB050053184F2F4F3F4F0617170727
:103800002807390778F48091E00590E00E949C0B2E
:103810000E949D416093D8057093D9058093DA0585
:103820009093DB05EF960FB6F894DEBF0FBECDBFC9
:10383000DF91CF911F910F91FF90EF90DF90CF908C
:10384000BF90AF909F908F907F906F905F904F90C0
:103850003F900895CF93CFB7F8948091D10981110B
:1038600027C0E6ECF8E08491E6EAF8E09491E82FCE
:10387000F0E0EE0FFF1FEA50F74FA591B4918C9145
:10388000892321F461E084E00E94DE4261E084E06B
:103890000E94A5428CB580618CBD8CB580648CBDC6
:1038A00061E087E00E94A54261E085E00E94A542B8
:1038B0008091D1098F5F8093D109CFBFCF910895B7
:1038C0009FB7F8948091D109882319F08150809393
:1038D000D1098091D109811105C08CB58F7B8CBD38
:1038E0001092D0099FBF08952FB7F894813061F0EE
:1038F00020F0823021F484E008C081E006C082E03C
:103900008093D00980E001C082E09091CF09982B8C
:103910009093CF098091D009811103C081E08093F9
:10392000D0092FBF0895E091140AF091150AE81705
:10393000F90769F4A389B4899C91858980958923C5
:103940008C931092150A1092140A81E0089580E079
:103950000895CF93DF93EC018A8D9B8D892BF1F035
:103960008091140A9091150A8C179D07B9F0009761
:1039700011F00E94931C8E8D8E7F8E8F1092D30932
:103980001092D209D093150AC093140AEB89FC89CE
:1039900080819D89892B808381E001C080E0DF9157
:1039A000CF9108951F920F920FB60F9211240BB66C
:1039B0000F922F933F934F935F936F937F938F93C8
:1039C0009F93AF93BF93EF93FF93E091140AF0910D
:1039D000150A309709F451C0868DA685B78595855F
:1039E00081FF04C08C91892329F447C08C918923DD
:1039F00009F043C0A389B4899C9185898095892366
:103A00008C93868997890197F1F7208D318DA68552
:103A1000B785758558E040E0C9010197F1F7842F1B
:103A200090E095958795482F6C91672309F0406841
:103A3000515091F7868D81FD40958091D30990E09A
:103A400001968F7399272091D209281749F0A091E8
:103A5000D309B0E0AC52B64F4C938093D30903C066
:103A6000868D8160868F828D938D0197F1F7A38972
:103A7000B4898C919589892B8C93FF91EF91BF919B
:103A8000AF919F918F917F916F915F914F913F91F6
:103A90002F910F900BBE0F900FBE0F901F90189597
:103AA000CF93DF93EC019A01AB011B8E1A8E198E16
:103AB000188E1F8A1E8A60E079E08DE390E00E94F4
:103AC0005C4CC9012430310520F0B9016350710903
:103AD00002C061E070E07D8F6C8FEC85EF3108F003
:103AE0005AC0B901769567956431710518F0635134
:103AF000710902C061E070E07F8B6E8B069718F051
:103B0000C901059702C081E090E0998F888FC901B3
:103B1000880F991F820F931F969587959695879585
:103B20008D30910510F00C9702C081E090E09B8FE2
:103B30008A8F90916800E83030F0E03130F0E83161
:103B400030F484E005C082E003C088E001C081E079
:103B5000892B809368002C85283038F02E3040F077
:103B6000263148F48CE690E008C08DE690E005C070
:103B70008BE690E002C080E090E09C8B8B8B2770FE
:103B800081E090E001C0880F2A95EAF78D8B8C8D3B
:103B90009D8D0197F1F7CE01DF91CF910C94A91C77
:103BA0002F923F924F925F926F927F928F929F924D
:103BB000AF92BF92CF92DF92EF92FF920F931F933B
:103BC000CF93DF9300D000D0CDB7DEB74C017C831C
:103BD0006B836A015901C8018701AC014C195D0969
:103BE00057FF03C051954195510995016B817C8127
:103BF000261B370B37FF03C031952195310922244D
:103C00002394312C2417350714F0212C312C211446
:103C1000310459F03A2D2B2D5C01832F922F3B81DB
:103C20002C81DC82CB82C32ED22EAB81BC81AA1622
:103C3000BB065CF43C2D2D2D6C01832F922F3B8114
:103C40002C81BC82AB82A32EB22E2501EB81FC819C
:103C50004E1A5F0A3C016C187D0877FE03C0719410
:103C600061947108720157FE03C0FFEFEF1AFF0A5B
:103C7000F594E794C816D9062CF421E030E03A8395
:103C8000298324C06FEF7FEF7A8369831FC0D4013B
:103C9000ED91FC910480F581E02D9801211431040F
:103CA000D9F04B815C81B601C4010995E618F7088B
:103CB000F7FE06C0E981FA81CE0EDF1EE40CF51C8A
:103CC0002B813C812F5F3F4F3C832B836B817C8119
:103CD000A616B706E4F604C0A6016B817C81E4CF8A
:103CE0000F900F900F900F90DF91CF911F910F9138
:103CF000FF90EF90DF90CF90BF90AF909F908F900C
:103D00007F906F905F904F903F902F9008956F92AB
:103D10007F928F929F92AF92BF92CF92DF92EF925B
:103D2000FF920F931F93CF93DF93EC015B016A0126
:103D300039014801E881F9810284F385E02D87018A
:103D40000995E881F981A601480D591D4150510995
:103D50000284F385E02D9301B501CE010995E88138
:103D6000F9810084F185E02D9401A601B501CE0111
:103D70000995E881F981B501660D771D61507109DA
:103D80000084F185E02D9401A601CE010995DF9113
:103D9000CF911F910F91FF90EF90DF90CF90BF9048
:103DA000AF909F908F907F906F900895EF92FF92C9
:103DB0000F931F93DC01ED91FC91240F351F2150CF
:103DC00031090680F781E02D780189019B01099571
:103DD0001F910F91FF90EF900895EF92FF920F9334
:103DE0001F93DC01ED91FC91260F371F2150310903
:103DF0000680F781E02D78018A0109951F910F91C6
:103E0000FF90EF9008956F927F928F929F92AF9262
:103E1000BF92CF92DF92EF92FF920F931F93CF93B7
:103E2000DF935C014A0169013801EB01C60ED71E20
:103E3000CC15DD0574F4D501ED91FC910084F1857C
:103E4000E02D87019301A401BE01C50109952196CA
:103E5000EFCFDF91CF911F910F91FF90EF90DF9007
:103E6000CF90BF90AF909F908F907F906F9008956C
:103E7000EF92FF920F931F93DC01ED91FC9111974C
:103E80001A960D911C911B9718962D913C9119979C
:103E90000684F785E02D7B0140E050E060E070E0B3
:103EA00009951F910F91FF90EF9008950895FC01DF
:103EB000138212828BEB93E09183808375836483FA
:103EC000578346837187608753874287158A158693
:103ED00014861786168621E0248B8FEF9FEF938B35
:103EE000828B918B808B268B178A118E108E089572
:103EF0002F923F924F925F926F927F928F929F92FA
:103F0000AF92BF92CF92DF92EF92FF920F931F93E7
:103F1000CF93DF93CDB7DEB76A970FB6F894DEBFC5
:103F20000FBECDBF1C0158874F831C870B87FA86B5
:103F3000E986CC82DC0158964D915C9159974115E8
:103F4000510509F0A6C018968D919C911997681794
:103F500079070CF056C11A968D919C911B97EF81B1
:103F6000F885E817F9070CF04CC1D12CCB013C8146
:103F7000F6E03F9F800D911D1124181619060CF0D4
:103F800040C1C60103E0880F991F0A95E1F74F81F0
:103F90005885840F951F181619060CF032C15796D4
:103FA0008C91811103C0203B08F02F5F7E876D87C5
:103FB0004B0119821EE0A12E12E0B12EA61AB70AFB
:103FC00055E0259FA00CB11C11248981853039F062
:103FD000ED85FE85EA0DFB1D94919A8301C01A823E
:103FE0006F8078842301A8E0AD83BA81B0FF12C04E
:103FF000D101ED91FC91BC81B13031F40480F581A7
:10400000E02D2B853C8518C00684F785E02DEB84D8
:10401000FC841DC0E985FA852B853C85E217F307F2
:10402000E1F0D101ED91FC91BC81B13059F40480F3
:10403000F581E02D29853A85A2016D857E85C10136
:1040400009950BC00684F785E02DE984FA84860182
:104050009601A301B401C1010995EA81E695EA83BD
:10406000FD81F150FD836C0C7D1C2FEF421A520A2A
:10407000F111BBCF39813F5F39838C0C9D1C4D857D
:104080005E854F5F5F4F5E874D87363009F09DCF6D
:10409000B8C0FA0134963491329785919491231BDC
:1040A000A7E02A9F800D911D1124FA0125913491DA
:1040B000398B288BFC01459154915A8F498FFC0113
:1040C0003296549159873196A491AF873196E491F5
:1040D000FC013596249131968491BC81B23050F028
:1040E000622E772467FC7094E82FFF27E7FDF09598
:1040F000FE87ED87FC81CF2ED12C6C9C40016D9CFE
:10410000900C7C9C900C1124860E971EA12C198279
:10411000DE8ACD8AAB01420F511D27FD5A955E8381
:104120004D83AF81B885A80FB11D87FDBA95B88FB3
:10413000AF8B59818F85581708F063C0852F90E0A9
:104140002D853E85280F391F2C9DD0012D9DB00D4A
:104150003C9DB00D1124EF81F885EA0FFB1FFB8316
:10416000EA836D807E802401FA2D2D81F21BFA8B6B
:104170004F89588D480F591F5C8B4B8B9A89960D30
:10418000862D2D81821B39858317B0F5977061F4D8
:10419000898D9A8D0196E889F989298D3A8DE20FEA
:1041A000F31FB4909A8F898FB7FE1DC0D101ED9196
:1041B000FC91BC81B13059F40480F581E02D2B8550
:1041C0003C854B895C89B301C10109950CC006840B
:1041D000F785E02DEB84FC84860196014A815B81A2
:1041E000B201C1010995BB0CED89FE894E0E5F1E1F
:1041F000FFEF6F1A7F0AC2CFA30E49814F5F498339
:1042000098CF6A960FB6F894DEBF0FBECDBFDF9190
:10421000CF911F910F91FF90EF90DF90CF90BF90C3
:10422000AF909F908F907F906F905F904F903F9056
:104230002F900895AF92BF92CF92EF92FF920F937B
:104240001F93CF93DF93EC01262F888D998D0097D4
:1042500009F042C06A3069F42C898E859F8538E068
:10426000239F800D911D11249F878E871D861C869C
:10427000ABC06D3009F4A8C08E898823C1F03C8999
:104280008C859D8546E0349F800D911D11244885C5
:104290005985841795075CF01D861C868E859F8541
:1042A000E8E03E9F800D911D11249F878E87EA884C
:1042B000FB88088919894E855F856C857D85CC884A
:1042C000CE010E94781F2C898C859D85F6E02F9F5A
:1042D000800D911D112441C06A3079F41D861C8621
:1042E0004C89FC01369684912E853F85489F200D90
:1042F000311D11243F872E8767C06D3009F464C0DB
:10430000AC014C5F5F4FFA013491631708F45CC055
:104310003196E491E61708F457C0FA014491362F1C
:10432000341BFC013296A590B490F7E03F9FA00C9F
:10433000B11C1124F5013296A4913196E491AA237F
:1043400011F0E1110DC0F5013496A4902C898C85F3
:104350009D85A29E800D911D11249D878C8734C060
:10436000F5013596E4913E89332309F13C89B0E0AB
:10437000AE0FB11DE7FDBA953A9FA0013B9F500DCE
:1043800011246C857D85460F571F688579854617F2
:1043900057076CF01D861C86FC01369684914E856D
:1043A0005F85389F400D511D11245F874E87EA8835
:1043B000FB88088919894E855F856C857D85CC8849
:1043C000CE010E94781FBFCF81E090E0DF91CF91B6
:1043D0001F910F91FF90EF90CF90BF90AF900895F5
:1043E000FC0175876487578746870895611101C06E
:1043F00061E0FC01648B0895FC01738B628B718B0F
:10440000608B0895FC01718B608B538B428B0895F8
:10441000FC01668B0895FC016370658B8481958136
:1044200026813781613039F0633029F091878087A8
:10443000338722870895318720879387828708955D
:10444000FC01808D918D6115710531F0892B59F436
:1044500086859785069605C0892B29F086859785E0
:10446000069797878687718F608F0895FC018085F6
:1044700091850895FC01828593850895CF93DF93FC
:10448000FC01E65BFF4F2081222311F080E065C034
:10449000EC01C55BDF4FA881B981109741F0ED9128
:1044A000FC9111970480F581E02DCD010BC0EC014A
:1044B000C35BDF4F88819981DC01ED91FC91048021
:1044C000F581E02D0995892B09F388819981DC011B
:1044D000ED91FC910680F781E02D09958A3049F530
:1044E00090911B0AE091190AF0911A0AE90FF11D47
:1044F00010822091190A30911A0ABAE024393B0738
:1045000039F44CE15AE050931A0A4093190A08C052
:1045100024E93AE030931A0A2093190A2CE13AE090
:104520003093180A2093170A10921B0A91E0909377
:10453000160AE091190AF0911A0A90911B0A21E0DB
:10454000290F20931B0AE90FF11D808390911B0A0C
:10455000983718F097E790931B0ADF91CF91089551
:10456000FC01DC01A55BBF4F11961C921E921296B6
:1045700011961C921E921092160A13971C9210927A
:104580001B0A84E99AE090931A0A8093190A8CE135
:104590009AE09093180A8093170A15AE14AE15820C
:1045A0001482138212821182108212AE11AE10AEEA
:1045B00013AE1782168214AA15AA16AA17AA10AA51
:1045C00011AA12AA13AA14A615A616A617A610A613
:1045D00011A612A613A614A215A216A217A210A223
:1045E00011A212A213A214861586168617861086AB
:1045F00011861286138608950F931F93CF93DF932E
:10460000EC018B010E94B022C35BDF4F198308834A
:10461000DF91CF911F910F910895FC01E55BFF4F52
:1046200020813181AB0160E070E02115310521F07E
:10463000C9010E94501D08C0FC01E35BFF4F26E04A
:10464000808191810E9433446AE070E080E090E0D4
:104650000C94CC41FC018FEF81B9158A1586148624
:104660001786168681E0848B8FEF9FEF918B808B6E
:1046700080EF90E09187808780E491E09387828744
:1046800008959F92AF92BF92CF92DF92EF92FF92E6
:104690000F931F93CF93DF93EC01A62EF42EB22E2F
:1046A000902E40E451E060EF70E00E94571F88EECA
:1046B00093E099838883EBA66A2D70E0FB01EE53AB
:1046C000F74FE491F0E0EE0FFF1FE451F74FA59193
:1046D000B491BC8FAB8F4F2D50E0FA01EE53F74FE2
:1046E000E491F0E0EE0FFF1FE451F74F85919491B4
:1046F0009E8F8D8F2B2D30E0F901EE53F74FE49113
:10470000F0E0EE0FFF1FE451F74F8591949198A3CD
:104710008F8F10E0F801EE53F74FE491F0E0EE0FC9
:10472000FF1FE451F74FC590D490DAA2C9A2FB0154
:10473000EE55F74F64916BA3FA01EE55F74F449194
:104740004CA3F901EE55F74F24912DA3F801EE5536
:10475000F74F04910EA39BA1892F80958FA38CA165
:10476000809588A78DA1809589A700950AA78C912F
:10477000892B8C93ED8DFE8D80819CA1892B80836C
:10478000EF8DF8A180819DA1892B8083E9A1FAA1F9
:1047900080819EA1892B808361E08A2D0E94A542A1
:1047A00061E08F2D0E94A54261E08B2D0E94A54201
:1047B00061E0892D0E94A542EE2041F061E08E2D3E
:1047C0000E94DE4261E08E2D0E94A542CE01DF9163
:1047D000CF911F910F91FF90EF90DF90CF90BF90FE
:1047E000AF909F900C942A23CF93DF93EC01EB8D35
:1047F000FC8D80819BA1892B8083EF8DF8A1808126
:104800009DA1892B8083E9A1FAA180819EA1892B9A
:1048100080838BA5882369F060E00E94DE4262E01D
:1048200070E080E090E00E94CC4161E08BA50E94A6
:10483000DE42EB8DFC8D80819FA189238083ED8DED
:10484000FE8D808198A58923808312B8EF8DF8A111
:10485000808199A589238083EF8DF8A180819DA116
:10486000892B808383E0EF8DF8A1908129A5922385
:104870009083EF8DF8A190812DA1922B9083815090
:1048800091F7EB8DFC8D80819BA1892B8083DF913B
:10489000CF910895FC01A38DB48D8C9197A18923AC
:1048A0008C93808591859C01215031098150A58D83
:1048B000B68D9C9120A592239C9394E092B9A78DEC
:1048C000B0A19C9121A592239C93A78DB0A19C910E
:1048D00025A1922B9C93A58DB68D9C9124A1922B02
:1048E0009C9332B9A78DB0A19C9121A592239C9352
:1048F000A78DB0A19C9125A1922B9C93A58DB68DDF
:104900009C9120A592239C9395E092B9A78DB0A18C
:104910009C9121A592239C93A78DB0A19C9125A148
:10492000922B9C93A58DB68D9C9124A1922B9C9348
:1049300082B9A78DB0A18C9191A589238C93A78D65
:10494000B0A18C9195A1892B8C93828593859C0134
:10495000215031098150A58DB68D9C9120A59223BF
:104960009C9398E092B9A78DB0A19C9121A5922328
:104970009C93A78DB0A19C9125A1922B9C93A58D72
:10498000B68D9C9124A1922B9C9332B9A78DB0A196
:104990009C9121A592239C93A78DB0A19C9125A1C8
:1049A000922B9C93A58DB68D9C9120A592239C93D0
:1049B00099E092B9A78DB0A19C9121A592239C93D7
:1049C000A78DB0A19C9125A1922B9C93A58DB68D0E
:1049D0009C9124A1922B9C9382B9A78DB0A18C911C
:1049E00091A589238C93A78DB0A18C9195A1892B3A
:1049F0008C93A38DB48D8C9193A1892B8C93089566
:104A0000FF920F931F93CF93DF93FC01EB01A38DD4
:104A1000B48D8C9197A189238C93A58DB68D8C91A3
:104A200090A589238C93828D823091F081110EC0E4
:104A300012B8A78DB0A18C9191A589238C93A78DD5
:104A4000B0A18C9195A1892B8C9304C0833011F473
:104A50008CE201C082E282B9A78DB0A18C9191A5B0
:104A600089238C93A78DB0A18C9195A1892B8C93D0
:104A7000A58DB68D8C9194A1892B8C93D2B9A78DDD
:104A8000B0A18C9191A589238C93A78DB0A18C9115
:104A900095A1892B8C93C2B9A78DB0A18C9191A5BA
:104AA00089238C93A78DB0A18C9195A1892B8C9390
:104AB000BA01A90141505109610971098A019B019B
:104AC00096E036952795179507959A95D1F780E04A
:104AD00090E0DC13FEC00817190709F466C020E156
:104AE000A78DB0A13C91C1A53C233C93A78DB0A15B
:104AF0003C91C5A13C2B3C93A78DB0A13C91C1A595
:104B00003C233C93A78DB0A13C91C5A13C2B3C9389
:104B1000A78DB0A13C91C1A53C233C93A78DB0A12A
:104B20003C91C5A13C2B3C93A78DB0A13C91C1A564
:104B30003C233C93A78DB0A13C91C5A13C2B3C9359
:104B4000A78DB0A13C91C1A53C233C93A78DB0A1FA
:104B50003C91C5A13C2B3C93A78DB0A13C91C1A534
:104B60003C233C93A78DB0A13C91C5A13C2B3C9329
:104B7000A78DB0A13C91C1A53C233C93A78DB0A1CA
:104B80003C91C5A13C2B3C93A78DB0A13C91C1A504
:104B90003C233C93A78DB0A13C91C5A13C2B3C93F9
:104BA000215009F09DCF019696CF4F734150C8F028
:104BB000A78DB0A18C9191A589238C93A78DB0A1CD
:104BC0008C9195A1892B8C93A78DB0A18C9191A5E7
:104BD00089238C93A78DB0A18C9195A1892B8C935F
:104BE000E5CFA38DB48D8C9193A1892B8C93DF910C
:104BF000CF911F910F91FF900895D2B9A78DB0A1C9
:104C00003C91F1A43F213C93A78DB0A13C91F5A02C
:104C10003F293C93C2B9A78DB0A13C91F1A43F219B
:104C20003C93A78DB0A13C91F5A03F293C93D2B90C
:104C3000A78DB0A13C91F1A43F213C93A78DB0A1D9
:104C40003C91F5A03F293C93C2B9A78DB0A13C91FE
:104C5000F1A43F213C93A78DB0A13C91F5A03F2941
:104C60003C93D2B9A78DB0A13C91F1A43F213C93D4
:104C7000A78DB0A13C91F5A03F293C93C2B9A78D67
:104C8000B0A13C91F1A43F213C93A78DB0A13C91F0
:104C9000F5A03F293C93D2B9A78DB0A13C91F1A4D6
:104CA0003F213C93A78DB0A13C91F5A03F293C93B7
:104CB000C2B9A78DB0A13C91F1A43F213C93A78D2F
:104CC000B0A13C91F5A03F293C93215009F095CF2C
:104CD00001960817190711F020E18FCF4F7341504B
:104CE00008F47FCFD2B9A78DB0A18C9191A589236B
:104CF0008C93A78DB0A18C9195A1892B8C93C2B96F
:104D0000A78DB0A18C9191A589238C93A78DB0A17B
:104D10008C9195A1892B8C93E2CFFC01A1A1B2A12A
:104D20008C9192A589238C9300C000C000C0000024
:104D300080B1A1A1B2A19C9126A1922B9C93089530
:104D4000CF92DF92EF92FF92CF93DF93EC01EB8D46
:104D5000FC8D80819FA189238083ED8DFE8D8081D4
:104D600098A58923808362B9EF8DF8A1808199A5E8
:104D700089238083EF8DF8A180819DA1892B808379
:104D800011B8ED8DFE8D80819CA1892B808382E3FB
:104D900090E00E940642CE010E948D26C82ED12CA2
:104DA000E12CF12CFE2CED2CDC2CCC24CE010E942D
:104DB0008D26C82AFE2CED2CDC2CCC24CE010E94A2
:104DC0008D26C82AFE2CED2CDC2CCC24CE010E9492
:104DD0008D26EB8DFC8D90812BA1922B90839FEFE4
:104DE00091B9A7019601282BCA01B901DF91CF9192
:104DF000FF90EF90DF90CF900895CF92DF92EF92E7
:104E0000FF920F931F93CF93DF9300D000D0CDB7C5
:104E1000DEB78C01DC015B96ED91FC915C978081A3
:104E200097969C919797892380835D96ED91FC914D
:104E30005E97808198969C9198978923808362B928
:104E40005F96ED91FC919097808199969C919997AE
:104E5000892380835F96ED91FC9190978081959650
:104E60009C919597892B80835D96ED91FC915E973F
:104E7000808194969C91892B80838AE090E029839D
:104E80003A834B835C830E94064229813A814B819D
:104E90005C81CA01AA27BB2782B9D8015F96ED9130
:104EA000FC919097808199969C9199978923808312
:104EB0005F96ED91FC919097808195969C91892BBE
:104EC00080838AE090E029833A834B835C830E944D
:104ED000064229813A814B815C81C32ED42EE52E76
:104EE000FF24C2B8D8015F96ED91FC919097808124
:104EF00099969C919997892380835F96ED91FC9177
:104F00009097808195969C91892B80838AE090E090
:104F100029833A834B835C830E940642298122B90C
:104F2000D8015F96ED91FC919097808199969C9124
:104F30009997892380835F96ED91FC91909780816A
:104F400095969C919597892B80835B96ED91FC912A
:104F50005C97808193969C91892B80830F900F9012
:104F60000F900F90DF91CF911F910F91FF90EF90D5
:104F7000DF90CF9008951F93CF93DF93EC0164E00F
:104F80000E94A026611570488105910509F449C069
:104F900063EDCE010E94A0266134734909F45CC020
:104FA000EB8DFC8D80819FA189238083ED8DFE8D0B
:104FB000808198A58923808312B8EF8DF8A1808124
:104FC00099A589238083EF8DF8A180819DA1892BEC
:104FD0008083EF8DF8A1808199A589238083EF8D4F
:104FE000F8A180819DA1892B808311B8ED8DFE8D64
:104FF00080819CA1892B8083CE010E948D26182F51
:10500000CE010E948D269FEF91B9EB8DFC8D908192
:105010002BA1922B9083212F30E0322F2227282B97
:105020001DC027E533E84FEF50E069EBCE010E9449
:10503000FD266CE271E080E090E00E94CC4160EDE2
:10504000CE010E94A026611571058949910509F0DC
:105050009FCF27E533E802C021E433E9C901DF919E
:10506000CF911F910895CF92DF92EF92FF920F930D
:105070001F93CF93DF9300D000D0CDB7DEB78C0164
:10508000DC015B96ED91FC915C97808197969C91F9
:105090009797892380835D96ED91FC915E9780813F
:1050A00098969C9198978923808362B95F96ED9139
:1050B000FC919097808199969C9199978923808300
:1050C0005F96ED91FC919097808195969C91959734
:1050D000892B80835D96ED91FC915E9780819496FB
:1050E0009C91892B80838AE090E029833A834B83CB
:1050F0005C830E94064229813A814B815C81852F25
:105100009927AA27BB2782B9D8015F96ED91FC9118
:105110009097808199969C919997892380835F9637
:10512000ED91FC919097808195969C91892B80833D
:105130008AE090E029833A834B835C830E94064295
:1051400029813A814B815C81CA01AA27BB2782B998
:10515000D8015F96ED91FC919097808199969C91F2
:105160009997892380835F96ED91FC919097808138
:1051700095969C91892B80838AE090E029833A83DD
:105180004B835C830E94064229813A814B815C817A
:10519000C32ED42EE52EFF24C2B8D8015F96ED9120
:1051A000FC919097808199969C919997892380830F
:1051B0005F96ED91FC919097808195969C91892BBB
:1051C00080838AE090E029833A834B835C830E944A
:1051D0000642298122B9D8015F96ED91FC91909702
:1051E000808199969C919997892380835F96ED9110
:1051F000FC919097808195969C919597892B8083BF
:105200005B96ED91FC915C97808193969C91892BA4
:1052100080830F900F900F900F90DF91CF911F918F
:105220000F91FF90EF90DF90CF900895EF92FF9253
:105230000F931F93CF93DF93EC017A01C901EB8D9C
:10524000FC8D20813FA1232320832A8D2111B2C10F
:105250002D89223081F0233019F1213079F52FEE9C
:1052600030E0F901E01BF10B241B350BAB01D90138
:105270008C01C90112C02FEE30E0F901E81BF90BD7
:10528000C901861B970B2FE331E0B901601B710B3D
:105290008901041B150BA801DC017B01BF010FC0B4
:1052A0002FE331E0F901E81BF90B261B370BA901AD
:1052B000D701C8018901B7017F0101C0DB01ED8D74
:1052C000FE8D208138A52323208312B8EF8DF8A10D
:1052D000208139A523232083EF8DF8A120813DA1D2
:1052E000232B208320E522B9EF8DF8A1208139A559
:1052F00023232083EF8DF8A120813DA1232B208340
:10530000ED8DFE8D20813CA1232B208372B9EF8D82
:10531000F8A1208139A523232083EF8DF8A12081D6
:105320003DA1232B208362B9EF8DF8A1208139A5FF
:1053300023232083EF8DF8A120813DA1232B2083FF
:10534000ED8DFE8D208138A52323208312B8EF8DAB
:10535000F8A1208139A523232083EF8DF8A1208196
:105360003DA1232B208321E522B9EF8DF8A12081D7
:1053700039A523232083EF8DF8A120813DA1232B84
:105380002083ED8DFE8D20813CA1232B208392B9BB
:10539000EF8DF8A1908129A592239083EF8DF8A13C
:1053A00090812DA1922B908382B9EF8DF8A18081FD
:1053B00099A589238083EF8DF8A180819DA1892BF8
:1053C0008083ED8DFE8D808198A58923808312B81E
:1053D000EF8DF8A1808199A589238083EF8DF8A1B5
:1053E00080819DA1892B808382E582B9EF8DF8A110
:1053F000808199A589238083EF8DF8A180819DA16B
:10540000892B8083ED8DFE8D80819CA1892B8083EB
:10541000F2B8EF8DF8A1808199A589238083EF8D63
:10542000F8A180819DA1892B8083E2B8EF8DF8A13E
:10543000808199A589238083EF8DF8A180819DA12A
:10544000892B8083ED8DFE8D808198A589238083B3
:1054500012B8EF8DF8A1808199A589238083EF8D03
:10546000F8A180819DA1892B808383E582B9EF8D8E
:10547000F8A1808199A589238083EF8DF8A180818F
:105480009DA1892B8083ED8DFE8D80819CA1892B30
:10549000808312B9EF8DF8A1808199A5892380833B
:1054A000EF8DF8A180819DA1892B808302B9EF8DBA
:1054B000F8A1808199A589238083EF8DF8A180814F
:1054C0009DA1892B8083ED8DFE8D808198A58923F8
:1054D000808312B8EF8DF8A1808199A589238083FC
:1054E000EF8DF8A180819DA1892B808380E282B914
:1054F000EF8DF8A1808199A589238083EF8DF8A194
:1055000080819DA1892B8083ED8DFE8D80819CA162
:10551000892B8083B2B9EF8DF8A1808199A5892369
:105520008083EF8DF8A180819DA1892B8083A2B912
:10553000EF8DF8A1808199A589238083EF8DF8A153
:1055400080819DA1892B8083ED8DFE8D808198A522
:105550008923808312B8EF8DF8A1808199A58923D2
:105560008083EF8DF8A180819DA1892B808381E2CA
:1055700082B9EF8DF8A1808199A589238083EF8D71
:10558000F8A180819DA1892B8083ED8DFE8D808186
:105590009CA1892B808352B9EF8DF8A1808199A5B8
:1055A00089238083EF8DF8A180819DA1892B808341
:1055B00042B92FC1213009F039C1ED8DFE8D208116
:1055C00038A52323208322E022B9EF8DF8A1208182
:1055D00039A523232083EF8DF8A120813DA1232B22
:1055E0002083ED8DFE8D20813CA1232B208372B979
:1055F000EF8DF8A1208139A523232083EF8DF8A119
:1056000020813DA1232B2083ED8DFE8D208138A5A7
:105610002323208323E022B9EF8DF8A1208139A52F
:1056200023232083EF8DF8A120813DA1232B20830C
:10563000ED8DFE8D20813CA1232B208362B9EF8D5F
:10564000F8A1208139A523232083EF8DF8A12081A3
:105650003DA1232B2083ED8DFE8D208138A52323B2
:10566000208326E022B9EF8DF8A1208139A52323DC
:105670002083EF8DF8A120813DA1232B2083ED8D88
:10568000FE8D20813CA1232B2083F2B8EF8DF8A161
:10569000208139A523232083EF8DF8A120813DA10E
:1056A000232B2083ED8DFE8D208138A5232320839D
:1056B00027E022B9EF8DF8A1208139A5232320838B
:1056C000EF8DF8A120813DA1232B2083ED8DFE8D50
:1056D00020813CA1232B208342B9EF8DF8A12081AA
:1056E00039A523232083EF8DF8A120813DA1232B11
:1056F0002083ED8DFE8D208138A52323208324E097
:1057000022B9EF8DF8A1208139A523232083EF8DC5
:10571000F8A120813DA1232B2083ED8DFE8D2081DA
:105720003CA1232B208392B9EF8DF8A1908129A56C
:1057300092239083EF8DF8A190812DA1922B9083DD
:10574000ED8DFE8D908128A59223908395E092B9EE
:10575000EF8DF8A1908129A592239083EF8DF8A178
:1057600090812DA1922B9083ED8DFE8D90812CA1A7
:10577000922B908382B9EF8DF8A1808199A589231E
:105780008083EF8DF8A180819DA1892B8083ED8D91
:10579000FE8D808198A58923808388E082B9EF8D72
:1057A000F8A1808199A589238083EF8DF8A180815C
:1057B0009DA1892B8083ED8DFE8D80819CA1892BFD
:1057C000808312B9EF8DF8A1808199A58923808308
:1057D000EF8DF8A180819DA1892B8083ED8DFE8DB9
:1057E000808198A58923808389E082B9EF8DF8A113
:1057F000808199A589238083EF8DF8A180819DA167
:10580000892B8083ED8DFE8D80819CA1892B8083E7
:1058100002B9EF8DF8A1808199A589238083EF8D4E
:10582000F8A180819DA1892B80832BC0225022303A
:1058300040F5AB01662757FD6095762F3327222769
:10584000AA2797FDA095BA2F282B392B4A2B5B2B23
:105850006AE2CE010E943328C701AA2797FDA095CE
:10586000BA2FAC0133272227C801AA2797FDA0959C
:10587000BA2F282B392B4A2B5B2B6BE2CE010E94CF
:105880003328EB8DFC8D80819BA1892B8083DF9158
:10589000CF911F910F91FF90EF900895CF92DF92DB
:1058A000EF92FF920F931F93CF93DF93EC01690167
:1058B0007801121613060CF04FC057FD4DC08A85B3
:1058C0009B85481759070CF047C08885998568174C
:1058D00079070CF041C0FB01E20FF31F9F0121503B
:1058E000310937FD39C077FF03C06F0160E070E018
:1058F0002817390734F09C01215031096C01C61A70
:10590000D70A8A01CE010E9416299601442737FD45
:105910004095542FB701CE010E9400258A8D811138
:1059200010C00A851B850150110928853985215031
:10593000310940E050E060E070E0CE010E9416299D
:105940000BC0CE01DF91CF911F910F91FF90EF908F
:10595000DF90CF900C944A24DF91CF911F910F914B
:10596000FF90EF90DF90CF900895CF92DF92EF926B
:10597000FF920F931F93CF93DF93EC01690178019E
:10598000121613060CF04FC077FD4DC0888599851F
:10599000681779070CF047C08A859B854817590717
:1059A0000CF041C09A012C0D3D1D890101501109D7
:1059B00017FD39C057FF03C0690140E050E00817E8
:1059C000190734F08C01015011096C01C41AD50A71
:1059D0009B01CE010E9416299601442737FD409570
:1059E000542FB701CE010E9400258A8D811110C06D
:1059F0000A851B85015011092885398521503109F7
:105A000040E050E060E070E0CE010E9416290BC03B
:105A1000CE01DF91CF911F910F91FF90EF90DF901A
:105A2000CF900C944A24DF91CF911F910F91FF905A
:105A3000EF90DF90CF9008958F929F92AF92BF9298
:105A4000CF92DF92EF92FF920F931F93CF93DF934A
:105A5000EC01590168014701121613060CF06BC0E6
:105A6000101611060CF067C08885998568177907AC
:105A70000CF061C0EA84FB844E155F050CF05BC03E
:105A8000FB01E20FF31F9F012150310937FD53C085
:105A9000DA01A00FB11F8D010150110917FD4BC094
:105AA00077FF03C05F0160E070E057FF03C06D0146
:105AB00040E050E02817390734F09C0121503109AB
:105AC0005C01A61AB70A0E151F0534F087010150B4
:105AD00011096701C41AD50ACE010E941629960140
