:100000000C9437040C94E12E0C940C2F0C94372F85
:100010000C94201A0C94201A0C94201A0C94201A78
:100020000C9466040C9466040C9466040C946604A8
:100030000C9466040C94612A0C9466040C94660477
:100040000C940E0B0C9466040C94622F0C946604B2
:100050000C947C320C94B2320C9466040C946604BA
:100060000C9466040C9466040C9466040C94660468
:100070000C9429330C945F330C9466040C9466043E
:100080000C9466040C9466040C946604F80CFE0D43
:10009000B10FF3103A126D139C130E1471307430BB
:1000A00067306B308B308B3078307C3082308630EC
:1000B000084AD73B3BCE016E84BCBFFDC12F3D6CCF
:1000C00074319ABD56833DDA3D00C77F11BED9E435
:1000D000BB4C3E916BAAAABE000000803F072C7A61
:1000E000A5BA6CC590DA3B9365FC8BBC53F810FD48
:1000F0003C5692834DBD879D3AB63DCBC9BF5BBE92
:1001000073DA0FC93F05A84CCDB2D44EB93836A921
:10011000020C50B9918688083CA6AAAA2ABE000003
:1001200000803F002A0024002A0024000A2A2A2AEC
:100130002A2A2A2A2A2020204C6F672064756D7095
:10014000202A2A2A2A2A2A2A2A005365747570200E
:1001500066696E6973686564004C6F67202320725E
:1001600065636F7264732073617665643A004C6FE7
:1001700067206E65787420726561642061646472C2
:100180003A004C6F67206E657874207772697465E9
:1001900020616464723A004C6F672064617461206E
:1001A000696E697469616C697A656400696E697405
:1001B000206661696C656400496E697469616C6987
:1001C0007A696E672E2E2E0047505320414E4420F0
:1001D00054454C454D45545259204D4F44554C457E
:1001E0000000000000003E5B4F5B3E3E6B4F6B3EED
:1001F0001C3E7C3E1C183C7E3C181C577D571C1C2A
:100200005E7F5E1C00183C1800FFE7C3E7FF001884
:10021000241800FFE7DBE7FF30483A060E2629796D
:100220002926407F050507407F05253F5A3CE73CCE
:100230005A7F3E1C1C08081C1C3E7F14227F22147F
:100240005F5F005F5F06097F017F006689956A60D6
:100250006060606094A2FFA29408047E04081020ED
:100260007E201008082A1C08081C2A08081E1010E6
:1002700010100C1E0C1E0C30383E3830060E3E0E90
:1002800006000000000000005F00000007000700FB
:10029000147F147F14242A7F2A12231308646236E1
:1002A000495620500008070300001C22410000416D
:1002B000221C002A1C7F1C2A08083E0808008070A7
:1002C00030000808080808000060600020100804DA
:1002D000023E5149453E00427F400072494949462D
:1002E0002141494D331814127F1027454545393CAB
:1002F0004A49493141211109073649494936464998
:1003000049291E00001400000040340000000814B9
:100310002241141414141400412214080201590932
:10032000063E415D594E7C1211127C7F4949493687
:100330003E414141227F4141413E7F494949417F00
:10034000090909013E414151737F0808087F0041B6
:100350007F41002040413F017F081422417F4040FF
:1003600040407F021C027F7F0408107F3E414141D4
:100370003E7F090909063E4151215E7F0919294640
:10038000264949493203017F01033F4040403F1F56
:100390002040201F3F4038403F631408146303048B
:1003A0007804036159494D43007F414141020408EB
:1003B0001020004141417F040201020440404040BE
:1003C00040000307080020545478407F28444438F4
:1003D0003844444428384444287F3854545418003E
:1003E000087E090218A4A49C787F080404780044BD
:1003F0007D40002040403D007F1028440000417FA8
:1004000040007C047804787C080404783844444430
:1004100038FC1824241818242418FC7C0804040828
:10042000485454542404043F44243C4040207C1C41
:100430002040201C3C4030403C44281028444C9034
:1004400090907C4464544C4400083641000000778E
:100450000000004136080002010204023C26232667
:100460003C1EA1A161123A4040207A38545455599B
:1004700021555579412254547842215554784020D1
:10048000545579400C1E52721239555555593954EC
:1004900054545939555454580000457C4100024584
:1004A0007D420001457C407D1211127DF0282528F7
:1004B000F07C545545002054547C547C0A097F49F3
:1004C00032494949323A4444443A324A4848303A37
:1004D0004141217A3A42402078009DA0A07D3D42D2
:1004E00042423D3D4040403D3C24FF2424487E495B
:1004F00043662B2FFC2F2BFF0929F620C0887E098D
:100500000320545479410000447D413048484A3228
:10051000384040227A007A0A0A727D0D19317D2610
:1005200029292F28262929292630484D40203808F6
:1005300008080808080808382F10C8ACBA2F102877
:1005400034FA00007B000008142A142222142A1412
:10055000085500550055AA55AA55AAFF55FF55FF45
:10056000000000FF00101010FF00141414FF001012
:1005700010FF00FF1010F010F0141414FC001414FD
:10058000F700FF0000FF00FF1414F404FC1414171C
:10059000101F10101F101F1414141F00101010F043
:1005A000000000001F101010101F10101010F0108D
:1005B000000000FF101010101010101010FF10009D
:1005C0000000FF140000FF00FF00001F10170000D4
:1005D000FC04F414141710171414F404F40000FFAE
:1005E00000F714141414141414F700F71414141747
:1005F0001410101F101F141414F4141010F010F025
:1006000000001F101F0000001F14000000FC140059
:1006100000F010F01010FF10FF141414FF1410104D
:10062000101F00000000F010FFFFFFFFFFF0F0F0D0
:10063000F0F0FFFFFF0000000000FFFF0F0F0F0FA3
:100640000F3844443844FC4A4A4A347E02020606C3
:10065000027E027E0263554941633844443C0440B3
:100660007E201E2006027E020299A5E7A5991C2A7B
:10067000492A1C4C7201724C304A4D4D303048783A
:100680004830BC625A463D3E494949007E0101015D
:100690007E2A2A2A2A2A44445F444440514A44403C
:1006A00040444A51400000FF0103E080FF00000881
:1006B000086B6B083612362436060F090F06000049
:1006C00018180000001010003040FF0101001F0149
:1006D000011E00191D1712003C3C3C3C00000000AC
:1006E0000072740092740048940078C40000000006
:1006F000010200090A0000000004030807000000CE
:1007000000000000000000000000000000010204E2
:1007100008102040800102040810204080010204DB
:1007200008102040800102040810204080020202CC
:100730000202020202040404040404040403030386
:100740000303030303010101010101010100002072
:100750000023002600290000002200250028002B8D
:100760000000002100240027002A0000407A10F336
:100770005A00A0724E18090010A5D4E80000E876CF
:1007800048170000E40B54020000CA9A3B00000026
:10079000E1F505000080969800000040420F00003F
:1007A00000A08601000000102700000000E8030000
:1007B0000000006400000000000A000000000001CA
:1007C00000000000002C76D888DC674F0823DFC1CA
:1007D000DFAE59E1B1B796E5E3E453C63AE6519985
:1007E0007696E8E6C28426EB898C9B62ED407C6FAE
:1007F000FCEFBC9C9F40F2BAA56FA5F490055A2A65
:10080000F75C936B6CF9676DC11BFCE0E40D47FE70
:10081000F520E6B500D0ED902E0300943577050065
:1008200080841E080000204E0A000000C80C3333EC
:1008300033330F986E12831141EF8D2114893BE6FB
:100840005516CFFEE6DB18D1844B381BF77C1D9084
:100850001DA4BBE424203284725E228100C9F124ED
:10086000ECA1E53D2700880C1A27E63293331124CA
:100870001FBECFEFD0E4DEBFCDBF14E0A0E0B1E0FB
:10088000ECECFEE700E00BBF02C007900D92A63F24
:10089000B107D9F72CE0A6EFB4E001C01D92AC344B
:1008A000B207E1F718E0CEE6D8E000E006C02297F4
:1008B0000109FE010BBF0E94FB39C636D10780E05B
:1008C0000807A9F70E94D7330C94643F0C940000EA
:1008D0008F929F92AF92BF92CF92DF92EF92FF9250
:1008E000CF93DF93EC016A017B0183EB99E00E94D7
:1008F000292E8F3FD1F5B701A6014150504F6F4FC0
:100900007F4F83EB99E00E94292E8F3F71F58C89F0
:10091000882309F44FC080E1D80EE11CF11C61E18D
:1009200071E082E19BE00E9447342AE030E0B701A9
:10093000A60182E19BE00E945C35B701A60183EB32
:1009400099E00E94292E460157019FEF891A990AC2
:10095000A90AB90A8F32F1F4B501A40183EB99E039
:100960000E94292E8A32B1F421C0B701A60183EB7F
:1009700099E00E948B2E68E271E082E19BE00E9488
:1009800047342AE030E0B701A60182E19BE00E94F3
:100990005C35BDCF750164018114910488E0A8061F
:1009A000B10458F2C12CD12C7601C7CFCC82DD82A4
:1009B000EE82FF82DF91CF91FF90EF90DF90CF909A
:1009C000BF90AF909F908F900895CF93DF93EC01ED
:1009D00083EB99E00E947F2E1C821D821E821F8263
:1009E000188219821A821B82188619861A861B861B
:1009F0001C8ADF91CF9108954F925F926F927F9200
:100A00008F929F92AF92BF92CF92DF92EF92FF921E
:100A10000F931F93CF93DF93CDB7DEB7A4970FB695
:100A2000F894DEBF0FBECDBF29A33AA34BA35CA3AE
:100A3000E986FA860B871C87840125E33AEF4EE8A6
:100A40005CE30E94EA382B013C0125E33AEF4EE8D3
:100A50005CE369A17AA18BA19CA10E94EA386D8711
:100A60007E878F87988B0E940A376D8B7E8B8F8B4A
:100A7000988FC301B2010E940A3769837A838B83FE
:100A80009C839B01AC016D897E898F89988D0E9422
:100A9000EA386D8B7E8B8F8B988F6D857E858F85E9
:100AA00098890E944D3929813A814B815C810E944D
:100AB000EA3869837A838B839C83C301B2010E94E5
:100AC0004D396D837E838F83988725E33AEF4EE817
:100AD0005CE369857A858B859C850E94EA382B01C9
:100AE0003C0125E33AEF4EE85CE3C601B5010E9404
:100AF000EA3869877A878B879C870E940A37698BD7
:100B00007A8B8B8B9C8BC301B2010E940A376D8755
:100B10007E878F87988B9B01AC0169897A898B8945
:100B20009C890E94EA38698B7A8B8B8B9C8B6985B8
:100B30007A858B859C850E944D392D853E854F8514
:100B400058890E94EA386D8F7E8F8F8F98A3C301DA
:100B5000B2010E944D3969877A878B879C872989E2
:100B60003A894B895C896D897E898F89988D0E942D
:100B700079362B013C012D8D3E8D4F8D58A1698119
:100B80007A818B819C810E9479366D877E878F87E1
:100B9000988B29853A854B855C856D817E818F8117
:100BA00098850E947936698F7A8F8B8F9C8FA301ED
:100BB0009201C301B2010E94EA382B013C012D854C
:100BC0003E854F855889CA01B9010E94EA389B01C8
:100BD000AC01C301B2010E947A362B013C01298D80
:100BE0003A8D4B8D5C8DCA01B9010E94EA389B0198
:100BF000AC01C301B2010E947A3629E93AE743E128
:100C000056E50E94EA380E94573920E030E040E083
:100C10005FE30E94EA382B013C019B01AC010E947A
:100C2000EA389B01AC0169E97AE783E196E50E9425
:100C300079360E9457399B01AC01C301B2010E9471
:100C40000D370E94DE3620E33EE442EC5AE40E9477
:100C5000EA389B01AC010E947A366D877E878F87C8
:100C6000988B20E030E0A9010E940637811108C06E
:100C7000AFA9B8AD1D921D921D921C92139761C130
:100C800029853A854B855C8569817A818B819C8138
:100C90000E94EA382B013C012D8D3E8D4F8D58A1CD
:100CA0006D817E818F8198850E94EA389B01AC011D
:100CB000C301B2010E9479362B013C0129893A898E
:100CC0004B895C896D817E818F8198850E94EA388D
:100CD0006D837E838F83988729853A854B855C85D4
:100CE0006D897E898F89988D0E94EA389B01AC01BD
:100CF0006D817E818F8198850E947936698F7A8F88
:100D00008B8F9C8F2D8D3E8D4F8D58A16D897E8947
:100D10008F89988D0E94EA386D837E838F839887B0
:100D200029893A894B895C8969817A818B819C8187
:100D30000E94EA389B01AC016D817E818F8198858C
:100D40000E947936698B7A8B8B8B9C8BA3019201E5
:100D5000C301B2010E94EA386D837E838F83988736
:100D6000298D3A8D4B8D5C8DCA01B9010E94EA38FC
:100D70009B01AC016D817E818F8198850E947A36BE
:100D80006D837E838F83988729893A894B895C8913
:100D9000CA01B9010E94EA389B01AC016D817E81D4
:100DA0008F8198850E947A360E9457396D837E83A1
:100DB0008F83988789819A81AB81BC81B058898360
:100DC0009A83AB83BC839C01AD01BC01CD010E9421
:100DD000EA3869877A878B879C872D893E894F8976
:100DE000588DCA01B9010E94EA389B01AC0169859E
:100DF0007A858B859C850E947A3620E030E0A901B7
:100E00000E947A360E94573969877A878B879C8738
:100E10009B01AC0169817A818B819C810E940D3795
:100E200069837A838B839C832D813E814F81588592
:100E3000C301B2010E940D379B01AC0169817A8127
:100E40008B819C810E94EA3869837A838B839C839F
:100E500029853A854B855C856D897E898F89988D3A
:100E60000E940D372B013C012D813E814F81588519
:100E7000698D7A8D8B8D9C8D0E940D379B01AC0105
:100E8000C301B2010E94EA389B01AC0169817A81F9
:100E90008B819C810E947A362B013C0129853A8501
:100EA0004B855C8560E070E0CB010E940D37698363
:100EB0007A838B839C832D813E814F8158856989FC
:100EC0007A898B899C890E940D379B01AC016981CD
:100ED0007A818B819C810E94EA389B01AC01C3011D
:100EE000B2010E947A360E946B3625E33AEF4EE853
:100EF0005CE30E940D372B013C0129A13AA14BA1D3
:100F00005CA1C601B5010E94DF3818164CF4A3019C
:100F1000920160E070E084E393E40E94793608C0B7
:100F200020E030E044E353E4C301B2010E947A368A
:100F30000E947537AFA9B8AD6D937D938D939C9347
:100F4000139720E030E44CE156E46D857E858F8573
:100F500098890E94DF3887FD13C020E030E04AE71F
:100F600054E46D857E858F8598890E940D370E9497
:100F70007537F801608371838283938381E00DC0AC
:100F80006D857E858F8598890E947537D8016D9310
:100F90007D938D939C93139780E0A4960FB6F8945D
:100FA000DEBF0FBECDBFDF91CF911F910F91FF909C
:100FB000EF90DF90CF90BF90AF909F908F907F90F9
:100FC0006F905F904F90089580910A018F5F8930F4
:100FD00008F081E080930A010895AC0184E0440F99
:100FE000551F8A95E1F78CE0869F9001879F300D11
:100FF0001124B90183E899E00C943E1FFC019F0184
:10100000281B390B41914111FACFC9010895CF93A3
:10101000DF93EC010E94FE07FE0140E099279F014B
:101020002C1B3D0B281739071CF421914227F7CFC1
:10103000842FDF91CF9108952F923F924F925F922C
:101040006F927F928F929F92AF92BF92CF92DF92D8
:10105000EF92FF920F931F93CF93DF93CDB7DEB73D
:10106000C154D1090FB6F894DEBF0FBECDBF6A964A
:101070002FAD6A972BAB6B963FAD6B973CAB6C96E5
:101080006FAD6C976DAB6D968FAD6D978AAF6E96A9
:101090009FAD6E979BAFAD96CCACDDACEEACFFAC2C
:1010A000AD97AE96AFADAE97A9ABE2964CAC5DAC4A
:1010B0006EAC7FACE297E396BFADE397BAABC701E6
:1010C000B6010E9475374B015C0120E030E44CE131
:1010D00056E4C701B6010E94EA386B017C0100E1C9
:1010E00017E2089DB001099D700D189D700D112427
:1010F000882777FD8095982F0E94A8379B01AC0127
:10110000C701B6010E9479360E9475376CAF7DAF7A
:10111000C301B2010E9475376B017C0120E030E40D
:101120004CE156E4C301B2010E94EA382B013C01B4
:101130000C9DB0010D9D700D1C9D700D1124882714
:1011400077FD8095982F0E94A8379B01AC01C301C1
:10115000B2010E9479360E947537562E472E9E01A5
:10116000275E3F4F3AA729A7E7966CAD7DAD8EADC0
:101170009FADE797890121E044E00E94FF39CE014D
:1011800041969CA78BA7A5966CAD7DAD8EAD9FAD0E
:10119000A5970850110922E044E00E94FF39DE01C2
:1011A0001996BEA7ADA7A9966CAD7DAD8EAD9FADCE
:1011B000A9978D0122E044E00E94FF391E01B1E2AF
:1011C0002B0E311CED966CAD7DAD8EAD9FADED97C8
:1011D000810122E041E00E94FF39C358DF4F68815E
:1011E00079818A819B81CD57D0409E012F5F3F4FEF
:1011F00038AB2FA7890121E044E00E94FF3960E36A
:1012000071E083ED96E00E94373A3BAD3F936AADC3
:101210006F931F928DA98F931F929CA99F931F92EA
:10122000ABA9AF93A7E3B1E0BF93AF9389ED96E08D
:101230009F938F930E943E3A8C010752194F89A9C0
:10124000992787FD90959FAB8EAB9F9399A99F930C
:10125000ADADAF93BCADBF939F928F9249E451E087
:101260005F934F931F930F934EAF5FAF0E943E3A31
:10127000080F191F2AA9332727FD309539AF28AF4A
:101280003F933AA93F934F925F92DF92CF9227E527
:1012900031E03F932F931F930F9321962FAF219708
:1012A00022963FAF22970E943E3A080F191F0FB6B1
:1012B000F894DEBF0FBECDBF65E671E0C8010E94A5
:1012C000373A0E5F1F4FE9968FADE9971F928F93C4
:1012D00088E691E09F938F931F930F930E943E3A6D
:1012E000080F191F3F922F929EE6692E91E0792EEA
:1012F0007F926F921F930F930E943E3A080F191F1F
:101300009AA59F93A9A5AF9382E791E09F938F93AE
:101310001F930F930E943E3AB8A9BF936FA56F9396
:1013200068E771E07F936F93800F911F9F938F9376
:101330000E943E3A83ED96E00E9407081F928F9329
:101340000FE711E01F930F931E0187E2280E311C57
:101350003F922F920E943E3A6AE271E082E19BE066
:101360000E94243463ED76E082E19BE00E944734E2
:1013700068E271E082E19BE00E942434B10182E1E5
:101380009BE00E94663464E871E083E896E00E9486
:10139000373A9BAD9F93AAADAF931F92BDA9BF9360
:1013A0001F926CA96F931F928BA98F93A7E3B1E053
:1013B000BF93AF9389E896E09F938F930E943E3A44
:1013C0008757994F1C010FB6F894DEBF0FBECDBFF3
:1013D00064E371E00E94373A92E0290E311CAFA914
:1013E000AF93B9A9BF936DAD6F938CAD8F939F925F
:1013F0008F924EAD5FAD5F934F933F922F920E94BD
:101400003E3A280E391E99AD9F93AAA9AF934F92E9
:101410005F92DF92CF9221962FAD219722963FAD1A
:1014200022973F932F933F922F920E943E3A280E8D
:10143000391EBCA5BF932BA52F937F926F923F922D
:101440002F920E943E3A280E391E3EA53F936DA56D
:101450006F937F926F923F922F920E943E3A0FB607
:10146000F894DEBF0FBECDBFA1962FADA1971F92FE
:101470002F93A0962FADA0971F922F936F962FAD0D
:101480006F971F922F932BE831E03F932F93820D9C
:10149000931D9F938F930E943E3A83E896E00E94AB
:1014A00007081F928F931F930F938E010B5D1F4FA1
:1014B0001F930F930E943E3A66E271E082E19BE047
:1014C0000E94243463E876E082E19BE00E94473486
:1014D00064E271E082E19BE00E942434B80182E181
:1014E0009BE00E9466340FB6F894DEBF0FBECDBFFE
:1014F000CF5BDF4F0FB6F894DEBF0FBECDBFDF91DD
:10150000CF911F910F91FF90EF90DF90CF90BF9000
:10151000AF909F908F907F906F905F904F903F9093
:101520002F900895EF92FF920F931F93CF93DF9325
:101530001F92CDB7DEB77C018B01211105C0498315
:101540000E94FE07498102C080E090E0F701E80FA9
:10155000F91F801791071CF401964193FACFF70108
:10156000E80FF91F1082C7010F90DF91CF911F91F3
:101570000F91FF90EF900895CF93C82F60E070E037
:101580008EE090E00E94ED0740E050E06FEF7FEFCB
:1015900083E899E00E944A1F21E040E269E170E09F
:1015A00086E495E00E94920ABC0183E899E00E94DB
:1015B000473460E070E08EE090E00E94ED07C0FFED
:1015C0000EC040E058EF6FEF7FEF83E899E00E9494
:1015D0004A1F6CE971E083E899E00E944734C1FF3B
:1015E0000EC040E05CEF60E070E083E899E00E94AC
:1015F0004A1F62EA71E083E899E00E94473460E0A4
:1016000070E080E090E00E94ED0740E050E06FEF76
:101610007FEF83E899E0CF910C944A1F1F920F92BD
:101620000FB60F9211240BB60F922F933F934F9347
:101630005F936F937F938F939F93AF93BF93EF933A
:10164000FF9387EF94E00E94531FFF91EF91BF91AA
:10165000AF919F918F917F916F915F914F913F914A
:101660002F910F900BBE0F900FBE0F901F901895EB
:101670004F925F926F927F928F929F92AF92BF92A2
:10168000CF92DF92EF92FF920F931F93CF93DF934E
:1016900000D000D0CDB7DEB78C0148E350E060E069
:1016A00070E0FC0144875587668777874FEF53E2E8
:1016B00060E070E0408B518B628B738B148A1082D8
:1016C00011821282138214821582168217824FEFC2
:1016D0005FEF67E070E083EB99E00E94292E8F3F77
:1016E00009F0A4C040E050EF67E070E083EB99E0C0
:1016F0000E94292E8F3F09F499C0CC24CA94DC2C77
:1017000047E0E42EF12C88248A94982C57E0A52EEB
:10171000B12C240135014C185D086E087F08B70113
:10172000A60183EB99E00E94292E8F3F31F4F1E06E
:10173000CF1AD108E108F108ECCF81E0F801848BE1
:10174000FFEFCF1ADF0AEF0AFF0AF801C082D18249
:10175000E282F382CC24CA943FEED32E37E0E32E0C
:10176000F12CB701A60183EB99E00E94292E8F3F4F
:1017700041F0C114F0E1DF06E104F10408F060C0BB
:1017800015C0B701A6014F5F5F406109710983EB86
:1017900099E00E94292E8F3F61F7460157012FEFF4
:1017A000C216D20627E0E206F10431F181E0F80129
:1017B000848B46015701B501A40183EB99E00E9497
:1017C000292EA50194012F5F3F4F4F4F5F4F298373
:1017D0003A834B835C838F32C1F5BA01A90183EB55
:1017E00099E00E94292E8A3281F5F801848295823F
:1017F000A682B78246015701B501A40183EB99E0A7
:101800000E94292E8F3F81F581149104A104B10417
:1018100091F540E050E0BA0183EB99E00E94292E57
:101820008F3FA1F1812C912C540167C0412C512C88
:101830003201CC24CA94DC2C27E0E22EF12C91CF8B
:10184000F0E1DF1AE108F1088CCF89809A80AB8043
:10185000BC808114910428E0A206B10409F0ABCF4A
:10186000812C912C5401A7CF81149104A104B104BF
:1018700009F043C0CECFFFEF4F1A5F0A6F0A7F0A0D
:1018800021E0821A9108A108B108B6CFF801848935
:10189000811105C0F8011082118212821382FFEFBC
:1018A0004F1A5F0A6F0A7F0A60E070E088E090E0FC
:1018B0006419750986099709F801248535854685D7
:1018C00057850E94B439F8012087318742875387B2
:1018D0000F900F900F900F90DF91CF911F910F916C
:1018E000FF90EF90DF90CF90BF90AF909F908F9040
:1018F0007F906F905F904F900895FFEF8F1A9F0A2F
:10190000AF0ABF0AF80180829182A282B382CCCF53
:1019100040E35FEE67E183EB99E00E94AA2D2DE1A1
:101920004CE16BE183E899E00E945D2028EF3AE00A
:1019300042E064E083E598E00E94A32A41E063E589
:1019400078E088E497E00E9424278FE29AE2A0E002
:1019500080934B0690934C06A0934D0680931306FC
:1019600090931406A09315068093DB059093DC05F5
:10197000A093DD056FEA7BE087EF94E00C941120E3
:1019800060E070E083E899E00E943F2062E083E835
:1019900099E00E94441F61E083E899E00E94AD2431
:1019A00040E050E06FEF7FEF83E899E00E944A1F2C
:1019B00061E083E899E00E94501F40E050E060E061
:1019C00070E083E899E00C943E1FEF92FF920F9332
:1019D0001F93CF93DF9390E0FC013197E830F1053E
:1019E00008F074C7EA5BFF4F2091F6040C94F539B8
:1019F000213019F4662309F4A2C081E08093F60433
:101A00000E94C00C60E070E080E090E00E94ED0772
:101A100068EA71E083E899E00E94473460E070E092
:101A200081E090E00E94ED0780916D061F928F93F8
:101A300083EB91E09F938F93CEE6D5E0DF93CF9336
:101A40000E943E3ABE0183E899E00E94473460E07C
:101A500070E082E090E00E94ED0780916C061F929A
:101A60008F938AEB91E09F938F93DF93CF930E94A4
:101A70003E3ABE0183E899E00E94473460E070E09E
:101A800083E090E00E94ED0760916E0670916F0612
:101A9000809170069091710606E415E022E045E021
:101AA0000E94FF399F938F9382EC91E09F938F93D5
:101AB000DF93CF930E943E3ABE0183E899E00E94F3
:101AC000473460E070E084E090E00E94ED07809190
:101AD00047078F93809146078F938AEC91E09F93FD
:101AE0008F93DF93CF930E943E3ABE0183E899E043
:101AF0000E94473460E070E085E090E00E94ED07CE
:101B000060917F0670918006809181069091820697
:101B100022E044E00E94FF399F938F9385ED91E08E
:101B20009F938F93DF93CF930E943E3A8DB79EB7DA
:101B30004E960FB6F8949EBF0FBE8DBF99C464E059
:101B400070E081E090E00E94ED074AE050E0609193
:101B50006D0683E899E00E943E3565E070E082E022
:101B600090E00E94ED074AE050E060916C0683E847
:101B700099E00E943E3565E070E083E090E00E94CD
:101B8000ED0760916E0670916F06809170069091DE
:101B9000710606E415E022E045E00E94FF39BC0131
:101BA0008EE695E00E94373A6EE675E083E899E0AC
:101BB0000E94473468E070E084E090E00E94ED0706
:101BC00060914607709147074AE050E083E899E04A
:101BD0000E94113567E070E085E090E00E94ED071B
:101BE00060917F06709180068091810690918206B7
:101BF00022E044E00E94FF39BC0199C5223019F46B
:101C0000662309F4C3C082E08093F6040E94C00CEE
:101C100060E070E080E090E00E94ED0761EE71E02E
:101C200083E899E00E94473460913B0770913C073C
:101C300080913D0790913E070E94A8379B01AC011F
:101C4000609168067091690680916A0690916B06B2
:101C50000E94793606E415E020E044E00E94FF3956
:101C60009F938F938AEE91E09F938F93CEE6D5E07A
:101C7000DF93CF930E943E3A60E070E081E090E015
:101C80000E94ED07BE0183E899E00E94473426E5F3
:101C90003EE04DEE5FE360915606709157068091ED
:101CA0005806909159060E94EA3820E044E00E94CC
:101CB000FF399F938F9383EF91E09F938F93DF93EF
:101CC000CF930E943E3A60E070E082E090E00E9494
:101CD000ED07BE0183E899E00E94473460913F0719
:101CE0007091400780914107909142070E94A83768
:101CF00020E044E00E94FF399F938F938FEF91E0A3
:101D00009F938F93DF93CF930E943E3A60E070E001
:101D100083E090E00E94ED07BE0183E899E00E9415
:101D2000473460E070E084E090E00E94ED0760914D
:101D300033077091340780913507909136070E94E0
:101D4000A83720E044E00E94FF399F938F938AE0F8
:101D500092E09F938F93DF93CF930E943E3ABE0110
:101D600083E899E00E9447348DB79EB748960FB636
:101D7000F8949EBF0FBE8DBF80914407811103C0B0
:101D800061EF71E0AEC061E172E0ABC060913B0712
:101D900070913C0780913D0790913E070E94A837C3
:101DA0009B01AC01609168067091690680916A069A
:101DB00090916B060E94793606E415E020E044E03D
:101DC0000E94FF399F938F9384E192E09F938F93BA
:101DD000CEE6D5E0DF93CF930E943E3A64E070E018
:101DE00081E090E00E94ED07BE0183E899E00E9447
:101DF000473426E53EE04DEE5FE360915606709174
:101E0000570680915806909159060E94EA3820E0C2
:101E100044E00E94FF399F938F938FE192E09F935C
:101E20008F93DF93CF930E943E3A64E070E082E0AC
:101E300090E00E94ED07BE0183E899E00E944734DC
:101E400060913F0770914007809141079091420750
:101E50000E94A83720E044E00E94FF399F938F93AF
:101E60008DE292E09F938F93DF93CF930E943E3A4F
:101E700064E070E083E090E00E94ED07BE0183E83B
:101E800099E00E94473464E070E084E090E00E94B2
:101E9000ED07609133077091340780913507909179
:101EA00036070E94A83720E044E00E94FF39BC01B9
:101EB000CE010E94373ABE0183E899E00E94473480
:101EC0008DB79EB742960FB6F8949EBF0FBE8DBFDA
:101ED00080914407811103C06AE372E002C061E4AB
:101EE00072E083E899E00E94473464E083E899E077
:101EF0000E94441F60E070E085E090E00E94ED07E2
:101F000060912307709124078091250790912607FF
:101F100006E415E020E041E00E94FF399F938F9393
:101F200087EF91E09F938F938EE695E09F938F9339
:101F30000E943E3A6EE675E083E899E00E944734DD
:101F40000F900F900F900F900F900F9062E083E82A
:101F500099E0DF91CF911F910F91FF90EF900C943A
:101F6000441F233019F4662309F4A2C083E0809350
:101F7000F6040E94C00C60E070E080E090E00E94F7
:101F8000ED076AE472E083E899E00E94473460E07C
:101F900070E081E090E00E94ED076091230770916E
:101FA0002407809125079091260706E415E020E09C
:101FB00044E00E94FF399F938F9386E592E09F93C0
:101FC0008F93CEE6D5E0DF93CF930E943E3ABE01D9
:101FD00083E899E00E94473460E070E082E090E09E
:101FE0000E94ED0780913A078F93809139078F9374
:101FF000809138078F93809137078F938FE592E018
:102000009F938F93DF93CF930E943E3ABE0183E864
:1020100099E00E94473460E070E083E090E00E9425
:10202000ED07809132078F93809131078F938091D4
:1020300030078F9380912F078F9389E692E09F93CB
:102040008F93DF93CF930E943E3ABE0183E899E0DD
:102050000E9447348DB79EB746960FB6F8949EBF40
:102060000FBE8DBF80914407811103C061EF71E005
:1020700002C061E172E083E899E00E94473460E0C9
:1020800070E084E090E00E94ED0760916806709136
:10209000690680916A0690916B0606E415E020E0DF
:1020A00045E00E94FF399F938F9382E792E08CC0B6
:1020B00066E070E081E090E00E94ED076091230708
:1020C00070912407809125079091260706E415E07A
:1020D00020E044E00E94FF39BC018EE695E00E94BA
:1020E000373A6EE675E083E899E00E94473466E08F
:1020F00070E082E090E00E94ED0780913A078F93B4
:10210000809139078F93809138078F93809137079B
:102110008F9385E692E09F938F93CEE6D5E0DF9391
:10212000CF930E943E3ABE0183E899E00E94473473
:1021300066E070E083E090E00E94ED078091320756
:102140008F93809131078F93809130078F93809187
:102150002F078F9382ED91E09F938F93DF93CF931F
:102160000E943E3ABE0183E899E00E9447348DB751
:102170009EB740960FB6F8949EBF0FBE8DBF80915C
:102180004407811103C061EF71E002C061E172E0B8
:1021900083E899E00E94473468E070E085E090E0D1
:1021A0000E94ED07609168067091690680916A0649
:1021B00090916B0606E415E020E045E00E94FF39AF
:1021C0009F938F938EE792E09F938F938EE695E097
:1021D0009F938F930E943E3A0F900F900F900F9015
:1021E0000F900F9067C3243019F4662309F4B1C02F
:1021F00084E08093F6040E94C00C60E070E080E010
:1022000090E00E94ED0762E872E083E899E00E94A6
:10221000473460E070E081E090E00E94ED0760915B
:102220005E0670915F06809160069091610606E4FB
:1022300015E024E049E00E94FF399F938F9320919D
:102240006206822F992787FD90959F932F938DE8A3
:1022500092E09F938F93CEE6D5E0DF93CF930E94D9
:102260003E3ABE0183E899E00E94473460E070E0A6
:1022700082E090E00E94ED07609163067091640631
:10228000809165069091660624E049E00E94FF393E
:102290009F938F9320916706822F992787FD9095B2
:1022A0009F932F9387E992E09F938F93DF93CF9330
:1022B0000E943E3ABE0183E899E00E94473460E004
:1022C00070E083E090E00E94ED0761EA72E0CE01E9
:1022D0000E94373ABE0183E899E00E94473460E0EB
:1022E00070E084E090E00E94ED07609176067091C6
:1022F0007706809178069091790626E04AE00E9460
:10230000FF39BC01CE010E94373ABE0183E899E053
:102310000E94473460E070E085E090E00E94ED07A5
:1023200060917A0670917B0680917C0690917D0683
:1023300026E04AE00E94FF39BC01CE010E94373AF4
:102340008DB79EB740960FB6F8949EBF0FBE8DBF57
:102350008FC064E070E081E090E00E94ED07609142
:102360005E0670915F06809160069091610606E4BA
:1023700015E024E049E00E94FF399F938F9320915C
:102380006206822F992787FD90959F932F936BE983
:10239000E62E62E0F62EFF92EF92CEE6D5E0DF93D6
:1023A000CF930E943E3ABE0183E899E00E944734F1
:1023B00064E070E082E090E00E94ED0760916306C7
:1023C00070916406809165069091660624E049E06C
:1023D0000E94FF399F938F9320916706822F992740
:1023E00087FD90959F932F93FF92EF92DF93CF936A
:1023F0000E943E3ABE0183E899E00E94473460E0C3
:1024000070E084E090E00E94ED07609176067091A4
:102410007706809178069091790626E04AE00E943E
:10242000FF39BC01CE010E94373ABE0183E899E032
:102430000E94473460E070E085E090E00E94ED0784
:1024400060917A0670917B0680917C0690917D0662
:1024500026E04AE00E94FF39BC01CE010E94373AD3
:102460008DB79EB740960FB6F8949EBF0FBE8DBF36
:10247000BE0122C2253019F4662309F4ABC085E001
:102480008093F6040E94C00C60E070E080E090E071
:102490000E94ED076FEA72E083E899E00E944734FA
:1024A00060E070E081E090E00E94ED0761EA72E098
:1024B00083E899E00E94473460E070E082E090E0B9
:1024C0000E94ED07609176067091770680917806FC
:1024D0009091790606E415E026E049E00E94FF3974
:1024E000BC018EE695E00E94373A6EE675E083E81F
:1024F00099E00E94473460E070E083E090E00E9441
:10250000ED0760917A0670917B0680917C06909130
:102510007D0626E049E00E94FF39BC018EE695E089
:102520000E94373A6EE675E083E899E00E944734EE
:1025300060E070E084E090E00E94ED078091420747
:102540008F93809141078F93809140078F93809163
:102550003F078F938CEB92E09F938F93CEE6D5E06D
:10256000DF93CF930E943E3ABE0183E899E00E9438
:10257000473460E070E085E090E00E94ED078091D4
:1025800036078F93809135078F93809134078F930F
:10259000809133078F9383EC92E09F938F93DF9327
:1025A000CF930E943E3ABE0183E899E00E944734EF
:1025B0008DB79EB740960FB6F8949EBF0FBE8DBFE5
:1025C00080914407811103C061EF71E075C161E141
:1025D00072E072C160E070E082E090E00E94ED077E
:1025E00060917606709177068091780690917906D1
:1025F00006E415E026E049E00E94FF39BC018EE6C2
:1026000095E00E94373A6EE675E083E899E00E9413
:10261000473460E070E083E090E00E94ED07609155
:102620007A0670917B0680917C0690917D0626E06B
:1026300049E00E94FF39BC018EE695E00E94373ADE
:102640006EE675E083E899E00E94473464E070E04C
:1026500084E090E00E94ED07809142078F93809183
:1026600041078F93809140078F9380913F078F930D
:1026700002ED11E01F930F93CEE6D5E0DF93CF93E9
:102680000E943E3ABE0183E899E00E94473464E02C
:1026900070E085E090E00E94ED07809136078F930F
:1026A000809135078F93809134078F938091330702
:1026B0008F931F930F93DF93CF930E943E3ABE01F7
:1026C00083E899E00E9447348DB79EB740960FB6D5
:1026D000F8949EBF0FBE8DBF73CF263019F46623CA
:1026E00009F4F4C086E08093F6040E94C00C60E018
:1026F00070E080E090E00E94ED076AEC72E083E811
:1027000099E00E94473460E070E081E090E00E9430
:10271000ED0764ED72E083E899E00E94473460E0E1
:1027200070E082E090E00E94ED0760EE72E08EE6DD
:1027300095E00E94373ABEC0273019F4662309F4A9
:1027400048C087E08093F6040E94C00C60E070E00F
:1027500080E090E00E94ED0762EF72E083E899E08C
:102760000E94473460E070E081E090E00E94ED0755
:10277000809179098F93809178098F93809177095F
:102780008F93809176098F938DEF92E09F938F9333
:102790008EE695E09F938F930E943E3A6EE675E039
:1027A00083E899E00E94473460E070E082E090E0C6
:1027B0000E94ED076AE073E08EE695E00E94373AEA
:1027C0008DB79EB708960FB6F8949EBF0FBE8DBF0B
:1027D00071C069E070E081E090E00E94ED078091B7
:1027E00079098F93809178098F93809177098F93DE
:1027F000809176098F9386E093E09F938F938EE686
:1028000095E09F938F930E943E3A8DB79EB70896AE
:102810000FB6F8949EBF0FBE8DBF4CC0283019F480
:10282000662309F453C088E08093F6040E94C00C2C
:1028300060E070E080E090E00E94ED076DE173E001
:1028400083E899E00E94473460E070E081E090E026
:102850000E94ED07809179098F93809178098F9379
:10286000809177098F93809176098F938AE293E024
:102870009F938F938EE695E09F938F930E943E3AAD
:102880006EE675E083E899E00E94473460E070E00E
:1028900082E090E00E94ED0768E373E08EE695E049
:1028A0000E94373A8DB79EB708960FB6F8949EBF30
:1028B0000FBE8DBF6EE675E083E899E0DF91CF91A2
:1028C0001F910F91FF90EF900C944734DF91CF91BF
:1028D0001F910F91FF90EF90089526E040E052EC99
:1028E00061E070E082E19BE00E941A3268EC71E0E6
:1028F00082E19BE00E94543460EE72E082E19BE052
:102900000E94663468EB71E082E19BE00E945434DF
:1029100088E497E00E944325882349F040E050E096
:1029200069ED73E483E598E00E94242B06C06CEA0D
:1029300071E082E19BE00E94543460E875E287EF29
:1029400094E00E9422208FEA87BD80916E00826011
:1029500080936E0062E08FE10E948C3062E08EE135
:102960000E948C3082E00E94C21983E899E00E94A4
:10297000FE200E94C00C6AE473E083E899E00E94A4
:10298000663460E673E083E899E00E94473460EEC5
:1029900072E083E899E00E94663465E673E082E1C4
:1029A0009BE00E9466346BE476E08EE699E00E943C
:1029B000380B67E971E082E19BE00E94543462E8E1
:1029C00071E082E19BE00E94243440916E095091B5
:1029D0006F0960917009709171092AE030E082E11D
:1029E0009BE00E945C356EE671E082E19BE00E9414
:1029F0002434409172095091730960917409709167
:102A000075092AE030E082E19BE00E945C3569E5CF
:102A100071E082E19BE00E9424344091760950915C
:102A2000770960917809709179092AE030E082E1B4
:102A30009BE00E945C3560E080910A010E94E50CF9
:102A40006AE471E082E19BE00E9454340E94AC2F62
:102A50006093D6057093D7058093D8059093D905D8
:102A600008951092230710922407109225071092C0
:102A7000260710922F0710923007109231071092FC
:102A800032071092370710923807109239071092C8
:102A90003A071092430710923F0710924007109296
:102AA0004107109242078091760690917706A09197
:102AB0007806B091790680932B0790932C07A0930A
:102AC0002D07B0932E0780917A0690917B06A091F6
:102AD0007C06B0917D068093270790932807A093EA
:102AE0002907B0932A070E94C00C67E873E083E8C7
:102AF00099E00E9466346EE973E083E899E00E94F1
:102B0000663440912B0750912C0760912D077091EE
:102B10002E0728E030E083E899E00E94593663EA06
:102B200073E083E899E00E94663440912707509152
:102B300028076091290770912A0728E030E083E890
:102B400099E00E94593660916806709169068091FB
:102B50006A0690916B060E94753760933B077093ED
:102B60003C0780933D0790933E0760ED77E080E05F
:102B700090E00E94DB2F61E080910A010C94E50C4B
:102B80003F924F925F926F927F928F929F92AF92FD
:102B9000BF92CF92DF92EF92FF920F931F93CF934A
:102BA000DF93CDB7DEB7E9970FB6F894DEBF0FBE5F
:102BB000CDBF8FE10E94FB30892B49F40E94E407CE
:102BC00061E080910A010E94E50C1092DA058EE125
:102BD0000E94FB30892B09F052C180910A01873095
:102BE00048F4823008F049C1813009F046C10E94A2
:102BF000311543C1873009F46BC0883009F03DC1FD
:102C000060E070E081E090E00E94ED0721E040E2AA
:102C100069E170E08EE695E00E94920ABC0183E8CB
:102C200099E00E94473460E070E082E090E00E940A
:102C3000ED0721E040E269E170E08EE695E00E9458
:102C4000920ABC0183E899E00E94473460E070E09A
:102C500083E090E00E94ED0721E040E269E170E04E
:102C60008EE695E00E94920ABC0183E899E00E94FA
:102C7000473460E070E082E090E00E94ED0767EB8F
:102C800073E08EE695E00E94373A6EE675E083E8E1
:102C900099E00E9447348090720990907309A09047
:102CA0007409B09075098FE29AE2A0E089839A8353
:102CB000AB836CE271E082E19BE00E945434F894B3
:102CC00001E010E0CE0101967C01F8E33F2EABC09D
:102CD00060E070E081E090E00E94ED0721E040E2DA
:102CE00069E170E08EE695E00E94920ABC0183E8FB
:102CF00099E00E94473460E070E082E090E00E943A
:102D0000ED0721E040E269E170E08EE695E00E9487
:102D1000920ABC0183E899E00E94473460E070E0C9
:102D200083E090E00E94ED0721E040E269E170E07D
:102D30008EE695E00E94920ABC0183E899E00E9429
:102D4000473460E070E082E090E00E94ED0768EABE
:102D500073E08EE695E00E94373A6EE675E083E810
:102D600099E00E9447348EE699E00E94E50480C015
:102D70002A013B019FEF491A590A690A790A83EB34
:102D800099E00E94292EF60181936F0141145104AC
:102D9000F8E06F06710418F0412C512C3201B30198
:102DA000A20140907A0950907B0960907C09709054
:102DB0007D09C6018E199F09A0E0B0E08415950534
:102DC000A605B705A8F28091720990917309A091A8
:102DD0007409B0917509840D951DA61DB71DA770C6
:102DE000BB278093720990937309A0937409B093E1
:102DF00075098DB79EB7C8970FB6F8949EBF0FBEE2
:102E00008DBFADB7BEB71196F701832D01900D921E
:102E10008A95E1F70E941C080F5F1F4F0FB6F894C8
:102E2000DEBF0FBECDBFA80160E070E080917609E3
:102E300090917709A0917809B091790948175907BD
:102E40006A077B0750F440917209509173096091B1
:102E50007409709175096701A4CFAA24BB248092DC
:102E6000720990927309A0927409B09275097894CE
:102E700061E080910A010E94E50C1092DA05C09091
:102E8000D605D090D705E090D805F090D9050E94DE
:102E9000AC2F6C157D058E059F0550F40E94AC2F5C
:102EA0006093D6057093D7058093D8059093D90584
:102EB00088E497E00E94E224882309F4AEC180915F
:102EC000DA058E7F8093DA0588E389AFC12CD12C97
:102ED000E12CF12C00E010E09E012F5F3F4FAE018E
:102EE000475C5F4F6BE476E088E497E00E945B27E5
:102EF000882309F4AAC10E94AC2F6093D605709371
:102F0000D7058093D8059093D90583E598E00E9472
:102F1000A126992787FD90959093470780934607B0
:102F200080917E06882309F4E4C0809145078111D1
:102F300002C00E94311581E0809345078091DA0537
:102F40008D7F8093DA05A0907A06B0907B06C090C2
:102F50007C06D0907D06E0907606F0907706009192
:102F60007806109179062091270730912807409123
:102F7000290750912A0760912B0770912C078091A7
:102F80002D0790912E07EFE3F7E0FF93EF93E3E334
:102F90008E2EE7E09E2E0E94FC04182F809344079B
:102FA000C0906806D0906906E0906A06F0906B06C3
:102FB00080903B0790903C07A0903D07B0903E0763
:102FC00060913707709138078091390790913A07DF
:102FD000680D791D8A1D9B1D0E94A8379B01AC01BD
:102FE0000F900F90C701B6010E94DF381816A4F4A5
:102FF000C501B4010E94A8379B01AC01C701B6010D
:103000000E9479360E9475376093370770933807AE
:103010008093390790933A074091330750913407D2
:103020006091350770913607111103C01092430764
:1030300008C080914307811104C081E08093430759
:103040000DC080912F0790913007A0913107B0916A
:10305000320784179507A607B70744F440932F0754
:1030600050933007609331077093320726E53EE0B6
:103070004DEE5FE3609156067091570680915806B9
:10308000909159060E94EA3820E030E040E85FE382
:103090000E94063787FF08C0109256061092570606
:1030A000109258061092590626E53EE04DEE5FE379
:1030B0006091560670915706809158069091590676
:1030C0000E94EA386B017C0120912307309124078C
:1030D00040912507509126070E94DF38181674F496
:1030E000C0922307D0922407E0922507F09226078A
:1030F00005C08091DA0582608093DA05C0906E0980
:10310000D0906F09E0907009F09071090BE416E01F
:10311000A8014B54564060E070E080917A0990918C
:103120007B09A0917C09B0917D09481759076A076E
:103130007B0760F5F80121918F01B701A60183EBB0
:1031400099E00E94542ED701C6019F70AA27BB2781
:10315000892B8A2B8B2B59F4B701A601505F6F4F37
:103160007F4F677077278EE699E00E946804FFEF33
:10317000CF1ADF0AEF0AFF0AC114D10488E0E8067B
:10318000F10430F2C12CD12C7601C2CFC0926E096D
:10319000D0926F09E0927009F092710980917609DE
:1031A00090917709A0917809B091790940917E09B1
:1031B00050917F096091800970918109841795076A
:1031C000A607B70758F40196A11DB11D8093760993
:1031D00090937709A0937809B0937909EDB7FEB77A
:1031E000F8970FB6F894FEBF0FBEEDBFADB7BEB7F0
:1031F000119688E3EBE4F6E001900D928A95E1F7F1
:103200000E941C080FB6F894DEBF0FBECDBF60E071
:1032100080910A010E94E50C18C00E94AC2F009119
:10322000D6051091D7052091D8053091D9050857BA
:103230001C4E2F4F3F4F061717072807390728F452
:103240008091DA0581608093DA050E94AC2F0091AD
:10325000D2051091D3052091D4053091D505601782
:1032600071078207930750F40E94AC2F6093D20538
:103270007093D3058093D4059093D5050E94AC2F0D
:103280000091D2051091D3052091D4053091D50538
:103290000053184F2F4F3F4F0617170728073907BE
:1032A00078F48091DA0590E00E94BC0A0E94AC2F6D
:1032B0006093D2057093D3058093D4059093D50580
:1032C000E9960FB6F894DEBF0FBECDBFDF91CF9168
:1032D0001F910F91FF90EF90DF90CF90BF90AF9034
:1032E0009F908F907F906F905F904F903F90089548
:1032F000CF93CFB7F8948091BD09811127C0E1E346
:10330000F7E08491E1E1F7E09491E82FF0E0EE0F2F
:10331000FF1FEF59F84FA591B4918C91892321F4A7
:1033200061E084E00E94C53061E084E00E948C305E
:103330008CB580618CBD8CB580648CBD61E087E00C
:103340000E948C3061E085E00E948C308091BD0944
:103350008F5F8093BD09CFBFCF9108959FB7F89439
:103360008091BD09882319F081508093BD09809117
:10337000BD09811105C08CB58F7B8CBD1092BC0935
:103380009FBF08952FB7F894813061F020F082300C
:1033900021F484E008C081E006C082E08093BC098B
:1033A00080E001C082E09091BB09982B9093BB090B
:1033B0008091BC09811103C081E08093BC092FBFBB
:1033C0000895E091000AF091010AE817F90769F4FD
:1033D000A389B4899C918589809589238C931092C7
:1033E000010A1092000A81E0089580E00895CF93C9
:1033F000DF93EC018A8D9B8D892BF1F08091000A7F
:103400009091010A8C179D07B9F0009711F00E9466
:10341000E1198E8D8E7F8E8F1092BF091092BE099A
:10342000D093010AC093000AEB89FC8980819D89B1
:10343000892B808381E001C080E0DF91CF910895E6
:103440001F920F920FB60F9211240BB60F922F936B
:103450003F934F935F936F937F938F939F93AF931C
:10346000BF93EF93FF93E091000AF091010A309728
:1034700009F451C0868DA685B785958581FF04C066
:103480008C91892329F447C08C91892309F043C08A
:10349000A389B4899C918589809589238C93868999
:1034A00097890197F1F7208D318DA685B7857585B0
:1034B00058E040E0C9010197F1F7842F90E095951D
:1034C0008795482F6C91672309F04068515091F718
:1034D000868D81FD40958091BF0990E001968F73A4
:1034E00099272091BE09281749F0A091BF09B0E0A3
:1034F000A054B64F4C938093BF0903C0868D816062
:10350000868F828D938D0197F1F7A389B4898C9171
:103510009589892B8C93FF91EF91BF91AF919F91EA
:103520008F917F916F915F914F913F912F910F906C
:103530000BBE0F900FBE0F901F901895CF93DF9387
:10354000EC019A01AB011B8E1A8E198E188E1F8A00
:103550001E8A60E079E08DE390E00E94D639C901CF
:103560002430310520F0B9016350710902C061E0D7
:1035700070E07D8F6C8FEC85EF3108F05AC0B90197
:10358000769567956431710518F06351710902C031
:1035900061E070E07F8B6E8B069718F0C90105978C
:1035A00002C081E090E0998F888FC901880F991F30
:1035B000820F931F96958795969587958D309105E7
:1035C00010F00C9702C081E090E09B8F8A8F909161
:1035D0006800E83030F0E03130F0E83130F484E079
:1035E00005C082E003C088E001C081E0892B8093A0
:1035F00068002C85283038F02E3040F0263148F411
:103600008CE690E008C08DE690E005C08BE690E087
:1036100002C080E090E09C8B8B8B277081E090E073
:1036200001C0880F2A95EAF78D8B8C8D9D8D0197AF
:10363000F1F7CE01DF91CF910C94F7192F923F92C1
:103640004F925F926F927F928F929F92AF92BF92B2
:10365000CF92DF92EF92FF920F931F93CF93DF935E
:1036600000D000D0CDB7DEB74C017C836B836A01FC
:103670005901C8018701AC014C195D0957FF03C00E
:1036800051954195510995016B817C81261B370B22
:1036900037FF03C031952195310922242394312C21
:1036A0002417350714F0212C312C2114310459F042
:1036B0003A2D2B2D5C01832F922F3B812C81DC82B4
:1036C000CB82C32ED22EAB81BC81AA16BB065CF482
:1036D0003C2D2D2D6C01832F922F3B812C81BC82A0
:1036E000AB82A32EB22E2501EB81FC814E1A5F0A1C
:1036F0003C016C187D0877FE03C0719461947108D9
:10370000720157FE03C0FFEFEF1AFF0AF594E7942A
:10371000C816D9062CF421E030E03A83298324C06E
:103720006FEF7FEF7A8369831FC0D401ED91FC9125
:103730000480F581E02D980121143104D9F04B81EA
:103740005C81B601C4010995E618F708F7FE06C0CA
:10375000E981FA81CE0EDF1EE40CF51C2B813C8141
:103760002F5F3F4F3C832B836B817C81A616B7066E
:10377000E4F604C0A6016B817C81E4CF0F900F902A
:103780000F900F90DF91CF911F910F91FF90EF90CD
:10379000DF90CF90BF90AF909F908F907F906F9071
:1037A0005F904F903F902F9008956F927F928F92ED
:1037B0009F92AF92BF92CF92DF92EF92FF920F93C0
:1037C0001F93CF93DF93EC015B016A01390148013C
:1037D000E881F9810284F385E02D87010995E8816C
:1037E000F981A601480D591D415051090284F38504
:1037F000E02D9301B501CE010995E881F98100849E
:10380000F185E02D9401A601B501CE010995E8816D
:10381000F981B501660D771D615071090084F1854C
:10382000E02D9401A601CE010995DF91CF911F9162
:103830000F91FF90EF90DF90CF90BF90AF909F904F
:103840008F907F906F900895EF92FF920F931F9348
:10385000DC01ED91FC91240F351F215031090680C8
:10386000F781E02D780189019B0109951F910F9146
:10387000FF90EF900895EF92FF920F931F93DC015A
:10388000ED91FC91260F371F215031090680F781F9
:10389000E02D78018A0109951F910F91FF90EF901B
:1038A00008956F927F928F929F92AF92BF92CF9224
:1038B000DF92EF92FF920F931F93CF93DF935C0100
:1038C0004A0169013801EB01C60ED71ECC15DD0592
:1038D00074F4D501ED91FC910084F185E02D870110
:1038E0009301A401BE01C50109952196EFCFDF9197
:1038F000CF911F910F91FF90EF90DF90CF90BF90ED
:10390000AF909F908F907F906F900895EF92FF926D
:103910000F931F93DC01ED91FC9111971A960D9175
:103920001C911B9718962D913C9119970684F78549
:10393000E02D7B0140E050E060E070E009951F91D0
:103940000F91FF90EF9008950895FC011382128269
:103950008AEC93E0918380837583648357834683E5
:103960007187608753874287158A15861486178664
:10397000168621E0248B8FEF9FEF938B828B918BA8
:10398000808B268B178A118E108E08952F923F926E
:103990004F925F926F927F928F929F92AF92BF925F
:1039A000CF92DF92EF92FF920F931F93CF93DF930B
:1039B000CDB7DEB76A970FB6F894DEBF0FBECDBFA6
:1039C0001C0158874F831C870B87FA86E986CC82B7
:1039D000DC0158964D915C9159974115510509F0BC
:1039E000A6C018968D919C911997681779070CF0CD
:1039F00056C11A968D919C911B97EF81F885E81717
:103A0000F9070CF04CC1D12CCB013C81F6E03F9F73
:103A1000800D911D1124181619060CF040C1C60125
:103A200003E0880F991F0A95E1F74F815885840FAD
:103A3000951F181619060CF032C157968C918111FA
:103A400003C0203B08F02F5F7E876D874B011982F2
:103A500011EEA12E11E0B12EA61AB70A55E0259F4E
:103A6000A00CB11C11248981853039F0ED85FE85CB
:103A7000EA0DFB1D94919A8301C01A826F807884AD
:103A80002301A8E0AD83BA81B0FF12C0D101ED914E
:103A9000FC91BC81B13031F40480F581E02D2B859F
:103AA0003C8518C00684F785E02DEB84FC841DC09E
:103AB000E985FA852B853C85E217F307E1F0D10112
:103AC000ED91FC91BC81B13059F40480F581E02D79
:103AD00029853A85A2016D857E85C10109950BC0B6
:103AE0000684F785E02DE984FA8486019601A30116
:103AF000B401C1010995EA81E695EA83FD81F1509F
:103B0000FD836C0C7D1C2FEF421A520AF111BBCFC2
:103B100039813F5F39838C0C9D1C4D855E854F5FDD
:103B20005F4F5E874D87363009F09DCFB8C0FA01F0
:103B300034963491329785919491231BA7E02A9F64
:103B4000800D911D1124FA0125913491398B288B18
:103B5000FC01459154915A8F498FFC013296549142
:103B600059873196A491AF873196E491FC0135963F
:103B7000249131968491BC81B23050F0622E77242A
:103B800067FC7094E82FFF27E7FDF095FE87ED872F
:103B9000FC81CF2ED12C6C9C40016D9C900C7C9CA8
:103BA000900C1124860E971EA12C1982DE8ACD8AD4
:103BB000AB01420F511D27FD5A955E834D83AF81A6
:103BC000B885A80FB11D87FDBA95B88FAF8B598105
:103BD0008F85581708F063C0852F90E02D853E85AE
:103BE000280F391F2C9DD0012D9DB00D3C9DB00D8F
:103BF0001124EF81F885EA0FFB1FFB83EA836D80B8
:103C00007E802401FA2D2D81F21BFA8B4F89588D6D
:103C1000480F591F5C8B4B8B9A89960D862D2D81F1
:103C2000821B39858317B0F5977061F4898D9A8D61
:103C30000196E889F989298D3A8DE20FF31FB49036
:103C40009A8F898FB7FE1DC0D101ED91FC91BC8187
:103C5000B13059F40480F581E02D2B853C854B89EA
:103C60005C89B301C10109950CC00684F785E02D7C
:103C7000EB84FC84860196014A815B81B201C1011B
:103C80000995BB0CED89FE894E0E5F1EFFEF6F1A82
:103C90007F0AC2CFA30E49814F5F498398CF6A96AE
:103CA0000FB6F894DEBF0FBECDBFDF91CF911F914D
:103CB0000F91FF90EF90DF90CF90BF90AF909F90CB
:103CC0008F907F906F905F904F903F902F900895CE
:103CD000AF92BF92CF92EF92FF920F931F93CF9329
:103CE000DF93EC01262F888D998D009709F042C053
:103CF0006A3069F42C898E859F8538E0239F800D7A
:103D0000911D11249F878E871D861C86ABC06D3048
:103D100009F4A8C08E898823C1F03C898C859D85D3
:103D200046E0349F800D911D1124488559858417E4
:103D300095075CF01D861C868E859F85E8E03E9F7A
:103D4000800D911D11249F878E87EA88FB88088942
:103D500019894E855F856C857D85CC88CE010E9452
:103D6000C61C2C898C859D85F6E02F9F800D911DAA
:103D7000112441C06A3079F41D861C864C89FC01EF
:103D8000369684912E853F85489F200D311D112444
:103D90003F872E8767C06D3009F464C0AC014C5F6B
:103DA0005F4FFA013491631708F45CC03196E491D7
:103DB000E61708F457C0FA014491362F341BFC0172
:103DC0003296A590B490F7E03F9FA00CB11C11244F
:103DD000F5013296A4913196E491AA2311F0E111F4
:103DE0000DC0F5013496A4902C898C859D85A29EEA
:103DF000800D911D11249D878C8734C0F501359667
:103E0000E4913E89332309F13C89B0E0AE0FB11D46
:103E1000E7FDBA953A9FA0013B9F500D11246C8598
:103E20007D85460F571F68857985461757076CF0C3
:103E30001D861C86FC01369684914E855F85389FD1
:103E4000400D511D11245F874E87EA88FB88088941
:103E500019894E855F856C857D85CC88CE010E9451
:103E6000C61CBFCF81E090E0DF91CF911F910F91F1
:103E7000FF90EF90CF90BF90AF900895FC017587B1
:103E80006487578746870895611101C061E0FC018E
:103E9000648B0895FC01718B608B538B428B08956A
:103EA000FC01668B0895CF93DF93FC01E65BFF4F27
:103EB0002081222311F080E065C0EC01C55BDF4F5B
:103EC000A881B981109741F0ED91FC911197048080
:103ED000F581E02DCD010BC0EC01C35BDF4F888184
:103EE0009981DC01ED91FC910480F581E02D09952B
:103EF000892B09F388819981DC01ED91FC91068081
:103F0000F781E02D09958A3049F59091070AE091F3
:103F1000050AF091060AE90FF11D10822091050AA9
:103F20003091060ABAE020383B0739F448E05AE0FD
:103F30005093060A4093050A08C020E83AE03093FF
:103F4000060A2093050A28E03AE03093040A2093F9
:103F5000030A1092070A91E09093020AE091050A81
:103F6000F091060A9091070A21E0290F2093070A91
:103F7000E90FF11D80839091070A983718F097E7B1
:103F80009093070ADF91CF910895FC01DC01A55BB6
:103F9000BF4F11961C921E92129611961C921E9261
:103FA0001092020A13971C921092070A80E89AE076
:103FB0009093060A8093050A88E09AE09093040A99
:103FC0008093030A15AE14AE1582148213821282F6
:103FD0001182108212AE11AE10AE13AE178216828D
:103FE00014AA15AA16AA17AA10AA11AA12AA13AAE5
:103FF00014A615A616A617A610A611A612A613A6F5
:1040000014A215A216A217A210A211A212A213A204
:1040100014861586168617861086118612861386D4
:1040200008950F931F93CF93DF93EC018B010E94B0
:10403000C51FC35BDF4F19830883DF91CF911F91A9
:104040000F910895FC01E55BFF4F20813181AB01A9
:1040500060E070E02115310521F0C9010E949E1A2F
:1040600008C0FC01E35BFF4F26E0808191810E9444
:104070001A326AE070E080E090E00C94DB2FEF925F
:10408000FF920F931F93DC01ED91FC9111971A960B
:104090000D911C911B9718962D913C9119970684B0
:1040A000F785E02D7B0140E050E060E070E009958D
:1040B0001F910F91FF90EF900895EF92FF920F9351
:1040C0001F93CF93DF931F92CDB7DEB77C01062FEE
:1040D000142F40E451E060EF70E029830E94A51C9A
:1040E00082EE93E0F7019183808306A317A32981D1
:1040F00020A781E0838F13A611A60F90DF91CF91A7
:104100001F910F91FF90EF900895FC01838D811115
:1041100022C088E090E030E8A48DB58D24A5432F1F
:10412000462321F04C91422B4C9304C04C91209596
:1041300024232C93A68DB78D2C9145A5242B2C934D
:10414000A68DB78D4C9125A5209524232C933695CB
:10415000019711F708956EBD0DB407FEFDCF0895C8
:10416000CF93DF93EC01E8A1F9A190818FA5809511
:1041700089238083EE8DFF8D90818DA58095892385
:104180008083ECA1FDA190818EA5809589238083F9
:10419000CE010E948520ECA1FDA180819EA5892BE6
:1041A0008083DF91CF910895662311F061E201C011
:1041B00060E20C94B020CF93DF93EC01E8A1F9A169
:1041C00080819FA5892B8083EE8DFF8D90818DA5A9
:1041D000809589238083ECA1FDA190818EA5809597
:1041E00089238083CE010E948520ECA1FDA18081DE
:1041F0009EA5892B8083DF91CF910895CF93DF9384
:10420000EC0161E088A50E948C3060E088A50E94E6
:10421000C53061E08FA10E948C3061E08EA10E94C8
:104220008C304EA150E0FA01E35DF84FE491F0E0EC
:10423000EE0FFF1FE95AF84F859194919DA38CA32F
:104240002FA130E0F901E35DF84F849190E0880FF1
:10425000991F895A984FFC018591949199A388A33D
:10426000FA01E35FF84F44914EA7F901E35FF84F7D
:1042700024912FA78B8D882379F00E9478198CB513
:104280008C7F8CBD8DB581608DBD8CB58F7D8CBDD7
:104290008CB5837F8CBD41C061E08BA50E948C30C2
:1042A00061E089A50E948C3060E08AA50E948C3074
:1042B0004BA550E0FA01E35DF84FE491F0E0EE0F1A
:1042C000FF1FE95AF84FA591B491BF8FAE8F29A572
:1042D00030E0F901E35DF84F849190E0880F991F79
:1042E000895A984FFC01859194919D8F8C8FFA018A
:1042F000E35FF84F44914DA7F901E35FF84F249134
:104300002CA78C919DA5909589238C93EC8DFD8D88
:1043100090818CA580958923808361E088A50E9487
:10432000C53065E070E080E090E00E94DB2F60E047
:1043300088A50E94C53064E170E080E090E00E94B2
:10434000DB2F61E088A50E94C53066E970E080E05F
:1043500090E00E94DB2F6FEECE010E94B02063E060
:10436000CE010E94DB2060E8CE010E94DB2062E0EB
:10437000CE010E94DB206FECCE010E94B02060E0F5
:10438000CE010E94DB2061ECCE010E94DB2060E3C5
:10439000CE010E94DB206DEECE010E94B02064E6CB
:1043A000CE010E94DB2063E0CE010E94DB2062E1AF
:1043B000CE010E94DB2061E8CE010E94DB2068EE86
:1043C000CE010E94B02065E8CE010E94DB2060E0B3
:1043D000CE010E94DB2068E7CE010E94DB206BEC5F
:1043E000CE010E94B02069E3CE010E94DB206CE286
:1043F000CE010E94DB2060E0CE010E94DB2064E35E
:10440000CE010E94DB2062E0CE010E94DB2067EF3C
:10441000CE010E94B02060E2CE010E94DB206AEE55
:10442000CE010E94B02060E0CE010E94DB2060E05F
:10443000CE010E94DB2060ECCE010E94B02063E23E
:10444000CE010E94DB2061ECCE010E94B02060E131
:10445000CE010E94DB2065ECCE010E94B0206EE30D
:10446000CE010E94DB2068E2CE010E94DB2067ECD7
:10447000CE010E94B02066E8CE010E94DB2066E3F8
:10448000CE010E94B02068E4CE010E94DB206AE3E6
:10449000CE010E94B02065E5CE010E94DB2061EBD9
:1044A000CE010E94B02060E0CE010E94DB2068E1D6
:1044B000CE010E94DB2066EBCE010E94B02068E0B6
:1044C000CE010E94DB2062E8CE010E94DB2067E281
:1044D000CE010E94DB2062EFCE010E94B02060E09E
:1044E000CE010E94DB2066E2CE010E94B02061E096
:1044F000CE010E94DB2060EECE010E94B0206FE072
:10450000CE010E94DB2061E3CE010E94DB206BE242
:10451000CE010E94DB206CE0CE010E94DB206EE029
:10452000CE010E94DB2068E0CE010E94DB206EE419
:10453000CE010E94DB2061EFCE010E94DB2067E309
:10454000CE010E94DB2067E0CE010E94DB2060E10B
:10455000CE010E94DB2063E0CE010E94DB206EE0F2
:10456000CE010E94DB2069E0CE010E94DB2060E0EA
:10457000CE010E94DB2061EECE010E94B02060E0FF
:10458000CE010E94DB206EE0CE010E94DB2064E1C0
:10459000CE010E94DB2063E0CE010E94DB2061E1BE
:1045A000CE010E94DB2067E0CE010E94DB2061E3A8
:1045B000CE010E94DB2061ECCE010E94DB2068E48A
:1045C000CE010E94DB2068E0CE010E94DB206FE07C
:1045D000CE010E94DB206CE0CE010E94DB2061E373
:1045E000CE010E94DB2066E3CE010E94DB206FE05B
:1045F000CE010E94DB2061E1CE010E94B02068E77D
:1046000070E080E090E00E94DB2F69E2CE01DF9154
:10461000CF910C94B020CF92DF92FF920F931F9313
:10462000CF93DF9300D000D01F92CDB7DEB76C01DF
:10463000F62E6AE22B833A834D835C8379830E9452
:10464000B0207981672FC6010E94DB206F2DC60143
:104650000E94DB203A81632FC6010E94DB202B8160
:10466000622FC6010E94DB206BE2C6010E94B020CF
:104670005C81652FC6010E94DB204D81642FC6013D
:104680000E94DB20612FC6010E94DB20602FC60143
:104690000E94DB206CE2C6010F900F900F900F90EC
:1046A0000F90DF91CF911F910F91FF90DF90CF90EE
:1046B0000C94B020EF92FF920F931F93CF93DF9350
:1046C000EC01F22EE32E77FD2FC028853985621785
:1046D000730754F557FD28C02A853B8542175307B9
:1046E0001CF58A010F5F1F4F9B012F5F3F4F0E94F8
:1046F0000B23E8A1F9A180819FA5892B8083ECA1E0
:10470000FDA190818EA58095892380836E2DCE0199
:104710000E9485206F2DCE010E948520ECA1FDA175
:1047200080819EA5892B8083DF91CF911F910F916E
:10473000FF90EF900895CF92DF92EF92FF920F9348
:104740001F93CF93DF93EC017901D02EC12E888582
:10475000998568177907CCF58A859B85481759078D
:10476000A4F59A012E0D3F1D821793071CF47C01BE
:10477000E41AF50A8A010E0D1F1D015011099B0153
:10478000CE010E940B23E8A1F9A180819FA5892B6E
:104790008083ECA1FDA190818EA5809589238083E3
:1047A000E114F10461F06C2DCE010E9485206D2D85
:1047B000CE010E94852081E0E81AF108F1CFECA13A
:1047C000FDA180819EA5892B8083DF91CF911F91D0
:1047D0000F91FF90EF90DF90CF900895CF92DF92EE
:1047E000EF92FF920F931F93CF93DF93EC01790128
:1047F000D02EC12E8885998568177907CCF52A8532
:104800003B8542175307A4F59B012E0D3F1D8217D0
:1048100093071CF47C01E61AF70A9B012E0D3F1D3D
:10482000215031098A01CE010E940B23E8A1F9A190
:1048300080819FA5892B8083ECA1FDA190818EA50D
:10484000809589238083E114F10461F06C2DCE0101
:104850000E9485206D2DCE010E94852081E0E81AFE
:10486000F108F1CFECA1FDA180819EA5892B808369
:10487000DF91CF911F910F91FF90EF90DF90CF903C
:104880000895AF92BF92CF92DF92EF92FF920F9373
:104890001F93CF93DF93EC01690158012885398577
:1048A000621773070CF04EC08A859B85481759071D
:1048B0000CF048C0FB01EC0DFD1D2E173F071CF44A
:1048C0006901C61AD70A9A012A0D3B1D8217930760
:1048D0001CF45C01A41AB50A8A010A0D1B1D0150C3
:1048E00011099B012C0D3D1D21503109CE010E9463
:1048F0000B23E8A1F9A180819FA5892B8083ECA1DE
:10490000FDA190818EA58095892380831A141B04B4
:104910009CF48601101611065CF46F2DCE010E94E6
:1049200085206E2DCE010E94852001501109F2CF05
:1049300081E0A81AB108EACFECA1FDA180819EA573
:10494000892B8083DF91CF911F910F91FF90EF9082
:10495000DF90CF90BF90AF9008951F93CF93DF93D8
:10496000EC01162F66E30E94B020612F63706D8BFF
:10497000623041F0633089F0613011F068E403C0C7
:1049800068E20CC068E8CE010E94DB2080EF90E076
:104990009987888780E491E00AC068EECE010E9482
:1049A000DB2080E491E09987888780EF90E09B8707
:1049B0008A87DF91CF911F910895FC0171836083F5
:1049C00042830895DC018D919C91DC01ED91FC9175
:1049D0000280F381E02D0994DC018D919C91DC0132
:1049E000ED91FC910484F585E02D0994DC018D9115
:1049F0009C91DC01ED91FC910488F589E02D0994EE
:104A0000EF92FF920F931F93CF93DF931F92CDB737
:104A1000DEB77C018B01622F49830E94F624D70107
:104A20008D919C91DC01ED91FC910680F781E02D48
:104A30004981B8010F90DF91CF911F910F91FF90A5
:104A4000EF900994DC018D919C91DC01ED91FC913A
:104A50000688F789E02D09941F93CF93DF93EC012B
:104A6000162F88819981DC01ED91FC910288F389F0
:104A7000E02D0995612FCE010E9422251A83DF9136
:104A8000CF911F9108951F93CF93DF93EC018881FD
:104A90009981DC01ED91FC910190F081E02D099567
:104AA000182F882321F06A81CE010E942C25812FA6
:104AB000DF91CF911F910895DC018D919C91DC01D4
:104AC000ED91FC91008CF18DE02D0994DC018D912C
:104AD0009C91DC01ED91FC91028CF38DE02D099409
:104AE000DC018D919C91DC01ED91FC91068CF78DA0
:104AF000E02D0994DC018D919C91DC01ED91FC91FC
:104B000000A0F1A1E02D0994DC018D919C91DC01C4
:104B1000ED91FC9102A0F3A1E02D0994DC018D91AF
:104B20009C91DC01ED91FC9104A0F5A1E02D09948C
:104B3000AF92BF92CF92DF92EF92FF920F931F93AB
:104B4000CF93DF93EC01590188819981DC01ED91CC
:104B5000FC910480F581E02D0995882309F1A114C9
:104B6000B10429F0CE010E947A25F5018083011558
:104B7000110529F0CE010E947025D8018C93E11413
:104B8000F10429F0CE010E948425F7018083C1142D
:104B9000D10441F0CE010E948E25D6018C9302C033
:104BA00080E001C081E0DF91CF911F910F91FF90D4
:104BB000EF90DF90CF90BF90AF90089581E008957F
:104BC000FC0165830895FC0164830895FC016287FC
:104BD0000895FC0163870895FC016487089540955A
:104BE000FC0125854223462B45870895FC018681DB
:104BF0000895FC0187810895FC0180850895FC01DA
:104C00008185089580E00895CF93DF93EC01E881DA
:104C1000F9810280F381E02DCE010995811103C055
:104C20000E94B02EF4CFDF91CF910895CF93DF9300
:104C3000EC018A819B81039719F40E94B02EF9CF71
:104C400081E0DF91CF9108958F929F92AF92BF92B2
:104C5000CF92DF92EF92FF92CF93DF93EC016B0143
:104C60000E94AC2F4B015C01E12CF12C0E94AC2F77
:104C7000681979098A099B096C157D058E059F05C0
:104C800060F4E881F9810280F381E02DCE0109957D
:104C9000811105C00E94B02EE9CF80E001C081E003
:104CA000DF91CF91FF90EF90DF90CF90BF90AF90CA
:104CB0009F908F9008958F929F92AF92BF92CF92C4
:104CC000DF92EF92FF92CF93DF93EC016B010E9492
:104CD000AC2F4B015C01E12CF12C0E94AC2F681928
:104CE00079098A099B096C157D058E059F0538F4A5
:104CF0008A819B81039729F40E94B02EEECF80E039
:104D000001C081E0DF91CF91FF90EF90DF90CF90D5
:104D1000BF90AF909F908F900895FC018AEF93E031
:104D200091838083138212828FEF848382878387AB
:104D300014861586108A1786128A118A148A138A95
:104D40000895FC018685089508950895FC017583F2
:104D500064830895FC01778366830895FC0173835F
:104D600062830895FC0186E294E0918380837383DB
:104D70006283558344833783268308956EBD000084
:104D80000DB407FEFDCF8EB508958CB580688CBD3F
:104D900008958CB58F778CBD0895FC0126813781ED
:104DA0002115310579F02130310541F022303105EE
:104DB00039F02330310531F49CE005C094E003C0A4
:104DC00098E001C090E08CB5837F892B8CBD8481F5
:104DD0009581019719F48CB5806202C08CB58F7DE6
:104DE0008CBD8281938101978430910528F4FC0168
:104DF000EA5CFB4F908101C091E02CB5892F837054
:104E00002C7F822B8CBD8DB592FB992790F98E7FDC
:104E1000892B8DBD0C9478190C94AE19CF93DF9328
:104E2000EC010E94B2268EE394E099838883DF919F
:104E3000CF91089520E030E040E050E060E070E085
:104E400088EF9AE00C940E27CF93DF93EC010E9439
:104E5000DD241B821C821D821E821F8288EC90E052
:104E60009987888783E08A87DF91CF9108950F9390
:104E70001F93CF93DF9300D0CDB7DEB78C014A8369
:104E80000E945C2540E060E8C8010E94662581E23E
:104E900089832A8141E0BE016F5F7F4FC8010E9474
:104EA0000025C8010E94EC240F900F90DF91CF9154
:104EB0001F910F9108952F923F924F925F926F92A0
:104EC0007F928F929F92AF92BF92CF92DF92EF929A
:104ED000FF920F931F93CF93DF93CDB7DEB7289741
:104EE0000FB6F894DEBF0FBECDBF5C0119012801DB
:104EF000470136014F8358876D837E830E94E224E9
:104F00004F8158856D817E81882329F1CE010196DC
:104F10006C01DE0112967D018E010D5F1F4F9E0117
:104F20002C5F3F4FC5010E949825182F882399F0C8
:104F3000898187FD10C08B818F3F29F04C816A8168
:104F4000C5010E9437278A819C81F501E90FF11D77
:104F50002385821302C010E017C02114310411F020
:104F6000D1019C934114510419F09B81D2019C936F
:104F70008114910411F0D4018C936114710419F01F
:104F80009981D3019C938387812F28960FB6F8943B
:104F9000DEBF0FBECDBFDF91CF911F910F91FF906C
:104FA000EF90DF90CF90BF90AF909F908F907F90C9
:104FB0006F905F904F903F902F900895CF93DF9325
:104FC000EC018D899E89DC01ED91FC910680F781D1
:104FD000E02D099561E08F890E948C3061E08F8916
:104FE0000E94C53064E670E080E090E00E94DB2F14
:104FF00081E0DF91CF910895EF92FF920F931F937D
:10500000CF93DF931F92CDB7DEB77C018A0169830E
:105010000E948D2682E594E0F70191838083168BB0
:10502000058B6981678B0F90DF91CF911F910F9155
:10503000FF90EF9008950F931F93CF93DF93EC01B0
:10504000062F1FB7F89460E08F890E94C5308D89C4
:105050009E89DC01ED91FC91602F6F770190F081CA
:10506000E02D09958D899E89DC01ED91FC910190DF
:10507000F081E02D60E00995082F61E08F890E94A2
:10508000C5301FBF802FDF91CF911F910F910895E1
:10509000EF92FF920F931F93CF93DF931F92CDB7A1
:1050A000DEB77C01162F0FB7F89460E0DC0157964D
:1050B0008C9149830E94C530F70185899689DC016E
:1050C000ED91FC91612F60680190F081E02D0995D0
:1050D000182FF70185899689DC01ED91FC910190EB
:1050E000F081E02D4981642F099561E0F7018789FE
:1050F0000E94C5300FBF812F0F90DF91CF911F917C
:105100000F91FF90EF900895AF92BF92DF92EF92D0
:10511000FF920F931F93CF93DF9300D0CDB7DEB7ED
:105120008C01D62EF22EEFB6F89460E0DC01579693
:105130008C9149835A830E94C530F80185899689EC
:10514000DC01ED91FC916D2D6F770190F081E02DE8
:105150000995D82E4981A42E5A81B52EF40EFA1441
:1051600079F0F80185899689DC01ED91FC91019037
:10517000F081E02D60E00995F50181935F01EFCFAB
:1051800061E0D80157968C910E94C530EFBE8D2DFD
:105190000F900F90DF91CF911F910F91FF90EF90A3
:1051A000DF90BF90AF900895AF92BF92DF92EF92E1
:1051B000FF920F931F93CF93DF9300D0CDB7DEB74D
:1051C0008C01D62EF22EEFB6F89460E0DC015796F3
:1051D0008C9149835A830E94C530F801858996894C
:1051E000DC01ED91FC916D2D60680190F081E02D66
:1051F0000995D82E4981A42E5A81B52EF40EFA14A1
:1052000071F0F80185899689D5016D915D01DC0108
:10521000ED91FC910190F081E02D0995F0CF61E0D6
:10522000F80187890E94C530EFBE8D2D0F900F9039
:10523000DF91CF911F910F91FF90EF90DF90BF9082
:10524000AF900895CF93DF93EC018F890E94FB30DC
:1052500021E0892B09F420E08A8D8227DF91CF910C
:105260000895FC01808D0C94C530FC01238D6227CC
:10527000818D0C94C530CF93DF93EC018A819B81A3
:10528000029761F060E0CE010E94352960E0CE0116
:105290000E94312982E090E09B838A83DF91CF9145
:1052A0000895862F86958695887098E0980F8917BF
:1052B00049F0E82FF0E0E658FB4F2081621719F023
:1052C0008F5FF5CF80E008951F93CF93DF93EC01BC
:1052D0000E942229882319F09F8D9F5F9F8F9E8DAA
:1052E000891771F098A1903518F42BE030E002C0D6
:1052F0002DE130E098A1290F311D28A38E8F03C026
:1053000088A18C5E88A388A1803A08F46EC08AA127
:105310009BA1969587959BA38AA38F8D853028F0B6
:105320008AA19BA198609BA38AA388A1805A88A385
:105330001F8E89A1882309F446C08CA18F5F8CA39E
:105340008C3008F452C06AA17BA16F73CE010E9419
:105350005129182F6AA17BA146E0769567954A9559
:10536000E1F7CE010E94512990E1199F900111248B
:10537000822BBE0167597F4FFB019081DE01A85946
:10538000BF4F9923B1F0FB01908121E0290F2083C9
:10539000AE01490F511DFA0185A3FB0190818C914B
:1053A000981778F019A281E08C8FCE010E943B29DA
:1053B00008C08C939C91973090F09C91943478F431
:1053C000E2CF1CA212C08AA19BA188339B4069F442
:1053D00081E089A31CA2C759DF4F188206C019A219
:1053E0008F8598890196988B8F87DF91CF911F9138
:1053F0000895CF92DF92EF92FF920F931F93CF9376
:10540000DF93EC018C0104591F4FF801808191E07A
:10541000980F9083811136C06E01FAE6CF0ED11C31
:10542000F6018081EF56FF4F9081891748F0CE0139
:105430000E943B298B899C8901969C8B8B8B22C077
:10544000FE01E80FF11DE359FF4F608170E07E011E
:10545000FBE6EF0EF11CF701808191E0980F90833D
:1054600002C0759567958A95E2F76170CE010E943A
:105470003129F7018081863028F01082F601808181
:105480008F5F8083F8018081883008F01082DF917F
:10549000CF911F910F91FF90EF90DF90CF900895E3
:1054A000FC01228133812430310511F40C946429EC
:1054B000FC01228133812330310511F40C94F92948
:1054C00008951F920F920FB60F9211240BB60F92F0
:1054D0002F933F934F935F936F937F938F939F93FC
:1054E000AF93BF93EF93FF938091000B9091010BCB
:1054F0000E94502AFF91EF91BF91AF919F918F91A0
:105500007F916F915F914F913F912F910F900BBEC3
:105510000F900FBE0F901F9018958BEF0895CF93AB
:10552000DF93EC018A819B81019749F040E061E0C3
:10553000CE010E94482881E090E09B838A8381E02D
:10554000DF91CF9108951F93CF93DF93EC01142F38
:10555000A9010E94FC278EEA94E099838883FE01CA
:10556000E65EFE4F1082188F8FEF898FDF91CF910B
:105570001F910895FC01828D8430D8F0838D86833D
:10558000848D8783858D8087868D81878581811134
:1055900007C096818481981719F086818F3F49F45E
:1055A000818992890196928B818BE65EFE4F81E024
:1055B000808308952FB7F894FC01E65EFE4F1082B9
:1055C000FC01128E2FBF0895CF92DF92EF92FF92CF
:1055D0000F931F93CF93DF93EC017B018A01E88146
:1055E000F9810280F381E02D0995D82E882311F1ED
:1055F000E114F104E1F001151105C9F0CFB6F894FA
:105600002A8D30E023503109F801408150E04217E3
:1056100053071CF09A8D94509083F801408150E01C
:10562000BE01615E7F4FC7010E942E3ACFBECE0100
:105630000E94DA2A8D2DDF91CF911F910F91FF905B
:10564000EF90DF90CF900895CF92DF92EF92FF928C
:10565000CF93DF93EC01CB01BA0120E034E244E7C1
:1056600059E40E94EA3820E034E244E752E40E9420
:105670000D370E947A376B017C01A70166277727D7
:1056800066E0CE010E94482877276F2D5E2D4D2DB4
:1056900067E0CE010E9448284C2D68E0CE010E94B0
:1056A000482881E0DF91CF91FF90EF90DF90CF907D
:1056B0000895CF93DF93EC018A819B81029749F093
:1056C00041E061E0CE010E94482882E090E09B83A7
:1056D0008A83DF91CF9108951F93CF93DF93EC01DD
:1056E00062E10E941B282A813B812430310519F494
:1056F000982F907A41F42A813B8124303105E1F5DD
:1057000086FD0EC039C08F8598890196988B8F874A
:105710004FEF62E1CE01DF91CF911F910C944828A9
:1057200063E1CE010E941B28182F60E1CE010E9488
:105730001B28482F6DE0CE010E944828212FAE0182
:10574000455E5F4F60E0CE010E9484281A8F4FEFC4
:1057500062E1CE010E9448286AE1CE010E941B2826
:1057600089588E87CE010E94BA2AFE01E65EFE4F5E
:105770008081882369F20CC02A813B812330310566
:1057800039F683FFC5CF8B899C8901969C8B8B8BC7
:10579000CE010E94592BBCCF8091030B9091040B3A
:1057A000009711F00C946C2B08958091050B90914B
:1057B000060B009711F00C946C2B08958091070B49
:1057C0009091080B009711F00C946C2B0895CF93D7
:1057D000DF93EC018A819B81049771F045E061E0E1
:1057E000CE010E94482840E060E4CE010E94482893
:1057F00084E090E09B838A83DF91CF910895CF93DB
:10580000DF93EC018A819B81039739F0CE010E94DE
:10581000E72BC65EDE4F888101C080E0DF91CF912B
:105820000895CF93DF93EC018A819B81039771F0F8
:1058300043E061E0CE010E94482840E460E4CE01EC
:105840000E94482883E090E09B838A83DF91CF9178
:105850000895FF920F931F93CF93DF93EC018B0179
:10586000F42E8BEF8417A0F1E881F9810484F5858B
:10587000E02DCE010995CE010E94592B40E06DE04C
:10588000CE010E9448284A8560E0CE010E94482847
:105890004B8560E0CE010E9448284C8560E0CE0137
:1058A0000E9448284D8560E0CE010E9448282F2D97
:1058B000A80160E0CE010E94D42844E04F0D62E2CE
:1058C000CE010E944828CE010E94112C81E001C027
:1058D00080E0DF91CF911F910F91FF9008951F936A
:1058E000CF93DF93EC01162F68312CF465305CF018
:1058F000653154F001C017E147E06DE4CE010E942C
:105900004828135006C015E044E06DE4CE010E9423
:1059100048284BEF410F406869E0CE01DF91CF91FD
:105920001F910C9448280F931F93CF93DF93EC01A2
:105930008B01FB0140816DE10E944828F801418103
:105940006EE1CE010E944828F801428166E2CE0154
:10595000DF91CF911F910F910C9448280F931F93C3
:10596000CF93DF9300D01F92CDB7DEB78C016530A7
:105970007105B4F49B01220F331F260F371F2F51DF
:10598000394F43E050E0B901CE0101960E94253A1B
:10599000BE016F5F7F4FC8010E94932C81E001C060
:1059A00080E00F900F900F90DF91CF911F910F919A
:1059B00008951F93CF93DF93EC01162F472F60E2DA
:1059C0000E944828412F61E2CE01DF91CF911F91C3
:1059D0000C944828FF920F931F93CF93DF93EC0111
:1059E0000E94DE27F82E811102C0F12CA5C0888DFF
:1059F0008A3039F08B3041F0823049F402E010E017
:105A000008C000E010E005C001E010E002C00FEFA8
:105A10001FEF6DE874E082E19BE00E9447344AE0AA
:105A200050E06AE070E082E19BE00E94193565E990
:105A300074E082E19BE00E9447344AE050E0688DC8
:105A400082E19BE00E9445356EE974E082E19BE0D3
:105A50000E9447344AE050E0B80182E19BE00E9496
:105A600019350F3F8FEF180709F4BFCF40E861E009
:105A7000CE010E9448286AE070E080E090E00E9439
:105A8000DB2F61E0CE010E941B28803809F0ADCFEA
:105A900060E0888D0E948C30898D8F3F51F4809119
:105AA000020B843008F0A1CF91E0980F9093020B85
:105AB000898F998DE92FF0E0EE0FFF1FED5FF44F16
:105AC000D183C083911105C043E050E06CEC7BE2D0
:105AD0000EC0913029F443E050E065ED7BE207C051
