:100000000C94D8030C94672E0C94922E0C94BD2E55
:100010000C94A6190C94A6190C94A6190C94A61964
:100020000C9407040C9407040C9407040C94070424
:100030000C9407040C94E7290C9407040C9407040F
:100040000C94AF0A0C9407040C94E82E0C9407044B
:100050000C9402320C9438320C9407040C9407046C
:100060000C9407040C9407040C9407040C940704E4
:100070000C94AF320C94E5320C9407040C940704F2
:100080000C9407040C9407040C940704B10C880D1D
:100090003B0F7D10C411F71226139813F72FFA2F78
:1000A000ED2FF12F11301130FE2F023008300C30BF
:1000B000084AD73B3BCE016E84BCBFFDC12F3D6CCF
:1000C00074319ABD56833DDA3D00C77F11BED9E435
:1000D000BB4C3E916BAAAABE000000803F072C7A61
:1000E000A5BA6CC590DA3B9365FC8BBC53F810FD48
:1000F0003C5692834DBD879D3AB63DCBC9BF5BBE92
:1001000073DA0FC93F05A84CCDB2D44EB93836A921
:10011000020C50B9918688083CA6AAAA2ABE000003
:1001200000803F0000000000003E5B4F5B3E3E6BE6
:100130004F6B3E1C3E7C3E1C183C7E3C181C577D81
:10014000571C1C5E7F5E1C00183C1800FFE7C3E7CD
:10015000FF0018241800FFE7DBE7FF30483A060EDF
:100160002629792926407F050507407F05253F5A26
:100170003CE73C5A7F3E1C1C08081C1C3E7F142296
:100180007F22145F5F005F5F06097F017F00668941
:10019000956A606060606094A2FFA29408047E0487
:1001A0000810207E201008082A1C08081C2A0808AD
:1001B0001E101010100C1E0C1E0C30383E3830066D
:1001C0000E3E0E06000000000000005F0000000769
:1001D000000700147F147F14242A7F2A1223130897
:1001E000646236495620500008070300001C224173
:1001F000000041221C002A1C7F1C2A08083E080817
:1002000000807030000808080808000060600020C6
:10021000100804023E5149453E00427F40007249A9
:100220004949462141494D331814127F102745454D
:1002300045393C4A49493141211109073649494963
:1002400036464949291E00001400000040340000D1
:10025000000814224114141414140041221408023A
:10026000015909063E415D594E7C1211127C7F49AD
:100270004949363E414141227F4141413E7F494902
:1002800049417F090909013E414151737F0808082E
:100290007F00417F41002040413F017F08142241FF
:1002A0007F404040407F021C027F7F0408107F3E59
:1002B0004141413E7F090909063E4151215E7F09C6
:1002C000192946264949493203017F01033F40402D
:1002D000403F1F2040201F3F4038403F6314081418
:1002E0006303047804036159494D43007F41414150
:1002F0000204081020004141417F04020102044031
:1003000040404040000307080020545478407F28B4
:100310004444383844444428384444287F385454AA
:10032000541800087E090218A4A49C787F080404CD
:100330007800447D40002040403D007F102844006C
:1003400000417F40007C047804787C0804047838FD
:1003500044444438FC1824241818242418FC7C082D
:10036000040408485454542404043F44243C4040AA
:10037000207C1C2040201C3C4030403C442810285D
:10038000444C9090907C4464544C440008364100A6
:100390000000770000004136080002010204023C20
:1003A0002623263C1EA1A161123A4040207A3854EF
:1003B0005455592155557941225454784221555468
:1003C000784020545579400C1E52721239555555BB
:1003D00059395454545939555454580000457C41A6
:1003E0000002457D420001457C407D1211127DF0E6
:1003F000282528F07C545545002054547C547C0A10
:10040000097F4932494949323A4444443A324A48D8
:1004100048303A4141217A3A42402078009DA0A0DC
:100420007D3D4242423D3D4040403D3C24FF24242E
:10043000487E4943662B2FFC2F2BFF0929F620C04D
:10044000887E090320545479410000447D4130489E
:10045000484A32384040227A007A0A0A727D0D19E1
:10046000317D2629292F28262929292630484D4043
:1004700020380808080808080808382F10C8ACBA3F
:100480002F102834FA00007B000008142A142222BE
:10049000142A14085500550055AA55AA55AAFF5507
:1004A000FF55FF000000FF00101010FF001414148F
:1004B000FF001010FF00FF1010F010F0141414FCD7
:1004C000001414F700FF0000FF00FF1414F404FCF4
:1004D000141417101F10101F101F1414141F0010D5
:1004E0001010F0000000001F101010101F1010104E
:1004F00010F010000000FF1010101010101010105D
:10050000FF10000000FF140000FF00FF00001F109C
:10051000170000FC04F414141710171414F404F456
:100520000000FF00F714141414141414F700F71447
:100530001414171410101F101F141414F414101096
:10054000F010F000001F101F0000001F140000003A
:10055000FC140000F010F01010FF10FF141414FF32
:10056000141010101F00000000F010FFFFFFFFFF2D
:10057000F0F0F0F0F0FFFFFF0000000000FFFF0FC1
:100580000F0F0F0F3844443844FC4A4A4A347E0265
:10059000020606027E027E026355494163384444E6
:1005A0003C04407E201E2006027E020299A5E7A59B
:1005B000991C2A492A1C4C7201724C304A4D4D300C
:1005C0003048784830BC625A463D3E494949007E31
:1005D0000101017E2A2A2A2A2A44445F44444051C8
:1005E0004A444040444A51400000FF0103E080FF7C
:1005F000000008086B6B083612362436060F090F08
:1006000006000018180000001010003040FF010123
:10061000001F01011E00191D1712003C3C3C3C004C
:100620000000000072740092740048940078C400C6
:10063000000000010200090A00000000040308078E
:1006400000000000000000000000000000000000AA
:10065000010204081020408001020408102040809C
:10066000010204081020408001020408102040808C
:10067000020202020202020204040404040404044A
:10068000030303030303030301010101010101014A
:100690000000200023002600290000002200250081
:1006A00028002B0000002100240027002A00004021
:1006B0007A10F35A00A0724E18090010A5D4E80071
:1006C00000E87648170000E40B54020000CA9A3B89
:1006D000000000E1F505000080969800000040420F
:1006E0000F000000A086010000001027000000009D
:1006F000E803000000006400000000000A000000A1
:1007000000000100000000002C76D888DC674F084C
:1007100023DFC1DFAE59E1B1B796E5E3E453C63A52
:10072000E651997696E8E6C28426EB898C9B62EDC9
:10073000407C6FFCEFBC9C9F40F2BAA56FA5F49083
:10074000055A2AF75C936B6CF9676DC11BFCE0E4FA
:100750000D47FEF520E6B500D0ED902E0300943550
:1007600077050080841E080000204E0A000000C8A3
:100770000C333333330F986E12831141EF8D2114F4
:10078000893BE65516CFFEE6DB18D1844B381BF7C4
:100790007C1D901DA4BBE424203284725E22810063
:1007A000C9F124ECA1E53D27410CA0266C32193398
:1007B00011241FBECFEFD0E4DEBFCDBF15E0A0E017
:1007C000B1E0EEE6FDE700E00BBF02C007900D923E
:1007D000A03AB107D9F72CE0A0EAB5E001C01D921C
:1007E000AB3EB207E1F717E0C0EBD7E000E006C090
:1007F00022970109FE010BBF0E944C39C83AD1076C
:1008000080E00807A9F70E945D330C94B53E0C9474
:1008100000008F929F92AF92BF92CF92DF92EF92A1
:10082000FF92CF93DF93EC016A017B0182E59AE0AE
:100830000E94AF2D8F3FD1F5B701A6014150504F17
:100840006F4F7F4F82E59AE00E94AF2D8F3F71F589
:100850008C89882309F44FC080E1D80EE11CF11C7B
:1008600061E171E081EB9BE00E94AA332AE030E075
:10087000B701A60181EB9BE00E94AD34B701A60150
:1008800082E59AE00E94AF2D460157019FEF891A39
:10089000990AA90AB90A8F32F1F4B501A40182E5D7
:1008A0009AE00E94AF2D8A32B1F421C0B701A601AF
:1008B00082E59AE00E94112E68E271E081EB9BE0F4
:1008C0000E94AA332AE030E0B701A60181EB9BE049
:1008D0000E94AD34BDCF750164018114910488E09C
:1008E000A806B10458F2C12CD12C7601C7CFCC8216
:1008F000DD82EE82FF82DF91CF91FF90EF90DF905B
:10090000CF90BF90AF909F908F900895CF93DF933B
:10091000EC0182E59AE00E94052E1C821D821E8257
:100920001F82188219821A821B82188619861A86DB
:100930001B861C8ADF91CF9108954F925F926F9230
:100940007F928F929F92AF92BF92CF92DF92EF925F
:10095000FF920F931F93CF93DF93CDB7DEB7A4978A
:100960000FB6F894DEBF0FBECDBF29A33AA34BA3A9
:100970005CA3E986FA860B871C87840125E33AEF9E
:100980004EE85CE30E943B382B013C0125E33AEF43
:100990004EE85CE369A17AA18BA19CA10E943B383F
:1009A0006D877E878F87988B0E945B366D8B7E8BE1
:1009B0008F8B988FC301B2010E945B3669837A8363
:1009C0008B839C839B01AC016D897E898F89988D77
:1009D0000E943B386D8B7E8B8F8B988F6D857E85CB
:1009E0008F8598890E949E3829813A814B815C814C
:1009F0000E943B3869837A838B839C83C301B20155
:100A00000E949E386D837E838F83988725E33AEF1B
:100A10004EE85CE369857A858B859C850E943B382E
:100A20002B013C0125E33AEF4EE85CE3C601B5013A
:100A30000E943B3869877A878B879C870E945B3648
:100A4000698B7A8B8B8B9C8BC301B2010E945B36C6
:100A50006D877E878F87988B9B01AC0169897A8926
:100A60008B899C890E943B38698B7A8B8B8B9C8B02
:100A700069857A858B859C850E949E382D853E856B
:100A80004F8558890E943B386D8F7E8F8F8F98A33A
:100A9000C301B2010E949E3869877A878B879C8741
:100AA00029893A894B895C896D897E898F89988DDE
:100AB0000E94CA352B013C012D8D3E8D4F8D58A1D2
:100AC00069817A818B819C810E94CA356D877E877E
:100AD0008F87988B29853A854B855C856D817E81D2
:100AE0008F8198850E94CA35698F7A8F8B8F9C8FF2
:100AF000A3019201C301B2010E943B382B013C01CA
:100B00002D853E854F855889CA01B9010E943B3821
:100B10009B01AC01C301B2010E94CB352B013C010A
:100B2000298D3A8D4B8D5C8DCA01B9010E943B38ED
:100B30009B01AC01C301B2010E94CB3529E93AE720
:100B400043E156E50E943B380E94A83820E030E09F
:100B500040E05FE30E943B382B013C019B01AC016C
:100B60000E943B389B01AC0169E97AE783E196E595
:100B70000E94CA350E94A8389B01AC01C301B20192
:100B80000E945E360E942F3620E33EE442EC5AE497
:100B90000E943B389B01AC010E94CB356D877E875C
:100BA0008F87988B20E030E0A9010E945736811191
:100BB00008C0AFA9B8AD1D921D921D921C9213974B
:100BC00061C129853A854B855C8569817A818B81F4
:100BD0009C810E943B382B013C012D8D3E8D4F8D19
:100BE00058A16D817E818F8198850E943B389B0141
:100BF000AC01C301B2010E94CA352B013C01298915
:100C00003A894B895C896D817E818F8198850E94AC
:100C10003B386D837E838F83988729853A854B8502
:100C20005C856D897E898F89988D0E943B389B01F8
:100C3000AC016D817E818F8198850E94CA35698F54
:100C40007A8F8B8F9C8F2D8D3E8D4F8D58A16D8906
:100C50007E898F89988D0E943B386D837E838F8338
:100C6000988729893A894B895C8969817A818B8146
:100C70009C810E943B389B01AC016D817E818F81FC
:100C800098850E94CA35698B7A8B8B8B9C8BA301CC
:100C90009201C301B2010E943B386D837E838F8332
:100CA0009887298D3A8D4B8D5C8DCA01B9010E94C0
:100CB0003B389B01AC016D817E818F8198850E94BC
:100CC000CB356D837E838F83988729893A894B89B9
:100CD0005C89CA01B9010E943B389B01AC016D815E
:100CE0007E818F8198850E94CB350E94A8386D83C4
:100CF0007E838F83988789819A81AB81BC81B0582C
:100D000089839A83AB83BC839C01AD01BC01CD0177
:100D10000E943B3869877A878B879C872D893E891B
:100D20004F89588DCA01B9010E943B389B01AC0123
:100D300069857A858B859C850E94CB3520E030E0E3
:100D4000A9010E94CB350E94A83869877A878B87D2
:100D50009C879B01AC0169817A818B819C810E9477
:100D60005E3669837A838B839C832D813E814F819C
:100D70005885C301B2010E945E369B01AC016981B6
:100D80007A818B819C810E943B3869837A838B8333
:100D90009C8329853A854B855C856D897E898F8901
:100DA000988D0E945E362B013C012D813E814F8142
:100DB0005885698D7A8D8B8D9C8D0E945E369B0146
:100DC000AC01C301B2010E943B389B01AC016981B7
:100DD0007A818B819C810E94CB352B013C01298536
:100DE0003A854B855C8560E070E0CB010E945E3601
:100DF00069837A838B839C832D813E814F815885C3
:100E000069897A898B899C890E945E369B01AC0135
:100E100069817A818B819C810E943B389B01AC0166
:100E2000C301B2010E94CB350E94BC3525E33AEFE5
:100E30004EE85CE30E945E362B013C0129A13AA1F9
:100E40004BA15CA1C601B5010E94303818164CF4C4
:100E5000A301920160E070E084E393E40E94CA354C
:100E600008C020E030E044E353E4C301B2010E9433
:100E7000CB350E94C636AFA9B8AD6D937D938D93E7
:100E80009C93139720E030E44CE156E46D857E8519
:100E90008F8598890E94303887FD13C020E030E0AC
:100EA0004AE754E46D857E858F8598890E945E3679
:100EB0000E94C636F801608371838283938381E048
:100EC0000DC06D857E858F8598890E94C636D801B4
:100ED0006D937D938D939C93139780E0A4960FB6AA
:100EE000F894DEBF0FBECDBFDF91CF911F910F9160
:100EF000FF90EF90DF90CF90BF90AF909F908F903A
:100F00007F906F905F904F90089580910A018F5F5E
:100F1000893008F081E080930A010895AC0184E0F3
:100F2000440F551F8A95E1F78CE0869F9001879FBB
:100F3000300D1124B90182E29AE00C94C41EFC0128
:100F40009F01281B390B41914111FACFC901089526
:100F5000CF93DF93EC010E949F07FE0140E09927A9
:100F60009F012C1B3D0B281739071CF421914227A8
:100F7000F7CF842FDF91CF9108952F923F924F9218
:100F80005F926F927F928F929F92AF92BF92CF9219
:100F9000DF92EF92FF920F931F93CF93DF93CDB722
:100FA000DEB7C154D1090FB6F894DEBF0FBECDBF76
:100FB0006A962FAD6A972BAB6B963FAD6B973CABA8
:100FC0006C966FAD6C976DAB6D968FAD6D978AAF6C
:100FD0006E969FAD6E979BAFAD96CCACDDACEEAC94
:100FE000FFACAD97AE96AFADAE97A9ABE2964CAC69
:100FF0005DAC6EAC7FACE297E396BFADE397BAAB66
:10100000C701B6010E94C6364B015C0120E030E406
:101010004CE156E4C701B6010E943B386B017C01EC
:1010200000E117E2089DB001099D700D189D700D3B
:101030001124882777FD8095982F0E94F9369B010F
:10104000AC01C701B6010E94CA350E94C6366CAF1A
:101050007DAFC301B2010E94C6366B017C0120E066
:1010600030E44CE156E4C301B2010E943B382B014D
:101070003C010C9DB0010D9D700D1C9D700D112447
:10108000882777FD8095982F0E94F9369B01AC0147
:10109000C301B2010E94CA350E94C636562E472EA1
:1010A0009E01275E3F4F3AA729A7E7966CAD7DAD1D
:1010B0008EAD9FADE797890121E044E00E94503951
:1010C000CE0141969CA78BA7A5966CAD7DAD8EAD4C
:1010D0009FADA5970850110922E044E00E945039C5
:1010E000DE011996BEA7ADA7A9966CAD7DAD8EADFC
:1010F0009FADA9978D0122E044E00E9450391E0166
:10110000B1E22B0E311CED966CAD7DAD8EAD9FAD79
:10111000ED97810122E041E00E945039C358DF4F32
:10112000688179818A819B81CD57D0409E012F5F54
:101130003F4F38AB2FA7890121E044E00E9450398E
:1011400060E371E082E797E00E9488393BAD3F930E
:101150006AAD6F931F928DA98F931F929CA99F9345
:101160001F92ABA9AF93A7E3B1E0BF93AF9388E71A
:1011700097E09F938F930E948F398C010858184FE6
:1011800089A9992787FD90959FAB8EAB9F9399A9CD
:101190009F93ADADAF93BCADBF939F928F9249E447
:1011A00051E05F934F931F930F934EAF5FAF0E9439
:1011B0008F39080F191F2AA9332727FD309539AF1A
:1011C00028AF3F933AA93F934F925F92DF92CF921D
:1011D00027E531E03F932F931F930F9321962FAF75
:1011E000219722963FAF22970E948F39080F191F2F
:1011F0000FB6F894DEBF0FBECDBF65E671E0C80143
:101200000E9488390E5F1F4FE9968FADE9971F92B4
:101210008F9388E691E09F938F931F930F930E9483
:101220008F39080F191F3F922F929EE6692E91E089
:10123000792E7F926F921F930F930E948F39080F20
:10124000191F9AA59F93A9A5AF9382E791E09F9359
:101250008F931F930F930E948F39B8A9BF936FA5E7
:101260006F9368E771E07F936F93800F911F9F9357
:101270008F930E948F3982E797E00E94A8071F9200
:101280008F930FE711E01F930F931E0187E2280E43
:10129000311C3F922F920E948F3964E871E081EBFC
:1012A0009BE00E94AA3362E777E081EB9BE00E941B
:1012B000AA336FE674E081EB9BE00E94AA33B10190
:1012C00081EB9BE00E94B73366E871E082E297E031
:1012D0000E9488399BAD9F93AAADAF931F92BDA981
:1012E000BF931F926CA96F931F928BA98F93A7E353
:1012F000B1E0BF93AF9388E297E09F938F930E94F2
:101300008F39885D984F1C010FB6F894DEBF0FBE71
:10131000CDBF64E371E00E94883992E0290E311C50
:10132000AFA9AF93B9A9BF936DAD6F938CAD8F93F8
:101330009F928F924EAD5FAD5F934F933F922F92EE
:101340000E948F39280E391E99AD9F93AAA9AF9399
:101350004F925F92DF92CF9221962FAD21972296E6
:101360003FAD22973F932F933F922F920E948F3948
:10137000280E391EBCA5BF932BA52F937F926F9289
:101380003F922F920E948F39280E391E3EA53F931F
:101390006DA56F937F926F923F922F920E948F392B
:1013A0000FB6F894DEBF0FBECDBFA1962FADA197AB
:1013B0001F922F93A0962FADA0971F922F936F96F9
:1013C0002FAD6F971F922F932DE831E03F932F930E
:1013D000820D931D9F938F930E948F3982E297E035
:1013E0000E94A8071F928F931F930F938E010B5D8E
:1013F0001F4F1F930F930E948F3964E871E081EBB8
:101400009BE00E94AA3362E277E081EB9BE00E94BE
:10141000AA336FE674E081EB9BE00E94AA33B80127
:1014200081EB9BE00E94B7330FB6F894DEBF0FBE8E
:10143000CDBFCF5BDF4F0FB6F894DEBF0FBECDBF81
:10144000DF91CF911F910F91FF90EF90DF90CF90A0
:10145000BF90AF909F908F907F906F905F904F90D4
:101460003F902F900895EF92FF920F931F93CF9389
:10147000DF931F92CDB7DEB77C018B01211105C030
:1014800049830E949F07498102C080E090E0F701F4
:10149000E80FF91F801791071CF401964193FACFCA
:1014A000F701E80FF91F1082C7010F90DF91CF916C
:1014B0001F910F91FF90EF900895CF93C82F60E098
:1014C00070E08EE090E00E948E0740E050E06FEF09
:1014D0007FEF82E29AE00E94D01E21E040E269E1C3
:1014E00070E081EF95E00E94330ABC0182E29AE04D
:1014F0000E94AA3360E070E08EE090E00E948E07C8
:10150000C0FF0EC040E058EF6FEF7FEF82E29AE03D
:101510000E94D01E6EE971E082E29AE00E94AA3336
:10152000C1FF0EC040E05CEF60E070E082E29AE054
:101530000E94D01E64EA71E082E29AE00E94AA331F
:1015400060E070E080E090E00E948E0740E050E0B4
:101550006FEF7FEF82E29AE0CF910C94D01E1F9242
:101560000F920FB60F9211240BB60F922F933F9349
:101570004F935F936F937F938F939F93AF93BF939B
:10158000EF93FF9382EA95E00E94D91E8111809328
:10159000C600FF91EF91BF91AF919F918F917F9185
:1015A0006F915F914F913F912F910F900BBE0F90D4
:1015B0000FBE0F901F901895882359F08FEA87BDB2
:1015C00080916E00826080936E0081E08093A1051F
:1015D000089580916E008D7F80936E001092A1051A
:1015E00008954F925F926F927F928F929F92AF92E7
:1015F000BF92CF92DF92EF92FF920F931F93CF9300
:10160000DF9300D000D0CDB7DEB78C0144E350E0CB
:1016100060E070E0FC01448755876687778744EC7B
:1016200056E260E070E0408B518B628B738B148AC2
:1016300010821182128213821482158216821782FE
:101640004FEF5FEF67E070E082E59AE00E94AF2D18
:101650008F3F09F0A4C040E050EF67E070E082E502
:101660009AE00E94AF2D8F3F09F499C0CC24CA9410
:10167000DC2C47E0E42EF12C88248A94982C57E047
:10168000A52EB12C240135014C185D086E087F0889
:10169000B701A60182E59AE00E94AF2D8F3F31F499
:1016A000F1E0CF1AD108E108F108ECCF81E0F801B0
:1016B000848BFFEFCF1ADF0AEF0AFF0AF801C0821E
:1016C000D182E282F382CC24CA943FEED32E37E05B
:1016D000E32EF12CB701A60182E59AE00E94AF2D1E
:1016E0008F3F41F0C114F0E1DF06E104F10408F09E
:1016F00060C015C0B701A6014F5F5F406109710965
:1017000082E59AE00E94AF2D8F3F61F746015701B5
:101710002FEFC216D20627E0E206F10431F181E094
:10172000F801848B46015701B501A40182E59AE0D6
:101730000E94AF2DA50194012F5F3F4F4F4F5F4F88
:1017400029833A834B835C838F32C1F5BA01A901A7
:1017500082E59AE00E94AF2D8A3281F5F8018482F9
:101760009582A682B78246015701B501A40182E5A0
:101770009AE00E94AF2D8F3F81F581149104A1045E
:10178000B10491F540E050E0BA0182E59AE00E9490
:10179000AF2D8F3FA1F1812C912C540167C0412CBA
:1017A000512C3201CC24CA94DC2C27E0E22EF12CFF
:1017B00091CFF0E1DF1AE108F1088CCF89809A809F
:1017C000AB80BC808114910428E0A206B10409F02A
:1017D000ABCF812C912C5401A7CF81149104A1048B
:1017E000B10409F043C0CECFFFEF4F1A5F0A6F0A72
:1017F0007F0A21E0821A9108A108B108B6CFF8014A
:101800008489811105C0F80110821182128213822D
:10181000FFEF4F1A5F0A6F0A7F0A60E070E088E00E
:1018200090E06419750986099709F80124853585C2
:10183000468557850E940539F80120873187428700
:1018400053870F900F900F900F90DF91CF911F91C2
:101850000F91FF90EF90DF90CF90BF90AF909F904F
:101860008F907F906F905F904F900895FFEF8F1A49
:101870009F0AAF0ABF0AF80180829182A282B382D6
:10188000CCCF40E35FEE67E182E59AE00E94302D25
:101890002DE14CE16BE182E29AE00E94E31F27E92F
:1018A0003BE042E064E082EF98E00E94292A41E0B8
:1018B00062EF78E087EE97E00E94AA268FE29AE234
:1018C000A0E08093EE069093EF06A093F00680933D
:1018D000BA069093BB06A093BC06809386069093AD
:1018E0008706A09388066EE47CE082EA95E00C947B
:1018F000971F60E070E082E29AE00E94C51F62E0FC
:1019000082E29AE00E94CA1E61E082E29AE00E94AE
:10191000332440E050E06FEF7FEF82E29AE00E94D4
:10192000D01E61E082E29AE00E94D61E40E050E0C4
:1019300060E070E082E29AE00C94C41EEF92FF92A5
:101940000F931F93CF93DF9390E0FC013197E83022
:10195000F10508F045C7EA5BFF4F2091A0050C9404
:101960004639213019F4662309F481C081E080935F
:10197000A0050E94790C60E070E080E090E00E9499
:101980008E076AEA71E082E29AE00E94AA3360E080
:1019900070E081E090E00E948E07809110071F9216
:1019A0008F9385EB91E09F938F93C9E1D6E0DF930E
:1019B000CF930E948F39BE0182E29AE00E94AA333F
:1019C00060E070E082E090E00E948E0780910F0757
:1019D0001F928F938CEB91E09F938F93DF93CF9324
:1019E0000E948F39BE0182E29AE00E94AA3360E031
:1019F00070E083E090E00E948E0760911107709183
:101A00001207809113079091140701EF15E022E06F
:101A100045E00E9450399F938F9384EC91E09F930F
:101A20008F93DF93CF930E948F39BE0182E29AE0B9
:101A30000E94AA3360E070E084E090E00E948E078C
:101A40008091E6078F938091E5078F938CEC91E06E
:101A50009F938F93DF93CF930E948F398DB79EB75B
:101A600048960FB6F8949EBF0FBE8DBF8BC464E03E
:101A700070E081E090E00E948E074AE050E06091C3
:101A8000100782E29AE00E948F3465E070E082E005
:101A900090E00E948E074AE050E060910F0782E2DA
:101AA0009AE00E948F3465E070E083E090E00E944D
:101AB0008E07609111077091120780911307909122
:101AC000140701EF15E022E045E00E945039BC0107
:101AD00089E196E00E94883969E176E082E29AE045
:101AE0000E94AA3368E070E084E090E00E948E07D4
:101AF0006091E5077091E6074AE050E082E29AE0E3
:101B0000DF91CF911F910F91FF90EF900C94623471
:101B1000223019F4662309F4C3C082E08093A00543
:101B20000E94790C60E070E080E090E00E948E07F7
:101B300067ED71E082E29AE00E94AA336091DA07D1
:101B40007091DB078091DC079091DD070E94F936E8
:101B50009B01AC0160910B0770910C0780910D0700
:101B600090910E070E94CA3501EF15E020E044E095
:101B70000E9450399F938F9380EE91E09F938F93B3
:101B8000C9E1D6E0DF93CF930E948F3960E070E027
:101B900081E090E00E948E07BE0182E29AE00E94FE
:101BA000AA3326E53EE04DEE5FE36091F9067091C1
:101BB000FA068091FB069091FC060E943B3820E0DB
:101BC00044E00E9450399F938F9389EE91E09F9358
:101BD0008F93DF93CF930E948F3960E070E082E0B3
:101BE00090E00E948E07BE0182E29AE00E94AA3332
:101BF0006091DE077091DF078091E0079091E10727
:101C00000E94F93620E044E00E9450399F938F9360
:101C100085EF91E09F938F93DF93CF930E948F394D
:101C200060E070E083E090E00E948E07BE0182E2F7
:101C30009AE00E94AA3360E070E084E090E00E94A5
:101C40008E076091D2077091D3078091D40790914D
:101C5000D5070E94F93620E044E00E9450399F9356
:101C60008F9380E092E09F938F93DF93CF930E94B6
:101C70008F39BE0182E29AE00E94AA338DB79EB7E7
:101C800048960FB6F8949EBF0FBE8DBF8091E307B4
:101C9000811103C067EE71E0AEC067E072E0ABC0D7
:101CA0006091DA077091DB078091DC079091DD0786
:101CB0000E94F9369B01AC0160910B0770910C07F3
:101CC00080910D0790910E070E94CA3501EF15E033
:101CD00020E044E00E9450399F938F938AE092E085
:101CE0009F938F93C9E1D6E0DF93CF930E948F3902
:101CF00064E070E081E090E00E948E07BE0182E225
:101D00009AE00E94AA3326E53EE04DEE5FE3609143
:101D1000F9067091FA068091FB069091FC060E94EC
:101D20003B3820E044E00E9450399F938F9385E137
:101D300092E09F938F93DF93CF930E948F3964E05B
:101D400070E082E090E00E948E07BE0182E29AE09D
:101D50000E94AA336091DE077091DF078091E0074F
:101D60009091E1070E94F93620E044E00E9450394A
:101D70009F938F9383E292E09F938F93DF93CF9310
:101D80000E948F3964E070E083E090E00E948E074B
:101D9000BE0182E29AE00E94AA3364E070E084E02F
:101DA00090E00E948E076091D2077091D3078091D6
:101DB000D4079091D5070E94F93620E044E00E94B4
:101DC0005039BC01CE010E948839BE0182E29AE0FE
:101DD0000E94AA338DB79EB742960FB6F8949EBF65
:101DE0000FBE8DBF8091E307811103C060E372E0F5
:101DF00002C067E372E082E29AE00E94AA3364E0E4
:101E000082E29AE00E94CA1E60E070E085E090E005
:101E10000E948E076091C2077091C3078091C4072A
:101E20009091C50701EF15E020E041E00E94503994
:101E30009F938F938DEE91E09F938F9389E196E02E
:101E40009F938F930E948F3969E176E082E29AE056
:101E50000E94AA330F900F900F900F900F900F9049
:101E600062E082E29AE0DF91CF911F910F91FF90A3
:101E7000EF900C94CA1E233019F4662309F4A2C013
:101E800083E08093A0050E94790C60E070E080E020
:101E900090E00E948E0760E472E082E29AE00E9485
:101EA000AA3360E070E081E090E00E948E076091CC
:101EB000C2077091C3078091C4079091C50701EFD5
:101EC00015E020E044E00E9450399F938F938CE40A
:101ED00092E09F938F93C9E1D6E0DF93CF930E9466
:101EE0008F39BE0182E29AE00E94AA3360E070E07E
:101EF00082E090E00E948E078091D9078F938091B5
:101F0000D8078F938091D7078F938091D6078F93AF
:101F100085E592E09F938F93DF93CF930E948F3953
:101F2000BE0182E29AE00E94AA3360E070E083E0A2
:101F300090E00E948E078091D1078F938091D00707
:101F40008F938091CF078F938091CE078F938FE5EA
:101F500092E09F938F93DF93CF930E948F39BE01BE
:101F600082E29AE00E94AA338DB79EB746960FB6DA
:101F7000F8949EBF0FBE8DBF8091E307811103C00F
:101F800067EE71E002C067E072E082E29AE00E94D0
:101F9000AA3360E070E084E090E00E948E076091D8
:101FA0000B0770910C0780910D0790910E0701EFC0
:101FB00015E020E045E00E9450399F938F9388E61A
:101FC00092E08CC066E070E081E090E00E948E07B5
:101FD0006091C2077091C3078091C4079091C507B3
:101FE00001EF15E020E044E00E945039BC0189E196
:101FF00096E00E94883969E176E082E29AE00E94E8
:10200000AA3366E070E082E090E00E948E07809143
:10201000D9078F938091D8078F938091D7078F939B
:102020008091D6078F938BE592E09F938F93C9E1C0
:10203000D6E0DF93CF930E948F39BE0182E29AE00F
:102040000E94AA3366E070E083E090E00E948E0771
:102050008091D1078F938091D0078F938091CF0784
:102060008F938091CE078F9384ED91E09F938F9310
:10207000DF93CF930E948F39BE0182E29AE00E94E3
:10208000AA338DB79EB740960FB6F8949EBF0FBE89
:102090008DBF8091E307811103C067EE71E002C03C
:1020A00067E072E082E29AE00E94AA3368E070E0A2
:1020B00085E090E00E948E0760910B0770910C07FD
:1020C00080910D0790910E0701EF15E020E045E0AB
:1020D0000E9450399F938F9384E792E09F938F9350
:1020E00089E196E09F938F930E948F390F900F9014
:1020F0000F900F900F900F9067C3243019F4662350
:1021000009F4B1C084E08093A0050E94790C60E0DE
:1021100070E080E090E00E948E0768E772E082E263
:102120009AE00E94AA3360E070E081E090E00E94B3
:102130008E076091010770910207809103079091CB
:10214000040701EF15E024E049E00E9450399F9315
:102150008F9320910507822F992787FD90959F9354
:102160002F9383E892E09F938F93C9E1D6E0DF93AA
:10217000CF930E948F39BE0182E29AE00E94AA3377
:1021800060E070E082E090E00E948E0760910607B8
:1021900070910707809108079091090724E049E0B2
:1021A0000E9450399F938F9320910A07822F99277D
:1021B00087FD90959F932F938DE892E09F938F9347
:1021C000DF93CF930E948F39BE0182E29AE00E9492
:1021D000AA3360E070E083E090E00E948E0767E938
:1021E00072E0CE010E948839BE0182E29AE00E942C
:1021F000AA3360E070E084E090E00E948E07609176
:10220000190770911A0780911B0790911C0726E00F
:102210004AE00E945039BC01CE010E948839BE01BB
:1022200082E29AE00E94AA3360E070E085E090E0EC
:102230000E948E0760911D0770911E0780911F07F5
:102240009091200726E04AE00E945039BC01CE015F
:102250000E9488398DB79EB740960FB6F8949EBFFE
:102260000FBE8DBF8FC064E070E081E090E00E94FF
:102270008E0760910107709102078091030790918A
:10228000040701EF15E024E049E00E9450399F93D4
:102290008F9320910507822F992787FD90959F9313
:1022A0002F9361E9E62E62E0F62EFF92EF92C9E1EC
:1022B000D6E0DF93CF930E948F39BE0182E29AE08D
:1022C0000E94AA3364E070E082E090E00E948E07F2
:1022D00060910607709107078091080790910907A0
:1022E00024E049E00E9450399F938F9320910A0780
:1022F000822F992787FD90959F932F93FF92EF92BE
:10230000DF93CF930E948F39BE0182E29AE00E9450
:10231000AA3360E070E084E090E00E948E07609154
:10232000190770911A0780911B0790911C0726E0EE
:102330004AE00E945039BC01CE010E948839BE019A
:1023400082E29AE00E94AA3360E070E085E090E0CB
:102350000E948E0760911D0770911E0780911F07D4
:102360009091200726E04AE00E945039BC01CE013E
:102370000E9488398DB79EB740960FB6F8949EBFDD
:102380000FBE8DBFBE0122C2253019F4662309F4A9
:10239000ABC085E08093A0050E94790C60E070E0FE
:1023A00080E090E00E948E0765EA72E082E29AE0A7
:1023B0000E94AA3360E070E081E090E00E948E0706
:1023C00067E972E082E29AE00E94AA3360E070E07E
:1023D00082E090E00E948E076091190770911A07C1
:1023E00080911B0790911C0701EF15E026E049E062
:1023F0000E945039BC0189E196E00E94883969E168
:1024000076E082E29AE00E94AA3360E070E083E026
:1024100090E00E948E0760911D0770911E078091C9
:102420001F079091200726E049E00E945039BC0127
:1024300089E196E00E94883969E176E082E29AE0DB
:102440000E94AA3360E070E084E090E00E948E0772
:102450008091E1078F938091E0078F938091DF0750
:102460008F938091DE078F9382EB92E09F938F93FF
:10247000C9E1D6E0DF93CF930E948F39BE0182E29B
:102480009AE00E94AA3360E070E085E090E00E944C
:102490008E078091D5078F938091D4078F93809179
:1024A000D3078F938091D2078F9389EB92E09F930C
:1024B0008F93DF93CF930E948F39BE0182E29AE01F
:1024C0000E94AA338DB79EB740960FB6F8949EBF70
:1024D0000FBE8DBF8091E307811103C067EE71E0ED
:1024E00075C167E072E072C160E070E082E090E088
:1024F0000E948E076091190770911A0780911B073F
:1025000090911C0701EF15E026E049E00E94503948
:10251000BC0189E196E00E94883969E176E082E2B7
:102520009AE00E94AA3360E070E083E090E00E94AD
:102530008E0760911D0770911E0780911F07909173
:10254000200726E049E00E945039BC0189E196E06D
:102550000E94883969E176E082E29AE00E94AA331B
:1025600064E070E084E090E00E948E078091E107D3
:102570008F938091E0078F938091DF078F938091F5
:10258000DE078F9304ED11E01F930F93C9E1D6E0AE
:10259000DF93CF930E948F39BE0182E29AE00E94BE
:1025A000AA3364E070E085E090E00E948E0780919D
:1025B000D5078F938091D4078F938091D3078F9302
:1025C0008091D2078F931F930F93DF93CF930E9435
:1025D0008F39BE0182E29AE00E94AA338DB79EB77E
:1025E00040960FB6F8949EBF0FBE8DBF73CF2630B6
:1025F00019F4662309F4F4C086E08093A0050E94D4
:10260000790C60E070E080E090E00E948E0760EC62
:1026100072E082E29AE00E94AA3360E070E081E01A
:1026200090E00E948E076AEC72E082E29AE00E94DB
:10263000AA3360E070E082E090E00E948E0766EDD1
:1026400072E089E196E00E948839BEC0273019F413
:10265000662309F448C087E08093A0050E94790CA6
:1026600060E070E080E090E00E948E0768EE72E02B
:1026700082E29AE00E94AA3360E070E081E090E09C
:102680000E948E078091180A8F938091170A8F936A
:102690008091160A8F938091150A8F9383EF92E0B1
:1026A0009F938F9389E196E09F938F930E948F3938
:1026B00069E176E082E29AE00E94AA3360E070E08D
:1026C00082E090E00E948E0760E073E089E196E08E
:1026D0000E9488398DB79EB708960FB6F8949EBFB2
:1026E0000FBE8DBF71C069E070E081E090E00E9494
:1026F0008E078091180A8F938091170A8F9380918B
:10270000160A8F938091150A8F938CEF92E09F9316
:102710008F9389E196E09F938F930E948F398DB7B5
:102720009EB708960FB6F8949EBF0FBE8DBF4CC0E3
:10273000283019F4662309F453C088E08093A0057B
:102740000E94790C60E070E080E090E00E948E07CB
:1027500063E173E082E29AE00E94AA3360E070E0F5
:1027600081E090E00E948E078091180A8F938091FB
:10277000170A8F938091160A8F938091150A8F9371
:1027800080E293E09F938F9389E196E09F938F93EC
:102790000E948F3969E176E082E29AE00E94AA33D2
:1027A00060E070E082E090E00E948E076EE273E0ED
:1027B00089E196E00E9488398DB79EB708960FB6DA
:1027C000F8949EBF0FBE8DBF69E176E082E29AE089
:1027D000DF91CF911F910F91FF90EF900C94AA334E
:1027E000DF91CF911F910F91FF90EF90089526E018
:1027F00040E052EC61E070E081EB9BE00E94A03190
:1028000060E473E081EB9BE00E94B73366ED72E019
:1028100081EB9BE00E94B73369E573E081EB9BE0BD
:102820000E94B73387EE97E00E94C924882349F0BD
:1028300040E050E069ED73E482EF98E00E94AA2A3C
:1028400006C069E673E081EB9BE00E94B73360E865
:1028500075E282EA95E00E94A81F81E00E94DC0AEE
:1028600062E08FE10E94123062E08EE10E9412303D
:1028700082E00E94481982E29AE00E9484200E942D
:10288000790C65E773E082E29AE00E94B7336BE867
:1028900073E082E29AE00E94AA3366ED72E082E27F
:1028A0009AE00E94B73360E973E081EB9BE00E94FD
:1028B000B7336EEE76E08DE09AE00E94F10A62EBAB
:1028C00073E081EB9BE00E94B73367EC73E081EB30
:1028D0009BE00E94AA3340910D0A50910E0A60912C
:1028E0000F0A7091100A2AE030E081EB9BE00E9411
:1028F000AD346CED73E081EB9BE00E94AA33409114
:10290000110A5091120A6091130A7091140A2AE078
:1029100030E081EB9BE00E94AD3460EF73E081EB2F
:102920009BE00E94AA334091150A5091160A6091CB
:10293000170A7091180A2AE030E081EB9BE00E94B0
:10294000AD3460E080910A010E949E0C65E074E065
:1029500081EB9BE00E94B7330E94322F6093810687
:102960007093820680938306909384060895109254
:10297000C2071092C3071092C4071092C5071092A5
:10298000CE071092CF071092D0071092D107109265
:10299000D6071092D7071092D8071092D907109235
:1029A000E2071092DE071092DF071092E007109204
:1029B000E1078091190790911A07A0911B07B09128
:1029C0001C078093CA079093CB07A093CC07B093C2
:1029D000CD0780911D0790911E07A0911F07B09110
:1029E00020078093C6079093C707A093C807B093AA
:1029F000C9070E94790C64E174E082E29AE00E94C7
:102A0000B7336BE274E082E29AE00E94B733409100
:102A1000CA075091CB076091CC077091CD0728E091
:102A200030E082E29AE00E94AA3560E374E082E23C
:102A30009AE00E94B7334091C6075091C707609152
:102A4000C8077091C90728E030E082E29AE00E944E
:102A5000AA3560910B0770910C0780910D0790913A
:102A60000E070E94C6366093DA077093DB078093E7
:102A7000DC079093DD0760ED77E080E090E00E9456
:102A8000612F61E080910A010C949E0C3F924F925D
:102A90005F926F927F928F929F92AF92BF92CF92EE
:102AA000DF92EF92FF920F931F93CF93DF93CDB7F7
:102AB000DEB7E5970FB6F894DEBF0FBECDBF8FE14E
:102AC0000E948130892B49F40E94850761E0809142
:102AD0000A010E949E0C109285068EE10E948130B0
:102AE000892B09F052C180910A01873048F4823065
:102AF00008F049C1813009F046C10E94B71443C1B2
:102B0000873009F46BC0883009F03DC160E070E0A7
:102B100081E090E00E948E0721E040E269E170E0F0
:102B200089E196E00E94330ABC0182E29AE00E94A9
:102B3000AA3360E070E082E090E00E948E0721E01E
:102B400040E269E170E089E196E00E94330ABC014D
:102B500082E29AE00E94AA3360E070E083E090E0B5
:102B60000E948E0721E040E269E170E089E196E091
:102B70000E94330ABC0182E29AE00E94AA3360E01C
:102B800070E082E090E00E948E0764E474E089E1E6
:102B900096E00E94883969E176E082E29AE00E943C
:102BA000AA338090110A9090120AA090130AB09054
:102BB000140A8FE29AE2A0E089839A83AB8363E5EB
:102BC00074E081EB9BE00E94B733F89401E010E0E1
:102BD000CE0101967C01F4E33F2EABC060E070E0D3
:102BE00081E090E00E948E0721E040E269E170E020
:102BF00089E196E00E94330ABC0182E29AE00E94D9
:102C0000AA3360E070E082E090E00E948E0721E04D
:102C100040E269E170E089E196E00E94330ABC017C
:102C200082E29AE00E94AA3360E070E083E090E0E4
:102C30000E948E0721E040E269E170E089E196E0C0
:102C40000E94330ABC0182E29AE00E94AA3360E04B
:102C500070E082E090E00E948E0765E374E089E115
:102C600096E00E94883969E176E082E29AE00E946B
:102C7000AA338DE09AE00E94860480C02A013B01BD
:102C80009FEF491A590A690A790A82E59AE00E9477
:102C9000AF2DF60181936F0141145104F8E06F06E6
:102CA000710418F0412C512C3201B301A201409063
:102CB000190A50901A0A60901B0A70901C0AC601EB
:102CC0008E199F09A0E0B0E084159505A605B7050B
:102CD000A8F28091110A9091120AA091130AB09162
:102CE000140A840D951DA61DB71DA770BB278093E0
:102CF000110A9093120AA093130AB093140A8DB785
:102D00009EB7C4970FB6F8949EBF0FBE8DBFADB7E8
:102D1000BEB71196F701832D01900D928A95E1F7C8
:102D20000E94BD070F5F1F4F0FB6F894DEBF0FBEA6
:102D3000CDBFA80160E070E08091150A9091160A5D
:102D4000A091170AB091180A481759076A077B071C
:102D500050F44091110A5091120A6091130A709137
:102D6000140A6701A4CFAA24BB248092110A90926E
:102D7000120AA092130AB092140A789461E080912A
:102D80000A010E949E0C10928506C0908106D09088
:102D90008206E0908306F09084060E94322F6C1524
:102DA0007D058E059F0550F40E94322F60938106A9
:102DB00070938206809383069093840687EE97E053
:102DC0000E946824882309F4AEC1809185068E7F15
:102DD0008093850684E38DABC12CD12CE12CF12CA2
:102DE00000E010E09E012F5F3F4FAE014B5C5F4F54
:102DF0006EEE76E087EE97E00E94E126882309F4E4
:102E0000AAC10E94322F609381067093820680933C
:102E100083069093840682EF98E00E9427269927E4
:102E200087FD90959093E6078093E50780912107B1
:102E3000882309F4E4C08091E407811102C00E9454
:102E4000B71481E08093E407809185068D7F80939D
:102E50008506A0901D07B0901E07C0901F07D09058
:102E60002007E0901907F0901A0700911B071091B6
:102E70001C072091C6073091C7074091C8075091A1
:102E8000C9076091CA077091CB078091CC079091D8
:102E9000CD07EEEDF7E0FF93EF93E2ED8E2EE7E046
:102EA0009E2E0E949D04182F8093E307C0900B076D
:102EB000D0900C07E0900D07F0900E078090DA0795
:102EC0009090DB07A090DC07B090DD076091D607FB
:102ED0007091D7078091D8079091D907680D791D17
:102EE0008A1D9B1D0E94F9369B01AC010F900F902B
:102EF000C701B6010E9430381816A4F4C501B40108
:102F00000E94F9369B01AC01C701B6010E94CA3587
:102F10000E94C6366093D6077093D7078093D80770
:102F20009093D9074091D2075091D3076091D4076D
:102F30007091D507111103C01092E20708C080916B
:102F4000E207811104C081E08093E2070DC0809107
:102F5000CE079091CF07A091D007B091D1078417E9
:102F60009507A607B70744F44093CE075093CF07C1
:102F70006093D0077093D10726E53EE04DEE5FE306
:102F80006091F9067091FA068091FB069091FC061B
:102F90000E943B3820E030E040E85FE30E94573673
:102FA00087FF08C01092F9061092FA061092FB06ED
:102FB0001092FC0626E53EE04DEE5FE36091F906D7
:102FC0007091FA068091FB069091FC060E943B38B6
:102FD0006B017C012091C2073091C3074091C40767
:102FE0005091C5070E943038181674F4C092C20779
:102FF000D092C307E092C407F092C50705C0809144
:103000008506826080938506C0900D0AD0900E0AD6
:10301000E0900F0AF090100A0EEE16E0A8014E5E46
:10302000564060E070E08091190A90911A0AA091D0
:103030001B0AB0911C0A481759076A077B0760F5FD
:10304000F80121918F01B701A60182E59AE00E9463
:10305000DA2DD701C6019F70AA27BB27892B8A2B9F
:103060008B2B59F4B701A601505F6F4F7F4F6770EC
:1030700077278DE09AE00E940904FFEFCF1ADF0A5C
:10308000EF0AFF0AC114D10488E0E806F10430F227
:10309000C12CD12C7601C2CFC0920D0AD0920E0A5B
:1030A000E0920F0AF092100A8091150A9091160A88
:1030B000A091170AB091180A40911D0A50911E0A5A
:1030C00060911F0A7091200A84179507A607B70719
:1030D00058F40196A11DB11D8093150A9093160A0C
:1030E000A093170AB093180AEDB7FEB7F4970FB67E
:1030F000F894FEBF0FBEEDBFADB7BEB7119684E327
:10310000EEEEF6E001900D928A95E1F70E94BD0780
:103110000FB6F894DEBF0FBECDBF60E080910A010C
:103120000E949E0C18C00E94322F009181061091BF
:103130008206209183063091840608571C4E2F4F3B
:103140003F4F061717072807390728F4809185068F
:103150008160809385060E94322F00917D06109138
:103160007E0620917F0630918006601771078207E6
:10317000930750F40E94322F60937D0670937E0671
:1031800080937F06909380060E94322F00917D06E7
:1031900010917E0620917F06309180060053184FD3
:1031A0002F4F3F4F061717072807390778F48091EC
:1031B000850690E00E945D0A0E94322F60937D0692
:1031C00070937E0680937F0690938006E5960FB6F7
:1031D000F894DEBF0FBECDBFDF91CF911F910F914D
:1031E000FF90EF90DF90CF90BF90AF909F908F9027
:1031F0007F906F905F904F903F900895CF93CFB79F
:10320000F89480915C0A811127C0E4E7F6E084918C
:10321000E4E5F6E09491E82FF0E0EE0FFF1FEC55A7
:10322000F94FA591B4918C91892321F461E084E058
:103230000E944B3061E084E00E9412308CB58061C6
:103240008CBD8CB580648CBD61E087E00E9412303B
:1032500061E085E00E94123080915C0A8F5F80936C
:103260005C0ACFBFCF9108959FB7F89480915C0A14
:10327000882319F0815080935C0A80915C0A811147
:1032800005C08CB58F7B8CBD10925B0A9FBF0895E3
:103290002FB7F894813061F020F0823021F484E07F
:1032A00008C081E006C082E080935B0A80E001C034
:1032B00082E090915A0A982B90935A0A80915B0A67
:1032C000811103C081E080935B0A2FBF0895E091D4
:1032D0009F0AF091A00AE817F90769F4A389B48955
:1032E0009C918589809589238C931092A00A1092D5
:1032F0009F0A81E0089580E00895CF93DF93EC0169
:103300008A8D9B8D892BF1F080919F0A9091A00A64
:103310008C179D07B9F0009711F00E9467198E8DE8
:103320008E7F8E8F10925E0A10925D0AD093A00A53
:10333000C0939F0AEB89FC8980819D89892B8083BA
:1033400081E001C080E0DF91CF9108951F920F923C
:103350000FB60F9211240BB60F922F933F934F93FA
:103360005F936F937F938F939F93AF93BF93EF93ED
:10337000FF93E0919F0AF091A00A309709F451C0A1
:10338000868DA685B785958581FF04C08C9189239C
:1033900029F447C08C91892309F043C0A389B489DB
:1033A0009C918589809589238C938689978901973B
:1033B000F1F7208D318DA685B785758558E040E001
:1033C000C9010197F1F7842F90E095958795482FD3
:1033D0006C91672309F04068515091F7868D81FD0B
:1033E000409580915E0A90E001968F739927209115
:1033F0005D0A281749F0A0915E0AB0E0A15AB54FC6
:103400004C9380935E0A03C0868D8160868F828D87
:10341000938D0197F1F7A389B4898C919589892BB4
:103420008C93FF91EF91BF91AF919F918F917F917D
:103430006F915F914F913F912F910F900BBE0F9025
:103440000FBE0F901F901895CF93DF93EC019A0158
:10345000AB011B8E1A8E198E188E1F8A1E8A60E091
:1034600079E08DE390E00E942739C90124303105CD
:1034700020F0B9016350710902C061E070E07D8FF6
:103480006C8FEC85EF3108F05AC0B90176956795DD
:103490006431710518F06351710902C061E070E098
:1034A0007F8B6E8B069718F0C901059702C081E0EB
:1034B00090E0998F888FC901880F991F820F931F01
:1034C00096958795969587958D30910510F00C9778
:1034D00002C081E090E09B8F8A8F90916800E83075
:1034E00030F0E03130F0E83130F484E005C082E0C3
:1034F00003C088E001C081E0892B809368002C859F
:10350000283038F02E3040F0263148F48CE690E038
:1035100008C08DE690E005C08BE690E002C080E038
:1035200090E09C8B8B8B277081E090E001C0880F2E
:103530002A95EAF78D8B8C8D9D8D0197F1F7CE0141
:10354000DF91CF910C947D192F923F924F925F9211
:103550006F927F928F929F92AF92BF92CF92DF92A3
:10356000EF92FF920F931F93CF93DF9300D000D081
:10357000CDB7DEB74C017C836B836A015901C8016A
:103580008701AC014C195D0957FF03C05195419566
:10359000510995016B817C81261B370B37FF03C0D6
:1035A00031952195310922242394312C2417350794
:1035B00014F0212C312C2114310459F03A2D2B2DEB
:1035C0005C01832F922F3B812C81DC82CB82C32E26
:1035D000D22EAB81BC81AA16BB065CF43C2D2D2DEE
:1035E0006C01832F922F3B812C81BC82AB82A32E56
:1035F000B22E2501EB81FC814E1A5F0A3C016C184A
:103600007D0877FE03C0719461947108720157FEC2
:1036100003C0FFEFEF1AFF0AF594E794C816D90626
:103620002CF421E030E03A83298324C06FEF7FEF50
:103630007A8369831FC0D401ED91FC910480F581E8
:10364000E02D980121143104D9F04B815C81B60141
:10365000C4010995E618F708F7FE06C0E981FA816A
:10366000CE0EDF1EE40CF51C2B813C812F5F3F4FFB
:103670003C832B836B817C81A616B706E4F604C0DD
:10368000A6016B817C81E4CF0F900F900F900F907B
:10369000DF91CF911F910F91FF90EF90DF90CF902E
:1036A000BF90AF909F908F907F906F905F904F9062
:1036B0003F902F9008956F927F928F929F92AF923A
:1036C000BF92CF92DF92EF92FF920F931F93CF930F
:1036D000DF93EC015B016A0139014801E881F9815E
:1036E0000284F385E02D87010995E881F981A6011F
:1036F000480D591D415051090284F385E02D930175
:10370000B501CE010995E881F9810084F185E02DAC
:103710009401A601B501CE010995E881F981B501B1
:10372000660D771D615071090084F185E02D9401CB
:10373000A601CE010995DF91CF911F910F91FF90C6
:10374000EF90DF90CF90BF90AF909F908F907F9041
:103750006F900895EF92FF920F931F93DC01ED910C
:10376000FC91240F351F215031090680F781E02D8F
:10377000780189019B0109951F910F91FF90EF90AE
:103780000895EF92FF920F931F93DC01ED91FC914E
:10379000260F371F215031090680F781E02D78016F
:1037A0008A0109951F910F91FF90EF9008956F92F4
:1037B0007F928F929F92AF92BF92CF92DF92EF92C1
:1037C000FF920F931F93CF93DF935C014A0169012E
:1037D0003801EB01C60ED71ECC15DD0574F4D501FA
:1037E000ED91FC910084F185E02D87019301A40106
:1037F000BE01C50109952196EFCFDF91CF911F91B1
:103800000F91FF90EF90DF90CF90BF90AF909F907F
:103810008F907F906F900895EF92FF920F931F9378
:10382000DC01ED91FC9111971A960D911C911B975B
:1038300018962D913C9119970684F785E02D7B0110
:1038400040E050E060E070E009951F910F91FF901B
:10385000EF9008950895FC011382128285E794E0A9
:1038600091838083758364835783468371876087E0
:1038700053874287158A158614861786168621E097
:10388000248B8FEF9FEF938B828B918B808B268B7A
:10389000178A118E108E08952F923F924F925F9249
:1038A0006F927F928F929F92AF92BF92CF92DF9250
:1038B000EF92FF920F931F93CF93DF93CDB7DEB7B5
:1038C0006A970FB6F894DEBF0FBECDBF1C015887B4
:1038D0004F831C870B87FA86E986CC82DC015896D9
:1038E0004D915C9159974115510509F0A6C0189664
:1038F0008D919C911997681779070CF056C11A960B
:103900008D919C911B97EF81F885E817F9070CF0D2
:103910004CC1D12CCB013C81F6E03F9F800D911D25
:103920001124181619060CF040C1C60103E0880FD7
:10393000991F0A95E1F74F815885840F951F181636
:1039400019060CF032C157968C91811103C0203BAF
:1039500008F02F5F7E876D874B01198214E2A12E3C
:1039600011E0B12EA61AB70A55E0259FA00CB11C94
:1039700011248981853039F0ED85FE85EA0DFB1D26
:1039800094919A8301C01A826F8078842301A8E001
:10399000AD83BA81B0FF12C0D101ED91FC91BC8121
:1039A000B13031F40480F581E02D2B853C8518C0C1
:1039B0000684F785E02DEB84FC841DC0E985FA853B
:1039C0002B853C85E217F307E1F0D101ED91FC91E5
:1039D000BC81B13059F40480F581E02D29853A8508
:1039E000A2016D857E85C10109950BC00684F7850E
:1039F000E02DE984FA8486019601A301B401C10196
:103A00000995EA81E695EA83FD81F150FD836C0C0E
:103A10007D1C2FEF421A520AF111BBCF39813F5F53
:103A200039838C0C9D1C4D855E854F5F5F4F5E8793
:103A30004D87363009F09DCFB8C0FA0134963491E5
:103A4000329785919491231BA7E02A9F800D911DA9
:103A50001124FA0125913491398B288BFC01459171
:103A600054915A8F498FFC0132965491598731965F
:103A7000A491AF873196E491FC013596249131965B
:103A80008491BC81B23050F0622E772467FC709430
:103A9000E82FFF27E7FDF095FE87ED87FC81CF2E0D
:103AA000D12C6C9C40016D9C900C7C9C900C112442
:103AB000860E971EA12C1982DE8ACD8AAB01420F99
:103AC000511D27FD5A955E834D83AF81B885A80FA0
:103AD000B11D87FDBA95B88FAF8B59818F85581767
:103AE00008F063C0852F90E02D853E85280F391F93
:103AF0002C9DD0012D9DB00D3C9DB00D1124EF816A
:103B0000F885EA0FFB1FFB83EA836D807E8024012A
:103B1000FA2D2D81F21BFA8B4F89588D480F591FB2
:103B20005C8B4B8B9A89960D862D2D81821B398556
:103B30008317B0F5977061F4898D9A8D0196E889A5
:103B4000F989298D3A8DE20FF31FB4909A8F898FEE
:103B5000B7FE1DC0D101ED91FC91BC81B13059F48B
:103B60000480F581E02D2B853C854B895C89B30170
:103B7000C10109950CC00684F785E02DEB84FC8417
:103B8000860196014A815B81B201C1010995BB0C96
:103B9000ED89FE894E0E5F1EFFEF6F1A7F0AC2CFBE
:103BA000A30E49814F5F498398CF6A960FB6F89468
:103BB000DEBF0FBECDBFDF91CF911F910F91FF9060
:103BC000EF90DF90CF90BF90AF909F908F907F90BD
:103BD0006F905F904F903F902F900895AF92BF925B
:103BE000CF92EF92FF920F931F93CF93DF93EC014D
:103BF000262F888D998D009709F042C06A3069F4AC
:103C00002C898E859F8538E0239F800D911D11247E
:103C10009F878E871D861C86ABC06D3009F4A8C0B7
:103C20008E898823C1F03C898C859D8546E0349F30
:103C3000800D911D112448855985841795075CF0E6
:103C40001D861C868E859F85E8E03E9F800D911D18
:103C500011249F878E87EA88FB88088919894E85F9
:103C60005F856C857D85CC88CE010E944C1C2C899B
:103C70008C859D85F6E02F9F800D911D112441C0FC
:103C80006A3079F41D861C864C89FC013696849135
:103C90002E853F85489F200D311D11243F872E879B
:103CA00067C06D3009F464C0AC014C5F5F4FFA012E
:103CB0003491631708F45CC03196E491E61708F478
:103CC00057C0FA014491362F341BFC013296A5905F
:103CD000B490F7E03F9FA00CB11C1124F50132967F
:103CE000A4913196E491AA2311F0E1110DC0F501E0
:103CF0003496A4902C898C859D85A29E800D911D63
:103D000011249D878C8734C0F5013596E4913E8956
:103D1000332309F13C89B0E0AE0FB11DE7FDBA9540
:103D20003A9FA0013B9F500D11246C857D85460F65
:103D3000571F68857985461757076CF01D861C86C6
:103D4000FC01369684914E855F85389F400D511D4C
:103D500011245F874E87EA88FB88088919894E8578
:103D60005F856C857D85CC88CE010E944C1CBFCFC1
:103D700081E090E0DF91CF911F910F91FF90EF9044
:103D8000CF90BF90AF900895FC01758764875787E7
:103D900046870895611101C061E0FC01648B0895BC
:103DA000FC01718B608B538B428B0895FC01668BF9
:103DB0000895CF93DF93FC01E65BFF4F2081222320
:103DC00011F080E065C0EC01C55BDF4FA881B981CF
:103DD000109741F0ED91FC9111970480F581E02D51
:103DE000CD010BC0EC01C35BDF4F88819981DC0101
:103DF000ED91FC910480F581E02D0995892B09F363
:103E000088819981DC01ED91FC910680F781E02D9C
:103E100009958A3049F59091A60AE091A40AF0919B
:103E2000A50AE90FF11D10822091A40A3091A50A7C
:103E3000BBE02F313B0739F447EA5AE05093A50A1B
:103E40004093A40A08C02FE13BE03093A50A2093D9
:103E5000A40A27EA3AE03093A30A2093A20A109218
:103E6000A60A91E09093A10AE091A40AF091A50A14
:103E70009091A60A21E0290F2093A60AE90FF11DCF
:103E800080839091A60A983718F097E79093A60A36
:103E9000DF91CF910895FC01DC01A55BBF4F119626
:103EA0001C921E92129611961C921E921092A10ABA
:103EB00013971C921092A60A8FE19BE09093A50A9B
:103EC0008093A40A87EA9AE09093A30A8093A20AB7
:103ED00015AE14AE158214821382128211821082E2
:103EE00012AE11AE10AE13AE1782168214AA15AA26
:103EF00016AA17AA10AA11AA12AA13AA14A615A6DE
:103F000016A617A610A611A612A613A614A215A2ED
:103F100016A217A210A211A212A213A2148615862D
:103F200016861786108611861286138608950F93BB
:103F30001F93CF93DF93EC018B010E944B1FC35B58
:103F4000DF4F19830883DF91CF911F910F9108955F
:103F5000FC01E55BFF4F20813181AB0160E070E047
:103F60002115310521F0C9010E94241A08C0FC0165
:103F7000E35BFF4F26E0808191810E94A0316AE0DF
:103F800070E080E090E00C94612FEF92FF920F932D
:103F90001F93DC01ED91FC9111971A960D911C91E4
:103FA0001B9718962D913C9119970684F785E02D63
:103FB0007B0140E050E060E070E009951F910F91B7
:103FC000FF90EF900895EF92FF920F931F93CF937E
:103FD000DF931F92CDB7DEB77C01062F142F40E48C
:103FE00051E060EF70E029830E942B1C8DE894E083
:103FF000F7019183808306A317A3298120A781E07D
:10400000838F13A611A60F90DF91CF911F910F916F
:10401000FF90EF900895FC01838D811122C088E00C
:1040200090E030E8A48DB58D24A5432F462321F0E0
:104030004C91422B4C9304C04C91209524232C93FB
:10404000A68DB78D2C9145A5242B2C93A68DB78DCD
:104050004C9125A5209524232C933695019711F793
:1040600008956EBD0DB407FEFDCF0895CF93DF9385
:10407000EC01E8A1F9A190818FA580958923808327
:10408000EE8DFF8D90818DA5809589238083ECA195
:10409000FDA190818EA5809589238083CE010E9409
:1040A0000B20ECA1FDA180819EA5892B8083DF914F
:1040B000CF910895662311F061E201C060E20C9493
:1040C0003620CF93DF93EC01E8A1F9A180819FA571
:1040D000892B8083EE8DFF8D90818DA5809589231E
:1040E0008083ECA1FDA190818EA58095892380839A
:1040F000CE010E940B20ECA1FDA180819EA5892B01
:104100008083DF91CF910895CF93DF93EC0161E03D
:1041100088A50E94123060E088A50E944B3061E0C3
:104120008FA10E94123061E08EA10E9412304EA138
:1041300050E0FA01E059F94FE491F0E0EE0FFF1F73
:10414000E656F94F859194919DA38CA32FA130E061
:10415000F901E059F94F849190E0880F991F865634
:10416000994FFC018591949199A388A3FA01E05B92
:10417000F94F44914EA7F901E05BF94F24912FA725
:104180008B8D882379F00E94FE188CB58C7F8CBDB6
:104190008DB581608DBD8CB58F7D8CBD8CB5837FD9
:1041A0008CBD41C061E08BA50E94123061E089A501
:1041B0000E94123060E08AA50E9412304BA550E0A8
:1041C000FA01E059F94FE491F0E0EE0FFF1FE656D7
:1041D000F94FA591B491BF8FAE8F29A530E0F901B9
:1041E000E059F94F849190E0880F991F8656994FB6
:1041F000FC01859194919D8F8C8FFA01E05BF94FC2
:1042000044914DA7F901E05BF94F24912CA78C91C3
:104210009DA5909589238C93EC8DFD8D90818CA527
:1042200080958923808361E088A50E944B3065E0FA
:1042300070E080E090E00E94612F60E088A50E941D
:104240004B3064E170E080E090E00E94612F61E01B
:1042500088A50E944B3066E970E080E090E00E9403
:10426000612F6FEECE010E94362063E0CE010E94E6
:10427000612060E8CE010E94612062E0CE010E94D0
:1042800061206FECCE010E94362060E0CE010E94DA
:10429000612061ECCE010E94612060E3CE010E94AA
:1042A00061206DEECE010E94362064E6CE010E94B0
:1042B000612063E0CE010E94612062E1CE010E9494
:1042C000612061E8CE010E94612068EECE010E946B
:1042D000362065E8CE010E94612060E0CE010E9498
:1042E000612068E7CE010E9461206BECCE010E9444
:1042F000362069E3CE010E9461206CE2CE010E946B
:10430000612060E0CE010E94612064E3CE010E9442
:10431000612062E0CE010E94612067EFCE010E9421
:10432000362060E2CE010E9461206AEECE010E943A
:10433000362060E0CE010E94612060E0CE010E9444
:10434000612060ECCE010E94362063E2CE010E9423
:10435000612061ECCE010E94362060E1CE010E9416
:10436000612065ECCE010E9436206EE3CE010E94F2
:10437000612068E2CE010E94612067ECCE010E94BC
:10438000362066E8CE010E94612066E3CE010E94DD
:10439000362068E4CE010E9461206AE3CE010E94CB
:1043A000362065E5CE010E94612061EBCE010E94BE
:1043B000362060E0CE010E94612068E1CE010E94BB
:1043C000612066EBCE010E94362068E0CE010E949B
:1043D000612062E8CE010E94612067E2CE010E9466
:1043E000612062EFCE010E94362060E0CE010E9483
:1043F000612066E2CE010E94362061E0CE010E947B
:10440000612060EECE010E9436206FE0CE010E9456
:10441000612061E3CE010E9461206BE2CE010E9427
:1044200061206CE0CE010E9461206EE0CE010E940E
:10443000612068E0CE010E9461206EE4CE010E94FE
:10444000612061EFCE010E94612067E3CE010E94EE
:10445000612067E0CE010E94612060E1CE010E94F0
:10446000612063E0CE010E9461206EE0CE010E94D7
:10447000612069E0CE010E94612060E0CE010E94CF
:10448000612061EECE010E94362060E0CE010E94E4
:1044900061206EE0CE010E94612064E1CE010E94A5
:1044A000612063E0CE010E94612061E1CE010E94A3
:1044B000612067E0CE010E94612061E3CE010E948D
:1044C000612061ECCE010E94612068E4CE010E946F
:1044D000612068E0CE010E9461206FE0CE010E9461
:1044E00061206CE0CE010E94612061E3CE010E9458
:1044F000612066E3CE010E9461206FE0CE010E9440
:10450000612061E1CE010E94362068E770E080E022
:1045100090E00E94612F69E2CE01DF91CF910C946F
:104520003620CF92DF92FF920F931F93CF93DF93AA
:1045300000D000D01F92CDB7DEB76C01F62E6AE234
:104540002B833A834D835C8379830E943620798163
:10455000672FC6010E9461206F2DC6010E94612055
:104560003A81632FC6010E9461202B81622FC60110
:104570000E9461206BE2C6010E9436205C81652F9B
:10458000C6010E9461204D81642FC6010E946120F6
:10459000612FC6010E946120602FC6010E94612028
:1045A0006CE2C6010F900F900F900F900F90DF916B
:1045B000CF911F910F91FF90DF90CF900C943620F8
:1045C000EF92FF920F931F93CF93DF93EC01F22EA4
:1045D000E32E77FD2FC0288539856217730754F5C0
:1045E00057FD28C02A853B85421753071CF58A01D1
:1045F0000F5F1F4F9B012F5F3F4F0E949122E8A149
:10460000F9A180819FA5892B8083ECA1FDA19081D8
:104610008EA58095892380836E2DCE010E940B206C
:104620006F2DCE010E940B20ECA1FDA180819EA5E3
:10463000892B8083DF91CF911F910F91FF90EF9095
:104640000895CF92DF92EF92FF920F931F93CF9333
:10465000DF93EC017901D02EC12E888599856817EA
:104660007907CCF58A859B8548175907A4F59A01E7
:104670002E0D3F1D821793071CF47C01E41AF50AE6
:104680008A010E0D1F1D015011099B01CE010E94D0
:104690009122E8A1F9A180819FA5892B8083ECA1BB
:1046A000FDA190818EA5809589238083E114F1047A
:1046B00061F06C2DCE010E940B206D2DCE010E9469
:1046C0000B2081E0E81AF108F1CFECA1FDA1808177
:1046D0009EA5892B8083DF91CF911F910F91FF9031
:1046E000EF90DF90CF900895CF92DF92EF92FF92FC
:1046F0000F931F93CF93DF93EC017901D02EC12E3E
:104700008885998568177907CCF52A853B854217F6
:104710005307A4F59B012E0D3F1D821793071CF430
:104720007C01E61AF70A9B012E0D3F1D215031092D
:104730008A01CE010E949122E8A1F9A180819FA562
:10474000892B8083ECA1FDA190818EA58095892382
:104750008083E114F10461F06C2DCE010E940B20E6
:104760006D2DCE010E940B2081E0E81AF108F1CFF7
:10477000ECA1FDA180819EA5892B8083DF91CF9143
:104780001F910F91FF90EF90DF90CF900895AF921F
:10479000BF92CF92DF92EF92FF920F931F93CF932E
:1047A000DF93EC0169015801288539856217730789
:1047B0000CF04EC08A859B85481759070CF048C0FD
:1047C000FB01EC0DFD1D2E173F071CF46901C61AF5
:1047D000D70A9A012A0D3B1D821793071CF45C012E
:1047E000A41AB50A8A010A0D1B1D015011099B016B
:1047F0002C0D3D1D21503109CE010E949122E8A1CE
:10480000F9A180819FA5892B8083ECA1FDA19081D6
:104810008EA58095892380831A141B049CF486013D
:10482000101611065CF46F2DCE010E940B206E2D28
:10483000CE010E940B2001501109F2CF81E0A81A8D
:10484000B108EACFECA1FDA180819EA5892B8083D0
:10485000DF91CF911F910F91FF90EF90DF90CF905C
:10486000BF90AF9008951F93CF93DF93EC01162F65
:1048700066E30E943620612F63706D8B623041F0D9
:10488000633089F0613011F068E403C068E20CC065
:1048900068E8CE010E94612080EF90E099878887C8
:1048A00080E491E00AC068EECE010E94612080E4BD
:1048B00091E09987888780EF90E09B878A87DF91D6
:1048C000CF911F910895FC01718360834283089505
:1048D000DC018D919C91DC01ED91FC910280F381D2
:1048E000E02D0994DC018D919C91DC01ED91FC910E
:1048F0000484F585E02D0994DC018D919C91DC0107
:10490000ED91FC910488F589E02D0994EF92FF92D6
:104910000F931F93CF93DF931F92CDB7DEB77C0128
:104920008B01622F49830E947C24D7018D919C9139
:10493000DC01ED91FC910680F781E02D4981B80101
:104940000F90DF91CF911F910F91FF90EF900994FD
:10495000DC018D919C91DC01ED91FC910688F78939
:10496000E02D09941F93CF93DF93EC01162F8881DC
:104970009981DC01ED91FC910288F389E02D099584
:10498000612FCE010E94A8241A83DF91CF911F913D
:1049900008951F93CF93DF93EC0188819981DC0107
:1049A000ED91FC910190F081E02D0995182F88235D
:1049B00021F06A81CE010E94B224812FDF91CF9134
:1049C0001F910895DC018D919C91DC01ED91FC918A
:1049D000008CF18DE02D0994DC018D919C91DC011E
:1049E000ED91FC91028CF38DE02D0994DC018D9109
:1049F0009C91DC01ED91FC91068CF78DE02D0994E2
:104A0000DC018D919C91DC01ED91FC9100A0F1A164
:104A1000E02D0994DC018D919C91DC01ED91FC91DC
:104A200002A0F3A1E02D0994DC018D919C91DC01A1
:104A3000ED91FC9104A0F5A1E02D0994AF92BF92F5
:104A4000CF92DF92EF92FF920F931F93CF93DF935A
:104A5000EC01590188819981DC01ED91FC91048080
:104A6000F581E02D0995882309F1A114B10429F0FD
:104A7000CE010E940025F50180830115110529F062
:104A8000CE010E94F624D8018C93E114F10429F0A0
:104A9000CE010E940A25F7018083C114D10441F0A0
:104AA000CE010E941425D6018C9302C080E001C083
:104AB00081E0DF91CF911F910F91FF90EF90DF90F8
:104AC000CF90BF90AF90089581E00895FC01658379
:104AD0000895FC0164830895FC0162870895FC0138
:104AE00063870895FC01648708954095FC0125853E
:104AF0004223462B45870895FC0186810895FC01D9
:104B000087810895FC0180850895FC0181850895C1
:104B100080E00895CF93DF93EC01E881F981028072
:104B2000F381E02DCE010995811103C00E94362E3C
:104B3000F4CFDF91CF910895CF93DF93EC018A8179
:104B40009B81039719F40E94362EF9CF81E0DF9103
:104B5000CF9108958F929F92AF92BF92CF92DF92A2
:104B6000EF92FF92CF93DF93EC016B010E94322F03
:104B70004B015C01E12CF12C0E94322F681979095C
:104B80008A099B096C157D058E059F0560F4E881F7
:104B9000F9810280F381E02DCE010995811105C0D4
:104BA0000E94362EE9CF80E001C081E0DF91CF91F5
:104BB000FF90EF90DF90CF90BF90AF909F908F903D
:104BC00008958F929F92AF92BF92CF92DF92EF9211
:104BD000FF92CF93DF93EC016B010E94322F4B01C8
:104BE0005C01E12CF12C0E94322F681979098A09A5
:104BF0009B096C157D058E059F0538F48A819B8184
:104C0000039729F40E94362EEECF80E001C081E0A8
:104C1000DF91CF91FF90EF90DF90CF90BF90AF905A
:104C20009F908F900895FC0185EA94E091838083A2
:104C3000138212828FEF848382878387148615867E
:104C4000108A1786128A118A148A138A0895FC0121
:104C50008685089508950895FC01758364830895F9
:104C6000FC01778366830895FC0173836283089552
:104C7000FC0181ED94E0918380837383628355838B
:104C800044833783268308956EBD00000DB407FE6C
:104C9000FDCF8EB508958CB580688CBD08958CB518
:104CA0008F778CBD0895FC01268137812115310550
:104CB00079F02130310541F02230310539F02330CF
:104CC000310531F49CE005C094E003C098E001C0D8
:104CD00090E08CB5837F892B8CBD84819581019771
:104CE00019F48CB5806202C08CB58F7D8CBD828139
:104CF000938101978430910528F4FC01EF51FB4F1B
:104D0000908101C091E02CB5892F83702C7F822B7C
:104D10008CBD8DB592FB992790F98E7F892B8DBD27
:104D20000C94FE180C943419CF93DF93EC010E947D
:104D3000382689EE94E099838883DF91CF91089596
:104D400020E030E040E050E060E070E087E99BE088
:104D50000C949426CF93DF93EC010E9463241B8272
:104D60001C821D821E821F8288EC90E099878887B2
:104D700083E08A87DF91CF9108950F931F93CF939C
:104D8000DF9300D0CDB7DEB78C014A830E94E224C6
:104D900040E060E8C8010E94EC2481E289832A8116
:104DA00041E0BE016F5F7F4FC8010E948624C801A9
:104DB0000E9472240F900F90DF91CF911F910F915D
:104DC00008952F923F924F925F926F927F928F92AF
:104DD0009F92AF92BF92CF92DF92EF92FF920F938A
:104DE0001F93CF93DF93CDB7DEB728970FB6F89414
:104DF000DEBF0FBECDBF5C0119012801470136019E
:104E00004F8358876D837E830E9468244F81588525
:104E10006D817E81882329F1CE0101966C01DE012E
:104E200012967D018E010D5F1F4F9E012C5F3F4F3B
:104E3000C5010E941E25182F882399F0898187FDBE
:104E400010C08B818F3F29F04C816A81C5010E947F
:104E5000BD268A819C81F501E90FF11D238582130E
:104E600002C010E017C02114310411F0D1019C934D
:104E70004114510419F09B81D2019C938114910437
:104E800011F0D4018C936114710419F09981D3014C
:104E90009C938387812F28960FB6F894DEBF0FBEB0
:104EA000CDBFDF91CF911F910F91FF90EF90DF90D9
:104EB000CF90BF90AF909F908F907F906F905F90BA
:104EC0004F903F902F900895CF93DF93EC018D8901
:104ED0009E89DC01ED91FC910680F781E02D09951A
:104EE00061E08F890E94123061E08F890E944B300F
:104EF00064E670E080E090E00E94612F81E0DF9145
:104F0000CF910895EF92FF920F931F93CF93DF936A
:104F10001F92CDB7DEB77C018A0169830E941326F8
:104F20008DEF94E0F70191838083168B058B698167
:104F3000678B0F90DF91CF911F910F91FF90EF90B2
:104F400008950F931F93CF93DF93EC01062F1FB7A4
:104F5000F89460E08F890E944B308D899E89DC0136
:104F6000ED91FC91602F6F770190F081E02D099514
:104F70008D899E89DC01ED91FC910190F081E02DFD
:104F800060E00995082F61E08F890E944B301FBFB8
:104F9000802FDF91CF911F910F910895EF92FF9293
:104FA0000F931F93CF93DF931F92CDB7DEB77C0192
:104FB000162F0FB7F89460E0DC0157968C91498367
:104FC0000E944B30F70185899689DC01ED91FC91B7
:104FD000612F60680190F081E02D0995182FF7018D
:104FE00085899689DC01ED91FC910190F081E02D9D
:104FF0004981642F099561E0F70187890E944B3050
:105000000FBF812F0F90DF91CF911F910F91FF90D4
:10501000EF900895AF92BF92DF92EF92FF920F93BD
:105020001F93CF93DF9300D0CDB7DEB78C01D62E80
:10503000F22EEFB6F89460E0DC0157968C9149832C
:105040005A830E944B30F80185899689DC01ED91E5
:10505000FC916D2D6F770190F081E02D0995D82E90
:105060004981A42E5A81B52EF40EFA1479F0F80174
:1050700085899689DC01ED91FC910190F081E02D0C
:1050800060E00995F50181935F01EFCF61E0D80100
:1050900057968C910E944B30EFBE8D2D0F900F9044
:1050A000DF91CF911F910F91FF90EF90DF90BF9014
:1050B000AF900895AF92BF92DF92EF92FF920F935D
:1050C0001F93CF93DF9300D0CDB7DEB78C01D62EE0
:1050D000F22EEFB6F89460E0DC0157968C9149838C
:1050E0005A830E944B30F80185899689DC01ED9145
:1050F000FC916D2D60680190F081E02D0995D82E0E
:105100004981A42E5A81B52EF40EFA1471F0F801DB
:1051100085899689D5016D915D01DC01ED91FC9148
:105120000190F081E02D0995F0CF61E0F8018789C9
:105130000E944B30EFBE8D2D0F900F90DF91CF91DD
:105140001F910F91FF90EF90DF90BF90AF90089567
:10515000CF93DF93EC018F890E94813021E0892B6E
:1051600009F420E08A8D8227DF91CF910895FC0118
:10517000808D0C944B30FC01238D6227818D0C9423
:105180004B30CF93DF93EC018A819B81029761F0D2
:1051900060E0CE010E94BB2860E0CE010E94B728EB
:1051A00082E090E09B838A83DF91CF910895862FE0
:1051B00086958695887098E0980F891749F0E82FB2
:1051C000F0E0EB5DFA4F2081621719F08F5FF5CFA9
:1051D00080E008951F93CF93DF93EC010E94A828ED
:1051E000882319F09F8D9F5F9F8F9E8D891771F087
:1051F00098A1903518F42BE030E002C02DE130E0AA
:1052000098A1290F311D28A38E8F03C088A18C5E21
:1052100088A388A1803A08F46EC08AA19BA19695C4
:1052200087959BA38AA38F8D853028F08AA19BA1A7
:1052300098609BA38AA388A1805A88A31F8E89A106
:10524000882309F446C08CA18F5F8CA38C3008F4AE
:1052500052C06AA17BA16F73CE010E94D728182F7C
:105260006AA17BA146E0769567954A95E1F7CE0164
:105270000E94D72890E1199F90011124822BBE0132
:1052800067597F4FFB019081DE01A859BF4F9923D9
:10529000B1F0FB01908121E0290F2083AE01490F7D
:1052A000511DFA0185A3FB0190818C91981778F02C
:1052B00019A281E08C8FCE010E94C12808C08C9376
:1052C0009C91973090F09C91943478F4E2CF1CA29A
:1052D00012C08AA19BA188339B4069F481E089A315
:1052E0001CA2C759DF4F188206C019A28F85988962
:1052F0000196988B8F87DF91CF911F910895CF9260
:10530000DF92EF92FF920F931F93CF93DF93EC0105
:105310008C0104591F4FF801808191E0980F908310
:10532000811136C06E01FAE6CF0ED11CF6018081E4
:10533000EF56FF4F9081891748F0CE010E94C12897
:105340008B899C8901969C8B8B8B22C0FE01E80F78
:10535000F11DE359FF4F608170E07E01FBE6EF0E27
:10536000F11CF701808191E0980F908302C0759540
:1053700067958A95E2F76170CE010E94B728F70120
:105380008081863028F01082F60180818F5F8083D3
:10539000F8018081883008F01082DF91CF911F9151
:1053A0000F91FF90EF90DF90CF900895FC01228144
:1053B00033812430310511F40C94EA28FC01228158
:1053C00033812330310511F40C947F2908951F9205
:1053D0000F920FB60F9211240BB60F922F933F939B
:1053E0004F935F936F937F938F939F93AF93BF93ED
:1053F000EF93FF9380919F0B9091A00B0E94D62971
:10540000FF91EF91BF91AF919F918F917F916F919C
:105410005F914F913F912F910F900BBE0F900FBE58
:105420000F901F9018958BEF0895CF93DF93EC01A9
:105430008A819B81019749F040E061E0CE010E94A2
:10544000CE2781E090E09B838A8381E0DF91CF913A
:1054500008951F93CF93DF93EC01142FA9010E94AD
:10546000822789E595E099838883FE01E65EFE4FF9
:105470001082188F8FEF898FDF91CF911F91089540
:10548000FC01828D8430D8F0838D8683848D878360
:10549000858D8087868D81878581811107C0968162
:1054A0008481981719F086818F3F49F48189928908
:1054B0000196928B818BE65EFE4F81E0808308959A
:1054C0002FB7F894FC01E65EFE4F1082FC01128EAD
:1054D0002FBF0895CF92DF92EF92FF920F931F9309
:1054E000CF93DF93EC017B018A01E881F98102808F
:1054F000F381E02D0995D82E882311F1E114F104F0
:10550000E1F001151105C9F0CFB6F8942A8D30E00D
:1055100023503109F801408150E0421753071CF035
:105520009A8D94509083F801408150E0BE01615EF5
:105530007F4FC7010E947F39CFBECE010E94602AF3
:105540008D2DDF91CF911F910F91FF90EF90DF9004
:10555000CF900895CF92DF92EF92FF92CF93DF9397
:10556000EC01CB01BA0120E034E244E759E40E94A7
:105570003B3820E034E244E752E40E945E360E9469
:10558000CB366B017C01A7016627772766E0CE0149
:105590000E94CE2777276F2D5E2D4D2D67E0CE011F
:1055A0000E94CE274C2D68E0CE010E94CE2781E0DC
:1055B000DF91CF91FF90EF90DF90CF900895CF9340
:1055C000DF93EC018A819B81029749F041E061E021
:1055D000CE010E94CE2782E090E09B838A83DF91F8
:1055E000CF9108951F93CF93DF93EC0162E10E9466
:1055F000A1272A813B812430310519F4982F907A14
:1056000041F42A813B8124303105E1F586FD0EC04D
:1056100039C08F8598890196988B8F874FEF62E10B
:10562000CE01DF91CF911F910C94CE2763E1CE0183
:105630000E94A127182F60E1CE010E94A127482FC8
:105640006DE0CE010E94CE27212FAE01455E5F4F57
:1056500060E0CE010E940A281A8F4FEF62E1CE016E
:105660000E94CE276AE1CE010E94A12789588E8729
:10567000CE010E94402AFE01E65EFE4F8081882313
:1056800069F20CC02A813B812330310539F683FF52
:10569000C5CF8B899C8901969C8B8B8BCE010E94F8
:1056A000DF2ABCCF8091A20B9091A30B009711F041
:1056B0000C94F22A08958091A40B9091A50B009769
:1056C00011F00C94F22A08958091A60B9091A70BEB
:1056D000009711F00C94F22A0895CF93DF93EC0118
:1056E0008A819B81049771F045E061E0CE010E94C0
:1056F000CE2740E060E4CE010E94CE2784E090E017
:105700009B838A83DF91CF910895CF93DF93EC0140
:105710008A819B81039739F0CE010E946D2BC65E72
:10572000DE4F888101C080E0DF91CF910895CF9353
:10573000DF93EC018A819B81039771F043E061E084
:10574000CE010E94CE2740E460E4CE010E94CE2725
:1057500083E090E09B838A83DF91CF910895FF924D
:105760000F931F93CF93DF93EC018B01F42E8BEFFC
:105770008417A0F1E881F9810484F585E02DCE013C
:105780000995CE010E94DF2A40E06DE0CE010E9423
:10579000CE274A8560E0CE010E94CE274B8560E08F
:1057A000CE010E94CE274C8560E0CE010E94CE271C
:1057B0004D8560E0CE010E94CE272F2DA80160E02C
:1057C000CE010E945A2844E04F0D62E2CE010E94B1
:1057D000CE27CE010E94972B81E001C080E0DF91AF
:1057E000CF911F910F91FF9008951F93CF93DF9357
:1057F000EC01162F68312CF465305CF0653154F003
:1058000001C017E147E06DE4CE010E94CE2713509E
:1058100006C015E044E06DE4CE010E94CE274BEFB8
:10582000410F406869E0CE01DF91CF911F910C9448
:10583000CE270F931F93CF93DF93EC018B01FB01D6
:1058400040816DE10E94CE27F80141816EE1CE01D9
:105850000E94CE27F801428166E2CE01DF91CF910E
:105860001F910F910C94CE270F931F93CF93DF932B
:1058700000D01F92CDB7DEB78C0165307105B4F44E
:105880009B01220F331F260F371F2C5D394F43E03A
:1058900050E0B901CE0101960E947639BE016F5FDA
:1058A0007F4FC8010E94192C81E001C080E00F9059
:1058B0000F900F90DF91CF911F910F9108951F933B
:1058C000CF93DF93EC01162F472F60E20E94CE2783
:1058D000412F61E2CE01DF91CF911F910C94CE2731
:1058E000FF920F931F93CF93DF93EC010E946427E5
:1058F000F82E811102C0F12CA5C0888D8A3039F0B4
:105900008B3041F0823049F402E010E008C000E042
:1059100010E005C001E010E002C00FEF1FEF68E3E8
:1059200075E081EB9BE00E94AA334AE050E06AE018
:1059300070E081EB9BE00E946A3460E475E081EBEB
:105940009BE00E94AA334AE050E0688D81EB9BE027
:105950000E94963469E475E081EB9BE00E94AA33D3
:105960004AE050E0B80181EB9BE00E946A340F3FAF
:105970008FEF180709F4BFCF40E861E0CE010E9425
:10598000CE276AE070E080E090E00E94612F61E045
:10599000CE010E94A127803809F0ADCF60E0888D4C
:1059A0000E941230898D8F3F51F48091A10B843079
:1059B00008F0A1CF91E0980F9093A10B898F998D5A
:1059C000E92FF0E0EE0FFF1FEE55F44FD183C083B7
:1059D000911105C043E050E062E57BE20EC09130DA
:1059E00029F443E050E06BE57BE207C0923009F018
:1059F00082CF43E050E064E67BE2802F0E94382EA5
:105A000040E06EE0CE010E94CE2740E06FE0CE0184
:105A10000E94CE27CE010E94DF2A60E070E0CE0116
:105A20000E94342C68E070E0CE010E945F2C40E0C0
:105A300050EC64E674E4CE010E94AA2A6DE0CE0127
:105A40000E94F52B8F2DDF91CF911F910F91FF9029
:105A500008958EBD00000DB407FEFDCF8EB50895EC
:105A6000FC0180E58583168260835283418308951B
:105A7000FC018CB583838DB584833581268180912B
:105A80005B0A882399F09FB7F89480915B0A813074
:105A900059F48DB38093590A4DB380915A0A809579
:105AA00084238DBB9FBF02C09093590A3CBD2DBD7E
:105AB00060E080810C944B30CF93DF93EC0161E088
:105AC00088810E944B3080915B0A882361F09FB7E8
:105AD000F89420915B0A8091590A213019F48DBB0A
