:100000000C941C090C9436500C9461500C948C5038
:100010000C944A240C944A240C944A240C944A24A8
:100020000C944B090C944B090C944B090C944B0900
:100030000C944B090C94CF490C944B090C944B092C
:100040000C9437100C944B090C94B7500C944B093A
:100050000C94F9530C942F540C944B090C944B09A9
:100060000C944B090C944B090C944B090C944B09C0
:100070000C94A6540C94DC540C944B090C944B092E
:100080000C944B090C944B090C944B092F15351605
:10009000E1172119A41AD71B061C781CEE51F15147
:1000A000E451E85108520852F551F951FF510352F9
:1000B000084AD73B3BCE016E84BCBFFDC12F3D6CCF
:1000C00074319ABD56833DDA3D00C77F11BED9E435
:1000D000BB4C3E916BAAAABE000000803F072C7A61
:1000E000A5BA6CC590DA3B9365FC8BBC53F810FD48
:1000F0003C5692834DBD879D3AB63DCBC9BF5BBE92
:1001000073DA0FC93F05A84CCDB2D44EB93836A921
:10011000020C50B9918688083CA6AAAA2ABE000003
:1001200000803F002A0024002A0024000A2A2A2AEC
:100130002A2A2A2A2A2020204C6F672064756D7095
:10014000202A2A2A2A2A2A2A2A00556E6B6E6F77BD
:100150006E204C434420647269766572206368693E
:10016000703A200053657475702066696E69736813
:100170006564004C6F672023207265636F7264733F
:100180002073617665643A004C6F67206E65787401
:10019000207265616420616464723A004C6F67206C
:1001A0006E65787420777269746520616464723A50
:1001B000004C6F67206461746120696E69746961C5
:1001C0006C697A6564004750532054454C454D4551
:1001D00054525900696E6974206661696C656400E7
:1001E000496E697469616C697A696E672E2E2E009A
:1001F00047505320414E442054454C454D455452A0
:1002000059204D4F44554C450000000000000000AF
:1002100000000000000000000000000000000000DE
:1002200000000000000000000000000000000000CE
:1002300000000000000000000000000000000000BE
:1002400000000000000000000000000000000000AE
:10025000000000000000000000000000000000009E
:10026000000000000000000000000000000000008E
:10027000000000000000000000000000000000007E
:10028000000000000000000000000000000000006E
:10029000000000000000000000000000000000005E
:1002A000000000000000000000000000000000004E
:1002B000000000000000000000000000000000003E
:1002C000000000000000000000000000000000002E
:1002D000000000000000000000000000000000001E
:1002E000000000000000000000000000000000000E
:1002F00000000000000000000000000000000000FE
:1003000000000000000000000000000000000000ED
:1003100000000000000000000000000000000000DD
:1003200000000000000000000000000000000000CD
:1003300000000000000000000000000000000000BD
:1003400000000000000000000000000000000000AD
:10035000000000000000000000000000000000009D
:10036000000000000000000000000000000000008D
:10037000000000000000000000000000000000007D
:10038000000000000000000000000000000000006D
:10039000000000000000000000000000000000005D
:1003A000000000000000000000000000000000004D
:1003B000000000000000000000000000000000003D
:1003C000000000000000000000000000000000002D
:1003D000000000000000000000000000000000001D
:1003E000000000000000000000000000000000000D
:1003F00000000000000000000000000000000000FD
:1004000000000000000000000000000000000000EC
:100410000000000000000000000000000003F000E9
:10042000000000000000000000000000001FFC00B1
:1004300000000000000000000000000001FFFE00BE
:100440000000000000000000000000001FFFFF800F
:100450000000000000000000000000003FFF1BE063
:100460000000000000000000000000003FFF81F8D5
:100470000000000000000000000000001C1FCFFE74
:10048000000000200000000000000000070077FFCF
:10049000800001C000000000000000000387FDFF95
:1004A000E0000E1E000000000000000000FFFF0042
:1004B000300030FF4000000000000000007FFF809F
:1004C000180887FFF000000000000000001C00601A
:1004D000FC27BFFFF000000000000000000700073D
:1004E000F80FFFF800000000000000000001803F4E
:1004F000E7FFEF800C00000000000000000041FF5B
:1005000083FFF0003C00000000000000000017FC2A
:1005100000FF7801FC0000000000000000000FE078
:1005200007FFFC07F80000000000000000000708BB
:100530003FEFFC1FF80000000000000000000C610D
:10054000FFFC7E7FF0000000000003E00000038756
:10055000FF803FFFF0000000000007FC00001C1FB0
:10056000FC003FFFF000000000000FFC0001807F56
:10057000C007FFFFE000000000000FF6000039FF99
:100580000007FFFFE000000000000FFB20001FFC41
:100590000005FFFFE000000000001FF850007FF0A2
:1005A000001FFFFFC000000000001FF82803FDC06F
:1005B000007FFFFFC000000000001FFC340FFE00A2
:1005C00003FFFFFF0000000000001FF71811FD00EF
:1005D0000FFFFFFF0000000000001FF38C07FF006B
:1005E0003FFFFFF80000000000001FF1961FDF81B1
:1005F000FFFFFFE00000000000001FF0E4BFE7C7BE
:10060000FFFFFF8E0000000000000FF0623FF7FFC9
:10061000FFFFF203FE00000000000FE0729E3BFFB0
:10062000FFFFC801FFE0000000000BE0990FFFFF93
:10063000FFFFE0007FFF000000000FE10D0FFFFF54
:10064000FFFC7FF81FFFC00000000F420587FFFF7F
:10065000FFFC3FFFEFFF8000000007C00187FFFFA6
:10066000FFF81FFFFBFE0000000007C403C7FFFFE9
:10067000FFE007FFFFFFE000000007C837EBFFFFC8
:10068000FF8003FFFFFFFF00000007DF8FFBFFFF7E
:10069000FE0000FFFFCFFFE0000003A207BFFFFF47
:1006A000F800003FFF87FFF8000003C0067FFFDF70
:1006B000E000001FFFFBFFFE000003C0002FF79FBC
:1006C000C0000007FFFFFFFF000001C000BF061EC3
:1006D00000000003F7FFFFFFC00001C0009F181CCF
:1006E00000000000DFFFEFFFE00003E0009F0030AC
:1006F000000000003FFFFFFFF00005E0019F00C089
:10070000000000001BFFFFFFE0001F6E010F8000D4
:100710000000000007FFFFFFC000187FE10F80000E
:1007200000000000037FFFFD00000037FF0F800086
:100730000000000000FFFEFE00000037FFE7800021
:1007400000000000006FFFFC0000001BFFFF8000A6
:1007500000000000001FFFD800000003FFFF800022
:10076000000000000005EFE000000003FFFF800034
:1007700000000000000BFFC000000000FFFF800031
:10078000000000000000BC80000000007FFF80002F
:10079000000000000001690000000000BFFF000031
:1007A0000000000000005E0000000001DFFF00000C
:1007B000000000000000180000000000EFFF000033
:1007C00000000000000000000000000073FB0000BB
:1007D00000000000000000000000000039FA0000E6
:1007E0000000000000000000000000001EFE0000ED
:1007F00000000000000000000000000008B400003D
:10080000000000000000000000000000025800008E
:100810000000000000000000000000000060000078
:1008200000000000000000000000000000000000C8
:1008300000000000000000000000000000000000B8
:1008400000000000000000000000000000000000A8
:100850000000000000000000000000000000000098
:100860000000000000000000000000000000000088
:100870000000000000000000000000000000000078
:100880000000000000000000000000000000000068
:100890000000000000000000000000000000000058
:1008A0000000000000000000000000000000000048
:1008B0000000000000000000000000000000000038
:1008C0000000000000000000000000000000000028
:1008D0000000000000000000000000000000000018
:1008E0000000000000000000000000000000000008
:1008F00000000000000000000000000000000000F8
:1009000000000000000000000000000000000000E7
:1009100000000000000000000000000000000000D7
:1009200000000000000000000000000000000000C7
:1009300000000000000000000000000000000000B7
:1009400000000000000000000000000000000000A7
:100950000000000000000000000000000000000097
:100960000000000000000000000000000000000087
:100970000000000000000000000000000000000077
:100980000000000000000000000000000000000067
:100990000000000000000000000000000000000057
:1009A0000000000000000000000000000000000047
:1009B0000000000000000000000000000000000037
:1009C0000000000000000000000000000000000027
:1009D0000000000000000000000000000000000017
:1009E0000000000000000000000000000000000007
:1009F00000000000000000000000000000000000F7
:100A000000000000000000000000000000003E5B4D
:100A10004F5B3E3E6B4F6B3E1C3E7C3E1C183C7E4B
:100A20003C181C577D571C1C5E7F5E1C00183C1830
:100A300000FFE7C3E7FF0018241800FFE7DBE7FF2C
:100A400030483A060E2629792926407F05050740B9
:100A50007F05253F5A3CE73C5A7F3E1C1C08081C7A
:100A60001C3E7F14227F22145F5F005F5F06097FB8
:100A7000017F006689956A606060606094A2FFA251
:100A80009408047E040810207E201008082A1C0800
:100A9000081C2A08081E101010100C1E0C1E0C300A
:100AA000383E3830060E3E0E060000000000000002
:100AB0005F00000007000700147F147F14242A7FC2
:100AC0002A1223130864623649562050000807038F
:100AD00000001C2241000041221C002A1C7F1C2A0D
:100AE00008083E0808008070300008080808080060
:100AF0000060600020100804023E5149453E00425B
:100B00007F400072494949462141494D331814122A
:100B10007F1027454545393C4A4949314121110952
:100B2000073649494936464949291E000014000044
:100B3000004034000000081422411414141414005E
:100B40004122140802015909063E415D594E7C12AA
:100B500011127C7F494949363E414141227F414142
:100B6000413E7F494949417F090909013E414151BF
:100B7000737F0808087F00417F41002040413F010A
:100B80007F081422417F404040407F021C027F7F4B
:100B90000408107F3E4141413E7F090909063E415C
:100BA00051215E7F09192946264949493203017FAF
:100BB00001033F4040403F1F2040201F3F4038403E
:100BC0003F631408146303047804036159494D43D7
:100BD000007F4141410204081020004141417F044F
:100BE0000201020440404040400003070800205436
:100BF0005478407F28444438384444442838444496
:100C0000287F385454541800087E090218A4A49C64
:100C1000787F0804047800447D40002040403D0077
:100C20007F1028440000417F40007C047804787CD9
:100C3000080404783844444438FC18242418182440
:100C40002418FC7C08040408485454542404043F29
:100C500044243C4040207C1C2040201C3C40304030
:100C60003C44281028444C9090907C4464544C445C
:100C700000083641000000770000004136080002FD
:100C8000010204023C2623263C1EA1A161123A4027
:100C900040207A385454555921555579412254549D
:100CA0007842215554784020545579400C1E527298
:100CB0001239555555593954545459395554545875
:100CC0000000457C410002457D420001457C407D9D
:100CD0001211127DF0282528F07C5455450020542F
:100CE000547C547C0A097F4932494949323A444488
:100CF000443A324A4848303A4141217A3A42402007
:100D000078009DA0A07D3D4242423D3D4040403D97
:100D10003C24FF2424487E4943662B2FFC2F2BFFC5
:100D20000929F620C0887E09032054547941000027
:100D3000447D413048484A32384040227A007A0A9D
:100D40000A727D0D19317D2629292F282629292966
:100D50002630484D40203808080808080808083898
:100D60002F10C8ACBA2F102834FA00007B000008FE
:100D7000142A142222142A14085500550055AA5585
:100D8000AA55AAFF55FF55FF000000FF00101010E4
:100D9000FF00141414FF001010FF00FF1010F010DB
:100DA000F0141414FC001414F700FF0000FF00FFFF
:100DB0001414F404FC141417101F10101F101F1427
:100DC00014141F00101010F0000000001F1010106D
:100DD000101F10101010F010000000FF1010101065
:100DE0001010101010FF10000000FF140000FF0092
:100DF000FF00001F10170000FC04F4141417101754
:100E00001414F404F40000FF00F714141414141460
:100E100014F700F7141414171410101F101F1414D3
:100E200014F4141010F010F000001F101F00000048
:100E30001F14000000FC140000F010F01010FF1050
:100E4000FF141414FF141010101F00000000F01005
:100E5000FFFFFFFFFFF0F0F0F0F0FFFFFF000000EA
:100E60000000FFFF0F0F0F0F0F3844443844FC4AB7
:100E70004A4A347E02020606027E027E0263554919
:100E800041633844443C04407E201E2006027E021A
:100E90000299A5E7A5991C2A492A1C4C7201724C9B
:100EA000304A4D4D303048784830BC625A463D3E5D
:100EB000494949007E0101017E2A2A2A2A2A4444FE
:100EC0005F444440514A444040444A51400000FF7E
:100ED0000103E080FF000008086B6B08361236241F
:100EE00036060F090F060000181800000010100049
:100EF0003040FF0101001F01011E00191D171200E3
:100F00003C3C3C3C000000000000000100FF0032BF
:100F1000000100000102000007030030100400007F
:100F20000008000202090000000A0000000C000096
:100F3000000D0000000F000000100000001100076D
:100F4000001200000013000000FF00C80010009015
:100F50001611002702FF00320012001A00FF0032B3
:100F6000001300001829002A00FF003200300000A2
:100F70000031000000320000003500060236000893
:100F8000083700070038000102390000003C00006B
:100F9000003D000000200000002100000050000083
:100FA000005100EF005200000053003F01600000BC
:100FB000A7610003006A000000900010009200008A
:100FC00000930003009500001197000000980000B6
:100FD00000070033010100B903FF8357FFFAB30490
:100FE00000000606B60125B00168CC0105B1060077
:100FF000151C1C83AAC0065050013C1E08B40702F1
:1010000040002A2A0D783A01553601C035010044C6
:101010000200021100FF962900FF322E89298F2B32
:1010200002E200E401E510E601E710E870F200EAF0
:1010300000EB20EC3CEDC8E938F1011B1A1A022440
:1010400061255C183619011F88FF051F80FF051FE9
:1010500090FF051FD4FF05170536092838FF2828FB
:101060003C02000300040005EF0600070008010928
:101070003F72740092740048940078C4000000002D
:10108000010200090A000000000403080700000034
:101090000000000000000000000000000001020449
:1010A0000810204080010204081020408001020442
:1010B0000810204080010204081020408002020233
:1010C00002020202020404040404040404030303ED
:1010D00003030303030101010101010101000020D9
:1010E0000023002600290000002200250028002BF4
:1010F0000000002100240027002A004E414E494EE6
:10110000495459494E46CDCCCC3D0AD7233C17B75C
:10111000D13877CC2B329595E6241FB14F0A0000C9
:1011200020410000C84200401C4620BCBE4CCA1BE7
:101130000E5AAEC59D7400407A10F35A00A0724E4C
:1011400018090010A5D4E80000E87648170000E46C
:101150000B54020000CA9A3B000000E1F5050000B4
:1011600080969800000040420F000000A086010019
:101170000000102700000000E803000000006400E9
:10118000000000000A000000000001000000000054
:101190002C76D888DC674F0823DFC1DFAE59E1B178
:1011A000B796E5E3E453C63AE651997696E8E6C287
:1011B0008426EB898C9B62ED407C6FFCEFBC9C9F8E
:1011C00040F2BAA56FA5F490055A2AF75C936B6CB0
:1011D000F9676DC11BFCE0E40D47FEF520E6B500A4
:1011E000D0ED902E0300943577050080841E080012
:1011F00000204E0A000000C80C333333330F986EC2
:1012000012831141EF8D2114893BE65516CFFEE67E
:10121000DB18D1844B381BF77C1D901DA4BBE42444
:10122000203284725E228100C9F124ECA1E53D27C1
:10123000B11188466354105511241FBECFEFD0E47E
:10124000DEBFCDBF15E0A0E0B1E0EAEEF7EC00E0D4
:101250000BBF02C007900D92A238B107D9F72DE05D
:10126000A2E8B5E001C01D92AF31B207E1F712E18B
:10127000C8E3D2E100E006C022970109FE010BBFDE
:101280000E945C5CC033D10780E00807A9F70E9488
:1012900054550C94F3630C9400008F929F92AF927C
:1012A000BF92CF92DF92EF92FF92CF93DF93EC0148
:1012B0006A017B018DE49AE00E94974D8F3FD1F542
:1012C000B701A6014150504F6F4F7F4F8DE49AE018
:1012D0000E94974D8F3F71F58C89882309F44FC088
:1012E00080E1D80EE11CF11C66E171E083EE9BE029
:1012F0000E94C4552AE030E0B701A60183EE9BE0CE
:101300000E94EF56B701A6018DE49AE00E94974D26
:10131000460157019FEF891A990AA90AB90A8F3223
:10132000F1F4B501A4018DE49AE00E94974D8A3250
:10133000B1F421C0B701A6018DE49AE00E94F94DF5
:101340006DE271E083EE9BE00E94C4552AE030E03C
:10135000B701A60183EE9BE00E94EF56BDCF750159
:1013600064018114910488E0A806B10458F2C12CEC
:10137000D12C7601C7CFCC82DD82EE82FF82DF9155
:10138000CF91FF90EF90DF90CF90BF90AF909F9064
:101390008F900895CF93DF93EC018DE49AE00E9443
:1013A000ED4D1C821D821E821F82188219821A82B4
:1013B0001B82188619861A861B861C8ADF91CF919C
:1013C00008954F925F926F927F928F929F92AF9209
:1013D000BF92CF92DF92EF92FF920F931F93CF9322
:1013E000DF93CDB7DEB7A4970FB6F894DEBF0FBE7C
:1013F000CDBF29A33AA34BA35CA3E986FA860B874A
:101400001C87840125E33AEF4EE85CE30E94125BFF
:101410002B013C0125E33AEF4EE85CE369A17AA198
:101420008BA19CA10E94125B6D877E878F87988B12
:101430000E94E4586D8B7E8B8F8B988FC301B20115
:101440000E94E45869837A838B839C839B01AC015F
:101450006D897E898F89988D0E94125B6D8B7E8B42
:101460008F8B988F6D857E858F8598890E94755B9F
:1014700029813A814B815C810E94125B69837A8366
:101480008B839C83C301B2010E94755B6D837E8355
:101490008F83988725E33AEF4EE85CE369857A8588
:1014A0008B859C850E94125B2B013C0125E33AEF62
:1014B0004EE85CE3C601B5010E94125B69877A873A
:1014C0008B879C870E94E458698B7A8B8B8B9C8BD3
:1014D000C301B2010E94E4586D877E878F87988B85
:1014E0009B01AC0169897A898B899C890E94125B76
:1014F000698B7A8B8B8B9C8B69857A858B859C8598
:101500000E94755B2D853E854F8558890E94125B30
:101510006D8F7E8F8F8F98A3C301B2010E94755B80
:1015200069877A878B879C8729893A894B895C8967
:101530006D897E898F89988D0E9453582B013C01BB
:101540002D8D3E8D4F8D58A169817A818B819C8133
:101550000E9453586D877E878F87988B29853A859F
:101560004B855C856D817E818F8198850E94535863
:10157000698F7A8F8B8F9C8FA3019201C301B20177
:101580000E94125B2B013C012D853E854F855889B9
:10159000CA01B9010E94125B9B01AC01C301B201F7
:1015A0000E9454582B013C01298D3A8D4B8D5C8D46
:1015B000CA01B9010E94125B9B01AC01C301B201D7
:1015C0000E94545829E93AE743E156E50E94125B2C
:1015D0000E947F5B20E030E040E05FE30E94125B0E
:1015E0002B013C019B01AC010E94125B9B01AC01F1
:1015F00069E97AE783E196E50E9453580E947F5B90
:101600009B01AC01C301B2010E94E7580E94B85887
:1016100020E33EE442EC5AE40E94125B9B01AC01E1
:101620000E9454586D877E878F87988B20E030E02A
:10163000A9010E94E058811108C0AFA9B8AD1D9260
:101640001D921D921C92139761C129853A854B8585
:101650005C8569817A818B819C810E94125B2B0160
:101660003C012D8D3E8D4F8D58A16D817E818F81E6
:1016700098850E94125B9B01AC01C301B2010E94DC
:1016800053582B013C0129893A894B895C896D812A
:101690007E818F8198850E94125B6D837E838F830C
:1016A000988729853A854B855C856D897E898F89E8
:1016B000988D0E94125B9B01AC016D817E818F81B0
:1016C00098850E945358698F7A8F8B8F9C8F2D8DB0
:1016D0003E8D4F8D58A16D897E898F89988D0E948E
:1016E000125B6D837E838F83988729893A894B8922
:1016F0005C8969817A818B819C810E94125B9B014C
:10170000AC016D817E818F8198850E945358698BD1
:101710007A8B8B8B9C8BA3019201C301B2010E9437
:10172000125B6D837E838F839887298D3A8D4B8DD5
:101730005C8DCA01B9010E94125B9B01AC016D81F5
:101740007E818F8198850E9454586D837E838F831C
:10175000988729893A894B895C89CA01B9010E9415
:10176000125B9B01AC016D817E818F8198850E9407
:1017700054580E947F5B6D837E838F839887898115
:101780009A81AB81BC81B05889839A83AB83BC8337
:101790009C01AD01BC01CD010E94125B69877A8773
:1017A0008B879C872D893E894F89588DCA01B90145
:1017B0000E94125B9B01AC0169857A858B859C85B3
:1017C0000E94545820E030E0A9010E9454580E9421
:1017D0007F5B69877A878B879C879B01AC016981D6
:1017E0007A818B819C810E94E75869837A838B83FD
:1017F0009C832D813E814F815885C301B2010E9497
:10180000E7589B01AC0169817A818B819C810E94A0
:10181000125B69837A838B839C8329853A854B8508
:101820005C856D897E898F89988D0E94E7582B0190
:101830003C012D813E814F815885698D7A8D8B8D3C
:101840009C8D0E94E7589B01AC01C301B2010E942C
:10185000125B9B01AC0169817A818B819C810E9422
:1018600054582B013C0129853A854B855C8560E005
:1018700070E0CB010E94E75869837A838B839C8355
:101880002D813E814F81588569897A898B899C8910
:101890000E94E7589B01AC0169817A818B819C8110
:1018A0000E94125B9B01AC01C301B2010E9454581B
:1018B0000E94455825E33AEF4EE85CE30E94E75862
:1018C0002B013C0129A13AA14BA15CA1C601B501A4
:1018D0000E94075B18164CF4A301920160E070E0CF
:1018E00084E393E40E94535808C020E030E044E3CE
:1018F00053E4C301B2010E9454580E944F59AFA94A
:10190000B8AD6D937D938D939C93139720E030E455
:101910004CE156E46D857E858F8598890E94075B32
:1019200087FD13C020E030E04AE754E46D857E85F2
:101930008F8598890E94E7580E944F59F80160836B
:1019400071838283938381E00DC06D857E858F8551
:1019500098890E944F59D8016D937D938D939C93E4
:10196000139780E0A4960FB6F894DEBF0FBECDBFEC
:10197000DF91CF911F910F91FF90EF90DF90CF906B
:10198000BF90AF909F908F907F906F905F904F909F
:10199000089583E895E00E94D72C882339F183E8E5
:1019A00095E00E94DA2CBC0183E895E00E94F02CBF
:1019B0008823E1F040919B0550919C0560919D0525
:1019C00070919E0522E030E083EE9BE00E94EC5790
:1019D00040919F055091A0056091A1057091A205CD
:1019E00022E030E083EE9BE00C94EC570895809168
:1019F0000E018F5F893008F081E080930E01089519
:101A00001F93CF93DF93182FEB0161E00E944252A6
:101A1000BE01882777FD8095982F0E94305160E0A5
:101A2000812FDF91CF911F910C944252AC0184E041
:101A3000440F551F8A95E1F78CE0869F9001879FA0
:101A4000300D1124B90189E19AE00C94B32BFC010B
:101A50009F01281B390B41914111FACFC90108950B
:101A6000CF93DF93EC010E94270DFE0140E0992700
:101A70009F012C1B3D0B281739071CF4219142278D
:101A8000F7CF842FDF91CF9108952F923F924F92FD
:101A90005F926F927F928F929F92AF92BF92CF92FE
:101AA000DF92EF92FF920F931F93CF93DF93CDB707
:101AB000DEB7C154D1090FB6F894DEBF0FBECDBF5B
:101AC0006A962FAD6A972BAB6B963FAD6B973CAB8D
:101AD0006C966FAD6C976DAB6D968FAD6D978AAF51
:101AE0006E969FAD6E979BAFAD96CCACDDACEEAC79
:101AF000FFACAD97AE96AFADAE97A9ABE2964CAC4E
:101B00005DAC6EAC7FACE297E396BFADE397BAAB4A
:101B1000C701B6010E944F594B015C0120E030E43F
:101B20004CE156E4C701B6010E94125B6B017C01D7
:101B300000E117E2089DB001099D700D189D700D20
:101B40001124882777FD8095982F0E9482599B0148
:101B5000AC01C701B6010E9453580E944F596CAFA7
:101B60007DAFC301B2010E944F596B017C0120E09F
:101B700030E44CE156E4C301B2010E94125B2B0138
:101B80003C010C9DB0010D9D700D1C9D700D11242C
:101B9000882777FD8095982F0E9482599B01AC0180
:101BA000C301B2010E9453580E944F59562E472E2E
:101BB0009E01275E3F4F3AA729A7E7966CAD7DAD02
:101BC0008EAD9FADE797890121E044E00E94605C03
:101BD000CE0141969CA78BA7A5966CAD7DAD8EAD31
:101BE0009FADA5970850110922E044E00E94605C77
:101BF000DE011996BEA7ADA7A9966CAD7DAD8EADE1
:101C00009FADA9978D0122E044E00E94605C1E0117
:101C1000B1E22B0E311CED966CAD7DAD8EAD9FAD5E
:101C2000ED97810122E041E00E94605CC358DF4FE4
:101C3000688179818A819B81CD57D0409E012F5F39
:101C40003F4F38AB2FA7890121E044E00E94605C40
:101C500065E371E08FE597E00E94F45C3BAD3F9354
:101C60006AAD6F931F928DA98F931F929CA99F932A
:101C70001F92ABA9AF93ACE3B1E0BF93AF9385E6FE
:101C800097E09F938F930E94415D8C010B59184FF1
:101C900089A9992787FD90959FAB8EAB9F9399A9B2
:101CA0009F93ADADAF93BCADBF939F928F924EE427
:101CB00051E05F934F931F930F934EAF5FAF0E941E
:101CC000415D080F191F2AA9332727FD309539AF29
:101CD00028AF3F933AA93F934F925F92DF92CF9202
:101CE0002CE531E03F932F931F930F9321962FAF55
:101CF000219722963FAF22970E94415D080F191F3E
:101D00000FB6F894DEBF0FBECDBF6AE671E0C80122
:101D10000E94F45C0E5F1F4FE9968FADE9971F920A
:101D20008F938DE691E09F938F931F930F930E9463
:101D3000415D080F191F3F922F9293E7692E91E0A2
:101D4000792E7F926F921F930F930E94415D080F2F
:101D5000191F9AA59F93A9A5AF9387E791E09F9339
:101D60008F931F930F930E94415DB8A9BF936FA5F6
:101D70006F936DE771E07F936F93800F911F9F9337
:101D80008F930E94415D8FE597E00E94300D1F9276
:101D90008F9304E811E01F930F931E0187E2280E32
:101DA000311C3F922F920E94415D6AE271E083EE06
:101DB0009BE00E94A1556FE577E083EE9BE00E94D7
:101DC000C45568E271E083EE9BE00E94A155B10129
:101DD00083EE9BE00E94E35569E871E08FE097E0B5
:101DE0000E94F45C9BAD9F93AAADAF931F92BDA9D7
:101DF000BF931F926CA96F931F928BA98F93ACE333
:101E0000B1E0BF93AF9385E197E09F938F930E94DA
:101E1000415D8B5E984F1C010FB6F894DEBF0FBE7C
:101E2000CDBF69E371E00E94F45C92E0290E311CA1
:101E3000AFA9AF93B9A9BF936DAD6F938CAD8F93DD
:101E40009F928F924EAD5FAD5F934F933F922F92D3
:101E50000E94415D280E391E99AD9F93AAA9AF93A8
:101E60004F925F92DF92CF9221962FAD21972296CB
:101E70003FAD22973F932F933F922F920E94415D57
:101E8000280E391EBCA5BF932BA52F937F926F926E
:101E90003F922F920E94415D280E391E3EA53F932E
:101EA0006DA56F937F926F923F922F920E94415D3A
:101EB0000FB6F894DEBF0FBECDBFA1962FADA19790
:101EC0001F922F93A0962FADA0971F922F936F96DE
:101ED0002FAD6F971F922F9320E931E03F932F93FF
:101EE000820D931D9F938F930E94415D8FE097E039
:101EF0000E94300D1F928F931F930F938E010B5DE5
:101F00001F4F1F930F930E94415D66E271E083EEC5
:101F10009BE00E94A1556FE077E083EE9BE00E947A
:101F2000C45564E271E083EE9BE00E94A155B801C4
:101F300083EE9BE00E94E3550FB6F894DEBF0FBE20
:101F4000CDBFCF5BDF4F0FB6F894DEBF0FBECDBF66
:101F5000DF91CF911F910F91FF90EF90DF90CF9085
:101F6000BF90AF909F908F907F906F905F904F90B9
:101F70003F902F900895EF92FF920F931F93CF936E
:101F8000DF931F92CDB7DEB77C018B01211105C015
:101F900049830E94270D498102C080E090E0F7014B
:101FA000E80FF91F801791071CF401964193FACFAF
:101FB000F701E80FF91F1082C7010F90DF91CF9151
:101FC0001F910F91FF90EF900895CF93C82F60E07D
:101FD00070E08AE090E00E94160D40E050E06FEF64
:101FE0007FEF89E19AE00E94C52B21E040E269E1A0
:101FF00070E082ED95E00E94BB0FBC0189E19AE0A0
:102000000E94C45560E070E08AE090E00E94160DE6
:10201000C0FF0EC040E058EF6FEF7FEF89E19AE01C
:102020000E94C52B61EA71E089E19AE00E94C455E3
:10203000C1FF0EC040E05CEF60E070E089E19AE033
:102040000E94C52B67EA71E089E19AE00E94C455BD
:1020500060E070E080E090E00E94160D40E050E00B
:102060006FEF7FEF89E19AE0CF910C94C52B1F921F
:102070000F920FB60F9211240BB60F922F933F932E
:102080004F935F936F937F938F939F93AF93BF9380
:10209000EF93FF9383E895E00E94EB2BFF91EF9184
:1020A000BF91AF919F918F917F916F915F914F9170
:1020B0003F912F910F900BBE0F900FBE0F901F906E
:1020C00018954F925F926F927F928F929F92AF92EC
:1020D000BF92CF92DF92EF92FF920F931F93CF9315
:1020E000DF9300D000D0CDB7DEB78C0148E350E0DD
:1020F00060E070E0FC0144875587668777874FEF83
:1021000053E260E070E0408B518B628B738B148ADA
:102110001082118212821382148215821682178213
:102120004FEF5FEF67E070E08DE49AE00E94974D1B
:102130008F3F09F0A4C040E050EF67E070E08DE40D
:102140009AE00E94974D8F3F09F499C0CC24CA941D
:10215000DC2C47E0E42EF12C88248A94982C57E05C
:10216000A52EB12C240135014C185D086E087F089E
:10217000B701A6018DE49AE00E94974D8F3F31F49C
:10218000F1E0CF1AD108E108F108ECCF81E0F801C5
:10219000848BFFEFCF1ADF0AEF0AFF0AF801C08233
:1021A000D182E282F382CC24CA943FEED32E37E070
:1021B000E32EF12CB701A6018DE49AE00E94974D21
:1021C0008F3F41F0C114F0E1DF06E104F10408F0B3
:1021D00060C015C0B701A6014F5F5F40610971097A
:1021E0008DE49AE00E94974D8F3F61F746015701B9
:1021F0002FEFC216D20627E0E206F10431F181E0AA
:10220000F801848B46015701B501A4018DE49AE0E1
:102210000E94974DA50194012F5F3F4F4F4F5F4F95
:1022200029833A834B835C838F32C1F5BA01A901BC
:102230008DE49AE00E94974D8A3281F5F8018482FC
:102240009582A682B78246015701B501A4018DE4AB
:102250009AE00E94974D8F3F81F581149104A1046B
:10226000B10491F540E050E0BA018DE49AE00E949B
:10227000974D8F3FA1F1812C912C540167C0412CC7
:10228000512C3201CC24CA94DC2C27E0E22EF12C14
:1022900091CFF0E1DF1AE108F1088CCF89809A80B4
:1022A000AB80BC808114910428E0A206B10409F03F
:1022B000ABCF812C912C5401A7CF81149104A104A0
:1022C000B10409F043C0CECFFFEF4F1A5F0A6F0A87
:1022D0007F0A21E0821A9108A108B108B6CFF8015F
:1022E0008489811105C0F801108211821282138243
:1022F000FFEF4F1A5F0A6F0A7F0A60E070E088E024
:1023000090E06419750986099709F80124853585D7
:10231000468557850E94EC5BF8012087318742870C
:1023200053870F900F900F900F90DF91CF911F91D7
:102330000F91FF90EF90DF90CF90BF90AF909F9064
:102340008F907F906F905F904F900895FFEF8F1A5E
:102350009F0AAF0ABF0AF80180829182A282B382EB
:10236000CCCFEF92FF920F9340E35FEE67E18DE4F5
:102370009AE00E94184D6CE2E62EFF24F3940AE1E5
:1023800029E148E16BE185E49AE00E94A84FE12C45
:1023900005E124E143E162E189E19AE00E945A32D9
:1023A00022E93BE042E064E089EE98E00E94114AB5
:1023B00041E069EE78E08EED97E00E9492468FE270
:1023C0009AE2A0E08093D7069093D806A093D9060E
:1023D00080939F069093A006A093A1068093670622
:1023E00090936806A093690660E87CE083E895E036
:1023F0000F91FF90EF900C94A92C4F925F926F92E7
:102400007F928F929F92AF92BF92CF92DF92EF9284
:10241000FF920F931F93CF93DF9380900A019090C8
:102420000B01A0900C01B0900D012AE939E949E5B2
:1024300050E4C501B4010E94E05887FD33C02DEC83
:102440003CEC4CE650E4C501B4010E94E05887FF23
:102450000AC02AE939E949E550E4C501B4010E94FE
:10246000075B87FF24C02AE939E949E750E4C50141
:10247000B4010E94E058C0EED7E087FF23C02DECE6
:102480003CEC4CE650E4C501B4010E94075B87FDBB
:1024900019C060EEA62E67E0B62E70EE872E77E0AC
:1024A000972E0DC0C0E0D8EFA12CB12C06C0C0EE15
:1024B000DFEF50EEA52EBB24BA94812C912C612C19
:1024C000712C0CC020EEA22E27E0B22E30EE832E0F
:1024D00037E0932E40EE642E47E0742E730109E03E
:1024E00010E024E030E042E050E064E070E089E198
:1024F0009AE00E94353C740124E030E042E050E074
:1025000069E070E089E19AE00E94353C750124E0C1
:1025100030E042E050E06EE070E089E19AE00E9435
:10252000353C7E0124E030E042E050E063E170E0C1
:1025300089E19AE00E94353CCC24CA94DC2CEE243C
:10254000E394F12C0DE010E027E130E040E050E0B2
:1025500062E070E089E19AE00E94ED27E091190ABB
:10256000F0911A0A0484F585E02DEE24EA94FE2CFD
:1025700005E010E022E030E044E050E060E070E090
:1025800089E19AE009958091D4079091D5078C391B
:102590002FEF9207F1F09C012D593F4F2E3031055E
:1025A00018F12E5031092F30310550F12F503109DB
:1025B0002F30310590F12F50310920313105F0F1E4
:1025C0008896899708F04AC060EE462E67E0562E3E
:1025D00037C0412C512CC0E0D0E0A12CB12C812C73
:1025E000912C612C712C3AC0412C512CC0E0D0E0D0
:1025F000A12CB12C812C912C612C18EF712E2EC0A6
:10260000412C512CC0E0D0E0A12CB12C812CACEF9E
:102610009A2E612CBCEF7B2E21C0412C512CC0E0A6
:10262000D0E070EEA72EBB24BA94E0EE8E2E992453
:102630009A94F0EE6F2E77247A9410C0412C512C8E
:10264000C0EED7E030EEA32E37E0B32E40EE842E5E
:1026500047E0942E50EE652E57E0752E730104E08E
:1026600010E024E030E049E050E06FE170E089E103
:102670009AE00E94353C740106E010E024E030E06E
:1026800047E050E064E270E089E19AE00E94353C66
:10269000750108E010E024E030E045E050E069E238
:1026A00070E089E19AE00E94353C7E010AE010E08A
:1026B00024E030E043E050E06EE270E089E19AE02F
:1026C0000E94353C72010CE010E024E030E041E073
:1026D00050E063E370E089E19AE00E94353C80902D
:1026E0000B0790900C07A0900D07B0900E072AE9F9
:1026F00039E949E550E4C501B4010E94E05887FD7D
:1027000033C02DEC3CEC4CE650E4C501B4010E9412
:10271000E05887FF0AC02AE939E949E550E4C501D4
:10272000B4010E94075B87FF24C02AE939E949E721
:1027300050E4C501B4010E94E058C0EED7E087FF25
:1027400023C02DEC3CEC4CE650E4C501B4010E94E2
:10275000075B87FD19C090EEA92E97E0B92E20EEF9
:10276000822E27E0922E0DC0C0E0D8EFA12CB12C14
:1027700006C0C0EEDFEF80EEA82EBB24BA94812CF9
:10278000912CE12CF12C0CC0B0EEAB2EB7E0BB2E9F
:1027900010EE812E17E0912E00EEE02E07E0F02ED5
:1027A00009E010E024E030E042E050E06AED70E043
:1027B00089E19AE00E94353C740124E030E042E077
:1027C00050E06FED70E089E19AE00E94353C7501C0
:1027D00024E030E042E050E064EE70E089E19AE00D
:1027E0000E94353C7E0124E030E042E050E069EE9A
:1027F00070E089E19AE00E94353CCC24CA94DC2C3C
:10280000EE24E394F12C0DE010E027E130E040E00D
:1028100050E068ED70E089E19AE00E94ED27E091D8
:10282000190AF0911A0A0484F585E02DEE24EA9441
:10283000FE2C05E010E022E030E044E050E066EDE0
:1028400070E089E19AE0099540E050E06AE570E0C7
:1028500089E19AE00E94B32B8091DA068A3030F445
:1028600060E073E089E19AE00E94C4554AE050E0DC
:102870006091DA0689E19AE00E94BB566EEE72E042
:1028800089E19AE00E94C4558091DB068A3030F4D9
:1028900060E073E089E19AE00E94C4554AE050E0AC
:1028A0006091DB0689E19AE00E94BB56E091190A2B
:1028B000F0911A0A0680F781E02DE12C78EFF72ECF
:1028C00004E110E020EF30E044E150E060E070E02F
:1028D00089E19AE00995DF91CF911F910F91FF90C7
:1028E000EF90DF90CF90BF90AF909F908F907F90B0
:1028F0006F905F904F900895EF92FF920F931F9308
:1029000060E070E089E19AE00E94C13CE12CE8EFD0
:10291000FE2E08E710E028E730E048EC50E060E0E9
:1029200070E089E19AE00E94353CE091190AF0914B
:102930001A0A0484F585E02DEE24EA94FE2C28E79B
:1029400030E048EC50E060E070E089E19AE0099501
:10295000B0EEEB2EFF24FA9428E730E048EC50E08C
:1029600068E770E089E19AE00E94353CE091190A3D
:10297000F0911A0A0484F585E02DEE24EA94FE2CE9
:1029800028E730E048EC50E068E770E089E19AE041
:10299000099564E070E080E190E00E94160D6FEF11
:1029A0007FEF89E19AE00E94BF2B64E089E19AE021
:1029B0000E94B92B6DEA71E089E19AE00E94E3552B
:1029C0006EE070E080E190E00E94160D6FE170E033
:1029D00089E19AE00E94BF2B64E089E19AE00E94BD
:1029E000B92B60EB71E089E19AE00E94E35562E067
:1029F00089E19AE00E94B92B60E089E19AE00E94A7
:102A00008F3F40E050E06FEF7FEF89E19AE00E9456
:102A1000C52B61E089E19AE00E94CB2B40E050E0B9
:102A200060E070E089E19AE01F910F91FF90EF90D4
:102A30000C94B32BCF92DF92EF92FF920F931F93E0
:102A4000CF93DF9390E0FC013197E830F10508F077
:102A5000A9C7EA5BFF4F209182050C942D5C2130C1
:102A600019F4662309F4A2C081E0809382050E94D4
:102A70007C1460E070E082E090E00E94160D63EB51
:102A800071E089E19AE00E94C45560E070E083E063
:102A900090E00E94160D8091F9061F928F938EEBA5
:102AA00091E09F938F93CAEFD5E0DF93CF930E947D
:102AB000415DBE0189E19AE00E94C45560E070E08A
:102AC00084E090E00E94160D8091F8061F928F938B
:102AD00085EC91E09F938F93DF93CF930E94415DAC
:102AE000BE0189E19AE00E94C45560E070E085E093
:102AF00090E00E94160D6091FA067091FB0680919D
:102B0000FC069091FD0602ED15E022E045E00E94F2
:102B1000605C9F938F938DEC91E09F938F93DF93F5
:102B2000CF930E94415DBE0189E19AE00E94C455A5
:102B300060E070E086E090E00E94160D8091D5077D
:102B40008F938091D4078F9385ED91E09F938F931E
:102B5000DF93CF930E94415DBE0189E19AE00E941C
:102B6000C45560E070E087E090E00E94160D60912F
:102B70000B0770910C0780910D0790910E0722E0D2
:102B800044E00E94605C9F938F9380EE91E09F935E
:102B90008F93DF93CF930E94415D8DB79EB74E9682
:102BA0000FB6F8949EBF0FBE8DBFCCC464E070E03A
:102BB00083E090E00E94160D4AE050E06091F90633
:102BC00089E19AE00E94BB5665E070E084E090E005
:102BD0000E94160D4AE050E06091F80689E19AE003
:102BE0000E94BB5665E070E085E090E00E94160D03
:102BF0006091FA067091FB068091FC069091FD06AB
:102C000002ED15E022E045E00E94605CBC018AEF25
:102C100095E00E94F45C6AEF75E089E19AE00E9419
:102C2000C45568E070E086E090E00E94160D609167
:102C3000D4077091D5074AE050E089E19AE00E94FC
:102C40008E5667E070E087E090E00E94160D60917C
:102C50000B0770910C0780910D0790910E0722E0F1
:102C600044E00E94605CBC01CCC5223019F46623AC
:102C700009F4BAC082E0809382050E947C1460E06F
:102C800070E082E090E00E94160D6CEE71E089E148
:102C90009AE00E94C4556091C7077091C80780915F
:102CA000C9079091CA070E9482599B01AC016091AB
:102CB000F4067091F5068091F6069091F7060E9451
:102CC000535802ED15E020E044E00E94605C9F93C1
:102CD0008F9385EF91E09F938F93CAEFD5E0DF93B9
:102CE000CF930E94415D60E070E083E090E00E943D
:102CF000160DBE0189E19AE00E94C45526E53EE02A
:102D00004DEE5FE36091E2067091E3068091E40688
:102D10009091E5060E94125B20E044E00E94605C16
:102D20009F938F938EEF91E09F938F93DF93CF9339
:102D30000E94415D60E070E084E090E00E94160D2A
:102D4000BE0189E19AE00E94C4556091CB07709161
:102D5000CC078091CD079091CE070E94825920E048
:102D600044E00E94605C9F938F938AE092E09F937F
:102D70008F93DF93CF930E94415D60E070E085E028
:102D800090E00E94160DBE0189E19AE00E94C455B0
:102D900060E070E086E090E00E94160D6091BF0751
:102DA0007091C0078091C1079091C2070E9482591B
:102DB00020E044E00E94605C9F938F9385E192E065
:102DC0009F938F93DF93CF930E94415DBE0189E172
:102DD0009AE00E94C4558DB79EB748960FB6F894F6
:102DE0009EBF0FBE8DBFA2C06091C7077091C8077C
:102DF0008091C9079091CA070E9482599B01AC013A
:102E00006091F4067091F5068091F6069091F706B0
:102E10000E94535802ED15E020E044E00E94605CFF
:102E20009F938F9384E292E09F938F93CAEFD5E0B4
:102E3000DF93CF930E94415D64E070E083E090E017
:102E40000E94160DBE0189E19AE00E94C45526E554
:102E50003EE04DEE5FE36091E2067091E306809103
:102E6000E4069091E5060E94125B20E044E00E9497
:102E7000605C9F938F938FE292E09F938F93DF9399
:102E8000CF930E94415D64E070E084E090E00E9496
:102E9000160DBE0189E19AE00E94C4556091CB07EE
:102EA0007091CC078091CD079091CE070E948259F6
:102EB00020E044E00E94605C9F938F938DE392E05A
:102EC0009F938F93DF93CF930E94415D64E070E006
:102ED00085E090E00E94160DBE0189E19AE00E9413
:102EE000C45564E070E086E090E00E94160D6091A9
:102EF000BF077091C0078091C1079091C2070E94DF
:102F0000825920E044E00E94605CBC01CE010E9436
:102F1000F45CBE0189E19AE00E94C4558DB79EB76A
:102F200042960FB6F8949EBF0FBE8DBF8091D20718
:102F3000811103C06CE172E002C060E272E089E1DD
:102F40009AE00E94C45564E089E19AE00E94B92B9E
:102F500060E070E088E090E00E94160D6091AF079D
:102F60007091B0078091B1079091B20702ED15E022
:102F700020E041E00E94605C9F938F9382E092E0AA
:102F80009F938F938AEF95E09F938F930E94415D6B
:102F90006AEF75E089E19AE00E94C4550F900F90A6
:102FA0000F900F900F900F9062E089E19AE0DF910F
:102FB000CF911F910F91FF90EF90DF90CF900C94E5
:102FC000B92B233019F4662309F4A2C083E080935F
:102FD00082050E947C1460E070E082E090E00E9434
:102FE000160D6AE472E089E19AE00E94C45560E03F
:102FF00070E083E090E00E94160D6091AF07709141
:10300000B0078091B1079091B20702ED15E020E082
:1030100044E00E94605C9F938F9386E592E09F93CB
:103020008F93CAEFD5E0DF93CF930E94415DBE013D
:1030300089E19AE00E94C45560E070E084E090E08D
:103040000E94160D8091C6078F938091C5078F93BC
:103050008091C4078F938091C3078F9383E692E09A
:103060009F938F93DF93CF930E94415DBE0189E1CF
:103070009AE00E94C45560E070E085E090E00E9414
:10308000160D8091BE078F938091BD078F9380911D
:10309000BC078F938091BB078F938FE692E09F933D
:1030A0008F93DF93CF930E94415DBE0189E19AE047
:1030B0000E94C4558DB79EB746960FB6F8949EBF32
:1030C0000FBE8DBF8091D207811103C06CE172E009
:1030D00002C060E272E089E19AE00E94C45560E0BB
:1030E00070E087E090E00E94160D6091F406709108
:1030F000F5068091F6069091F70602ED15E020E0C6
:1031000045E00E94605C9F938F9389E792E08AC0BC
:1031100066E070E083E090E00E94160D6091AF07DA
:103120007091B0078091B1079091B20702ED15E060
:1031300020E044E00E94605CBC018AEF95E00E94C0
:10314000F45C6AEF75E089E19AE00E94C45566E09C
:1031500070E084E090E00E94160D8091C6078F9386
:103160008091C5078F938091C4078F938091C30787
:103170008F9305E712E01F930F93CAEFD5E0DF931B
:10318000CF930E94415DBE0189E19AE00E94C4553F
:1031900066E070E085E090E00E94160D8091BE0729
:1031A0008F938091BD078F938091BC078F938091FF
:1031B000BB078F931F930F93DF93CF930E94415DC3
:1031C000BE0189E19AE00E94C4558DB79EB7409632
:1031D0000FB6F8949EBF0FBE8DBF8091D2078111AC
:1031E00003C06CE172E002C060E272E089E19AE043
:1031F0000E94C45568E070E087E090E00E94160DE0
:103200006091F4067091F5068091F6069091F706AC
:1032100002ED15E020E045E00E94605C9F938F93F3
:1032200086E892E09F938F938AEF95E09F938F9328
:103230000E94415D0F900F900F900F900F900F9094
:10324000A3C3243019F4662309F4D5C084E0809325
:1032500082050E947C1460E070E082E090E00E94B1
:10326000160D6AE872E089E19AE00E94C45560E0B8
:1032700070E083E090E00E94160D65E972E089E15C
:103280009AE00E94C45560E070E084E090E00E9403
:10329000160D6091EA067091EB068091EC06909114
:1032A000ED0602ED15E024E049E00E94605C9F938A
:1032B0008F932091EE06822F992787FD90959F93FB
:1032C0002F9329E9C22E22E0D22EDF92CF92CAEFAD
:1032D000D5E0DF93CF930E94415DBE0189E19AE082
:1032E0000E94C45560E070E085E090E00E94160DF9
:1032F0006091EF067091F0068091F1069091F206D0
:1033000024E049E00E94605C9F938F932091F30634
:10331000822F992787FD90959F932F9333EAE32E71
:1033200032E0F32EFF92EF92DF93CF930E94415D44
:10333000BE0189E19AE00E94C45560E070E086E039
:1033400090E00E94160D6DEA72E089E19AE00E9419
:10335000C45560E070E087E090E00E94160D609137
:103360009B0570919C0580919D0590919E0524E0A0
:1033700049E00E94605C9F938F932091BB05822F50
:10338000992787FD90959F932F93DF92CF92DF939C
:10339000CF930E94415DBE0189E19AE00E94C4552D
:1033A00060E070E088E090E00E94160D60919F055B
:1033B0007091A0058091A1059091A20524E049E0BB
:1033C0000E94605C9F938F932091BC05822F992768
:1033D00087FD90959F932F93FF92EF92DF93CF936A
:1033E0000E94415D8DB79EB780960FB6F8949EBF40
:1033F0000FBE8DBFA7C064E070E084E090E00E9443
:10340000160D6091EA067091EB068091EC069091A2
:10341000ED0602ED15E024E049E00E94605C9F9318
:103420008F932091EE06822F992787FD90959F9389
:103430002F9397EAE92E92E0F92EFF92EF92CAEFCE
:10344000D5E0DF93CF930E94415DBE0189E19AE010
:103450000E94C45564E070E085E090E00E94160D83
:103460006091EF067091F0068091F1069091F2065E
:1034700024E049E00E94605C9F938F932091F306C3
:10348000822F992787FD90959F932F93FF92EF921C
:10349000DF93CF930E94415DBE0189E19AE00E94D3
:1034A000C45564E070E087E090E00E94160D6091E2
:1034B0009B0570919C0580919D0590919E0524E04F
:1034C00049E00E94605C9F938F932091BB05822FFF
:1034D000992787FD90959F932F93FF92EF92DF930B
:1034E000CF930E94415DBE0189E19AE00E94C455DC
:1034F00064E070E088E090E00E94160D60919F0506
:103500007091A0058091A1059091A20524E049E069
:103510000E94605C9F938F932091BC05822F992716
:1035200087FD90959F932F93FF92EF92DF93CF9318
:103530000E94415D8DB79EB780960FB6F8949EBFEE
:103540000FBE8DBFBE0122C2253019F4662309F4D7
:10355000ABC085E0809382050E947C1460E070E03F
:1035600082E090E00E94160D61EB72E089E19AE042
:103570000E94C45560E070E083E090E00E94160D68
:103580006EEB72E089E19AE00E94C45560E070E061
:1035900084E090E00E94160D60910207709103078D
:1035A000809104079091050702ED15E026E049E0BF
:1035B0000E94605CBC018AEF95E00E94F45C6AEFB7
:1035C00075E089E19AE00E94C45560E070E085E012
:1035D00090E00E94160D6091060770910707809198
:1035E00008079091090726E049E00E94605CBC0151
:1035F0008AEF95E00E94F45C6AEF75E089E19AE059
:103600000E94C45560E070E086E090E00E94160DD4
:103610008091CE078F938091CD078F938091CC07B7
:103620008F938091CB078F938CEC92E09F938F9335
:10363000CAEFD5E0DF93CF930E94415DBE0189E1DF
:103640009AE00E94C45560E070E087E090E00E943C
:10365000160D8091C2078F938091C1078F9380913F
:10366000C0078F938091BF078F9383ED92E09F9364
:103670008F93DF93CF930E94415DBE0189E19AE071
:103680000E94C4558DB79EB740960FB6F8949EBF62
:103690000FBE8DBF8091D207811103C06DE672E02D
:1036A00075C161E272E072C160E070E084E090E0B8
:1036B0000E94160D60910207709103078091040724
:1036C0009091050702ED15E026E049E00E94605C5C
:1036D000BC018AEF95E00E94F45C6AEF75E089E135
:1036E0009AE00E94C45560E070E085E090E00E949E
:1036F000160D609106077091070780910807909159
:10370000090726E049E00E94605CBC018AEF95E071
:103710000E94F45C6AEF75E089E19AE00E94C4556A
:1037200064E070E086E090E00E94160D8091CE0784
:103730008F938091CD078F938091CC078F93809149
:10374000CB078F930DED11E01F930F93CAEFD5E0D8
:10375000DF93CF930E94415DBE0189E19AE00E9410
:10376000C45564E070E087E090E00E94160D8091FF
:10377000C2078F938091C1078F938091C0078F9369
:103780008091BF078F931F930F93DF93CF930E9476
:10379000415DBE0189E19AE00E94C4558DB79EB794
:1037A00040960FB6F8949EBF0FBE8DBF73CF2630E4
:1037B00019F4662309F4F6C086E0809382050E941E
:1037C0007C1460E070E082E090E00E94160D6AEDEB
:1037D00072E089E19AE00E94C45560E070E083E005
:1037E00090E00E94160D64EE72E089E19AE00E947A
:1037F000C45560E070E084E090E00E94160D60EF38
:1038000072E08AEF95E00E94F45CBEC0273019F4A4
:10381000662309F448C087E0809382050E947C14E7
:1038200060E070E082E090E00E94160D62E073E0DC
:1038300089E19AE00E94C45560E070E083E090E086
:103840000E94160D80910F0A8F9380910E0A8F931C
:1038500080910D0A8F9380910C0A8F938DE093E0F5
:103860009F938F938AEF95E09F938F930E94415D82
:103870006AEF75E089E19AE00E94C45560E070E06B
:1038800084E090E00E94160D6AE173E08AEF95E013
:103890000E94F45C8DB79EB708960FB6F8949EBF51
:1038A0000FBE8DBF71C069E070E083E090E00E94C0
:1038B000160D80910F0A8F9380910E0A8F9380913D
:1038C0000D0A8F9380910C0A8F9386E193E09F936A
:1038D0008F938AEF95E09F938F930E94415D8DB700
:1038E0009EB708960FB6F8949EBF0FBE8DBF4CC012
:1038F000283019F4662309F455C088E080938205C6
:103900000E947C1460E070E082E090E00E94160D5E
:103910006DE273E089E19AE00E94C45560E070E0D6
:1039200083E090E00E94160D80910F0A8F938091A2
:103930000E0A8F9380910D0A8F9380910C0A8F93BA
:103940008AE393E09F938F938AEF95E09F938F9301
:103950000E94415D6AEF75E089E19AE00E94C455DA
:1039600060E070E084E090E00E94160D68E473E08F
:103970008AEF95E00E94F45C8DB79EB708960FB66B
:10398000F8949EBF0FBE8DBF6AEF75E089E19AE0A3
:10399000DF91CF911F910F91FF90EF90DF90CF902B
:1039A0000C94C455DF91CF911F910F91FF90EF9030
:1039B000DF90CF900895CF92DF92EF92FF920F9316
:1039C0001F93CF93DF9340ED57E060E070E083EA10
:1039D0009BE00E94E54F20E032EC41E050E063EED6
:1039E0007BE083EA9BE00E94F84F83EA9BE00E9421
:1039F000E24F6AE573E08091D40B9091D50B0E9461
:103A0000C4556AE070E080E090E00E94305140E0F0
:103A100060E083EA9BE00E94045026E040E052EC24
:103A200061E070E083EE9BE00E94975360EF71E0ED
:103A300083EE9BE00E94D15560EF72E083EE9BE045
:103A40000E94E35560EE71E083EE9BE00E94D15549
:103A50008EED97E00E94B144882349F040E050E0A9
:103A600069ED73E489EE98E00E94924A06C064ED25
:103A700071E083EE9BE00E94D15560E875E283E837
:103A800095E00E94BA2C8FEA87BD80916E0082601B
:103A900080936E0062E08CE00E94095262E08DE04B
:103AA0000E9409521092D6071092D7071092D80799
:103AB0001092D90761E08EE00E94095282E00E94D4
:103AC000EC2389E19AE00E940D3389E19AE00E949B
:103AD000D436EC01C13483E9D80709F0E3C061E4CE
:103AE00073E989E19AE00E94D54060E070E089E1E5
:103AF0009AE00E94C13C62E089E19AE00E94B92B01
:103B000060E089E19AE00E948F3F40E050E06FEF73
:103B10007FEF89E19AE00E94C52B61E089E19AE09C
:103B20000E94CB2B40EEC42EDD24DA9450E8E52E23
:103B3000F12C0AE710E029E032E044E150E068E3CC
:103B400070E089E19AE00E94AA2863E070E08CE0CE
:103B500090E00E94160D66EC71E089E19AE00E9407
:103B6000A15561E070E080E190E00E94160D60EFE9
:103B700072E089E19AE00E94C45560E777E180E055
:103B800090E00E94305160E070E089E19AE00E948C
:103B9000C13C60E070E088E090E00E94160D6FEF9D
:103BA0007FEF89E19AE00E94BF2B62E089E19AE011
:103BB0000E94B92B6CE673E089E19AE00E94C4553B
:103BC00060E070E08AE090E00E94160D6FE773E01D
:103BD00089E19AE00E94C45567ED76E084E09AE0BE
:103BE0000E94611061EB71E083EE9BE00E94D15571
:103BF0006CE971E083EE9BE00E94A1554091040ABC
:103C00005091050A6091060A7091070A2AE030E097
:103C100083EE9BE00E94EF5668E871E083EE9BE044
:103C20000E94A1554091080A5091090A60910A0A20
:103C300070910B0A2AE030E083EE9BE00E94EF5681
:103C400063E771E083EE9BE00E94A15540910C0A6E
:103C500050910D0A60910E0A70910F0A2AE030E02F
:103C600083EE9BE00E94EF5660E080910E010E947F
:103C70001A1564E671E083EE9BE00E94D1550E9424
:103C8000015160936206709363068093640690937B
:103C90006506DF91CF911F910F91FF90EF90DF901C
:103CA000CF9008956AE471E083EE9BE00E94A155F5
:103CB00040E150E0BE0183EE9BE0DF91CF911F9188
:103CC0000F91FF90EF90DF90CF900C94D956109207
:103CD000AF071092B0071092B1071092B20710927E
:103CE000BB071092BC071092BD071092BE0710923E
:103CF000C3071092C4071092C5071092C60710920E
:103D0000D1071092CB071092CC071092CD071092DA
:103D1000CE078091020790910307A0910407B0910C
:103D200005078093B7079093B807A093B907B0939E
:103D3000BA078091060790910707A0910807B091F4
:103D400009078093B3079093B407A093B507B09386
:103D5000B6070E947C1463E973E089E19AE00E944F
:103D6000E3556AEA73E089E19AE00E94E3554091E5
:103D7000B7075091B8076091B9077091BA0728E06A
:103D800030E089E19AE00E94EC576FEA73E089E144
:103D90009AE00E94E3554091B3075091B4076091B7
:103DA000B5077091B60728E030E089E19AE00E94FB
:103DB000EC576091F4067091F5068091F6069091AB
:103DC000F7060E944F596093C7077093C807809306
:103DD000C9079093CA0760ED77E080E090E00E9409
:103DE000305161E080910E010C941A153F924F9270
:103DF0005F926F927F928F929F92AF92BF92CF927B
:103E0000DF92EF92FF920F931F93CF93DF93CDB783
:103E1000DEB7EF970FB6F894DEBF0FBECDBF0E949E
:103E2000FD110E94C90C85E49AE00E941E4E29AF44
:103E30003AAF4BAF5CAF6DAF7EAF09AD1AAD8BAC97
:103E40009CAC61E089E10E94095261E088E10E9436
:103E500009528DAD9EAD0B978D3D934008F05FC02C
:103E600089E19AE00E94E32B5C01CC24B7FCC0946A
:103E7000DC2CB801882777FD8095982F1F921F9220
:103E80001F921F9218E9E12E13E0F12E00E010E0DE
:103E900026E930E040E050E00E94FE572B013C0153
:103EA00089E19AE00E94E72B5C01CC24B7FCC09426
:103EB000DC2CB401882777FD8095982F1F921F92E4
:103EC0001F921F921CEAE12E13E0F12E00E010E099
:103ED00028E730E040E050E00E94FE576F50710943
:103EE0000FB6F894DEBF0FBECDBF693C7105BCF0C4
:103EF00095E0491A5108E8E74E1651044CF465E084
:103F000070E08EE00E94000D81E08093D00707C032
:103F1000F0EF4F1651041CF481E08093CF078CE042
:103F20000E947852892B21F481E08093D00708C049
:103F30008DE00E947852892B19F481E08093CF079D
:103F40008091D007882359F01092D0070E94F70C77
:103F500061E080910E010E941A1510926606809110
:103F6000CF07882309F463C11092CF0780910E0117
:103F7000873070F4823008F058C1813009F055C1A3
:103F800065E070E08EE00E94000D0E94671E4DC14A
:103F9000873009F470C0883009F047C16AE070E0EA
:103FA0008EE00E94000D60E070E081E090E00E94F1
:103FB000160D21E040E269E170E08AEF95E00E9491
:103FC000BB0FBC0189E19AE00E94C45560E070E03B
:103FD00082E090E00E94160D21E040E269E170E08D
:103FE0008AEF95E00E94BB0FBC0189E19AE00E9434
:103FF000C45560E070E083E090E00E94160D21E07F
:1040000040E269E170E08AEF95E00E94BB0FBC01DD
:1040100089E19AE00E94C45560E070E082E090E09F
:104020000E94160D63EC73E08AEF95E00E94F45C49
:104030006AEF75E089E19AE00E94C4558090080A11
:104040009090090AA0900A0AB0900B0A8FE29AE2B7
:10405000A0E089839A83AB836CE271E083EE9BE0FE
:104060000E94D155F89401E010E0CE0101967C0148
:10407000F8E33F2EB0C06AE070E08EE00E94000DD1
:1040800060E070E081E090E00E94160D21E040E2E7
:1040900069E170E08AEF95E00E94BB0FBC0189E105
:1040A0009AE00E94C45560E070E082E090E00E94D7
:1040B000160D21E040E269E170E08AEF95E00E9490
:1040C000BB0FBC0189E19AE00E94C45560E070E03A
:1040D00083E090E00E94160D21E040E269E170E08B
:1040E0008AEF95E00E94BB0FBC0189E19AE00E9433
:1040F000C45560E070E082E090E00E94160D64EB31
:1041000073E08AEF95E00E94F45C6AEF75E089E164
:104110009AE00E94C45584E09AE00E94CA0980C0D7
:104120002A013B019FEF491A590A690A790A8DE46D
:104130009AE00E94974DF60181936F01411451045A
:10414000F8E06F06710418F0412C512C3201B301D4
:10415000A2014090100A5090110A6090120A7090CB
:10416000130AC6018E199F09A0E0B0E084159505D9
:10417000A605B705A8F28091080A9091090AA091B6
:104180000A0AB0910B0A840D951DA61DB71DA770D4
:10419000BB278093080A9093090AA0930A0AB09358
:1041A0000B0A8DB79EB7C8970FB6F8949EBF0FBE87
:1041B0008DBFADB7BEB71196F701832D01900D925B
:1041C0008A95E1F70E94450D0F5F1F4F0FB6F894D7
:1041D000DEBF0FBECDBFA80160E070E080910C0A89
:1041E00090910D0AA0910E0AB0910F0A4817590735
:1041F0006A077B0750F44091080A5091090A6091C0
:104200000A0A70910B0A6701A4CFAA24BB248092EA
:10421000080A9092090AA0920A0AB0920B0A7894AE
:1042200061E080910E010E941A1510926606C090FE
:104230006206D0906306E0906406F09065060E94E6
:1042400001516C157D058E059F0550F40E940151AA
:10425000609362067093630680936406909365068C
:104260008EED97E00E945044882309F4A9C1809103
:1042700066068E7F8093660688E38FAFC12CD12CB3
:10428000E12CF12C00E010E09E012F5F3F4FAE01CA
:10429000415C5F4F67ED76E08EED97E00E94C94686
:1042A000882309F4FCC10E94015160936206709357
:1042B0006306809364069093650689EE98E00E94F9
:1042C0000F46992787FD90959093D5078093D40743
:1042D00080910A07882309F4E4C08091D3078111F3
:1042E00002C00E94671E81E08093D307809166061A
:1042F0008D7F80936606A0900607B0900707C09058
:104300000807D0900907E0900207F090030700919A
:104310000407109105072091B3073091B40740912D
:10432000B5075091B6076091B7077091B8078091B3
:10433000B9079091BA07EBECF7E0FF93EF93EFEB3F
:104340008E2EE7E09E2E0E94E109182F8093D2075F
:10435000C090F406D090F506E090F606F090F706CF
:104360008090C7079090C807A090C907B090CA076F
:104370006091C3077091C4078091C5079091C607EB
:10438000680D791D8A1D9B1D0E9482599B01AC01FD
:104390000F900F90C701B6010E94075B1816A4F496
:1043A000C501B4010E9482599B01AC01C701B6014D
:1043B0000E9453580E944F596093C3077093C407DB
:1043C0008093C5079093C6074091BF075091C007DF
:1043D0006091C1077091C207111103C01092D107FB
:1043E00008C08091D107811104C081E08093D1077A
:1043F0000DC08091BB079091BC07A091BD07B09103
:10440000BE0784179507A607B70744F44093BB0778
:104410005093BC076093BD077093BE0726E53EE04E
:104420004DEE5FE36091E2067091E3068091E40651
:104430009091E5060E94125B20E030E040E85FE3E7
:104440000E94E05887FF08C01092E2061092E3062F
:104450001092E4061092E50626E53EE04DEE5FE39D
:104460006091E2067091E3068091E4069091E50682
:104470000E94125B6B017C012091AF073091B00765
:104480004091B1075091B2070E94075B181674F46F
:10449000C092AF07D092B007E092B107F092B20796
:1044A00005C080916606826080936606C090040A0B
:1044B000D090050AE090060AF090070A07ED16E092
:1044C000A801475D564060E070E08091100A90912D
:1044D000110AA091120AB091130A481759076A07E6
:1044E0007B0760F5F80121918F01B701A6018DE4EA
:1044F0009AE00E94C24DD701C6019F70AA27BB2730
:10450000892B8A2B8B2B59F4B701A601505F6F4F73
:104510007F4F6770772784E09AE00E944D09FFEF94
:10452000CF1ADF0AEF0AFF0AC114D10428E0E2061D
:10453000F10430F2C12CD12C7601C2CFC092040A12
:10454000D092050AE092060AF092070A80910C0ABE
:1045500090910D0AA0910E0AB0910F0A4091140A91
:104560005091150A6091160A7091170A84179507E1
:10457000A607B70758F40196A11DB11D80930C0A38
:1045800090930D0AA0930E0AB0930F0A8DB79EB7B1
:10459000C8970FB6F8949EBF0FBE8DBFADB7BEB71C
:1045A000119688E3E7EDF6E001900D928A95E1F728
:1045B0000E94450D0FB6F894DEBF0FBECDBF6AC096
:1045C0000E940151009162061091630620916406D9
:1045D0003091650608571C4E2F4F3F4F061717079F
:1045E0002807390708F05BC08091660681608093D8
:1045F00066060E9401516093DA077093DB0780938F
:10460000DC079093DD070091D6071091D707209122
:10461000D8073091D9070053184F2F4F3F4F061737
:10462000170728073907C0F46093D6077093D70798
:104630008093D8079093D90765E070E08EE00E94E0
:10464000000D64E670E080E090E00E94305165E08B
:1046500070E08EE00E94000D1092F80681EE9AEF55
:10466000A7ECB2E48093FA069093FB06A093FC06B5
:10467000B093FD061092F9068CE99FEF9093D50751
:104680008093D40710920B0710920C0710920D071D
:1046900010920E0760E080910E010E941A150E9490
:1046A000015100915E0610915F06209160063091E5
:1046B0006106601771078207930750F40E94015149
:1046C00060935E0670935F06809360069093610628
:1046D0000E94015100915E0610915F0620916006D4
:1046E000309161060053184F2F4F3F4F06171707A1
:1046F0002807390778F48091660690E00E94E50F5C
:104700000E94015160935E0670935F06809360067D
:1047100090936106EF960FB6F894DEBF0FBECDBF43
:10472000DF91CF911F910F91FF90EF90DF90CF908D
:10473000BF90AF909F908F907F906F905F904F90C1
:104740003F900895CF93CFB7F8948091570A811185
:1047500027C0E1ECF0E18491E1EAF0E19491E82FE7
:10476000F0E0EE0FFF1FEF50FF4EA591B4918C913A
:10477000892321F461E084E00E94425261E084E0F8
:104780000E9409528CB580618CBD8CB580648CBD53
:1047900061E087E00E94095261E085E00E940952D1
:1047A0008091570A8F5F8093570ACFBFCF910895AA
:1047B0009FB7F8948091570A882319F0815080930D
:1047C000570A8091570A811105C08CB58F7B8CBD2B
:1047D0001092560A9FBF08952FB7F894813061F068
:1047E00020F0823021F484E008C081E006C082E03D
:1047F0008093560A80E001C082E09091550A982B80
:104800009093550A8091560A811103C081E08093EC
:10481000560A2FBF0895E0919A0AF0919B0AE81773
:10482000F90769F4A389B4899C91858980958923C6
:104830008C9310929B0A10929A0A81E0089580E06E
:104840000895CF93DF93EC018A8D9B8D892BF1F036
:1048500080919A0A90919B0A8C179D07B9F0009756
:1048600011F00E940B248E8D8E7F8E8F1092590A2C
:104870001092580AD0939B0AC0939A0AEB89FC893C
:1048800080819D89892B808381E001C080E0DF9158
:10489000CF9108951F920F920FB60F9211240BB66D
:1048A0000F922F933F934F935F936F937F938F93C9
:1048B0009F93AF93BF93EF93FF93E0919A0AF09188
:1048C0009B0A309709F451C0868DA685B7859585DA
:1048D00081FF04C08C91892329F447C08C918923DE
:1048E00009F043C0A389B4899C9185898095892367
:1048F0008C93868997890197F1F7208D318DA68554
:10490000B785758558E040E0C9010197F1F7842F1C
:1049100090E095958795482F6C91672309F0406842
:10492000515091F7868D81FD40958091590A90E014
:1049300001968F7399272091580A281749F0A09162
:10494000590AB0E0A65AB54F4C938093590A03C058
:10495000868D8160868F828D938D0197F1F7A38973
:10496000B4898C919589892B8C93FF91EF91BF919C
:10497000AF919F918F917F916F915F914F913F91F7
:104980002F910F900BBE0F900FBE0F901F90189598
:10499000CF93DF93EC019A01AB011B8E1A8E198E17
:1049A000188E1F8A1E8A60E079E08DE390E00E94F5
:1049B0000E5CC9012430310520F0B9016350710942
:1049C00002C061E070E07D8F6C8FEC85EF3108F004
:1049D0005AC0B901769567956431710518F0635135
:1049E000710902C061E070E07F8B6E8B069718F052
:1049F000C901059702C081E090E0998F888FC901B5
:104A0000880F991F820F931F969587959695879586
:104A10008D30910510F00C9702C081E090E09B8FE3
:104A20008A8F90916800E83030F0E03130F0E83162
:104A300030F484E005C082E003C088E001C081E07A
:104A4000892B809368002C85283038F02E3040F078
:104A5000263148F48CE690E008C08DE690E005C071
:104A60008BE690E002C080E090E09C8B8B8B2770FF
:104A700081E090E001C0880F2A95EAF78D8B8C8D3C
:104A80009D8D0197F1F7CE01DF91CF910C942124F8
:104A90002F923F924F925F926F927F928F929F924E
:104AA000AF92BF92CF92DF92EF92FF920F931F933C
:104AB000CF93DF9300D000D0CDB7DEB74C017C831D
:104AC0006B836A015901C8018701AC014C195D096A
:104AD00057FF03C051954195510995016B817C8128
:104AE000261B370B37FF03C031952195310922244E
:104AF0002394312C2417350714F0212C312C211448
:104B0000310459F03A2D2B2D5C01832F922F3B81DC
:104B10002C81DC82CB82C32ED22EAB81BC81AA1623
:104B2000BB065CF43C2D2D2D6C01832F922F3B8115
:104B30002C81BC82AB82A32EB22E2501EB81FC819D
:104B40004E1A5F0A3C016C187D0877FE03C0719411
:104B500061947108720157FE03C0FFEFEF1AFF0A5C
:104B6000F594E794C816D9062CF421E030E03A8396
:104B7000298324C06FEF7FEF7A8369831FC0D4013C
:104B8000ED91FC910480F581E02D98012114310410
:104B9000D9F04B815C81B601C4010995E618F7088C
:104BA000F7FE06C0E981FA81CE0EDF1EE40CF51C8B
:104BB0002B813C812F5F3F4F3C832B836B817C811A
:104BC000A616B706E4F604C0A6016B817C81E4CF8B
:104BD0000F900F900F900F90DF91CF911F910F9139
:104BE000FF90EF90DF90CF90BF90AF909F908F900D
:104BF0007F906F905F904F903F902F9008956F92AD
:104C00007F928F929F92AF92BF92CF92DF92EF925C
:104C1000FF920F931F93CF93DF93EC015B016A0127
:104C200039014801E881F9810284F385E02D87018B
:104C30000995E881F981A601480D591D4150510996
:104C40000284F385E02D9301B501CE010995E88139
:104C5000F9810084F185E02D9401A601B501CE0112
:104C60000995E881F981B501660D771D61507109DB
:104C70000084F185E02D9401A601CE010995DF9114
:104C8000CF911F910F91FF90EF90DF90CF90BF9049
:104C9000AF909F908F907F906F900895EF92FF92CA
:104CA0000F931F93DC01ED91FC91240F351F2150D0
:104CB00031090680F781E02D780189019B01099572
:104CC0001F910F91FF90EF900895EF92FF920F9335
:104CD0001F93DC01ED91FC91260F371F2150310904
:104CE0000680F781E02D78018A0109951F910F91C7
:104CF000FF90EF9008956F927F928F929F92AF9264
:104D0000BF92CF92DF92EF92FF920F931F93CF93B8
:104D1000DF935C014A0169013801EB01C60ED71E21
:104D2000CC15DD0574F4D501ED91FC910084F1857D
:104D3000E02D87019301A401BE01C50109952196CB
:104D4000EFCFDF91CF911F910F91FF90EF90DF9008
:104D5000CF90BF90AF909F908F907F906F9008956D
:104D6000EF92FF920F931F93DC01ED91FC9111974D
:104D70001A960D911C911B9718962D913C9119979D
:104D80000684F785E02D7B0140E050E060E070E0B4
:104D900009951F910F91FF90EF9008950895FC01E0
:104DA0001382128286ED93E09183808375836483FE
:104DB000578346837187608753874287158A158694
:104DC00014861786168621E0248B8FEF9FEF938B36
:104DD000828B918B808B268B178A118E108E089573
:104DE0002F923F924F925F926F927F928F929F92FB
:104DF000AF92BF92CF92DF92EF92FF920F931F93E9
:104E0000CF93DF9300D000D000D0CDB7DEB79E8324
:104E10008D834B013A016901802F44244394512C26
:104E2000421A530A22243324221A330A220C331C36
:104E3000AA24A394B12C01E010E0982F94709983D8
:104E4000A82FA270AA83B82FB870BB8381708C83FF
:104E5000C50101978C159D050CF0A6C057FC08C034
:104E6000E1E0CE1AD108F2E02F0E311C420C531CA7
:104E70000E5F1F4F400E511E8981882311F1AD81B5
:104E8000BE81ED91FC9111970480F581E02D970191
:104E9000A3014C0D5D1DB501680D791DCD0109956E
:104EA000AD81BE81ED91FC9111970480F581E02DDB
:104EB0009701A501460D571DB4016C0D7D1DCD0157
:104EC0000995BA81BB2311F1AD81BE81ED91FC91B1
:104ED00011970480F581E02D9701A3014C195D091C
:104EE000B501680D791DCD010995AD81BE81ED91AA
:104EF000FC9111970480F581E02D9701A3014A19D7
:104F00005B09B4016C0D7D1DCD010995BB81BB23EF
:104F100011F1AD81BE81ED91FC9111970480F58175
:104F2000E02D9701A501460D571DB4016C197D09AF
:104F3000CD010995AD81BE81ED91FC911197048061
:104F4000F581E02D9701A3014C0D5D1DB4016A1997
:104F50007B09CD010995BC81BB2311F1AD81BE81D7
:104F6000ED91FC9111970480F581E02D9701A3014B
:104F70004A195B09B4016C197D09CD010995AD8110
:104F8000BE81ED91FC9111970480F581E02D970190
:104F9000A3014C195D09B4016A197B09CD0109957A
:104FA000BFEFAB1ABB0A54CF26960FB6F894DEBFFC
:104FB0000FBECDBFDF91CF911F910F91FF90EF906A
:104FC000DF90CF90BF90AF909F908F907F906F9029
:104FD0005F904F903F902F9008952F923F924F9265
:104FE0005F926F927F928F929F92AF92BF92CF9279
:104FF000DF92EF92FF920F931F93CF93DF93CDB782
:10500000DEB728970FB6F894DEBF0FBECDBF9887E6
:105010008F833B014A013C832B831E830D83570101
:10502000EE24FF24EA18FB08EE0CFF1CC9018E0DCC
:105030009F1D9A8389832B014A0C5B1CAF81B88525
:10504000ED91FC9111970284F385E02D86019C017E
:10505000B201CD0109952D803E80280C391CAF810D
:10506000B885ED91FC911197A1014150510902843D
:10507000F385E02D29813A81B201CD010995ED81B9
:10508000FE81EE0EFF1E8A0C9B1CAF81B885ED9150
:10509000FC9111970084F185E02D9701A401B301E3
:1050A000CD010995EB81FC816E0E7F1EAF81B88525
:1050B000ED91FC911197B301615071090084F18564
:1050C000E02D9701A401CD010995760101E095013C
:1050D000A401B2018F8198850E94F0266A187B088E
:1050E000B1E06B1A710802E09501A401B3018F8150
:1050F00098850E94F02641018A189B08E1E08E1AEB
:10510000910804E09501A401B3018F8198850E9464
:10511000F02608E09501A401B2018F8198850E94D4
:10512000F02628960FB6F894DEBF0FBECDBFDF91F4
:10513000CF911F910F91FF90EF90DF90CF90BF9094
:10514000AF909F908F907F906F905F904F903F9027
:105150002F9008952F923F924F925F926F927F927D
:105160009F92AF92BF92CF92DF92EF92FF920F93F6
:105170001F93CF93DF93CDB7DEB72A970FB6F8947E
:10518000DEBF0FBECDBF5C017C836B835E834D832E
:10519000190127013601C801079697FD07969C0162
:1051A00093E0359527959A95E1F73A832983C12CA9
:1051B000D12CE12CF12CE414F5040CF044C01A8637
:1051C00019868D819E818E0D9F1D98878F83E9851D
:1051D000FA85E017F1077CF589859A85877099270C
:1051E000892B11F0990C0EC0E985FA85F7FD3796E9
:1051F00083E0F595E7958A95E1F7EC0DFD1DE20D4D
:10520000F31D949097FE11C0D501ED91FC9104809F
:10521000F581E02D93014F8158856B817C818985D3
:105220009A85680F791FC5010995A985BA851196D8
:10523000BA87A987CCCFFFEFEF1AFF0A29813A81FD
:10524000C20ED31EB8CF2A960FB6F894DEBF0FBE9B
:10525000CDBFDF91CF911F910F91FF90EF90DF9025
:10526000CF90BF90AF909F907F906F905F904F9046
:105270003F902F9008952F923F924F925F926F929E
:105280007F928F929F92AF92BF92CF92DF92EF92D6
:10529000FF920F931F93CF93DF93CDB7DEB76A973B
:1052A0000FB6F894DEBF0FBECDBF1C0158874F83E9
:1052B0001C870B87FA86E986CC82DC0158964D91D3
:1052C0005C9159974115510509F0A6C018968D912A
:1052D0009C911997681779070CF056C11A968D9111
:1052E0009C911B97EF81F885E817F9070CF04CC1EA
:1052F000D12CCB013C81F6E03F9F800D911D112404
:10530000181619060CF040C1C60103E0880F991F5A
:105310000A95E1F74F815885840F951F18161906D5
:105320000CF032C157968C91811103C0203B08F0DC
:105330002F5F7E876D874B01198219E0A12E1AE03D
:10534000B12EA61AB70A55E0259FA00CB11C112456
:105350008981853039F0ED85FE85EA0DFB1D94913C
:105360009A8301C01A826F8078842301A8E0AD83FC
:10537000BA81B0FF12C0D101ED91FC91BC81B13076
:1053800031F40480F581E02D2B853C8518C006841E
:10539000F785E02DEB84FC841DC0E985FA852B851B
:1053A0003C85E217F307E1F0D101ED91FC91BC815E
:1053B000B13059F40480F581E02D29853A85A201A8
:1053C0006D857E85C10109950BC00684F785E02DAA
:1053D000E984FA8486019601A301B401C10109950B
:1053E000EA81E695EA83FD81F150FD836C0C7D1C1A
:1053F0002FEF421A520AF111BBCF39813F5F398337
:105400008C0C9D1C4D855E854F5F5F4F5E874D8781
:10541000363009F09DCFB8C0FA01349634913297F6
:1054200085919491231BA7E02A9F800D911D112443
:10543000FA0125913491398B288BFC0145915491C7
:105440005A8F498FFC013296549159873196A49115
:10545000AF873196E491FC01359624913196849181
:10546000BC81B23050F0622E772467FC7094E82F34
:10547000FF27E7FDF095FE87ED87FC81CF2ED12C2D
:105480006C9C40016D9C900C7C9C900C1124860EB1
:10549000971EA12C1982DE8ACD8AAB01420F511DC5
:1054A00027FD5A955E834D83AF81B885A80FB11D46
:1054B00087FDBA95B88FAF8B59818F85581708F043
:1054C00063C0852F90E02D853E85280F391F2C9DC8
:1054D000D0012D9DB00D3C9DB00D1124EF81F885BC
:1054E000EA0FFB1FFB83EA836D807E802401FA2D87
:1054F0002D81F21BFA8B4F89588D480F591F5C8BF9
:105500004B8B9A89960D862D2D81821B39858317A9
:10551000B0F5977061F4898D9A8D0196E889F989C3
:10552000298D3A8DE20FF31FB4909A8F898FB7FEC1
:105530001DC0D101ED91FC91BC81B13059F40480C2
:10554000F581E02D2B853C854B895C89B301C10138
:1055500009950CC00684F785E02DEB84FC84860158
:1055600096014A815B81B201C1010995BB0CED89AD
:10557000FE894E0E5F1EFFEF6F1A7F0AC2CFA30E89
:1055800049814F5F498398CF6A960FB6F894DEBF82
:105590000FBECDBFDF91CF911F910F91FF90EF9084
:1055A000DF90CF90BF90AF909F908F907F906F9043
:1055B0005F904F903F902F900895AF92BF92CF92FF
:1055C000EF92FF920F931F93CF93DF93EC01262F5F
:1055D000888D998D009709F042C06A3069F42C8952
:1055E0008E859F8538E0239F800D911D11249F8714
:1055F0008E871D861C86ABC06D3009F4A8C08E89CD
:105600008823C1F03C898C859D8546E0349F800DC0
:10561000911D112448855985841795075CF01D86D6
:105620001C868E859F85E8E03E9F800D911D11248C
:105630009F878E87EA88FB88088919894E855F8550
:105640006C857D85CC88CE010E943B292C898C8578
:105650009D85F6E02F9F800D911D112441C06A3079
:1056600079F41D861C864C89FC01369684912E8522
:105670003F85489F200D311D11243F872E8767C02D
:105680006D3009F464C0AC014C5F5F4FFA01349196
:10569000631708F45CC03196E491E61708F457C02C
:1056A000FA014491362F341BFC013296A590B49038
:1056B000F7E03F9FA00CB11C1124F5013296A49194
:1056C0003196E491AA2311F0E1110DC0F501349651
:1056D000A4902C898C859D85A29E800D911D1124FE
:1056E0009D878C8734C0F5013596E4913E8933233C
:1056F00009F13C89B0E0AE0FB11DE7FDBA953A9FC4
:10570000A0013B9F500D11246C857D85460F571FCE
:1057100068857985461757076CF01D861C86FC0145
:10572000369684914E855F85389F400D511D11241A
:105730005F874E87EA88FB88088919894E855F85CF
:105740006C857D85CC88CE010E943B29BFCF81E04E
:1057500090E0DF91CF911F910F91FF90EF90CF904C
:10576000BF90AF900895FC0175876487578746877F
:105770000895611101C061E0FC01648B0895FC0192
:10578000738B628B718B608B0895FC01718B608BC6
:10579000538B428B0895FC01668B0895FC01637066
:1057A000658B8481958126813781613039F0633042
:1057B00029F0918780873387228708953187208752
:1057C000938782870895FC01808591850895FC0167
:1057D000828593850895CF93DF93FC01E65BFF4FAD
:1057E0002081222311F080E065C0EC01C55BDF4F12
:1057F000A881B981109741F0ED91FC911197048037
:10580000F581E02DCD010BC0EC01C35BDF4F88813A
:105810009981DC01ED91FC910480F581E02D0995E1
:10582000892B09F388819981DC01ED91FC91068037
:10583000F781E02D09958A3049F59091A10AE09110
:105840009F0AF091A00AE90FF11D108220919F0A92
:105850003091A00ABBE02A313B0739F442EA5AE012
:105860005093A00A40939F0A08C02AE13BE030937E
:10587000A00A20939F0A22EA3AE030939E0A2093DE
:105880009D0A1092A10A91E090939C0AE0919F0AD0
:10589000F091A00A9091A10A21E0290F2093A10A7A
:1058A000E90FF11D80839091A10A983718F097E7CE
:1058B0009093A10ADF91CF910895FC01DC01A55BD3
:1058C000BF4F11961C921E92129611961C921E9218
:1058D00010929C0A13971C921092A10A8AE19BE0F5
:1058E0009093A00A80939F0A82EA9AE090939E0A7E
:1058F00080939D0A15AE14AE158214821382128213
:105900001182108212AE11AE10AE13AE1782168243
:1059100014AA15AA16AA17AA10AA11AA12AA13AA9B
:1059200014A615A616A617A610A611A612A613A6AB
:1059300014A215A216A217A210A211A212A213A2BB
:10594000148615861686178610861186128613868B
:1059500008950F931F93CF93DF93EC018B010E9467
:105960005D2CC35BDF4F19830883DF91CF911F91BB
:105970000F910895FC01E55BFF4F20813181AB0160
:1059800060E070E02115310521F0C9010E94C824B2
:1059900008C0FC01E35BFF4F26E0808191810E94FB
:1059A00097536AE070E080E090E00C943051809171
:1059B0009C0A089510929C0A80919D0A90919E0ADB
:1059C000089560335CF06A3314F480ED05C08FEB0A
:1059D000860F863018F489EC860F089580E00895CC
:1059E0002F923F924F925F926F927F928F929F92EF
:1059F000AF92BF92CF92DF92EF92FF920F931F93DD
:105A0000CF93DF93CDB7DEB72A970FB6F894DEBFFA
:105A10000FBECDBF8C017B01FB0101900020E9F797
:105A20003197E61BF70B6F0124E0C21AD108DB01A6
:105A3000AC0DBD1D8C918A3261F55B01AE0EBF1EAF
:105A4000F50133976081C8010E94E12C30E1839F0A
:105A500030011124F50132976081C8010E94E12CC8
:105A6000D301A80FB11DCD0142E0242F30E02C1549
:105A70003D0558F4F701E20FF31F2081332727FD7E
:105A80003095822793274F5FF0CF892B11F080E06C
:105A9000E1C46AEE73E0C7010E940A5D892B09F434
:105AA00068C26CE270E0C7010E94E95C01961C01CB
:105AB0000E94865C6B017C010E9454594B015C0181
:105AC00020E137E240E050E00E94EC5BF8012083E7
:105AD00044E6442E512C612C712CA30192010E94AA
