:100000000C94FF080C94394A0C94644A0C948F4A5F
:100010000C94B9230C94B9230C94B9230C94B923F0
:100020000C942E090C942E090C942E090C942E0974
:100030000C942E090C94D2430C942E090C942E0986
:100040000C94EC0F0C942E090C94BA4A0C942E09C3
:100050000C94FC4D0C94324E0C942E090C942E09E9
:100060000C942E090C942E090C942E090C942E0934
:100070000C94A94E0C94DF4E0C942E090C942E096E
:100080000C942E090C942E090C942E09E214E815F8
:100090009217D218191A4C1B7B1BED1BF14BF44B1A
:1000A000E74BEB4B0B4C0B4CF84BFC4B024C064C10
:1000B000084AD73B3BCE016E84BCBFFDC12F3D6CCF
:1000C00074319ABD56833DDA3D00C77F11BED9E435
:1000D000BB4C3E916BAAAABE000000803F072C7A61
:1000E000A5BA6CC590DA3B9365FC8BBC53F810FD48
:1000F0003C5692834DBD879D3AB63DCBC9BF5BBE92
:1001000073DA0FC93F05A84CCDB2D44EB93836A921
:10011000020C50B9918688083CA6AAAA2ABE000003
:1001200000803F002A0024002A0024000A2A2A2AEC
:100130002A2A2A2A2A2020204C6F672064756D7095
:10014000202A2A2A2A2A2A2A2A00556E6B6E6F77BD
:100150006E204C434420647269766572206368693E
:10016000703A200053657475702066696E69736813
:100170006564004C6F672023207265636F7264733F
:100180002073617665643A004C6F67206E65787401
:10019000207265616420616464723A004C6F67206C
:1001A0006E65787420777269746520616464723A50
:1001B000004C6F67206461746120696E69746961C5
:1001C0006C697A6564004750532054454C454D4551
:1001D00054525900696E6974206661696C656400E7
:1001E000496E697469616C697A696E672E2E2E009A
:1001F00047505320414E442054454C454D455452A0
:1002000059204D4F44554C450000000000000000AF
:1002100000000000000000000000000000000000DE
:1002200000000000000000000000000000000000CE
:1002300000000000000000000000000000000000BE
:1002400000000000000000000000000000000000AE
:10025000000000000000000000000000000000009E
:10026000000000000000000000000000000000008E
:10027000000000000000000000000000000000007E
:10028000000000000000000000000000000000006E
:10029000000000000000000000000000000000005E
:1002A000000000000000000000000000000000004E
:1002B000000000000000000000000000000000003E
:1002C000000000000000000000000000000000002E
:1002D000000000000000000000000000000000001E
:1002E000000000000000000000000000000000000E
:1002F00000000000000000000000000000000000FE
:1003000000000000000000000000000000000000ED
:1003100000000000000000000000000000000000DD
:1003200000000000000000000000000000000000CD
:1003300000000000000000000000000000000000BD
:1003400000000000000000000000000000000000AD
:10035000000000000000000000000000000000009D
:10036000000000000000000000000000000000008D
:10037000000000000000000000000000000000007D
:10038000000000000000000000000000000000006D
:10039000000000000000000000000000000000005D
:1003A000000000000000000000000000000000004D
:1003B000000000000000000000000000000000003D
:1003C000000000000000000000000000000000002D
:1003D000000000000000000000000000000000001D
:1003E000000000000000000000000000000000000D
:1003F00000000000000000000000000000000000FD
:1004000000000000000000000000000000000000EC
:100410000000000000000000000000000003F000E9
:10042000000000000000000000000000001FFC00B1
:1004300000000000000000000000000001FFFE00BE
:100440000000000000000000000000001FFFFF800F
:100450000000000000000000000000003FFF1BE063
:100460000000000000000000000000003FFF81F8D5
:100470000000000000000000000000001C1FCFFE74
:10048000000000200000000000000000070077FFCF
:10049000800001C000000000000000000387FDFF95
:1004A000E0000E1E000000000000000000FFFF0042
:1004B000300030FF4000000000000000007FFF809F
:1004C000180887FFF000000000000000001C00601A
:1004D000FC27BFFFF000000000000000000700073D
:1004E000F80FFFF800000000000000000001803F4E
:1004F000E7FFEF800C00000000000000000041FF5B
:1005000083FFF0003C00000000000000000017FC2A
:1005100000FF7801FC0000000000000000000FE078
:1005200007FFFC07F80000000000000000000708BB
:100530003FEFFC1FF80000000000000000000C610D
:10054000FFFC7E7FF0000000000003E00000038756
:10055000FF803FFFF0000000000007FC00001C1FB0
:10056000FC003FFFF000000000000FFC0001807F56
:10057000C007FFFFE000000000000FF6000039FF99
:100580000007FFFFE000000000000FFB20001FFC41
:100590000005FFFFE000000000001FF850007FF0A2
:1005A000001FFFFFC000000000001FF82803FDC06F
:1005B000007FFFFFC000000000001FFC340FFE00A2
:1005C00003FFFFFF0000000000001FF71811FD00EF
:1005D0000FFFFFFF0000000000001FF38C07FF006B
:1005E0003FFFFFF80000000000001FF1961FDF81B1
:1005F000FFFFFFE00000000000001FF0E4BFE7C7BE
:10060000FFFFFF8E0000000000000FF0623FF7FFC9
:10061000FFFFF203FE00000000000FE0729E3BFFB0
:10062000FFFFC801FFE0000000000BE0990FFFFF93
:10063000FFFFE0007FFF000000000FE10D0FFFFF54
:10064000FFFC7FF81FFFC00000000F420587FFFF7F
:10065000FFFC3FFFEFFF8000000007C00187FFFFA6
:10066000FFF81FFFFBFE0000000007C403C7FFFFE9
:10067000FFE007FFFFFFE000000007C837EBFFFFC8
:10068000FF8003FFFFFFFF00000007DF8FFBFFFF7E
:10069000FE0000FFFFCFFFE0000003A207BFFFFF47
:1006A000F800003FFF87FFF8000003C0067FFFDF70
:1006B000E000001FFFFBFFFE000003C0002FF79FBC
:1006C000C0000007FFFFFFFF000001C000BF061EC3
:1006D00000000003F7FFFFFFC00001C0009F181CCF
:1006E00000000000DFFFEFFFE00003E0009F0030AC
:1006F000000000003FFFFFFFF00005E0019F00C089
:10070000000000001BFFFFFFE0001F6E010F8000D4
:100710000000000007FFFFFFC000187FE10F80000E
:1007200000000000037FFFFD00000037FF0F800086
:100730000000000000FFFEFE00000037FFE7800021
:1007400000000000006FFFFC0000001BFFFF8000A6
:1007500000000000001FFFD800000003FFFF800022
:10076000000000000005EFE000000003FFFF800034
:1007700000000000000BFFC000000000FFFF800031
:10078000000000000000BC80000000007FFF80002F
:10079000000000000001690000000000BFFF000031
:1007A0000000000000005E0000000001DFFF00000C
:1007B000000000000000180000000000EFFF000033
:1007C00000000000000000000000000073FB0000BB
:1007D00000000000000000000000000039FA0000E6
:1007E0000000000000000000000000001EFE0000ED
:1007F00000000000000000000000000008B400003D
:10080000000000000000000000000000025800008E
:100810000000000000000000000000000060000078
:1008200000000000000000000000000000000000C8
:1008300000000000000000000000000000000000B8
:1008400000000000000000000000000000000000A8
:100850000000000000000000000000000000000098
:100860000000000000000000000000000000000088
:100870000000000000000000000000000000000078
:100880000000000000000000000000000000000068
:100890000000000000000000000000000000000058
:1008A0000000000000000000000000000000000048
:1008B0000000000000000000000000000000000038
:1008C0000000000000000000000000000000000028
:1008D0000000000000000000000000000000000018
:1008E0000000000000000000000000000000000008
:1008F00000000000000000000000000000000000F8
:1009000000000000000000000000000000000000E7
:1009100000000000000000000000000000000000D7
:1009200000000000000000000000000000000000C7
:1009300000000000000000000000000000000000B7
:1009400000000000000000000000000000000000A7
:100950000000000000000000000000000000000097
:100960000000000000000000000000000000000087
:100970000000000000000000000000000000000077
:100980000000000000000000000000000000000067
:100990000000000000000000000000000000000057
:1009A0000000000000000000000000000000000047
:1009B0000000000000000000000000000000000037
:1009C0000000000000000000000000000000000027
:1009D0000000000000000000000000000000000017
:1009E0000000000000000000000000000000000007
:1009F00000000000000000000000000000000000F7
:100A000000000000000000000000000000003E5B4D
:100A10004F5B3E3E6B4F6B3E1C3E7C3E1C183C7E4B
:100A20003C181C577D571C1C5E7F5E1C00183C1830
:100A300000FFE7C3E7FF0018241800FFE7DBE7FF2C
:100A400030483A060E2629792926407F05050740B9
:100A50007F05253F5A3CE73C5A7F3E1C1C08081C7A
:100A60001C3E7F14227F22145F5F005F5F06097FB8
:100A7000017F006689956A606060606094A2FFA251
:100A80009408047E040810207E201008082A1C0800
:100A9000081C2A08081E101010100C1E0C1E0C300A
:100AA000383E3830060E3E0E060000000000000002
:100AB0005F00000007000700147F147F14242A7FC2
:100AC0002A1223130864623649562050000807038F
:100AD00000001C2241000041221C002A1C7F1C2A0D
:100AE00008083E0808008070300008080808080060
:100AF0000060600020100804023E5149453E00425B
:100B00007F400072494949462141494D331814122A
:100B10007F1027454545393C4A4949314121110952
:100B2000073649494936464949291E000014000044
:100B3000004034000000081422411414141414005E
:100B40004122140802015909063E415D594E7C12AA
:100B500011127C7F494949363E414141227F414142
:100B6000413E7F494949417F090909013E414151BF
:100B7000737F0808087F00417F41002040413F010A
:100B80007F081422417F404040407F021C027F7F4B
:100B90000408107F3E4141413E7F090909063E415C
:100BA00051215E7F09192946264949493203017FAF
:100BB00001033F4040403F1F2040201F3F4038403E
:100BC0003F631408146303047804036159494D43D7
:100BD000007F4141410204081020004141417F044F
:100BE0000201020440404040400003070800205436
:100BF0005478407F28444438384444442838444496
:100C0000287F385454541800087E090218A4A49C64
:100C1000787F0804047800447D40002040403D0077
:100C20007F1028440000417F40007C047804787CD9
:100C3000080404783844444438FC18242418182440
:100C40002418FC7C08040408485454542404043F29
:100C500044243C4040207C1C2040201C3C40304030
:100C60003C44281028444C9090907C4464544C445C
:100C700000083641000000770000004136080002FD
:100C8000010204023C2623263C1EA1A161123A4027
:100C900040207A385454555921555579412254549D
:100CA0007842215554784020545579400C1E527298
:100CB0001239555555593954545459395554545875
:100CC0000000457C410002457D420001457C407D9D
:100CD0001211127DF0282528F07C5455450020542F
:100CE000547C547C0A097F4932494949323A444488
:100CF000443A324A4848303A4141217A3A42402007
:100D000078009DA0A07D3D4242423D3D4040403D97
:100D10003C24FF2424487E4943662B2FFC2F2BFFC5
:100D20000929F620C0887E09032054547941000027
:100D3000447D413048484A32384040227A007A0A9D
:100D40000A727D0D19317D2629292F282629292966
:100D50002630484D40203808080808080808083898
:100D60002F10C8ACBA2F102834FA00007B000008FE
:100D7000142A142222142A14085500550055AA5585
:100D8000AA55AAFF55FF55FF000000FF00101010E4
:100D9000FF00141414FF001010FF00FF1010F010DB
:100DA000F0141414FC001414F700FF0000FF00FFFF
:100DB0001414F404FC141417101F10101F101F1427
:100DC00014141F00101010F0000000001F1010106D
:100DD000101F10101010F010000000FF1010101065
:100DE0001010101010FF10000000FF140000FF0092
:100DF000FF00001F10170000FC04F4141417101754
:100E00001414F404F40000FF00F714141414141460
:100E100014F700F7141414171410101F101F1414D3
:100E200014F4141010F010F000001F101F00000048
:100E30001F14000000FC140000F010F01010FF1050
:100E4000FF141414FF141010101F00000000F01005
:100E5000FFFFFFFFFFF0F0F0F0F0FFFFFF000000EA
:100E60000000FFFF0F0F0F0F0F3844443844FC4AB7
:100E70004A4A347E02020606027E027E0263554919
:100E800041633844443C04407E201E2006027E021A
:100E90000299A5E7A5991C2A492A1C4C7201724C9B
:100EA000304A4D4D303048784830BC625A463D3E5D
:100EB000494949007E0101017E2A2A2A2A2A4444FE
:100EC0005F444440514A444040444A51400000FF7E
:100ED0000103E080FF000008086B6B08361236241F
:100EE00036060F090F060000181800000010100049
:100EF0003040FF0101001F01011E00191D171200E3
:100F00003C3C3C3C000000000000000100FF0032BF
:100F1000000100000102000007030030100400007F
:100F20000008000202090000000A0000000C000096
:100F3000000D0000000F000000100000001100076D
:100F4000001200000013000000FF00C80010009015
:100F50001611002702FF00320012001A00FF0032B3
:100F6000001300001829002A00FF003200300000A2
:100F70000031000000320000003500060236000893
:100F8000083700070038000102390000003C00006B
:100F9000003D000000200000002100000050000083
:100FA000005100EF005200000053003F01600000BC
:100FB000A7610003006A000000900010009200008A
:100FC00000930003009500001197000000980000B6
:100FD00000070033010100B903FF8357FFFAB30490
:100FE00000000606B60125B00168CC0105B1060077
:100FF000151C1C83AAC0065050013C1E08B40702F1
:1010000040002A2A0D783A01553601C035010044C6
:101010000200021100FF962900FF322E89298F2B32
:1010200002E200E401E510E601E710E870F200EAF0
:1010300000EB20EC3CEDC8E938F1011B1A1A022440
:1010400061255C183619011F88FF051F80FF051FE9
:1010500090FF051FD4FF05170536092838FF2828FB
:101060003C02000300040005EF0600070008010928
:101070003F72740092740048940078C4000000002D
:10108000010200090A000000000403080700000034
:101090000000000000000000000000000001020449
:1010A0000810204080010204081020408001020442
:1010B0000810204080010204081020408002020233
:1010C00002020202020404040404040404030303ED
:1010D00003030303030101010101010101000020D9
:1010E0000023002600290000002200250028002BF4
:1010F0000000002100240027002A0000407A10F39D
:101100005A00A0724E18090010A5D4E80000E87635
:1011100048170000E40B54020000CA9A3B0000008C
:10112000E1F505000080969800000040420F0000A5
:1011300000A08601000000102700000000E8030066
:101140000000006400000000000A00000000000130
:1011500000000000002C76D888DC674F0823DFC130
:10116000DFAE59E1B1B796E5E3E453C63AE65199EB
:101170007696E8E6C28426EB898C9B62ED407C6F14
:10118000FCEFBC9C9F40F2BAA56FA5F490055A2ACB
:10119000F75C936B6CF9676DC11BFCE0E40D47FED7
:1011A000F520E6B500D0ED902E03009435770500CC
:1011B00080841E080000204E0A000000C80C333353
:1011C00033330F986E12831141EF8D2114893BE662
:1011D0005516CFFEE6DB18D1844B381BF77C1D90EB
:1011E0001DA4BBE424203284725E228100C9F12454
:1011F000ECA1E53D270066118B40664E134F11248C
:101200001FBECFEFD0E4DEBFCDBF15E0A0E0B1E060
:10121000E8EFF6EB00E00BBF02C007900D92AC3098
:10122000B107D9F72CE0ACE0B5E001C01D92A73AB8
:10123000B207E1F711E1CEEFD1E100E006C022975D
:101240000109FE010BBF0E941156C63FD10780E085
:101250000807A9F70E94574F0C947A5B0C94000082
:101260008F929F92AF92BF92CF92DF92EF92FF92B6
:10127000CF93DF93EC016A017B0187ED99E00E9437
:101280009A478F3FD1F5B701A6014150504F6F4F9C
:101290007F4F87ED99E00E949A478F3F71F58C89C7
:1012A000882309F44FC080E1D80EE11CF11C66E1EF
:1012B00071E08DE69BE00E94C74F2AE030E0B70165
:1012C000A6018DE69BE00E94F250B701A60187EDD2
:1012D00099E00E949A47460157019FEF891A990A9F
:1012E000A90AB90A8F32F1F4B501A40187ED99E09A
:1012F0000E949A478A32B1F421C0B701A60187ED56
:1013000099E00E94FC476DE271E08DE69BE00E944F
:10131000C74F2AE030E0B701A6018DE69BE00E94AE
:10132000F250BDCF750164018114910488E0A806D4
:10133000B10458F2C12CD12C7601C7CFCC82DD820A
:10134000EE82FF82DF91CF91FF90EF90DF90CF9000
:10135000BF90AF909F908F900895CF93DF93EC0153
:1013600087ED99E00E94F0471C821D821E821F8239
:10137000188219821A821B82188619861A861B8681
:101380001C8ADF91CF9108954F925F926F927F9266
:101390008F929F92AF92BF92CF92DF92EF92FF9285
:1013A0000F931F93CF93DF93CDB7DEB7A4970FB6FC
:1013B000F894DEBF0FBECDBF29A33AA34BA35CA315
:1013C000E986FA860B871C87840125E33AEF4EE80D
:1013D0005CE30E94C7542B013C0125E33AEF4EE841
:1013E0005CE369A17AA18BA19CA10E94C7546D877F
:1013F0007E878F87988B0E94E7526D8B7E8B8F8BB9
:10140000988FC301B2010E94E75269837A838B836C
:101410009C839B01AC016D897E898F89988D0E9488
:10142000C7546D8B7E8B8F8B988F6D857E858F8556
:1014300098890E942A5529813A814B815C810E94BA
:10144000C75469837A838B839C83C301B2010E9452
:101450002A556D837E838F83988725E33AEF4EE884
:101460005CE369857A858B859C850E94C7542B0136
:101470003C0125E33AEF4EE85CE3C601B5010E946A
:10148000C75469877A878B879C870E94E752698B4C
:101490007A8B8B8B9C8BC301B2010E94E7526D87C4
:1014A0007E878F87988B9B01AC0169897A898B89AC
:1014B0009C890E94C754698B7A8B8B8B9C8B698526
:1014C0007A858B859C850E942A552D853E854F8582
:1014D00058890E94C7546D8F7E8F8F8F98A3C30148
:1014E000B2010E942A5569877A878B879C87298950
:1014F0003A894B895C896D897E898F89988D0E9494
:1015000056522B013C012D8D3E8D4F8D58A1698186
:101510007A818B819C810E9456526D877E878F874E
:10152000988B29853A854B855C856D817E818F817D
:1015300098850E945652698F7A8F8B8F9C8FA3015A
:101540009201C301B2010E94C7542B013C012D85B9
:101550003E854F855889CA01B9010E94C7549B0135
:10156000AC01C301B2010E9457522B013C01298DED
:101570003A8D4B8D5C8DCA01B9010E94C7549B0105
:10158000AC01C301B2010E94575229E93AE743E195
:1015900056E50E94C7540E94345520E030E040E0F8
:1015A0005FE30E94C7542B013C019B01AC010E94E8
:1015B000C7549B01AC0169E97AE783E196E50E9493
:1015C00056520E9434559B01AC01C301B2010E94E6
:1015D000EA520E94BB5220E33EE442EC5AE40E94ED
:1015E000C7549B01AC010E9457526D877E878F873D
:1015F000988B20E030E0A9010E94E352811108C0DD
:10160000AFA9B8AD1D921D921D921C92139761C196
:1016100029853A854B855C8569817A818B819C819E
:101620000E94C7542B013C012D8D3E8D4F8D58A13A
:101630006D817E818F8198850E94C7549B01AC018A
:10164000C301B2010E9456522B013C0129893A89FB
:101650004B895C896D817E818F8198850E94C754FA
:101660006D837E838F83988729853A854B855C853A
:101670006D897E898F89988D0E94C7549B01AC012A
:101680006D817E818F8198850E945652698F7A8FF5
:101690008B8F9C8F2D8D3E8D4F8D58A16D897E89AE
:1016A0008F89988D0E94C7546D837E838F8398871E
:1016B00029893A894B895C8969817A818B819C81EE
:1016C0000E94C7549B01AC016D817E818F819885FA
:1016D0000E945652698B7A8B8B8B9C8BA301920153
:1016E000C301B2010E94C7546D837E838F839887A4
:1016F000298D3A8D4B8D5C8DCA01B9010E94C7546A
:101700009B01AC016D817E818F8198850E9457522B
:101710006D837E838F83988729893A894B895C8979
:10172000CA01B9010E94C7549B01AC016D817E8141
:101730008F8198850E9457520E9434556D837E8315
:101740008F83988789819A81AB81BC81B0588983C6
:101750009A83AB83BC839C01AD01BC01CD010E9487
:10176000C75469877A878B879C872D893E894F89E3
:10177000588DCA01B9010E94C7549B01AC0169850B
:101780007A858B859C850E94575220E030E0A90124
:101790000E9457520E94345569877A878B879C87AD
:1017A0009B01AC0169817A818B819C810E94EA5204
:1017B00069837A838B839C832D813E814F815885F9
:1017C000C301B2010E94EA529B01AC0169817A8196
:1017D0008B819C810E94C75469837A838B839C830D
:1017E00029853A854B855C856D897E898F89988DA1
:1017F0000E94EA522B013C012D813E814F81588588
:10180000698D7A8D8B8D9C8D0E94EA529B01AC0173
:10181000C301B2010E94C7549B01AC0169817A8166
:101820008B819C810E9457522B013C0129853A856E
:101830004B855C8560E070E0CB010E94EA526983D1
:101840007A838B839C832D813E814F815885698962
:101850007A898B899C890E94EA529B01AC0169813B
:101860007A818B819C810E94C7549B01AC01C3018A
:10187000B2010E9457520E94485225E33AEF4EE8C7
:101880005CE30E94EA522B013C0129A13AA14BA141
:101890005CA1C601B5010E94BC5418164CF4A3010A
:1018A000920160E070E084E393E40E94565208C025
:1018B00020E030E044E353E4C301B2010E945752F8
:1018C0000E945253AFA9B8AD6D937D938D939C93B5
:1018D000139720E030E44CE156E46D857E858F85DA
:1018E00098890E94BC5487FD13C020E030E04AE78D
:1018F00054E46D857E858F8598890E94EA520E9406
:101900005253F801608371838283938381E00DC019
:101910006D857E858F8598890E945253D8016D937D
:101920007D938D939C93139780E0A4960FB6F894C3
:10193000DEBF0FBECDBFDF91CF911F910F91FF9002
:10194000EF90DF90CF90BF90AF909F908F907F905F
:101950006F905F904F90089580910E018F5F893056
:1019600008F081E080930E0108951F93CF93DF93D9
:10197000182FEB0161E00E94454CBE01882777FDDE
:101980008095982F0E94334B60E0812FDF91CF919B
:101990001F910C94454CAC0184E0440F551F8A956F
:1019A000E1F78CE0869F9001879F300D1124B901EB
:1019B00083EA99E00C94222BFC019F01281B390B30
:1019C00041914111FACFC9010895CF93DF93EC0102
:1019D0000E94DC0CFE0140E099279F012C1B3D0B6F
:1019E000281739071CF421914227F7CF842FDF9164
:1019F000CF9108952F923F924F925F926F927F9274
:101A00008F929F92AF92BF92CF92DF92EF92FF920E
:101A10000F931F93CF93DF93CDB7DEB7C154D10996
:101A20000FB6F894DEBF0FBECDBF6A962FAD6A9792
:101A30002BAB6B963FAD6B973CAB6C966FAD6C97D9
:101A40006DAB6D968FAD6D978AAF6E969FAD6E97AD
:101A50009BAFAD96CCACDDACEEACFFACAD97AE962B
:101A6000AFADAE97A9ABE2964CAC5DAC6EAC7FACC3
:101A7000E297E396BFADE397BAABC701B6010E9408
:101A800052534B015C0120E030E44CE156E4C701C5
:101A9000B6010E94C7546B017C0100E117E2089D6A
:101AA000B001099D700D189D700D1124882777FDD8
:101AB0008095982F0E9485539B01AC01C701B60108
:101AC0000E9456520E9452536CAF7DAFC301B201C7
:101AD0000E9452536B017C0120E030E44CE156E45B
:101AE000C301B2010E94C7542B013C010C9DB001FF
:101AF0000D9D700D1C9D700D1124882777FD80951C
:101B0000982F0E9485539B01AC01C301B2010E9432
:101B100056520E945253562E472E9E01275E3F4F2B
:101B20003AA729A7E7966CAD7DAD8EAD9FADE7973F
:101B3000890121E044E00E941556CE0141969CA700
:101B40008BA7A5966CAD7DAD8EAD9FADA5970850CA
:101B5000110922E044E00E941556DE011996BEA745
:101B6000ADA7A9966CAD7DAD8EAD9FADA9978D014A
:101B700022E044E00E9415561E01B1E22B0E311CFA
:101B8000ED966CAD7DAD8EAD9FADED97810122E000
:101B900041E00E941556C358DF4F688179818A81E0
:101BA0009B81CD57D0409E012F5F3F4F38AB2FA771
:101BB000890121E044E00E94155665E371E089EE59
:101BC00096E00E944D563BAD3F936AAD6F931F92D6
:101BD0008DA98F931F929CA99F931F92ABA9AF933E
:101BE000ACE3B1E0BF93AF938FEE96E09F938F93FA
:101BF0000E9454568C010151194F89A9992787FDDC
:101C000090959FAB8EAB9F9399A99F93ADADAF93EA
:101C1000BCADBF939F928F924EE451E05F934F9380
:101C20001F930F934EAF5FAF0E945456080F191FBA
:101C30002AA9332727FD309539AF28AF3F933AA91A
:101C40003F934F925F92DF92CF922CE531E03F932A
:101C50002F931F930F9321962FAF219722963FAF7B
:101C600022970E945456080F191F0FB6F894DEBF32
:101C70000FBECDBF6AE671E0C8010E944D560E5FEF
:101C80001F4FE9968FADE9971F928F938DE691E0F4
:101C90009F938F931F930F930E945456080F191F01
:101CA0003F922F9293E7692E91E0792E7F926F9267
:101CB0001F930F930E945456080F191F9AA59F93C4
:101CC000A9A5AF9387E791E09F938F931F930F93FD
:101CD0000E945456B8A9BF936FA56F936DE771E04A
:101CE0007F936F93800F911F9F938F930E94545601
:101CF00089EE96E00E94E50C1F928F9304E811E0B4
:101D00001F930F931E0187E2280E311C3F922F92E2
:101D10000E9454566AE271E08DE69BE00E94A44F57
:101D200069EE76E08DE69BE00E94C74F68E271E0C5
:101D30008DE69BE00E94A44FB1018DE69BE00E94DE
:101D4000E64F69E871E089E996E00E944D569BAD47
:101D50009F93AAADAF931F92BDA9BF931F926CA989
:101D60006F931F928BA98F93ACE3B1E0BF93AF93B6
:101D70008FE996E09F938F930E9454568156994F16
:101D80001C010FB6F894DEBF0FBECDBF69E371E052
:101D90000E944D5692E0290E311CAFA9AF93B9A90C
:101DA000BF936DAD6F938CAD8F939F928F924EAD1D
:101DB0005FAD5F934F933F922F920E945456280E2F
:101DC000391E99AD9F93AAA9AF934F925F92DF926C
:101DD000CF9221962FAD219722963FAD22973F9328
:101DE0002F933F922F920E945456280E391EBCA565
:101DF000BF932BA52F937F926F923F922F920E94B9
:101E00005456280E391E3EA53F936DA56F937F92C1
:101E10006F923F922F920E9454560FB6F894DEBFF5
:101E20000FBECDBFA1962FADA1971F922F93A09665
:101E30002FADA0971F922F936F962FAD6F971F9284
:101E40002F9320E931E03F932F93820D931D9F93B1
:101E50008F930E94545689E996E00E94E50C1F92E8
:101E60008F931F930F938E010B5D1F4F1F930F9343
:101E70000E94545666E271E08DE69BE00E94A44FFA
:101E800069E976E08DE69BE00E94C74F64E271E06D
:101E90008DE69BE00E94A44FB8018DE69BE00E9476
:101EA000E64F0FB6F894DEBF0FBECDBFCF5BDF4F5E
:101EB0000FB6F894DEBF0FBECDBFDF91CF911F915B
:101EC0000F91FF90EF90DF90CF90BF90AF909F90D9
:101ED0008F907F906F905F904F903F902F900895DC
:101EE000EF92FF920F931F93CF93DF931F92CDB783
:101EF000DEB77C018B01211105C049830E94DC0CF7
:101F0000498102C080E090E0F701E80FF91F8017D7
:101F100091071CF401964193FACFF701E80FF91FDE
:101F20001082C7010F90DF91CF911F910F91FF9009
:101F3000EF900895CF93C82F60E070E08AE090E0C2
:101F40000E94CB0C40E050E06FEF7FEF83EA99E016
:101F50000E94342B21E040E269E170E08CE595E0DD
:101F60000E94700FBC0183EA99E00E94C74F60E0B5
:101F700070E08AE090E00E94CB0CC0FF0EC040E011
:101F800058EF6FEF7FEF83EA99E00E94342B61EA0C
:101F900071E083EA99E00E94C74FC1FF0EC040E0A4
:101FA0005CEF60E070E083EA99E00E94342B67EA1E
:101FB00071E083EA99E00E94C74F60E070E080E042
:101FC00090E00E94CB0C40E050E06FEF7FEF83EA9F
:101FD00099E0CF910C94342B1F920F920FB60F9271
:101FE00011240BB60F922F933F934F935F936F93F0
:101FF0007F938F939F93AF93BF93EF93FF938DE066
:1020000095E00E945A2BFF91EF91BF91AF919F9164
:102010008F917F916F915F914F913F912F910F9091
:102020000BBE0F900FBE0F901F9018954F925F92AE
:102030006F927F928F929F92AF92BF92CF92DF92D8
:10204000EF92FF920F931F93CF93DF9300D000D0B6
:10205000CDB7DEB78C0148E350E060E070E0FC01F2
:1020600044875587668777874FEF53E260E070E0DB
:10207000408B518B628B738B148A10821182128277
:10208000138214821582168217824FEF5FEF67E08A
:1020900070E087ED99E00E949A478F3F09F0A4C055
:1020A00040E050EF67E070E087ED99E00E949A47CA
:1020B0008F3F09F499C0CC24CA94DC2C47E0E42E6D
:1020C000F12C88248A94982C57E0A52EB12C240159
:1020D00035014C185D086E087F08B701A60187ED31
:1020E00099E00E949A478F3F31F4F1E0CF1AD1086E
:1020F000E108F108ECCF81E0F801848BFFEFCF1A03
:10210000DF0AEF0AFF0AF801C082D182E282F3827D
:10211000CC24CA943FEED32E37E0E32EF12CB70146
:10212000A60187ED99E00E949A478F3F41F0C114C4
:10213000F0E1DF06E104F10408F060C015C0B7016A
:10214000A6014F5F5F406109710987ED99E00E9428
:102150009A478F3F61F7460157012FEFC216D2060B
:1021600027E0E206F10431F181E0F801848B4601B9
:102170005701B501A40187ED99E00E949A47A50196
:1021800094012F5F3F4F4F4F5F4F29833A834B831B
:102190005C838F32C1F5BA01A90187ED99E00E94F5
:1021A0009A478A3281F5F80184829582A682B782A5
:1021B00046015701B501A40187ED99E00E949A47B5
:1021C0008F3F81F581149104A104B10491F540E0A1
:1021D00050E0BA0187ED99E00E949A478F3FA1F144
:1021E000812C912C540167C0412C512C3201CC24FC
:1021F000CA94DC2C27E0E22EF12C91CFF0E1DF1A1B
:10220000E108F1088CCF89809A80AB80BC80811472
:10221000910428E0A206B10409F0ABCF812C912CE7
:102220005401A7CF81149104A104B10409F043C063
:10223000CECFFFEF4F1A5F0A6F0A7F0A21E0821AA2
:102240009108A108B108B6CFF8018489811105C0B1
:10225000F8011082118212821382FFEF4F1A5F0A77
:102260006F0A7F0A60E070E088E090E06419750909
:1022700086099709F80124853585468557850E948A
:10228000A155F80120873187428753870F900F901F
:102290000F900F90DF91CF911F910F91FF90EF90D2
:1022A000DF90CF90BF90AF909F908F907F906F9076
:1022B0005F904F900895FFEF8F1A9F0AAF0ABF0AF1
:1022C000F80180829182A282B382CCCFEF92FF92FA
:1022D0000F9340E35FEE67E187ED99E00E941B47B3
:1022E0006CE2E62EFF24F3940AE129E148E16BE178
:1022F0008FEC99E00E94AB49E12C05E124E143E138
:1023000062E183EA99E00E945D2C2CE13BE042E02F
:1023100064E083E798E00E94144441E063E778E0DA
:1023200088E697E00E9495408FE29AE2A0E08093D1
:10233000610690936206A0936306809329069093AA
:102340002A06A0932B068093F1059093F205A093A3
:10235000F3056AE07CE08DE095E00F91FF90EF904F
:102360000C94182C4F925F926F927F928F929F9253
:10237000AF92BF92CF92DF92EF92FF920F931F9393
:10238000CF93DF9380900A0190900B01A0900C01F5
:10239000B0900D012AE939E949E550E4C501B401DD
:1023A0000E94E35287FD33C02DEC3CEC4CE650E438
:1023B000C501B4010E94E35287FF0AC02AE939E946
:1023C00049E550E4C501B4010E94BC5487FF24C014
:1023D0002AE939E949E750E4C501B4010E94E35212
:1023E000C0EED7E087FF23C02DEC3CEC4CE650E478
:1023F000C501B4010E94BC5487FD19C060EEA62E31
:1024000067E0B62E70EE872E77E0972E0DC0C0E005
:10241000D8EFA12CB12C06C0C0EEDFEF50EEA52EF8
:10242000BB24BA94812C912C612C712C0CC020EE11
:10243000A22E27E0B22E30EE832E37E0932E40EE10
:10244000642E47E0742E730109E010E024E030E0D0
:1024500042E050E064E070E083EA99E00E943836A0
:10246000740124E030E042E050E069E070E083EA8B
:1024700099E00E943836750124E030E042E050E0F7
:102480006EE070E083EA99E00E9438367E0124E035
:1024900030E042E050E063E170E083EA99E00E94BE
:1024A0003836CC24CA94DC2CEE24E394F12C0DE0D5
:1024B00010E027E130E040E050E062E070E083EAC5
:1024C00099E00E945C27E091A309F091A40904849B
:1024D000F585E02DEE24EA94FE2C05E010E022E0E4
:1024E00030E044E050E060E070E083EA99E0099574
:1024F00080915E0790915F078C392FEF9207F1F082
:102500009C012D593F4F2E30310518F12E503109C5
:102510002F30310550F12F5031092F30310590F116
:102520002F50310920313105F0F18896899708F054
:102530004AC060EE462E67E0562E37C0412C512C23
:10254000C0E0D0E0A12CB12C812C912C612C712CFD
:102550003AC0412C512CC0E0D0E0A12CB12C812CF0
:10256000912C612C18EF712E2EC0412C512CC0E003
:10257000D0E0A12CB12C812CACEF9A2E612CBCEFB9
:102580007B2E21C0412C512CC0E0D0E070EEA72E54
:10259000BB24BA94E0EE8E2E99249A94F0EE6F2E1E
:1025A00077247A9410C0412C512CC0EED7E030EE45
:1025B000A32E37E0B32E40EE842E47E0942E50EE4B
:1025C000652E57E0752E730104E010E024E030E042
:1025D00049E050E06FE170E083EA99E00E9438360C
:1025E000740106E010E024E030E047E050E064E2EF
:1025F00070E083EA99E00E943836750108E010E047
:1026000024E030E045E050E069E270E083EA99E0E0
:102610000E9438367E010AE010E024E030E043E01A
:1026200050E06EE270E083EA99E00E943836720171
:102630000CE010E024E030E041E050E063E370E0C3
:1026400083EA99E00E94383680909506909096062D
:10265000A0909706B09098062AE939E949E550E438
:10266000C501B4010E94E35287FD33C02DEC3CEC60
:102670004CE650E4C501B4010E94E35287FF0AC052
:102680002AE939E949E550E4C501B4010E94BC5486
:1026900087FF24C02AE939E949E750E4C501B401BC
:1026A0000E94E352C0EED7E087FF23C02DEC3CEC44
:1026B0004CE650E4C501B4010E94BC5487FD19C02A
:1026C00090EEA92E97E0B92E20EE822E27E0922ED2
:1026D0000DC0C0E0D8EFA12CB12C06C0C0EEDFEFDA
:1026E00080EEA82EBB24BA94812C912CE12CF12CE5
:1026F0000CC0B0EEAB2EB7E0BB2E10EE812E17E073
:10270000912E00EEE02E07E0F02E09E010E024E02C
:1027100030E042E050E06AED70E083EA99E00E9428
:102720003836740124E030E042E050E06FED70E0B4
:1027300083EA99E00E943836750124E030E042E0F7
:1027400050E064EE70E083EA99E00E9438367E0142
:1027500024E030E042E050E069EE70E083EA99E086
:102760000E943836CC24CA94DC2CEE24E394F12C5D
:102770000DE010E027E130E040E050E068ED70E06F
:1027800083EA99E00E945C27E091A309F091A409F3
:102790000484F585E02DEE24EA94FE2C05E010E09B
:1027A00022E030E044E050E066ED70E083EA99E03A
:1027B000099540E050E06AE570E083EA99E00E9404
:1027C000222B809164068A3030F468EF72E083EA4D
:1027D00099E00E94C74F4AE050E06091640683EAA6
:1027E00099E00E94BE5066EE72E083EA99E00E9492
:1027F000C74F809165068A3030F468EF72E083EA53
:1028000099E00E94C74F4AE050E06091650683EA74
:1028100099E00E94BE50E091A309F091A4090680BE
:10282000F781E02DE12C78EFF72E04E110E020EFA6
:1028300030E044E150E060E070E083EA99E009951F
:10284000DF91CF911F910F91FF90EF90DF90CF908C
:10285000BF90AF909F908F907F906F905F904F90C0
:102860000895EF92FF920F931F9360E070E083EA68
:1028700099E00E94C436E12CE8EFFE2E08E710E054
:1028800028E730E048EC50E060E070E083EA99E04F
:102890000E943836E091A309F091A4090484F585DB
:1028A000E02DEE24EA94FE2C28E730E048EC50E0DE
:1028B00060E070E083EA99E00995B0EEEB2EFF242A
:1028C000FA9428E730E048EC50E068E770E083EAEB
:1028D00099E00E943836E091A309F091A40904849C
:1028E000F585E02DEE24EA94FE2C28E730E048EC54
:1028F00050E068E770E083EA99E0099564E070E0F1
:1029000080E190E00E94CB0C6FEF7FEF83EA99E0CB
:102910000E942E2B64E083EA99E00E94282B6DEA46
:1029200071E083EA99E00E94E64F6EE070E080E19A
:1029300090E00E94CB0C6FE170E083EA99E00E9486
:102940002E2B64E083EA99E00E94282B60EB71E073
:1029500083EA99E00E94E64F62E083EA99E00E94F0
:10296000282B60E083EA99E00E94923940E050E031
:102970006FEF7FEF83EA99E00E94342B61E083EAF6
:1029800099E00E943A2B40E050E060E070E083EA7A
:1029900099E01F910F91FF90EF900C94222BEF92F2
:1029A000FF920F931F93CF93DF9390E0FC01319739
:1029B000E830F10508F069C7EA5BFF4F20910C058C
:1029C0000C94E255213019F4662309F4A2C081E089
:1029D00080930C050E94311460E070E082E090E08A
:1029E0000E94CB0C63EB71E083EA99E00E94C74F31
:1029F00060E070E083E090E00E94CB0C8091830661
:102A00001F928F938EEB91E09F938F93C4E8D5E054
:102A1000DF93CF930E945456BE0183EA99E00E944F
:102A2000C74F60E070E084E090E00E94CB0C8091A2
:102A300082061F928F9385EC91E09F938F93DF9393
:102A4000CF930E945456BE0183EA99E00E94C74F7B
:102A500060E070E085E090E00E94CB0C609184061D
:102A60007091850680918606909187060CE515E0A9
:102A700022E045E00E9415569F938F938DEC91E0E4
:102A80009F938F93DF93CF930E945456BE0183EAA6
:102A900099E00E94C74F60E070E086E090E00E94FD
:102AA000CB0C80915F078F9380915E078F9385EDAC
:102AB00091E09F938F93DF93CF930E945456BE0172
:102AC00083EA99E00E94C74F60E070E087E090E001
:102AD0000E94CB0C609195067091960680919706A6
:102AE0009091980622E044E00E9415569F938F93A0
:102AF00080EE91E09F938F93DF93CF930E94545683
:102B00008DB79EB74E960FB6F8949EBF0FBE8DBF81
:102B10008EC464E070E083E090E00E94CB0C4AE059
:102B200050E06091830683EA99E00E94BE5065E020
:102B300070E084E090E00E94CB0C4AE050E06091AD
:102B4000820683EA99E00E94BE5065E070E085E06D
:102B500090E00E94CB0C6091840670918506809174
:102B60008606909187060CE515E022E045E00E947C
:102B70001556BC0184E895E00E944D5664E875E066
:102B800083EA99E00E94C74F68E070E086E090E039
:102B90000E94CB0C60915E0770915F074AE050E0A5
:102BA00083EA99E00E94915067E070E087E090E04E
:102BB0000E94CB0C609195067091960680919706C5
:102BC0009091980622E044E00E941556BC018EC503
:102BD000223019F4662309F4BAC082E080930C0510
:102BE0000E94311460E070E082E090E00E94CB0C23
:102BF0006CEE71E083EA99E00E94C74F6091510743
:102C00007091520780915307909154070E94855309
:102C10009B01AC0160917E0670917F0680918006D9
:102C2000909181060E9456520CE515E020E044E0A8
:102C30000E9415569F938F9385EF91E09F938F93FA
:102C4000C4E8D5E0DF93CF930E94545660E070E073
:102C500083E090E00E94CB0CBE0183EA99E00E94E1
:102C6000C74F26E53EE04DEE5FE360916C06709144
:102C70006D0680916E0690916F060E94C75420E009
:102C800044E00E9415569F938F938EEF91E09F939F
:102C90008F93DF93CF930E94545660E070E084E0FE
:102CA00090E00E94CB0CBE0183EA99E00E94C74FDE
:102CB000609155077091560780915707909158077A
:102CC0000E94855320E044E00E9415569F938F9305
:102CD0008AE092E09F938F93DF93CF930E945456A4
:102CE00060E070E085E090E00E94CB0CBE0183EADA
:102CF00099E00E94C74F60E070E086E090E00E949B
:102D0000CB0C6091490770914A0780914B079091D5
:102D10004C070E94855320E044E00E9415569F9383
:102D20008F9385E192E09F938F93DF93CF930E94DF
:102D30005456BE0183EA99E00E94C74F8DB79EB7F3
:102D400048960FB6F8949EBF0FBE8DBFA2C060918B
:102D500051077091520780915307909154070E9438
:102D600085539B01AC0160917E0670917F06809136
:102D70008006909181060E9456520CE515E020E0F5
:102D800044E00E9415569F938F9384E292E09F93B4
:102D90008F93C4E8D5E0DF93CF930E94545664E04C
:102DA00070E083E090E00E94CB0CBE0183EA99E0E2
:102DB0000E94C74F26E53EE04DEE5FE360916C0652
:102DC00070916D0680916E0690916F060E94C754B7
:102DD00020E044E00E9415569F938F938FE292E08B
:102DE0009F938F93DF93CF930E94545664E070E0DB
:102DF00084E090E00E94CB0CBE0183EA99E00E943F
:102E0000C74F609155077091560780915707909171
:102E100058070E94855320E044E00E9415569F9376
:102E20008F938DE392E09F938F93DF93CF930E94D4
:102E3000545664E070E085E090E00E94CB0CBE0147
:102E400083EA99E00E94C74F64E070E086E090E07A
:102E50000E94CB0C6091490770914A0780914B0703
:102E600090914C070E94855320E044E00E94155643
:102E7000BC01CE010E944D56BE0183EA99E00E943A
:102E8000C74F8DB79EB742960FB6F8949EBF0FBE40
:102E90008DBF80915C07811103C06CE172E002C0BC
:102EA00060E272E083EA99E00E94C74F64E083EA3F
:102EB00099E00E94282B60E070E088E090E00E949A
:102EC000CB0C6091390770913A0780913B07909144
:102ED0003C070CE515E020E041E00E9415569F9369
:102EE0008F9382E092E09F938F9384E895E09F9385
:102EF0008F930E94545664E875E083EA99E00E943B
:102F0000C74F0F900F900F900F900F900F9062E0AF
:102F100083EA99E0DF91CF911F910F91FF90EF909D
:102F20000C94282B233019F4662309F4A2C083E003
:102F300080930C050E94311460E070E082E090E024
:102F40000E94CB0C6AE472E083EA99E00E94C74FCA
:102F500060E070E083E090E00E94CB0C6091390764
:102F600070913A0780913B0790913C070CE515E082
:102F700020E044E00E9415569F938F9386E592E0EF
:102F80009F938F93C4E8D5E0DF93CF930E9454566C
:102F9000BE0183EA99E00E94C74F60E070E084E0E0
:102FA00090E00E94CB0C809150078F9380914F0747
:102FB0008F9380914E078F9380914D078F9383E677
:102FC00092E09F938F93DF93CF930E945456BE015C
:102FD00083EA99E00E94C74F60E070E085E090E0EE
:102FE0000E94CB0C809148078F93809147078F9365
:102FF000809146078F93809145078F938FE692E0EB
:103000009F938F93DF93CF930E945456BE0183EA20
:1030100099E00E94C74F8DB79EB746960FB6F894B9
:103020009EBF0FBE8DBF80915C07811103C06CE114
:1030300072E002C060E272E083EA99E00E94C74F4A
:1030400060E070E087E090E00E94CB0C60917E062B
:1030500070917F0680918006909181060CE515E0C5
:1030600020E045E00E9415569F938F9389E792E0F8
:103070008AC066E070E083E090E00E94CB0C609133
:10308000390770913A0780913B0790913C070CE516
:1030900015E020E044E00E941556BC0184E895E06C
:1030A0000E944D5664E875E083EA99E00E94C74F9C
:1030B00066E070E084E090E00E94CB0C80915007C5
:1030C0008F9380914F078F9380914E078F938091BC
:1030D0004D078F9305E712E01F930F93C4E8D5E0E7
:1030E000DF93CF930E945456BE0183EA99E00E9479
:1030F000C74F66E070E085E090E00E94CB0C8091C5
:1031000048078F93809147078F93809146078F934D
:10311000809145078F931F930F93DF93CF930E9466
:103120005456BE0183EA99E00E94C74F8DB79EB7FF
:1031300040960FB6F8949EBF0FBE8DBF80915C077E
:10314000811103C06CE172E002C060E272E083EAC8
:1031500099E00E94C74F68E070E087E090E00E942D
:10316000CB0C60917E0670917F06809180069091D5
:1031700081060CE515E020E045E00E9415569F937E
:103180008F9386E892E09F938F9384E895E09F93D6
:103190008F930E9454560F900F900F900F900F90A6
:1031A0000F9067C3243019F4662309F4B1C084E09A
:1031B00080930C050E94311460E070E082E090E0A2
:1031C0000E94CB0C6AE872E083EA99E00E94C74F44
:1031D00060E070E083E090E00E94CB0C60917406A8
:1031E0007091750680917606909177060CE515E052
:1031F00024E049E00E9415569F938F932091780612
:10320000822F992787FD90959F932F9385E992E0D0
:103210009F938F93C4E8D5E0DF93CF930E945456D9
:10322000BE0183EA99E00E94C74F60E070E084E04D
:1032300090E00E94CB0C6091790670917A068091A3
:103240007B0690917C0624E049E00E9415569F93EE
:103250008F9320917D06822F992787FD90959F93CC
:103260002F938FE992E09F938F93DF93CF930E94E8
:103270005456BE0183EA99E00E94C74F60E070E0B7
:1032800085E090E00E94CB0C69EA72E0CE010E94DA
:103290004D56BE0183EA99E00E94C74F60E070E09E
:1032A00086E090E00E94CB0C60918C0670918D06B8
:1032B00080918E0690918F0626E04AE00E94155676
:1032C000BC01CE010E944D56BE0183EA99E00E94E6
:1032D000C74F60E070E087E090E00E94CB0C609107
:1032E000900670919106809192069091930626E047
:1032F0004AE00E941556BC01CE010E944D568DB782
:103300009EB740960FB6F8949EBF0FBE8DBF8FC07C
:1033100064E070E083E090E00E94CB0C6091740662
:103320007091750680917606909177060CE515E010
:1033300024E049E00E9415569F938F9320917806D0
:10334000822F992787FD90959F932F9393EAE92EDB
:1033500092E0F92EFF92EF92C4E8D5E0DF93CF938D
:103360000E945456BE0183EA99E00E94C74F64E070
:1033700070E084E090E00E94CB0C6091790670913F
:103380007A0680917B0690917C0624E049E00E94B9
:1033900015569F938F9320917D06822F992787FD45
:1033A00090959F932F93FF92EF92DF93CF930E947C
:1033B0005456BE0183EA99E00E94C74F60E070E076
:1033C00086E090E00E94CB0C60918C0670918D0697
:1033D00080918E0690918F0626E04AE00E94155655
:1033E000BC01CE010E944D56BE0183EA99E00E94C5
:1033F000C74F60E070E087E090E00E94CB0C6091E6
:10340000900670919106809192069091930626E025
:103410004AE00E941556BC01CE010E944D568DB760
:103420009EB740960FB6F8949EBF0FBE8DBFBE01EB
:1034300022C2253019F4662309F4ABC085E08093DD
:103440000C050E94311460E070E082E090E00E9480
:10345000CB0C67EB72E083EA99E00E94C74F60E013
:1034600070E083E090E00E94CB0C69EA72E083EAAE
:1034700099E00E94C74F60E070E084E090E00E9415
:10348000CB0C60918C0670918D0680918E06909188
:103490008F060CE515E026E049E00E941556BC01B8
:1034A00084E895E00E944D5664E875E083EA99E06F
:1034B0000E94C74F60E070E085E090E00E94CB0C76
:1034C000609190067091910680919206909193067A
:1034D00026E049E00E941556BC0184E895E00E9470
:1034E0004D5664E875E083EA99E00E94C74F60E0BA
:1034F00070E086E090E00E94CB0C809158078F939B
:10350000809157078F93809156078F93809155072D
:103510008F9384EC92E09F938F93C4E8D5E0DF9380
:10352000CF930E945456BE0183EA99E00E94C74F90
:1035300060E070E087E090E00E94CB0C80914C0747
:103540008F9380914B078F9380914A078F9380913F
:1035500049078F938BEC92E09F938F93DF93CF93E8
:103560000E945456BE0183EA99E00E94C74F8DB76E
:103570009EB740960FB6F8949EBF0FBE8DBF809148
:103580005C07811103C06DE672E075C161E272E013
:1035900072C160E070E084E090E00E94CB0C60912A
:1035A0008C0670918D0680918E0690918F060CE5A9
:1035B00015E026E049E00E941556BC0184E895E03C
:1035C0000E944D5664E875E083EA99E00E94C74F77
:1035D00060E070E085E090E00E94CB0C6091900686
:1035E00070919106809192069091930626E049E0B1
:1035F0000E941556BC0184E895E00E944D5664E88F
:1036000075E083EA99E00E94C74F64E070E086E0CD
:1036100090E00E94CB0C809158078F9380915707C0
:103620008F93809156078F93809155078F930DED5F
:1036300011E01F930F93C4E8D5E0DF93CF930E946E
:103640005456BE0183EA99E00E94C74F64E070E0DF
:1036500087E090E00E94CB0C80914C078F93809183
:103660004B078F9380914A078F93809149078F93DF
:103670001F930F93DF93CF930E945456BE0183EAAA
:1036800099E00E94C74F8DB79EB740960FB6F89449
:103690009EBF0FBE8DBF73CF263019F4662309F489
:1036A000F4C086E080930C050E94311460E070E065
:1036B00082E090E00E94CB0C62ED72E083EA99E038
:1036C0000E94C74F60E070E083E090E00E94CB0C66
:1036D0006CED72E083EA99E00E94C74F60E070E011
:1036E00084E090E00E94CB0C68EE72E084E895E004
:1036F0000E944D56BEC0273019F4662309F448C015
:1037000087E080930C050E94311460E070E082E055
:1037100090E00E94CB0C6AEF72E083EA99E00E948D
:10372000C74F60E070E083E090E00E94CB0C809196
:1037300099098F93809198098F93809197098F931E
:10374000809196098F9385E093E09F938F9384E80F
:1037500095E09F938F930E94545664E875E083EA46
:1037600099E00E94C74F60E070E084E090E00E9422
:10377000CB0C62E173E084E895E00E944D568DB772
:103780009EB708960FB6F8949EBF0FBE8DBF71C04E
:1037900069E070E083E090E00E94CB0C8091990991
:1037A0008F93809198098F93809197098F9380913F
:1037B00096098F938EE093E09F938F9384E895E032
:1037C0009F938F930E9454568DB79EB708960FB65D
:1037D000F8949EBF0FBE8DBF4CC0283019F46623ED
:1037E00009F453C088E080930C050E94311460E016
:1037F00070E082E090E00E94CB0C65E273E083EA27
:1038000099E00E94C74F60E070E083E090E00E9482
:10381000CB0C809199098F93809198098F93809117
:1038200097098F93809196098F9382E393E09F93FA
:103830008F9384E895E09F938F930E94545664E899
:1038400075E083EA99E00E94C74F60E070E084E091
:1038500090E00E94CB0C60E473E084E895E00E9465
:103860004D568DB79EB708960FB6F8949EBF0FBE03
:103870008DBF64E875E083EA99E0DF91CF911F91F5
:103880000F91FF90EF900C94C74FDF91CF911F9154
:103890000F91FF90EF900895CF92DF92EF92FF92F9
:1038A0000F931F93CF93DF9340ED57E060E070E0FC
:1038B0008DE29BE00E94E84920E032EC41E050E0DC
:1038C0006DE67BE08DE29BE00E94FB498DE29BE090
:1038D0000E94E54962E573E080915E0B90915F0B79
:1038E0000E94C74F6AE070E080E090E00E94334B96
:1038F00040E060E08DE29BE00E94074A26E040E065
:1039000052EC61E070E08DE69BE00E949A4D60EF22
:1039100071E08DE69BE00E94D44F68EE72E08DE688
:103920009BE00E94E64F60EE71E08DE69BE00E9416
:10393000D44F88E697E00E94B43E882349F040E0E7
:1039400050E069ED73E483E798E00E94954406C077
:1039500064ED71E08DE69BE00E94D44F60E875E273
:103960008DE095E00E94292C8FEA87BD80916E0042
:10397000826080936E0062E08CE00E940C4C62E0FA
:103980008DE00E940C4C109260071092610710921B
:1039900062071092630761E08EE00E940C4C82E0A7
:1039A0000E945B2383EA99E00E94102D83EA99E04C
:1039B0000E94D730EC01C13483E9D80709F0E3C095
:1039C00061E473E983EA99E00E94D83A60E070E02C
:1039D00083EA99E00E94C43662E083EA99E00E949B
:1039E000282B60E083EA99E00E94923940E050E0A1
:1039F0006FEF7FEF83EA99E00E94342B61E083EA66
:103A000099E00E943A2B20EEC22EDD24DA9430E8B1
:103A1000E32EF12C0AE710E029E032E044E150E027
:103A200068E370E083EA99E00E94192863E070E09F
:103A30008CE090E00E94CB0C66EC71E083EA99E0A8
:103A40000E94A44F61E070E080E190E00E94CB0C06
:103A500068EE72E083EA99E00E94C74F60E777E181
:103A600080E090E00E94334B60E070E083EA99E0F0
:103A70000E94C43660E070E088E090E00E94CB0CC9
:103A80006FEF7FEF83EA99E00E942E2B62E083EADA
:103A900099E00E94282B64E673E083EA99E00E9493
:103AA000C74F60E070E08AE090E00E94CB0C67E7CF
:103AB00073E083EA99E00E94C74F61E676E08EE802
:103AC00099E00E94161061EB71E08DE69BE00E9488
:103AD000D44F6CE971E08DE69BE00E94A44F4091C9
:103AE0008E0950918F0960919009709191092AE097
:103AF00030E08DE69BE00E94F25068E871E08DE6D0
:103B00009BE00E94A44F40919209509193096091CB
:103B10009409709195092AE030E08DE69BE00E94BF
:103B2000F25063E771E08DE69BE00E94A44F409164
:103B300096095091970960919809709199092AE026
:103B400030E08DE69BE00E94F25060E080910E0133
:103B50000E94CF1464E671E08DE69BE00E94D44F92
:103B60000E94044B6093EC057093ED058093EE0585
:103B70009093EF05DF91CF911F910F91FF90EF9000
:103B8000DF90CF9008956AE471E08DE69BE00E949B
:103B9000A44F40E150E0BE018DE69BE0DF91CF9164
:103BA0001F910F91FF90EF90DF90CF900C94DC501D
:103BB0001092390710923A0710923B0710923C0777
:103BC0001092450710924607109247071092480737
:103BD00010924D0710924E0710924F071092500707
:103BE00010925B07109255071092560710925707D4
:103BF0001092580780918C0690918D06A0918E06A8
:103C0000B0918F068093410790934207A09343079A
:103C1000B09344078091900690919106A0919206EE
:103C2000B091930680933D0790933E07A0933F0782
:103C3000B09340070E9431146BE873E083EA99E087
:103C40000E94E64F62EA73E083EA99E00E94E64F41
:103C5000409141075091420760914307709144079A
:103C600028E030E083EA99E00E94EF5167EA73E0D0
:103C700083EA99E00E94E64F40913D0750913E074C
:103C800060913F077091400728E030E083EA99E0B7
:103C90000E94EF5160917E0670917F0680918006B0
:103CA000909181060E94525360935107709352077E
:103CB000809353079093540760ED77E080E090E0A5
:103CC0000E94334B61E080910E010C94CF143F921F
:103CD0004F925F926F927F928F929F92AF92BF921C
:103CE000CF92DF92EF92FF920F931F93CF93DF93C8
:103CF000CDB7DEB7EF970FB6F894DEBF0FBECDBFDE
:103D00000E94B2118FEC99E00E94214829AF3AAF8E
:103D10004BAF5CAF6DAF7EAF09AD1AAD8BAC9CAC59
:103D200061E089E10E940C4C61E088E10E940C4C4A
:103D30008DAD9EAD0B978D3D934008F05FC083EA3B
:103D400099E00E94522B5C01CC24B7FCC094DC2C7F
:103D5000B801882777FD8095982F1F921F921F9298
:103D60001F9218E9E12E13E0F12E00E010E026E9A1
:103D700030E040E050E00E9401522B013C0183EA18
:103D800099E00E94562B5C01CC24B7FCC094DC2C3B
:103D9000B401882777FD8095982F1F921F921F925C
:103DA0001F921CEAE12E13E0F12E00E010E028E75C
:103DB00030E040E050E00E9401526F5071090FB6B0
:103DC000F894DEBF0FBECDBF693C7105BCF095E035
:103DD000491A5108E8E74E1651044CF465E070E0CA
:103DE0008EE00E94B50C81E080935A0707C0F0EF87
:103DF0004F1651041CF481E0809359078CE00E9417
:103E00007B4C892B21F481E080935A0708C08DE018
:103E10000E947B4C892B19F481E080935907809193
:103E20005A07882359F010925A070E94AC0C61E09F
:103E300080910E010E94CF141092F00580915907D5
:103E4000882309F463C11092590780910E018730CD
:103E500070F4823008F058C1813009F055C165E036
:103E600070E08EE00E94B50C0E94D81D4DC18730D5
:103E700009F470C0883009F047C16AE070E08EE054
:103E80000E94B50C60E070E081E090E00E94CB0CF5
:103E900021E040E269E170E084E895E00E94700F63
:103EA000BC0183EA99E00E94C74F60E070E082E0C5
:103EB00090E00E94CB0C21E040E269E170E084E8F0
:103EC00095E00E94700FBC0183EA99E00E94C74F01
:103ED00060E070E083E090E00E94CB0C21E040E2E3
:103EE00069E170E084E895E00E94700FBC0183EA0C
:103EF00099E00E94C74F60E070E082E090E00E948D
:103F0000CB0C6BEB73E084E895E00E944D5664E8BF
:103F100075E083EA99E00E94C74F809092099090E3
:103F20009309A0909409B09095098FE29AE2A0E0DD
:103F300089839A83AB836CE271E08DE69BE00E94FB
:103F4000D44FF89401E010E0CE0101967C01F8E333
:103F50003F2EB0C06AE070E08EE00E94B50C60E0D9
:103F600070E081E090E00E94CB0C21E040E269E14A
:103F700070E084E895E00E94700FBC0183EA99E04C
:103F80000E94C74F60E070E082E090E00E94CB0C9E
:103F900021E040E269E170E084E895E00E94700F62
:103FA000BC0183EA99E00E94C74F60E070E083E0C3
:103FB00090E00E94CB0C21E040E269E170E084E8EF
:103FC00095E00E94700FBC0183EA99E00E94C74F00
:103FD00060E070E082E090E00E94CB0C6CEA73E05D
:103FE00084E895E00E944D5664E875E083EA99E024
:103FF0000E94C74F8EE899E00E94AD0980C02A0157
:104000003B019FEF491A590A690A790A87ED99E03D
:104010000E949A47F60181936F0141145104F8E020
:104020006F06710418F0412C512C3201B301A2012A
:1040300040909A0950909B0960909C0970909D094E
:10404000C6018E199F09A0E0B0E084159505A6056C
:10405000B705A8F28091920990919309A0919409D3
:10406000B0919509840D951DA61DB71DA770BB279E
:104070008093920990939309A0939409B093950922
:104080008DB79EB7C8970FB6F8949EBF0FBE8DBF71
:10409000ADB7BEB71196F701832D01900D928A95A9
:1040A000E1F70E94FA0C0F5F1F4F0FB6F894DEBFC6
:1040B0000FBECDBFA80160E070E08091960990919D
:1040C0009709A0919809B0919909481759076A076B
:1040D0007B0750F4409192095091930960919409A3
:1040E000709195096701A4CFAA24BB2480929209FC
:1040F00090929309A0929409B0929509789461E006
:1041000080910E010E94CF141092F005C090EC0532
:10411000D090ED05E090EE05F090EF050E94044B85
:104120006C157D058E059F0550F40E94044B60932D
:10413000EC057093ED058093EE059093EF0588E60E
:1041400097E00E94533E882309F4A9C18091F005AD
:104150008E7F8093F00588E38FAFC12CD12CE12CAA
:10416000F12C00E010E09E012F5F3F4FAE01415C5B
:104170005F4F61E676E088E697E00E94CC408823B6
:1041800009F4FCC10E94044B6093EC057093ED05AB
:104190008093EE059093EF0583E798E00E9412402C
:1041A000992787FD909590935F0780935E07809194
:1041B0009406882309F4E4C080915D07811102C050
:1041C0000E94D81D81E080935D078091F0058D7F6E
:1041D0008093F005A0909006B0909106C090920652
:1041E000D0909306E0908C06F0908D0600918E069C
:1041F00010918F0620913D0730913E0740913F0777
:1042000050914007609141077091420780914307A8
:1042100090914407E5E5F7E0FF93EF93E9E48E2EF4
:10422000E7E09E2E0E94C409182F80935C07C0907F
:104230007E06D0907F06E0908006F0908106809008
:10424000510790905207A0905307B0905407609187
:104250004D0770914E0780914F0790915007680D60
:10426000791D8A1D9B1D0E9485539B01AC010F90F7
:104270000F90C701B6010E94BC541816A4F4C501E2
:10428000B4010E9485539B01AC01C701B6010E9495
:1042900056520E94525360934D0770934E0780937D
:1042A0004F07909350074091490750914A076091FA
:1042B0004B0770914C07111103C010925B0708C0A7
:1042C00080915B07811104C081E080935B070DC082
:1042D0008091450790914607A0914707B091480704
:1042E00084179507A607B70744F4409345075093F2
:1042F0004607609347077093480726E53EE04DEE7A
:104300005FE360916C0670916D0680916E069091EE
:104310006F060E94C75420E030E040E85FE30E944F
:10432000E35287FF08C010926C0610926D0610923F
:104330006E0610926F0626E53EE04DEE5FE360915B
:104340006C0670916D0680916E0690916F060E94CA
:10435000C7546B017C012091390730913A07409195
:104360003B0750913C070E94BC54181674F4C0924D
:104370003907D0923A07E0923B07F0923C0705C01C
:104380008091F00582608093F005C0908E09D090F6
:104390008F09E0909009F090910901E616E0A801DC
:1043A0004156564060E070E080919A0990919B09D7
:1043B000A0919C09B0919D09481759076A077B078E
:1043C00060F5F80121918F01B701A60187ED99E011
:1043D0000E94C547D701C6019F70AA27BB27892B1A
:1043E0008A2B8B2B59F4B701A601505F6F4F7F4F7B
:1043F000677077278EE899E00E943009FFEFCF1AA7
:10440000DF0AEF0AFF0AC114D10428E0E206F10432
:1044100030F2C12CD12C7601C2CFC0928E09D0923D
:104420008F09E0929009F0929109809196099091FC
:104430009709A0919809B091990940919E095091CE
:104440009F096091A0097091A10984179507A6079B
:10445000B70758F40196A11DB11D8093960990935A
:104460009709A0939809B09399098DB79EB7C897FB
:104470000FB6F8949EBF0FBE8DBFADB7BEB71196F5
:1044800088E3E1E6F6E001900D928A95E1F70E945B
:10449000FA0C0FB6F894DEBF0FBECDBF6AC00E9403
:1044A000044B0091EC051091ED052091EE05309143
:1044B000EF0508571C4E2F4F3F4F061717072807C9
:1044C000390708F05BC08091F00581608093F005AA
:1044D0000E94044B6093640770936507809366079E
:1044E0009093670700916007109161072091620720
:1044F000309163070053184F2F4F3F4F0617170790
:1045000028073907C0F460936007709361078093B0
:1045100062079093630765E070E08EE00E94B50C3F
:1045200064E670E080E090E00E94334B65E070E06C
:104530008EE00E94B50C1092820681EE9AEFA7ECF5
:10454000B2E48093840690938506A0938606B09388
:104550008706109283068CE99FEF90935F07809304
:104560005E0710929506109296061092970610928A
:10457000980660E080910E010E94CF140E94044BC7
:104580000091E8051091E9052091EA053091EB05CD
:10459000601771078207930750F40E94044B6093E1
:1045A000E8057093E9058093EA059093EB050E9476
:1045B000044B0091E8051091E9052091EA0530913E
:1045C000EB050053184F2F4F3F4F061717072807CB
:1045D000390778F48091F00590E00E949A0F0E94CC
:1045E000044B6093E8057093E9058093EA05909386
:1045F000EB05EF960FB6F894DEBF0FBECDBFDF918F
:10460000CF911F910F91FF90EF90DF90CF90BF90CF
:10461000AF909F908F907F906F905F904F903F9062
:104620000895CF93CFB7F8948091E109811127C005
:10463000E1ECF0E18491E1EAF0E19491E82FF0E01F
:10464000EE0FFF1FEF50FF4EA591B4918C9189237F
:1046500021F461E084E00E94454C61E084E00E9426
:104660000C4C8CB580618CBD8CB580648CBD61E0D8
:1046700087E00E940C4C61E085E00E940C4C809128
:10468000E1098F5F8093E109CFBFCF9108959FB774
:10469000F8948091E109882319F081508093E10911
:1046A0008091E109811105C08CB58F7B8CBD109282
:1046B000E0099FBF08952FB7F894813061F020F092
:1046C000823021F484E008C081E006C082E080935B
:1046D000E00980E001C082E09091DF09982B90937F
:1046E000DF098091E009811103C081E08093E00936
:1046F0002FBF0895E091240AF091250AE817F907E1
:1047000069F4A389B4899C918589809589238C93C8
:104710001092250A1092240A81E0089580E00895FD
:10472000CF93DF93EC018A8D9B8D892BF1F08091E3
:10473000240A9091250A8C179D07B9F0009711F073
:104740000E947A238E8D8E7F8E8F1092E3091092B5
:10475000E209D093250AC093240AEB89FC89808161
:104760009D89892B808381E001C080E0DF91CF911A
:1047700008951F920F920FB60F9211240BB60F924D
:104780002F933F934F935F936F937F938F939F9359
:10479000AF93BF93EF93FF93E091240AF091250A22
:1047A000309709F451C0868DA685B785958581FF20
:1047B00004C08C91892329F447C08C91892309F086
:1047C00043C0A389B4899C918589809589238C9362
:1047D000868997890197F1F7208D318DA685B78558
:1047E000758558E040E0C9010197F1F7842F90E00A
:1047F00095958795482F6C91672309F04068515033
:1048000091F7868D81FD40958091E30990E00196B6
:104810008F7399272091E209281749F0A091E309A5
:10482000B0E0AC51B64F4C938093E30903C0868D42
:104830008160868F828D938D0197F1F7A389B4896A
:104840008C919589892B8C93FF91EF91BF91AF91BA
:104850009F918F917F916F915F914F913F912F9198
:104860000F900BBE0F900FBE0F901F901895CF9317
:10487000DF93EC019A01AB011B8E1A8E198E188EF4
:104880001F8A1E8A60E079E08DE390E00E94C355A4
:10489000C9012430310520F0B9016350710902C00B
:1048A00061E070E07D8F6C8FEC85EF3108F05AC0CD
:1048B000B901769567956431710518F063517109F6
:1048C00002C061E070E07F8B6E8B069718F0C90123
:1048D000059702C081E090E0998F888FC901880F09
:1048E000991F820F931F96958795969587958D3082
:1048F000910510F00C9702C081E090E09B8F8A8FA9
:1049000090916800E83030F0E03130F0E83130F478
:1049100084E005C082E003C088E001C081E0892B0B
:10492000809368002C85283038F02E3040F02631F6
:1049300048F48CE690E008C08DE690E005C08BE678
:1049400090E002C080E090E09C8B8B8B277081E030
:1049500090E001C0880F2A95EAF78D8B8C8D9D8D94
:104960000197F1F7CE01DF91CF910C9490232F9214
:104970003F924F925F926F927F928F929F92AF92EF
:10498000BF92CF92DF92EF92FF920F931F93CF933C
:10499000DF9300D000D0CDB7DEB74C017C836B83B2
:1049A0006A015901C8018701AC014C195D0957FF23
:1049B00003C051954195510995016B817C81261B5E
:1049C000370B37FF03C031952195310922242394F9
:1049D000312C2417350714F0212C312C21143104EB
:1049E00059F03A2D2B2D5C01832F922F3B812C8186
:1049F000DC82CB82C32ED22EAB81BC81AA16BB0631
:104A00005CF43C2D2D2D6C01832F922F3B812C814A
:104A1000BC82AB82A32EB22E2501EB81FC814E1A03
:104A20005F0A3C016C187D0877FE03C071946194A5
:104A30007108720157FE03C0FFEFEF1AFF0AF594E9
:104A4000E794C816D9062CF421E030E03A83298394
:104A500024C06FEF7FEF7A8369831FC0D401ED918B
:104A6000FC910480F581E02D980121143104D9F0E6
:104A70004B815C81B601C4010995E618F708F7FE81
:104A800006C0E981FA81CE0EDF1EE40CF51C2B81F5
:104A90003C812F5F3F4F3C832B836B817C81A6162B
:104AA000B706E4F604C0A6016B817C81E4CF0F90C9
:104AB0000F900F900F90DF91CF911F910F91FF906A
:104AC000EF90DF90CF90BF90AF909F908F907F90AE
:104AD0006F905F904F903F902F9008956F927F92CC
:104AE0008F929F92AF92BF92CF92DF92EF92FF92FE
:104AF0000F931F93CF93DF93EC015B016A013901A0
:104B00004801E881F9810284F385E02D8701099548
:104B1000E881F981A601480D591D415051090284CF
:104B2000F385E02D9301B501CE010995E881F98166
:104B30000084F185E02D9401A601B501CE0109950F
:104B4000E881F981B501660D771D61507109008416
:104B5000F185E02D9401A601CE010995DF91CF9159
:104B60001F910F91FF90EF90DF90CF90BF90AF908B
:104B70009F908F907F906F900895EF92FF920F9388
:104B80001F93DC01ED91FC91240F351F2150310959
:104B90000680F781E02D780189019B0109951F911D
:104BA0000F91FF90EF900895EF92FF920F931F9354
:104BB000DC01ED91FC91260F371F21503109068051
:104BC000F781E02D78018A0109951F910F91FF90DF
:104BD000EF9008956F927F928F929F92AF92BF92C3
:104BE000CF92DF92EF92FF920F931F93CF93DF93B9
:104BF0005C014A0169013801EB01C60ED71ECC15D4
:104C0000DD0574F4D501ED91FC910084F185E02D72
:104C100087019301A401BE01C50109952196EFCF3B
:104C2000DF91CF911F910F91FF90EF90DF90CF9088
:104C3000BF90AF909F908F907F906F900895EF926C
:104C4000FF920F931F93DC01ED91FC9111971A963F
:104C50000D911C911B9718962D913C9119970684E4
:104C6000F785E02D7B0140E050E060E070E00995C1
:104C70001F910F91FF90EF9008950895FC0113820A
:104C800012828EEC93E091838083758364835783D3
:104C900046837187608753874287158A15861486F5
:104CA0001786168621E0248B8FEF9FEF938B828BE4
:104CB000918B808B268B178A118E108E08952F92E0
:104CC0003F924F925F926F927F928F929F92AF929C
:104CD000BF92CF92DF92EF92FF920F931F93CF93E9
:104CE000DF9300D000D000D0CDB7DEB79E838D8398
:104CF0004B013A016901802F44244394512C421AFC
:104D0000530A22243324221A330A220C331CAA24E5
:104D1000A394B12C01E010E0982F94709983A82FF0
:104D2000A270AA83B82FB870BB8381708C83C50131
:104D300001978C159D050CF0A6C057FC08C0E1E05A
:104D4000CE1AD108F2E02F0E311C420C531C0E5F1C
:104D50001F4F400E511E8981882311F1AD81BE8104
:104D6000ED91FC9111970480F581E02D9701A3014D
:104D70004C0D5D1DB501680D791DCD010995AD8105
:104D8000BE81ED91FC9111970480F581E02D970192
:104D9000A501460D571DB4016C0D7D1DCD01099572
:104DA000BA81BB2311F1AD81BE81ED91FC911197C8
:104DB0000480F581E02D9701A3014C195D09B5012F
:104DC000680D791DCD010995AD81BE81ED91FC91F4
:104DD00011970480F581E02D9701A3014A195B0921
:104DE000B4016C0D7D1DCD010995BB81BB2311F173
:104DF000AD81BE81ED91FC9111970480F581E02D8C
:104E00009701A501460D571DB4016C197D09CD010F
:104E10000995AD81BE81ED91FC9111970480F581DA
:104E2000E02D9701A3014C0D5D1DB4016A197B09AA
:104E3000CD010995BC81BB2311F1AD81BE81ED91FE
:104E4000FC9111970480F581E02D9701A3014A1987
:104E50005B09B4016C197D09CD010995AD81BE8155
:104E6000ED91FC9111970480F581E02D9701A3014C
:104E70004C195D09B4016A197B09CD010995BFEF91
:104E8000AB1ABB0A54CF26960FB6F894DEBF0FBEFE
:104E9000CDBFDF91CF911F910F91FF90EF90DF90E9
:104EA000CF90BF90AF909F908F907F906F905F90CA
:104EB0004F903F902F9008952F923F924F925F9284
:104EC0006F927F928F929F92AF92BF92CF92DF921A
:104ED000EF92FF920F931F93CF93DF93CDB7DEB77F
:104EE00028970FB6F894DEBF0FBECDBF98878F838B
:104EF0003B014A013C832B831E830D835701EE2423
:104F0000FF24EA18FB08EE0CFF1CC9018E0D9F1D43
:104F10009A8389832B014A0C5B1CAF81B885ED9184
:104F2000FC9111970284F385E02D86019C01B2016A
:104F3000CD0109952D803E80280C391CAF81B885A4
:104F4000ED91FC911197A101415051090284F38523
:104F5000E02D29813A81B201CD010995ED81FE81D3
:104F6000EE0EFF1E8A0C9B1CAF81B885ED91FC9163
:104F700011970084F185E02D9701A401B301CD01C3
:104F80000995EB81FC816E0E7F1EAF81B885ED9196
:104F9000FC911197B301615071090084F185E02DF6
:104FA0009701A401CD010995760101E09501A401C5
:104FB000B2018F8198850E945F266A187B08B1E054
:104FC0006B1A710802E09501A401B3018F819885E5
:104FD0000E945F2641018A189B08E1E08E1A910821
:104FE00004E09501A401B3018F8198850E945F269A
:104FF00008E09501A401B2018F8198850E945F2687
:1050000028960FB6F894DEBF0FBECDBFDF91CF91CB
:105010001F910F91FF90EF90DF90CF90BF90AF90D6
:105020009F908F907F906F905F904F903F902F90C8
:1050300008952F923F924F925F926F927F929F922C
:10504000AF92BF92CF92DF92EF92FF920F931F9396
:10505000CF93DF93CDB7DEB72A970FB6F894DEBFB4
:105060000FBECDBF5C017C836B835E834D831901D2
:1050700027013601C801079697FD07969C0193E02A
:10508000359527959A95E1F73A832983C12CD12C40
:10509000E12CF12CE414F5040CF044C01A861986B6
:1050A0008D819E818E0D9F1D98878F83E985FA855E
:1050B000E017F1077CF589859A8587709927892BF8
:1050C00011F0990C0EC0E985FA85F7FD379683E05B
:1050D000F595E7958A95E1F7EC0DFD1DE20DF31DC1
:1050E000949097FE11C0D501ED91FC910480F5815B
:1050F000E02D93014F8158856B817C8189859A854C
:10510000680F791FC5010995A985BA851196BA87D7
:10511000A987CCCFFFEFEF1AFF0A29813A81C20E8F
:10512000D31EB8CF2A960FB6F894DEBF0FBECDBF00
:10513000DF91CF911F910F91FF90EF90DF90CF9073
:10514000BF90AF909F907F906F905F904F903F90F7
:105150002F9008952F923F924F925F926F927F927D
:105160008F929F92AF92BF92CF92DF92EF92FF9277
:105170000F931F93CF93DF93CDB7DEB76A970FB628
:10518000F894DEBF0FBECDBF1C0158874F831C872C
:105190000B87FA86E986CC82DC0158964D915C91AA
:1051A00059974115510509F0A6C018968D919C910B
:1051B0001997681779070CF056C11A968D919C9132
:1051C0001B97EF81F885E817F9070CF04CC1D12C3B
:1051D000CB013C81F6E03F9F800D911D11241816F4
:1051E00019060CF040C1C60103E0880F991F0A950B
:1051F000E1F74F815885840F951F181619060CF09A
:1052000032C157968C91811103C0203B08F02F5F6B
:105210007E876D874B01198219E0A12E1AE0B12E0D
:10522000A61AB70A55E0259FA00CB11C112489814C
:10523000853039F0ED85FE85EA0DFB1D94919A834A
:1052400001C01A826F8078842301A8E0AD83BA81FF
:10525000B0FF12C0D101ED91FC91BC81B13031F4AD
:105260000480F581E02D2B853C8518C00684F785E8
:10527000E02DEB84FC841DC0E985FA852B853C85F7
:10528000E217F307E1F0D101ED91FC91BC81B1305F
:1052900059F40480F581E02D29853A85A2016D85B8
:1052A0007E85C10109950BC00684F785E02DE98450
:1052B000FA8486019601A301B401C1010995EA812E
:1052C000E695EA83FD81F150FD836C0C7D1C2FEF88
:1052D000421A520AF111BBCF39813F5F39838C0CDE
:1052E0009D1C4D855E854F5F5F4F5E874D873630D5
:1052F00009F09DCFB8C0FA01349634913297859168
:105300009491231BA7E02A9F800D911D1124FA017F
:1053100025913491398B288BFC01459154915A8FFA
:10532000498FFC013296549159873196A491AF87E9
:105330003196E491FC013596249131968491BC819B
:10534000B23050F0622E772467FC7094E82FFF276C
:10535000E7FDF095FE87ED87FC81CF2ED12C6C9C6C
:1053600040016D9C900C7C9C900C1124860E971E25
:10537000A12C1982DE8ACD8AAB01420F511D27FD77
:105380005A955E834D83AF81B885A80FB11D87FD07
:10539000BA95B88FAF8B59818F85581708F063C0C5
:1053A000852F90E02D853E85280F391F2C9DD0013B
:1053B0002D9DB00D3C9DB00D1124EF81F885EA0FB5
:1053C000FB1FFB83EA836D807E802401FA2D2D81F3
:1053D000F21BFA8B4F89588D480F591F5C8B4B8BF2
:1053E0009A89960D862D2D81821B39858317B0F5FC
:1053F000977061F4898D9A8D0196E889F989298DD4
:105400003A8DE20FF31FB4909A8F898FB7FE1DC0BB
:10541000D101ED91FC91BC81B13059F40480F5814A
:10542000E02D2B853C854B895C89B301C101099531
:105430000CC00684F785E02DEB84FC848601960180
:105440004A815B81B201C1010995BB0CED89FE89DE
:105450004E0E5F1EFFEF6F1A7F0AC2CFA30E498167
:105460004F5F498398CF6A960FB6F894DEBF0FBEA0
:10547000CDBFDF91CF911F910F91FF90EF90DF9003
:10548000CF90BF90AF909F908F907F906F905F90E4
:105490004F903F902F900895AF92BF92CF92EF928E
:1054A000FF920F931F93CF93DF93EC01262F888DEC
:1054B000998D009709F042C06A3069F42C898E8575
:1054C0009F8538E0239F800D911D11249F878E8733
:1054D0001D861C86ABC06D3009F4A8C08E89882358
:1054E000C1F03C898C859D8546E0349F800D911DDF
:1054F000112448855985841795075CF01D861C8604
:105500008E859F85E8E03E9F800D911D11249F8729
:105510008E87EA88FB88088919894E855F856C85A6
:105520007D85CC88CE010E94AA282C898C859D85FA
:10553000F6E02F9F800D911D112441C06A3079F44F
:105540001D861C864C89FC01369684912E853F85EC
:10555000489F200D311D11243F872E8767C06D3075
:1055600009F464C0AC014C5F5F4FFA0134916317DA
:1055700008F45CC03196E491E61708F457C0FA01CC
:105580004491362F341BFC013296A590B490F7E07D
:105590003F9FA00CB11C1124F5013296A4913196C5
:1055A000E491AA2311F0E1110DC0F5013496A49005
:1055B0002C898C859D85A29E800D911D11249D872F
:1055C0008C8734C0F5013596E4913E89332309F187
:1055D0003C89B0E0AE0FB11DE7FDBA953A9FA0013E
:1055E0003B9F500D11246C857D85460F571F6885A4
:1055F0007985461757076CF01D861C86FC01369688
:1056000084914E855F85389F400D511D11245F8721
:105610004E87EA88FB88088919894E855F856C85E5
:105620007D85CC88CE010E94AA28BFCF81E090E082
:10563000DF91CF911F910F91FF90EF90CF90BF908E
:10564000AF900895FC017587648757874687089552
:10565000611101C061E0FC01648B0895FC01738B52
:10566000628B718B608B0895FC01718B608B538B07
:10567000428B0895FC01668B0895FC016370658B75
:105680008481958126813781613039F0633029F03A
:105690009187808733872287089531872087938772
:1056A00082870895FC01808591850895FC0182859B
:1056B00093850895CF93DF93FC01E65BFF4F208134
:1056C000222311F080E065C0EC01C55BDF4FA881AB
:1056D000B981109741F0ED91FC9111970480F5810B
:1056E000E02DCD010BC0EC01C35BDF4F88819981B8
:1056F000DC01ED91FC910480F581E02D0995892B69
:1057000009F388819981DC01ED91FC910680F78194
:10571000E02D09958A3049F590912B0AE091290AEC
:10572000F0912A0AE90FF11D10822091290A309187
:105730002A0ABAE0243A3B0739F44CE25AE0509383
:105740002A0A4093290A08C024EA3AE030932A0A38
:105750002093290A2CE23AE03093280A2093270A62
:1057600010922B0A91E09093260AE091290AF09179
:105770002A0A90912B0A21E0290F20932B0AE90F86
:10578000F11D808390912B0A983718F097E790933A
:105790002B0ADF91CF910895FC01DC01A55BBF4F7F
:1057A00011961C921E92129611961C921E921092A5
:1057B000260A13971C9210922B0A84EA9AE090937F
:1057C0002A0A8093290A8CE29AE09093280A80930F
:1057D000270A15AE14AE158214821382128211822A
:1057E000108212AE11AE10AE13AE1782168214AA3A
:1057F00015AA16AA17AA10AA11AA12AA13AA14A6C1
:1058000015A616A617A610A611A612A613A614A2D0
:1058100015A216A217A210A211A212A213A21486F8
:1058200015861686178610861186128613860895A9
:105830000F931F93CF93DF93EC018B010E94CC2B2E
:10584000C35BDF4F19830883DF91CF911F910F91C5
:105850000895FC01E55BFF4F20813181AB0160E0E1
:1058600070E02115310521F0C9010E94372408C0DC
:10587000FC01E35BFF4F26E0808191810E949A4DFD
:105880006AE070E080E090E00C94334BFC018FEF15
:1058900081B9158A158614861786168681E0848B51
:1058A0008FEF9FEF918B808B80EF90E091878087C7
:1058B00080E491E09387828708959F92AF92BF9290
:1058C000CF92DF92EF92FF920F931F93CF93DF93CC
:1058D000EC01A62EF42EB22E902E40E451E060EFA3
:1058E00070E00E943E268BEF93E099838883EBA6BD
:1058F0006A2D70E0FB01E354FF4EE491F0E0EE0FFF
:10590000FF1FE951FF4EA591B491BC8FAB8F4F2D76
:1059100050E0FA01E354FF4EE491F0E0EE0FFF1F78
:10592000E951FF4E859194919E8F8D8F2B2D30E004
:10593000F901E354FF4EE491F0E0EE0FFF1FE9514F
:10594000FF4E8591949198A38F8F10E0F801E35456
:10595000FF4EE491F0E0EE0FFF1FE951FF4EC590BE
:10596000D490DAA2C9A2FB01E356FF4E64916BA367
:10597000FA01E356FF4E44914CA3F901E356FF4E62
:1059800024912DA3F801E356FF4E04910EA39BA191
:10599000892F80958FA38CA1809588A78DA1809554
:1059A00089A700950AA78C91892B8C93ED8DFE8D8C
:1059B00080819CA1892B8083EF8DF8A180819DA19E
:1059C000892B8083E9A1FAA180819EA1892B808304
:1059D00061E08A2D0E940C4C61E08F2D0E940C4CDE
:1059E00061E08B2D0E940C4C61E0892D0E940C4CD3
:1059F000EE2041F061E08E2D0E94454C61E08E2D3D
:105A00000E940C4CCE01DF91CF911F910F91FF901E
:105A1000EF90DF90CF90BF90AF909F900C94462C6A
:105A2000CF93DF93EC01EB8DFC8D80819BA1892BC3
:105A30008083EF8DF8A180819DA1892B8083E9A1CE
:105A4000FAA180819EA1892B80838BA5882369F090
:105A500060E00E94454C62E070E080E090E00E94CF
:105A6000334B61E08BA50E94454CEB8DFC8D808112
:105A70009FA189238083ED8DFE8D808198A5892348
:105A8000808312B8EF8DF8A1808199A58923808346
:105A9000EF8DF8A180819DA1892B808383E0EF8D1C
:105AA000F8A1908129A592239083EF8DF8A1908190
:105AB0002DA1922B9083815091F7EB8DFC8D8081ED
:105AC0009BA1892B8083DF91CF910895FC01A38D49
:105AD000B48D8C9197A189238C93808591859C01AD
