:100000000C94D8030C94962E0C94C12E0C94EC2EC8
:100010000C94D5190C94D5190C94D5190C94D519A8
:100020000C9407040C9407040C9407040C94070424
:100030000C9407040C94162A0C9407040C940704DF
:100040000C94AF0A0C9407040C94172F0C9407041B
:100050000C9431320C9467320C9407040C9407040E
:100060000C9407040C9407040C9407040C940704E4
:100070000C94DE320C9414330C9407040C94070493
:100080000C9407040C9407040C940704B10CB70DEE
:100090006A0FAC10F31126135513C71326302930FD
:1000A0001C302030403040302D30313037303B3044
:1000B000084AD73B3BCE016E84BCBFFDC12F3D6CCF
:1000C00074319ABD56833DDA3D00C77F11BED9E435
:1000D000BB4C3E916BAAAABE000000803F072C7A61
:1000E000A5BA6CC590DA3B9365FC8BBC53F810FD48
:1000F0003C5692834DBD879D3AB63DCBC9BF5BBE92
:1001000073DA0FC93F05A84CCDB2D44EB93836A921
:10011000020C50B9918688083CA6AAAA2ABE000003
:1001200000803F0000000000003E5B4F5B3E3E6BE6
:100130004F6B3E1C3E7C3E1C183C7E3C181C577D81
:10014000571C1C5E7F5E1C00183C1800FFE7C3E7CD
:10015000FF0018241800FFE7DBE7FF30483A060EDF
:100160002629792926407F050507407F05253F5A26
:100170003CE73C5A7F3E1C1C08081C1C3E7F142296
:100180007F22145F5F005F5F06097F017F00668941
:10019000956A606060606094A2FFA29408047E0487
:1001A0000810207E201008082A1C08081C2A0808AD
:1001B0001E101010100C1E0C1E0C30383E3830066D
:1001C0000E3E0E06000000000000005F0000000769
:1001D000000700147F147F14242A7F2A1223130897
:1001E000646236495620500008070300001C224173
:1001F000000041221C002A1C7F1C2A08083E080817
:1002000000807030000808080808000060600020C6
:10021000100804023E5149453E00427F40007249A9
:100220004949462141494D331814127F102745454D
:1002300045393C4A49493141211109073649494963
:1002400036464949291E00001400000040340000D1
:10025000000814224114141414140041221408023A
:10026000015909063E415D594E7C1211127C7F49AD
:100270004949363E414141227F4141413E7F494902
:1002800049417F090909013E414151737F0808082E
:100290007F00417F41002040413F017F08142241FF
:1002A0007F404040407F021C027F7F0408107F3E59
:1002B0004141413E7F090909063E4151215E7F09C6
:1002C000192946264949493203017F01033F40402D
:1002D000403F1F2040201F3F4038403F6314081418
:1002E0006303047804036159494D43007F41414150
:1002F0000204081020004141417F04020102044031
:1003000040404040000307080020545478407F28B4
:100310004444383844444428384444287F385454AA
:10032000541800087E090218A4A49C787F080404CD
:100330007800447D40002040403D007F102844006C
:1003400000417F40007C047804787C0804047838FD
:1003500044444438FC1824241818242418FC7C082D
:10036000040408485454542404043F44243C4040AA
:10037000207C1C2040201C3C4030403C442810285D
:10038000444C9090907C4464544C440008364100A6
:100390000000770000004136080002010204023C20
:1003A0002623263C1EA1A161123A4040207A3854EF
:1003B0005455592155557941225454784221555468
:1003C000784020545579400C1E52721239555555BB
:1003D00059395454545939555454580000457C41A6
:1003E0000002457D420001457C407D1211127DF0E6
:1003F000282528F07C545545002054547C547C0A10
:10040000097F4932494949323A4444443A324A48D8
:1004100048303A4141217A3A42402078009DA0A0DC
:100420007D3D4242423D3D4040403D3C24FF24242E
:10043000487E4943662B2FFC2F2BFF0929F620C04D
:10044000887E090320545479410000447D4130489E
:10045000484A32384040227A007A0A0A727D0D19E1
:10046000317D2629292F28262929292630484D4043
:1004700020380808080808080808382F10C8ACBA3F
:100480002F102834FA00007B000008142A142222BE
:10049000142A14085500550055AA55AA55AAFF5507
:1004A000FF55FF000000FF00101010FF001414148F
:1004B000FF001010FF00FF1010F010F0141414FCD7
:1004C000001414F700FF0000FF00FF1414F404FCF4
:1004D000141417101F10101F101F1414141F0010D5
:1004E0001010F0000000001F101010101F1010104E
:1004F00010F010000000FF1010101010101010105D
:10050000FF10000000FF140000FF00FF00001F109C
:10051000170000FC04F414141710171414F404F456
:100520000000FF00F714141414141414F700F71447
:100530001414171410101F101F141414F414101096
:10054000F010F000001F101F0000001F140000003A
:10055000FC140000F010F01010FF10FF141414FF32
:10056000141010101F00000000F010FFFFFFFFFF2D
:10057000F0F0F0F0F0FFFFFF0000000000FFFF0FC1
:100580000F0F0F0F3844443844FC4A4A4A347E0265
:10059000020606027E027E026355494163384444E6
:1005A0003C04407E201E2006027E020299A5E7A59B
:1005B000991C2A492A1C4C7201724C304A4D4D300C
:1005C0003048784830BC625A463D3E494949007E31
:1005D0000101017E2A2A2A2A2A44445F44444051C8
:1005E0004A444040444A51400000FF0103E080FF7C
:1005F000000008086B6B083612362436060F090F08
:1006000006000018180000001010003040FF010123
:10061000001F01011E00191D1712003C3C3C3C004C
:100620000000000072740092740048940078C400C6
:10063000000000010200090A00000000040308078E
:1006400000000000000000000000000000000000AA
:10065000010204081020408001020408102040809C
:10066000010204081020408001020408102040808C
:10067000020202020202020204040404040404044A
:10068000030303030303030301010101010101014A
:100690000000200023002600290000002200250081
:1006A00028002B0000002100240027002A00004021
:1006B0007A10F35A00A0724E18090010A5D4E80071
:1006C00000E87648170000E40B54020000CA9A3B89
:1006D000000000E1F505000080969800000040420F
:1006E0000F000000A086010000001027000000009D
:1006F000E803000000006400000000000A000000A1
:1007000000000100000000002C76D888DC674F084C
:1007100023DFC1DFAE59E1B1B796E5E3E453C63A52
:10072000E651997696E8E6C28426EB898C9B62EDC9
:10073000407C6FFCEFBC9C9F40F2BAA56FA5F49083
:10074000055A2AF75C936B6CF9676DC11BFCE0E4FA
:100750000D47FEF520E6B500D0ED902E0300943550
:1007600077050080841E080000204E0A000000C8A3
:100770000C333333330F986E12831141EF8D2114F4
:10078000893BE65516CFFEE6DB18D1844B381BF7C4
:100790007C1D901DA4BBE424203284725E22810063
:1007A000C9F124ECA1E53D27410CCF269B3248330B
:1007B00011241FBECFEFD0E4DEBFCDBF15E0A0E017
:1007C000B1E0ECECFDE700E00BBF02C007900D923A
:1007D000AC3AB107D9F72DE0ACEAB5E001C01D9203
:1007E000A330B207E1F717E0C0EBD7E000E006C0A6
:1007F00022970109FE010BBF0E947B39C83AD1073D
:1008000080E00807A9F70E948C330C94E43E0C9416
:1008100000008F929F92AF92BF92CF92DF92EF92A1
:10082000FF92CF93DF93EC016A017B018AE69AE0A5
:100830000E94DE2D8F3FD1F5B701A6014150504FE8
:100840006F4F7F4F8AE69AE00E94DE2D8F3F71F551
:100850008C89882309F44FC080E1D80EE11CF11C7B
:1008600061E171E089EC9BE00E94D9332AE030E03D
:10087000B701A60189EC9BE00E94DC34B701A60118
:100880008AE69AE00E94DE2D460157019FEF891A01
:10089000990AA90AB90A8F32F1F4B501A4018AE6CE
:1008A0009AE00E94DE2D8A32B1F421C0B701A60180
:1008B0008AE69AE00E94402E68E271E089EC9BE0B3
:1008C0000E94D9332AE030E0B701A60189EC9BE011
:1008D0000E94DC34BDCF750164018114910488E06D
:1008E000A806B10458F2C12CD12C7601C7CFCC8216
:1008F000DD82EE82FF82DF91CF91FF90EF90DF905B
:10090000CF90BF90AF909F908F900895CF93DF933B
:10091000EC018AE69AE00E94342E1C821D821E821F
:100920001F82188219821A821B82188619861A86DB
:100930001B861C8ADF91CF9108954F925F926F9230
:100940007F928F929F92AF92BF92CF92DF92EF925F
:10095000FF920F931F93CF93DF93CDB7DEB7A4978A
:100960000FB6F894DEBF0FBECDBF29A33AA34BA3A9
:100970005CA3E986FA860B871C87840125E33AEF9E
:100980004EE85CE30E946A382B013C0125E33AEF14
:100990004EE85CE369A17AA18BA19CA10E946A3810
:1009A0006D877E878F87988B0E948A366D8B7E8BB2
:1009B0008F8B988FC301B2010E948A3669837A8334
:1009C0008B839C839B01AC016D897E898F89988D77
:1009D0000E946A386D8B7E8B8F8B988F6D857E859C
:1009E0008F8598890E94CD3829813A814B815C811D
:1009F0000E946A3869837A838B839C83C301B20126
:100A00000E94CD386D837E838F83988725E33AEFEC
:100A10004EE85CE369857A858B859C850E946A38FF
:100A20002B013C0125E33AEF4EE85CE3C601B5013A
:100A30000E946A3869877A878B879C870E948A36EA
:100A4000698B7A8B8B8B9C8BC301B2010E948A3697
:100A50006D877E878F87988B9B01AC0169897A8926
:100A60008B899C890E946A38698B7A8B8B8B9C8BD3
:100A700069857A858B859C850E94CD382D853E853C
:100A80004F8558890E946A386D8F7E8F8F8F98A30B
:100A9000C301B2010E94CD3869877A878B879C8712
:100AA00029893A894B895C896D897E898F89988DDE
:100AB0000E94F9352B013C012D8D3E8D4F8D58A1A3
:100AC00069817A818B819C810E94F9356D877E874F
:100AD0008F87988B29853A854B855C856D817E81D2
:100AE0008F8198850E94F935698F7A8F8B8F9C8FC3
:100AF000A3019201C301B2010E946A382B013C019B
:100B00002D853E854F855889CA01B9010E946A38F2
:100B10009B01AC01C301B2010E94FA352B013C01DB
:100B2000298D3A8D4B8D5C8DCA01B9010E946A38BE
:100B30009B01AC01C301B2010E94FA3529E93AE7F1
:100B400043E156E50E946A380E94D73820E030E041
:100B500040E05FE30E946A382B013C019B01AC013D
:100B60000E946A389B01AC0169E97AE783E196E566
:100B70000E94F9350E94D7389B01AC01C301B20134
:100B80000E948D360E945E3620E33EE442EC5AE439
:100B90000E946A389B01AC010E94FA356D877E87FE
:100BA0008F87988B20E030E0A9010E948636811162
:100BB00008C0AFA9B8AD1D921D921D921C9213974B
:100BC00061C129853A854B855C8569817A818B81F4
:100BD0009C810E946A382B013C012D8D3E8D4F8DEA
:100BE00058A16D817E818F8198850E946A389B0112
:100BF000AC01C301B2010E94F9352B013C012989E6
:100C00003A894B895C896D817E818F8198850E94AC
:100C10006A386D837E838F83988729853A854B85D3
:100C20005C856D897E898F89988D0E946A389B01C9
:100C3000AC016D817E818F8198850E94F935698F25
:100C40007A8F8B8F9C8F2D8D3E8D4F8D58A16D8906
:100C50007E898F89988D0E946A386D837E838F8309
:100C6000988729893A894B895C8969817A818B8146
:100C70009C810E946A389B01AC016D817E818F81CD
:100C800098850E94F935698B7A8B8B8B9C8BA3019D
:100C90009201C301B2010E946A386D837E838F8303
:100CA0009887298D3A8D4B8D5C8DCA01B9010E94C0
:100CB0006A389B01AC016D817E818F8198850E948D
:100CC000FA356D837E838F83988729893A894B898A
:100CD0005C89CA01B9010E946A389B01AC016D812F
:100CE0007E818F8198850E94FA350E94D7386D8366
:100CF0007E838F83988789819A81AB81BC81B0582C
:100D000089839A83AB83BC839C01AD01BC01CD0177
:100D10000E946A3869877A878B879C872D893E89EC
:100D20004F89588DCA01B9010E946A389B01AC01F4
:100D300069857A858B859C850E94FA3520E030E0B4
:100D4000A9010E94FA350E94D73869877A878B8774
:100D50009C879B01AC0169817A818B819C810E9477
:100D60008D3669837A838B839C832D813E814F816D
:100D70005885C301B2010E948D369B01AC01698187
:100D80007A818B819C810E946A3869837A838B8304
:100D90009C8329853A854B855C856D897E898F8901
:100DA000988D0E948D362B013C012D813E814F8113
:100DB0005885698D7A8D8B8D9C8D0E948D369B0117
:100DC000AC01C301B2010E946A389B01AC01698188
:100DD0007A818B819C810E94FA352B013C01298507
:100DE0003A854B855C8560E070E0CB010E948D36D2
:100DF00069837A838B839C832D813E814F815885C3
:100E000069897A898B899C890E948D369B01AC0106
:100E100069817A818B819C810E946A389B01AC0137
:100E2000C301B2010E94FA350E94EB3525E33AEF87
:100E30004EE85CE30E948D362B013C0129A13AA1CA
:100E40004BA15CA1C601B5010E945F3818164CF495
:100E5000A301920160E070E084E393E40E94F9351D
:100E600008C020E030E044E353E4C301B2010E9433
:100E7000FA350E94F536AFA9B8AD6D937D938D9389
:100E80009C93139720E030E44CE156E46D857E8519
:100E90008F8598890E945F3887FD13C020E030E07D
:100EA0004AE754E46D857E858F8598890E948D364A
:100EB0000E94F536F801608371838283938381E019
:100EC0000DC06D857E858F8598890E94F536D80185
:100ED0006D937D938D939C93139780E0A4960FB6AA
:100EE000F894DEBF0FBECDBFDF91CF911F910F9160
:100EF000FF90EF90DF90CF90BF90AF909F908F903A
:100F00007F906F905F904F90089580910A018F5F5E
:100F1000893008F081E080930A010895AC0184E0F3
:100F2000440F551F8A95E1F78CE0869F9001879FBB
:100F3000300D1124B9018AE39AE00C94F31EFC01F0
:100F40009F01281B390B41914111FACFC901089526
:100F5000CF93DF93EC010E949F07FE0140E09927A9
:100F60009F012C1B3D0B281739071CF421914227A8
:100F7000F7CF842FDF91CF9108952F923F924F9218
:100F80005F926F927F928F929F92AF92BF92CF9219
:100F9000DF92EF92FF920F931F93CF93DF93CDB722
:100FA000DEB7C154D1090FB6F894DEBF0FBECDBF76
:100FB0006A962FAD6A972BAB6B963FAD6B973CABA8
:100FC0006C966FAD6C976DAB6D968FAD6D978AAF6C
:100FD0006E969FAD6E979BAFAD96CCACDDACEEAC94
:100FE000FFACAD97AE96AFADAE97A9ABE2964CAC69
:100FF0005DAC6EAC7FACE297E396BFADE397BAAB66
:10100000C701B6010E94F5364B015C0120E030E4D7
:101010004CE156E4C701B6010E946A386B017C01BD
:1010200000E117E2089DB001099D700D189D700D3B
:101030001124882777FD8095982F0E9428379B01DF
:10104000AC01C701B6010E94F9350E94F5366CAFBC
:101050007DAFC301B2010E94F5366B017C0120E037
:1010600030E44CE156E4C301B2010E946A382B011E
:101070003C010C9DB0010D9D700D1C9D700D112447
:10108000882777FD8095982F0E9428379B01AC0117
:10109000C301B2010E94F9350E94F536562E472E43
:1010A0009E01275E3F4F3AA729A7E7966CAD7DAD1D
:1010B0008EAD9FADE797890121E044E00E947F3922
:1010C000CE0141969CA78BA7A5966CAD7DAD8EAD4C
:1010D0009FADA5970850110922E044E00E947F3996
:1010E000DE011996BEA7ADA7A9966CAD7DAD8EADFC
:1010F0009FADA9978D0122E044E00E947F391E0137
:10110000B1E22B0E311CED966CAD7DAD8EAD9FAD79
:10111000ED97810122E041E00E947F39C358DF4F03
:10112000688179818A819B81CD57D0409E012F5F54
:101130003F4F38AB2FA7890121E044E00E947F395F
:1011400060E371E08AE897E00E94B7393BAD3F93D6
:101150006AAD6F931F928DA98F931F929CA99F9345
:101160001F92ABA9AF93A7E3B1E0BF93AF9380E920
:1011700097E09F938F930E94BE398C010057184FC0
:1011800089A9992787FD90959FAB8EAB9F9399A9CD
:101190009F93ADADAF93BCADBF939F928F9249E447
:1011A00051E05F934F931F930F934EAF5FAF0E9439
:1011B000BE39080F191F2AA9332727FD309539AFEB
:1011C00028AF3F933AA93F934F925F92DF92CF921D
:1011D00027E531E03F932F931F930F9321962FAF75
:1011E000219722963FAF22970E94BE39080F191F00
:1011F0000FB6F894DEBF0FBECDBF65E671E0C80143
:101200000E94B7390E5F1F4FE9968FADE9971F9285
:101210008F9388E691E09F938F931F930F930E9483
:10122000BE39080F191F3F922F929EE6692E91E05A
:10123000792E7F926F921F930F930E94BE39080FF1
:10124000191F9AA59F93A9A5AF9382E791E09F9359
:101250008F931F930F930E94BE39B8A9BF936FA5B8
:101260006F9368E771E07F936F93800F911F9F9357
:101270008F930E94BE398AE897E00E94A8071F92C8
:101280008F930FE711E01F930F931E0187E2280E43
:10129000311C3F922F920E94BE3964E871E089ECC4
:1012A0009BE00E94D9336AE877E089EC9BE00E94DA
:1012B000D9336BE774E089EC9BE00E94D933B1012C
:1012C00089EC9BE00E94E63366E871E08AE397E0F0
:1012D0000E94B7399BAD9F93AAADAF931F92BDA952
:1012E000BF931F926CA96F931F928BA98F93A7E353
:1012F000B1E0BF93AF9380E497E09F938F930E94F8
:10130000BE39805C984F1C010FB6F894DEBF0FBE4B
:10131000CDBF64E371E00E94B73992E0290E311C21
:10132000AFA9AF93B9A9BF936DAD6F938CAD8F93F8
:101330009F928F924EAD5FAD5F934F933F922F92EE
:101340000E94BE39280E391E99AD9F93AAA9AF936A
:101350004F925F92DF92CF9221962FAD21972296E6
:101360003FAD22973F932F933F922F920E94BE3919
:10137000280E391EBCA5BF932BA52F937F926F9289
:101380003F922F920E94BE39280E391E3EA53F93F0
:101390006DA56F937F926F923F922F920E94BE39FC
:1013A0000FB6F894DEBF0FBECDBFA1962FADA197AB
:1013B0001F922F93A0962FADA0971F922F936F96F9
:1013C0002FAD6F971F922F932DE831E03F932F930E
:1013D000820D931D9F938F930E94BE398AE397E0FD
:1013E0000E94A8071F928F931F930F938E010B5D8E
:1013F0001F4F1F930F930E94BE3964E871E089EC80
:101400009BE00E94D9336AE377E089EC9BE00E947D
:10141000D9336BE774E089EC9BE00E94D933B801C3
:1014200089EC9BE00E94E6330FB6F894DEBF0FBE56
:10143000CDBFCF5BDF4F0FB6F894DEBF0FBECDBF81
:10144000DF91CF911F910F91FF90EF90DF90CF90A0
:10145000BF90AF909F908F907F906F905F904F90D4
:101460003F902F900895EF92FF920F931F93CF9389
:10147000DF931F92CDB7DEB77C018B01211105C030
:1014800049830E949F07498102C080E090E0F701F4
:10149000E80FF91F801791071CF401964193FACFCA
:1014A000F701E80FF91F1082C7010F90DF91CF916C
:1014B0001F910F91FF90EF900895CF93C82F60E098
:1014C00070E08EE090E00E948E0740E050E06FEF09
:1014D0007FEF8AE39AE00E94FF1E21E040E269E18B
:1014E00070E08DEF95E00E94330ABC018AE39AE038
:1014F0000E94D93360E070E08EE090E00E948E0799
:10150000C0FF0EC040E058EF6FEF7FEF8AE39AE034
:101510000E94FF1E6EE971E08AE39AE00E94D933CF
:10152000C1FF0EC040E05CEF60E070E08AE39AE04B
:101530000E94FF1E64EA71E08AE39AE00E94D933B8
:1015400060E070E080E090E00E948E0740E050E0B4
:101550006FEF7FEF8AE39AE0CF910C94FF1E1F920A
:101560000F920FB60F9211240BB60F922F933F9349
:101570004F935F936F937F938F939F93AF93BF939B
:10158000EF93FF938EEA95E00E94081F81118093EC
:10159000C600FF91EF91BF91AF919F918F917F9185
:1015A0006F915F914F913F912F910F900BBE0F90D4
:1015B0000FBE0F901F901895882359F08FEA87BDB2
:1015C00080916E00826080936E0081E08093AD0513
:1015D000089580916E008D7F80936E001092AD050E
:1015E00008954F925F926F927F928F929F92AF92E7
:1015F000BF92CF92DF92EF92FF920F931F93CF9300
:10160000DF9300D000D0CDB7DEB78C0148E350E0C7
:1016100060E070E0FC0144875587668777874FEF6D
:1016200053E260E070E0408B518B628B738B148AC5
:1016300010821182128213821482158216821782FE
:101640004FEF5FEF67E070E08AE69AE00E94DE2DE0
:101650008F3F09F0A4C040E050EF67E070E08AE6F9
:101660009AE00E94DE2D8F3F09F499C0CC24CA94E1
:10167000DC2C47E0E42EF12C88248A94982C57E047
:10168000A52EB12C240135014C185D086E087F0889
:10169000B701A6018AE69AE00E94DE2D8F3F31F461
:1016A000F1E0CF1AD108E108F108ECCF81E0F801B0
:1016B000848BFFEFCF1ADF0AEF0AFF0AF801C0821E
:1016C000D182E282F382CC24CA943FEED32E37E05B
:1016D000E32EF12CB701A6018AE69AE00E94DE2DE6
:1016E0008F3F41F0C114F0E1DF06E104F10408F09E
:1016F00060C015C0B701A6014F5F5F406109710965
:101700008AE69AE00E94DE2D8F3F61F7460157017D
:101710002FEFC216D20627E0E206F10431F181E094
:10172000F801848B46015701B501A4018AE69AE0CD
:101730000E94DE2DA50194012F5F3F4F4F4F5F4F59
:1017400029833A834B835C838F32C1F5BA01A901A7
:101750008AE69AE00E94DE2D8A3281F5F8018482C1
:101760009582A682B78246015701B501A4018AE697
:101770009AE00E94DE2D8F3F81F581149104A1042F
:10178000B10491F540E050E0BA018AE69AE00E9487
:10179000DE2D8F3FA1F1812C912C540167C0412C8B
:1017A000512C3201CC24CA94DC2C27E0E22EF12CFF
:1017B00091CFF0E1DF1AE108F1088CCF89809A809F
:1017C000AB80BC808114910428E0A206B10409F02A
:1017D000ABCF812C912C5401A7CF81149104A1048B
:1017E000B10409F043C0CECFFFEF4F1A5F0A6F0A72
:1017F0007F0A21E0821A9108A108B108B6CFF8014A
:101800008489811105C0F80110821182128213822D
:10181000FFEF4F1A5F0A6F0A7F0A60E070E088E00E
:1018200090E06419750986099709F80124853585C2
:10183000468557850E943439F801208731874287D1
:1018400053870F900F900F900F90DF91CF911F91C2
:101850000F91FF90EF90DF90CF90BF90AF909F904F
:101860008F907F906F905F904F900895FFEF8F1A49
:101870009F0AAF0ABF0AF80180829182A282B382D6
:10188000CCCF40E35FEE67E18AE69AE00E945F2DED
:101890002DE14CE16BE18AE39AE00E9412202FEAED
:1018A0003BE042E064E08AE099E00E94582A41E08F
:1018B0006AE079E08FEF97E00E94D9268FE29AE202
:1018C000A0E08093020790930307A09304078093FE
:1018D000CA069093CB06A093CC0680939206909371
:1018E0009306A093940666E67CE08EEA95E00C945D
:1018F000C61F60E070E08AE39AE00E94F41F62E095
:101900008AE39AE00E94F91E61E08AE39AE00E946D
:10191000622440E050E06FEF7FEF8AE39AE00E949C
:10192000FF1E61E08AE39AE00E94051F40E050E05C
:1019300060E070E08AE39AE00C94F31EEF92FF926D
:101940000F931F93CF93DF9390E0FC013197E83022
:10195000F10508F074C7EA5BFF4F2091AC050C94C9
:101960007539213019F4662309F4A2C081E080930F
:10197000AC050E94790C60E070E080E090E00E948D
:101980008E076AEA71E08AE39AE00E94D93360E048
:1019900070E081E090E00E948E07809124071F9202
:1019A0008F9385EB91E09F938F93C5E2D6E0DF9311
:1019B000CF930E94BE39BE018AE39AE00E94D933D8
:1019C00060E070E082E090E00E948E078091230743
:1019D0001F928F938CEB91E09F938F93DF93CF9324
:1019E0000E94BE39BE018AE39AE00E94D93360E0CA
:1019F00070E083E090E00E948E076091250770916F
:101A0000260780912707909128070DEF15E022E027
:101A100045E00E947F399F938F9384EC91E09F93E0
:101A20008F93DF93CF930E94BE39BE018AE39AE081
:101A30000E94D93360E070E084E090E00E948E075D
:101A40008091FE078F938091FD078F938CEC91E03E
:101A50009F938F93DF93CF930E94BE39BE018AE399
:101A60009AE00E94D93360E070E085E090E00E9447
:101A70008E076091360770913707809138079091F3
:101A8000390722E044E00E947F399F938F9387EDCE
:101A900091E09F938F93DF93CF930E94BE398DB7D0
:101AA0009EB74E960FB6F8949EBF0FBE8DBF99C4D9
:101AB00064E070E081E090E00E948E074AE050E030
:101AC000609124078AE39AE00E94BE3465E070E0EA
:101AD00082E090E00E948E074AE050E06091230788
:101AE0008AE39AE00E94BE3465E070E083E090E013
:101AF0000E948E0760912507709126078091270725
:101B0000909128070DEF15E022E045E00E947F3913
:101B1000BC0185E296E00E94B73965E276E08AE38F
:101B20009AE00E94D93368E070E084E090E00E947F
:101B30008E076091FD077091FE074AE050E08AE34E
:101B40009AE00E94913467E070E085E090E00E94A6
:101B50008E07609136077091370780913807909112
:101B6000390722E044E00E947F39BC0199C5223048
:101B700019F4662309F4C3C082E08093AC050E9487
:101B8000790C60E070E080E090E00E948E0763EEE8
:101B900071E08AE39AE00E94D9336091F207709174
:101BA000F3078091F4079091F5070E9428379B0175
:101BB000AC0160911F0770912007809121079091DF
:101BC00022070E94F9350DEF15E020E044E00E9465
:101BD0007F399F938F938CEE91E09F938F93C5E213
:101BE000D6E0DF93CF930E94BE3960E070E081E0E1
:101BF00090E00E948E07BE018AE39AE00E94D933EA
:101C000026E53EE04DEE5FE360910D0770910E0713
:101C100080910F07909110070E946A3820E044E0FD
:101C20000E947F399F938F9385EF91E09F938F93CD
:101C3000DF93CF930E94BE3960E070E082E090E0D5
:101C40000E948E07BE018AE39AE00E94D933609118
:101C5000F6077091F7078091F8079091F9070E94B5
:101C6000283720E044E00E947F399F938F9381E0E2
:101C700092E09F938F93DF93CF930E94BE3960E0F1
:101C800070E083E090E00E948E07BE018AE39AE054
:101C90000E94D93360E070E084E090E00E948E07FB
:101CA0006091EA077091EB078091EC079091ED0746
:101CB0000E94283720E044E00E947F399F938F9351
:101CC0008CE092E09F938F93DF93CF930E94BE3975
:101CD000BE018AE39AE00E94D9338DB79EB7489639
:101CE0000FB6F8949EBF0FBE8DBF8091FB07811188
:101CF00003C063EF71E0AEC063E172E0ABC060911E
:101D0000F2077091F3078091F4079091F5070E9414
:101D100028379B01AC0160911F07709120078091CB
:101D20002107909122070E94F9350DEF15E020E080
:101D300044E00E947F399F938F9386E192E09F93C6
:101D40008F93C5E2D6E0DF93CF930E94BE3964E063
:101D500070E081E090E00E948E07BE018AE39AE085
:101D60000E94D93326E53EE04DEE5FE360910D071A
:101D700070910E0780910F07909110070E946A38AA
:101D800020E044E00E947F399F938F9381E292E0AC
:101D90009F938F93DF93CF930E94BE3964E070E0EE
:101DA00082E090E00E948E07BE018AE39AE00E94E2
:101DB000D9336091F6077091F7078091F8079091F9
:101DC000F9070E94283720E044E00E947F399F9362
:101DD0008F938FE292E09F938F93DF93CF930E9434
:101DE000BE3964E070E083E090E00E948E07BE019F
:101DF0008AE39AE00E94D93364E070E084E090E0E6
:101E00000E948E076091EA077091EB078091EC07C2
:101E10009091ED070E94283720E044E00E947F392E
:101E2000BC01CE010E94B739BE018AE39AE00E944C
:101E3000D9338DB79EB742960FB6F8949EBF0FBEAA
:101E40008DBF8091FB07811103C06CE372E002C07B
:101E500063E472E08AE39AE00E94D93364E08AE3A3
:101E60009AE00E94F91E60E070E085E090E00E9438
:101E70008E076091DA077091DB078091DC07909103
:101E8000DD070DEF15E020E041E00E947F399F93D0
:101E90008F9389EF91E09F938F9385E296E09F93D4
:101EA0008F930E94BE3965E276E08AE39AE00E9451
:101EB000D9330F900F900F900F900F900F9062E01A
:101EC0008AE39AE0DF91CF911F910F91FF90EF90FD
:101ED0000C94F91E233019F4662309F4A2C083E0A0
:101EE0008093AC050E94790C60E070E080E090E0A7
:101EF0000E948E076CE472E08AE39AE00E94D93374
:101F000060E070E081E090E00E948E076091DA0767
:101F10007091DB078091DC079091DD070DEF15E0F4
:101F200020E044E00E947F399F938F9388E592E000
:101F30009F938F93C5E2D6E0DF93CF930E94BE3983
:101F4000BE018AE39AE00E94D93360E070E082E04B
:101F500090E00E948E078091F1078F938091F007A7
:101F60008F938091EF078F938091EE078F9381E697
:101F700092E09F938F93DF93CF930E94BE39BE016F
:101F80008AE39AE00E94D93360E070E083E090E059
:101F90000E948E078091E9078F938091E8078F93C5
:101FA0008091E7078F938091E6078F938BE692E00D
:101FB0009F938F93DF93CF930E94BE39BE018AE334
:101FC0009AE00E94D9338DB79EB746960FB6F89423
:101FD0009EBF0FBE8DBF8091FB07811103C063EFD1
:101FE00071E002C063E172E08AE39AE00E94D933B3
:101FF00060E070E084E090E00E948E0760911F072F
:102000007091200780912107909122070DEF15E034
:1020100020E045E00E947F399F938F9384E792E010
:102020008CC066E070E081E090E00E948E076091D5
:10203000DA077091DB078091DC079091DD070DEFE7
:1020400015E020E044E00E947F39BC0185E296E083
:102050000E94B73965E276E08AE39AE00E94D933BC
:1020600066E070E082E090E00E948E078091F107C8
:102070008F938091F0078F938091EF078F938091DA
:10208000EE078F9387E692E09F938F93C5E2D6E0A9
:10209000DF93CF930E94BE39BE018AE39AE00E948B
:1020A000D93366E070E083E090E00E948E07809173
:1020B000E9078F938091E8078F938091E7078F93CB
:1020C0008091E6078F9384ED91E09F938F93DF9348
:1020D000CF930E94BE39BE018AE39AE00E94D933B1
:1020E0008DB79EB740960FB6F8949EBF0FBE8DBFBA
:1020F0008091FB07811103C063EF71E002C063E1CF
:1021000072E08AE39AE00E94D93368E070E085E0EB
:1021100090E00E948E0760911F07709120078091C8
:102120002107909122070DEF15E020E045E00E9485
:102130007F399F938F9380E892E09F938F9385E2FE
:1021400096E09F938F930E94BE390F900F900F904F
:102150000F900F900F9067C3243019F4662309F491
:10216000B1C084E08093AC050E94790C60E070E01F
:1021700080E090E00E948E0764E872E08AE39AE0D3
:102180000E94D93360E070E081E090E00E948E0709
:1021900060911507709116078091170790911807A5
:1021A0000DEF15E024E049E00E947F399F938F9363
:1021B00020911907822F992787FD90959F932F9340
:1021C0008FE892E09F938F93C5E2D6E0DF93CF93A1
:1021D0000E94BE39BE018AE39AE00E94D93360E0D2
:1021E00070E082E090E00E948E0760911A07709183
:1021F0001B0780911C0790911D0724E049E00E9475
:102200007F399F938F9320911E07822F992787FDF7
:1022100090959F932F9389E992E09F938F93DF93FB
:10222000CF930E94BE39BE018AE39AE00E94D9335F
:1022300060E070E083E090E00E948E0763EA72E065
:10224000CE010E94B739BE018AE39AE00E94D933D9
:1022500060E070E084E090E00E948E0760912D07BE
:1022600070912E0780912F079091300726E04AE069
:102270000E947F39BC01CE010E94B739BE018AE3BA
:102280009AE00E94D93360E070E085E090E00E941F
:102290008E076091310770913207809133079091DA
:1022A000340726E04AE00E947F39BC01CE010E943B
:1022B000B7398DB79EB740960FB6F8949EBF0FBE44
:1022C0008DBF8FC064E070E081E090E00E948E07D7
:1022D0006091150770911607809117079091180764
:1022E0000DEF15E024E049E00E947F399F938F9322
:1022F00020911907822F992787FD90959F932F93FF
:102300006DE9E62E62E0F62EFF92EF92C5E2D6E08E
:10231000DF93CF930E94BE39BE018AE39AE00E9408
:10232000D93364E070E082E090E00E948E07609113
:102330001A0770911B0780911C0790911D0724E0DC
:1023400049E00E947F399F938F9320911E07822F2F
:10235000992787FD90959F932F93FF92EF92DF939C
:10236000CF930E94BE39BE018AE39AE00E94D9331E
:1023700060E070E084E090E00E948E0760912D079D
:1023800070912E0780912F079091300726E04AE048
:102390000E947F39BC01CE010E94B739BE018AE399
:1023A0009AE00E94D93360E070E085E090E00E94FE
:1023B0008E076091310770913207809133079091B9
:1023C000340726E04AE00E947F39BC01CE010E941A
:1023D000B7398DB79EB740960FB6F8949EBF0FBE23
:1023E0008DBFBE0122C2253019F4662309F4ABC0AB
:1023F00085E08093AC050E94790C60E070E080E09D
:1024000090E00E948E0761EB72E08AE39AE00E94FE
:10241000D93360E070E081E090E00E948E0763EACB
:1024200072E08AE39AE00E94D93360E070E082E0D3
:1024300090E00E948E0760912D0770912E07809189
:102440002F07909130070DEF15E026E049E00E943C
:102450007F39BC0185E296E00E94B73965E276E0FB
:102460008AE39AE00E94D93360E070E083E090E074
:102470000E948E0760913107709132078091330777
:102480009091340726E049E00E947F39BC0185E243
:1024900096E00E94B73965E276E08AE39AE00E940E
:1024A000D93360E070E084E090E00E948E07809174
:1024B000F9078F938091F8078F938091F7078F9397
:1024C0008091F6078F938EEB92E09F938F93C5E2F6
:1024D000D6E0DF93CF930E94BE39BE018AE39AE033
:1024E0000E94D93360E070E085E090E00E948E07A2
:1024F0008091ED078F938091EC078F938091EB078C
:102500008F938091EA078F9385EC92E09F938F934E
:10251000DF93CF930E94BE39BE018AE39AE00E9406
:10252000D9338DB79EB740960FB6F8949EBF0FBEB5
:102530008DBF8091FB07811103C063EF71E075C10E
:1025400063E172E072C160E070E082E090E00E94BE
:102550008E0760912D0770912E0780912F07909123
:1025600030070DEF15E026E049E00E947F39BC01FD
:1025700085E296E00E94B73965E276E08AE39AE068
:102580000E94D93360E070E083E090E00E948E0703
:102590006091310770913207809133079091340731
:1025A00026E049E00E947F39BC0185E296E00E9466
:1025B000B73965E276E08AE39AE00E94D93364E0B5
:1025C00070E084E090E00E948E078091F9078F937D
:1025D0008091F8078F938091F7078F938091F6078A
:1025E0008F9304ED11E01F930F93C5E2D6E0DF93C4
:1025F000CF930E94BE39BE018AE39AE00E94D9338C
:1026000064E070E085E090E00E948E078091ED0725
:102610008F938091EC078F938091EB078F9380913C
:10262000EA078F931F930F93DF93CF930E94BE39D6
:10263000BE018AE39AE00E94D9338DB79EB74096D7
:102640000FB6F8949EBF0FBE8DBF73CF263019F41E
:10265000662309F4F4C086E08093AC050E94790CEF
:1026600060E070E080E090E00E948E076CEC72E029
:102670008AE39AE00E94D93360E070E081E090E064
:102680000E948E0766ED72E08AE39AE00E94D933D9
:1026900060E070E082E090E00E948E0762EE72E0FF
:1026A00085E296E00E94B739BEC0273019F4662350
:1026B00009F448C087E08093AC050E94790C60E083
:1026C00070E080E090E00E948E0764EF72E08AE3A1
:1026D0009AE00E94D93360E070E081E090E00E94CF
:1026E0008E078091300A8F9380912F0A8F9380916B
:1026F0002E0A8F9380912D0A8F938FEF92E09F93F4
:102700008F9385E296E09F938F930E94BE3965E296
:1027100076E08AE39AE00E94D93360E070E082E0DC
:1027200090E00E948E076CE073E085E296E00E94E4
:10273000B7398DB79EB708960FB6F8949EBF0FBEF7
:102740008DBF71C069E070E081E090E00E948E076B
:102750008091300A8F9380912F0A8F9380912E0A57
:102760008F9380912D0A8F9388E093E09F938F93AE
:1027700085E296E09F938F930E94BE398DB79EB7F6
:1027800008960FB6F8949EBF0FBE8DBF4CC0283080
:1027900019F4662309F453C088E08093AC050E94C5
:1027A000790C60E070E080E090E00E948E076FE1BD
:1027B00073E08AE39AE00E94D93360E070E081E040
:1027C00090E00E948E078091300A8F9380912F0AAB
:1027D0008F9380912E0A8F9380912D0A8F938CE294
:1027E00093E09F938F9385E296E09F938F930E944F
:1027F000BE3965E276E08AE39AE00E94D93360E070
:1028000070E082E090E00E948E076AE373E085E268
:1028100096E00E94B7398DB79EB708960FB6F89428
:102820009EBF0FBE8DBF65E276E08AE39AE0DF913E
:10283000CF911F910F91FF90EF900C94D933DF91BE
:10284000CF911F910F91FF90EF90089526E040E007
:1028500052EC61E070E089EC9BE00E94CF316CE4C7
:1028600073E089EC9BE00E94E63362EE72E089EC53
:102870009BE00E94E63365E673E089EC9BE00E94F2
:10288000E6338FEF97E00E94F824882349F040E078
:1028900050E069ED73E48AE099E00E94D92A06C00D
:1028A00065E773E089EC9BE00E94E63360E875E23F
:1028B0008EEA95E00E94D71F81E00E94DC0A62E068
:1028C0008FE10E94413062E08EE10E94413082E05F
:1028D0000E9477198AE39AE00E94B3200E94790C43
:1028E00061E873E08AE39AE00E94E63367E973E007
:1028F0008AE39AE00E94D93362EE72E08AE39AE0BA
:102900000E94E6336CE973E089EC9BE00E94E633B9
:1029100062E077E085E29AE00E94F10A6EEB73E0F4
:1029200089EC9BE00E94E63363ED73E089EC9BE069
:102930000E94D9334091250A5091260A6091270AB6
:102940007091280A2AE030E089EC9BE00E94DC3498
:1029500068EE73E089EC9BE00E94D9334091290A2C
:1029600050912A0A60912B0A70912C0A2AE030E0DB
:1029700089EC9BE00E94DC346CEF73E089EC9BE017
:102980000E94D93340912D0A50912E0A60912F0A4E
:102990007091300A2AE030E089EC9BE00E94DC3440
:1029A00060E080910A010E949E0C61E174E089EC74
:1029B0009BE00E94E6330E94612F60938D06709326
:1029C0008E0680938F069093900608951092DA07F2
:1029D0001092DB071092DC071092DD071092E607D9
:1029E0001092E7071092E8071092E9071092EE079D
:1029F0001092EF071092F0071092F1071092FA0769
:102A00001092F6071092F7071092F8071092F90744
:102A100080912D0790912E07A0912F07B09130073C
:102A20008093E2079093E307A093E407B093E50750
:102A30008091310790913207A0913307B09134070C
:102A40008093DE079093DF07A093E007B093E10740
:102A50000E94790C60E274E08AE39AE00E94E63317
:102A600067E374E08AE39AE00E94E6334091E2076C
:102A70005091E3076091E4077091E50728E030E0AA
:102A80008AE39AE00E94D9356CE374E08AE39AE025
:102A90000E94E6334091DE075091DF076091E00726
:102AA0007091E10728E030E08AE39AE00E94D9358E
:102AB00060911F0770912007809121079091220754
:102AC0000E94F5366093F2077093F3078093F40742
:102AD0009093F50760ED77E080E090E00E94902F02
:102AE00061E080910A010C949E0C3F924F925F929C
:102AF0006F927F928F929F92AF92BF92CF92DF920E
:102B0000EF92FF920F931F93CF93DF93CDB7DEB772
:102B1000E9970FB6F894DEBF0FBECDBF8FE10E94DC
:102B2000B030892B49F40E94850761E080910A0149
:102B30000E949E0C109291068EE10E94B030892B6B
:102B400009F052C180910A01873048F4823008F0C0
:102B500049C1813009F046C10E94E61443C1873063
:102B600009F46BC0883009F03DC160E070E081E09D
:102B700090E00E948E0721E040E269E170E085E28A
:102B800096E00E94330ABC018AE39AE00E94D9339E
:102B900060E070E082E090E00E948E0721E040E279
:102BA00069E170E085E296E00E94330ABC018AE3A5
:102BB0009AE00E94D93360E070E083E090E00E94E8
:102BC0008E0721E040E269E170E085E296E00E9434
:102BD000330ABC018AE39AE00E94D93360E070E0D6
:102BE00082E090E00E948E0760E574E085E296E066
:102BF0000E94B73965E276E08AE39AE00E94D93311
:102C00008090290A90902A0AA0902B0AB0902C0A52
:102C10008FE29AE2A0E089839A83AB836FE574E048
:102C200089EC9BE00E94E633F89401E010E0CE01CD
:102C300001967C01F8E33F2EABC060E070E081E0DC
:102C400090E00E948E0721E040E269E170E085E2B9
:102C500096E00E94330ABC018AE39AE00E94D933CD
:102C600060E070E082E090E00E948E0721E040E2A8
:102C700069E170E085E296E00E94330ABC018AE3D4
:102C80009AE00E94D93360E070E083E090E00E9417
:102C90008E0721E040E269E170E085E296E00E9463
:102CA000330ABC018AE39AE00E94D93360E070E005
:102CB00082E090E00E948E0761E474E085E296E095
:102CC0000E94B73965E276E08AE39AE00E94D93340
:102CD00085E29AE00E94860480C02A013B019FEFB2
:102CE000491A590A690A790A8AE69AE00E94DE2D91
:102CF000F60181936F0141145104F8E06F067104ED
:102D000018F0412C512C3201B301A2014090310A3C
:102D10005090320A6090330A7090340AC6018E19BE
:102D20009F09A0E0B0E084159505A605B705A8F2B7
:102D30008091290A90912A0AA0912B0AB0912C0A1D
:102D4000840D951DA61DB71DA770BB278093290A6A
:102D500090932A0AA0932B0AB0932C0A8DB79EB7A2
:102D6000C8970FB6F8949EBF0FBE8DBFADB7BEB764
:102D70001196F701832D01900D928A95E1F70E943B
:102D8000BD070F5F1F4F0FB6F894DEBF0FBECDBF5C
:102D9000A80160E070E080912D0A90912E0AA09128
:102DA0002F0AB091300A481759076A077B0750F479
:102DB0004091290A50912A0A60912B0A70912C0A9D
:102DC0006701A4CFAA24BB248092290A90922A0AE0
:102DD000A0922B0AB0922C0A789461E080910A01AB
:102DE0000E949E0C10929106C0908D06D0908E0687
:102DF000E0908F06F09090060E94612F6C157D0583
:102E00008E059F0550F40E94612F60938D0670938C
:102E10008E0680938F06909390068FEF97E00E9426
:102E20009724882309F4AEC1809191068E7F809308
:102E3000910688E389AFC12CD12CE12CF12C00E064
:102E400010E09E012F5F3F4FAE01475C5F4F62E095
:102E500077E08FEF97E00E941027882309F4AAC13A
:102E60000E94612F60938D0670938E0680938F066B
:102E7000909390068AE099E00E945626992787FD54
:102E800090959093FE078093FD07809135078823E6
:102E900009F4E4C08091FC07811102C00E94E6148D
:102EA00081E08093FC07809191068D7F809391064D
:102EB000A0903107B0903207C0903307D09034070C
:102EC000E0902D07F0902E0700912F07109130070A
:102ED0002091DE073091DF074091E0075091E10734
:102EE0006091E2077091E3078091E4079091E50714
:102EF000E6EFF7E0FF93EF93EAEE8E2EE7E09E2EEB
:102F00000E949D04182F8093FB07C0901F07D0904C
:102F10002007E0902107F09022078090F207909020
:102F2000F307A090F407B090F5076091EE07709159
:102F3000EF078091F0079091F107680D791D8A1DC8
:102F40009B1D0E9428379B01AC010F900F90C70179
:102F5000B6010E945F381816A4F4C501B4010E949E
:102F600028379B01AC01C701B6010E94F9350E94C8
:102F7000F5366093EE077093EF078093F007909318
:102F8000F1074091EA075091EB076091EC077091CF
:102F9000ED07111103C01092FA0708C08091FA07DB
:102FA000811104C081E08093FA070DC08091E6078B
:102FB0009091E707A091E807B091E907841795077A
:102FC000A607B70744F44093E6075093E7076093DA
:102FD000E8077093E90726E53EE04DEE5FE3609178
:102FE0000D0770910E0780910F07909110070E94B6
:102FF0006A3820E030E040E85FE30E94863687FFD1
:1030000008C010920D0710920E0710920F07109231
:10301000100726E53EE04DEE5FE360910D077091ED
:103020000E0780910F07909110070E946A386B017C
:103030007C012091DA073091DB074091DC07509149
:10304000DD070E945F38181674F4C092DA07D09238
:10305000DB07E092DC07F092DD0705C08091910666
:10306000826080939106C090250AD090260AE09055
:10307000270AF090280A02E017E0A80142505740C2
:1030800060E070E08091310A9091320AA091330A99
:10309000B091340A481759076A077B0760F5F801B1
:1030A00021918F01B701A6018AE69AE00E94092EBC
:1030B000D701C6019F70AA27BB27892B8A2B8B2B90
:1030C00059F4B701A601505F6F4F7F4F67707727A4
:1030D00085E29AE00E940904FFEFCF1ADF0AEF0AA7
:1030E000FF0AC114D10488E0E806F10430F2C12CD3
:1030F000D12C7601C2CFC092250AD092260AE09246
:10310000270AF092280A80912D0A90912E0AA09108
:103110002F0AB091300A4091350A5091360A6091D9
:10312000370A7091380A84179507A607B70758F42D
:103130000196A11DB11D80932D0A90932E0AA09394
:103140002F0AB093300AEDB7FEB7F8970FB6F89490
:10315000FEBF0FBEEDBFADB7BEB7119688E3E2E08C
:10316000F7E001900D928A95E1F70E94BD070FB636
:10317000F894DEBF0FBECDBF60E080910A010E94CF
:103180009E0C18C00E94612F00918D0610918E0632
:1031900020918F063091900608571C4E2F4F3F4FBD
:1031A000061717072807390728F4809191068160D0
:1031B000809391060E94612F0091890610918A06E2
:1031C00020918B0630918C06601771078207930758
:1031D00050F40E94612F6093890670938A06809351
:1031E0008B0690938C060E94612F009189061091A6
:1031F0008A0620918B0630918C060053184F2F4F72
:103200003F4F061717072807390778F48091910672
:1032100090E00E945D0A0E94612F6093890670937E
:103220008A0680938B0690938C06E9960FB6F894E5
:10323000DEBF0FBECDBFDF91CF911F910F91FF90E9
:10324000EF90DF90CF90BF90AF909F908F907F9046
:103250006F905F904F903F900895CF93CFB7F894C1
:103260008091740A811127C0E4E7F6E08491E4E5D7
:10327000F6E09491E82FF0E0EE0FFF1FEC55F94FC8
:10328000A591B4918C91892321F461E084E00E949E
:103290007A3061E084E00E9441308CB580618CBD61
:1032A0008CB580648CBD61E087E00E94413061E0B4
:1032B00085E00E9441308091740A8F5F8093740A88
:1032C000CFBFCF9108959FB7F8948091740A882357
:1032D00019F081508093740A8091740A811105C09D
:1032E0008CB58F7B8CBD1092730A9FBF08952FB74A
:1032F000F894813061F020F0823021F484E008C03D
:1033000081E006C082E08093730A80E001C082E021
:103310009091720A982B9093720A8091730A81118E
:1033200003C081E08093730A2FBF0895E091B70A2C
:10333000F091B80AE817F90769F4A389B4899C9158
:103340008589809589238C931092B80A1092B70AC8
:1033500081E0089580E00895CF93DF93EC018A8D9A
:103360009B8D892BF1F08091B70A9091B80A8C1748
:103370009D07B9F0009711F00E9496198E8D8E7FEF
:103380008E8F1092760A1092750AD093B80AC09365
:10339000B70AEB89FC8980819D89892B808381E034
:1033A00001C080E0DF91CF9108951F920F920FB678
:1033B0000F9211240BB60F922F933F934F935F936D
:1033C0006F937F938F939F93AF93BF93EF93FF93ED
:1033D000E091B70AF091B80A309709F451C0868D90
:1033E000A685B785958581FF04C08C91892329F432
:1033F00047C08C91892309F043C0A389B4899C916B
:103400008589809589238C93868997890197F1F71F
:10341000208D318DA685B785758558E040E0C901BE
:103420000197F1F7842F90E095958795482F6C913F
:10343000672309F04068515091F7868D81FD4095D2
:103440008091760A90E001968F7399272091750AF2
:10345000281749F0A091760AB0E0A958B54F4C93CF
:103460008093760A03C0868D8160868F828D938DCE
:103470000197F1F7A389B4898C919589892B8C9355
:10348000FF91EF91BF91AF919F918F917F916F913C
:103490005F914F913F912F910F900BBE0F900FBEF8
:1034A0000F901F901895CF93DF93EC019A01AB0119
:1034B0001B8E1A8E198E188E1F8A1E8A60E079E084
:1034C0008DE390E00E945639C9012430310520F087
:1034D000B9016350710902C061E070E07D8F6C8FAB
:1034E000EC85EF3108F05AC0B901769567956431E3
:1034F000710518F06351710902C061E070E07F8BC3
:103500006E8B069718F0C901059702C081E090E024
:10351000998F888FC901880F991F820F931F9695E5
:103520008795969587958D30910510F00C9702C080
:1035300081E090E09B8F8A8F90916800E83030F0B6
:10354000E03130F0E83130F484E005C082E003C0BF
:1035500088E001C081E0892B809368002C852830A9
:1035600038F02E3040F0263148F48CE690E008C068
:103570008DE690E005C08BE690E002C080E090E030
:103580009C8B8B8B277081E090E001C0880F2A957F
:10359000EAF78D8B8C8D9D8D0197F1F7CE01DF9130
:1035A000CF910C94AC192F923F924F925F926F92F1
:1035B0007F928F929F92AF92BF92CF92DF92EF92C3
:1035C000FF920F931F93CF93DF9300D000D0CDB71E
:1035D000DEB74C017C836B836A015901C801870106
:1035E000AC014C195D0957FF03C051954195510934
:1035F00095016B817C81261B370B37FF03C031950A
:103600002195310922242394312C2417350714F0F5
:10361000212C312C2114310459F03A2D2B2D5C0131
:10362000832F922F3B812C81DC82CB82C32ED22E22
:10363000AB81BC81AA16BB065CF43C2D2D2D6C0120
:10364000832F922F3B812C81BC82AB82A32EB22E82
:103650002501EB81FC814E1A5F0A3C016C187D0844
:1036600077FE03C0719461947108720157FE03C024
:10367000FFEFEF1AFF0AF594E794C816D9062CF469
:1036800021E030E03A83298324C06FEF7FEF7A8313
:1036900069831FC0D401ED91FC910480F581E02D78
:1036A000980121143104D9F04B815C81B601C40129
:1036B0000995E618F708F7FE06C0E981FA81CE0EF3
:1036C000DF1EE40CF51C2B813C812F5F3F4F3C83B8
:1036D0002B836B817C81A616B706E4F604C0A60195
:1036E0006B817C81E4CF0F900F900F900F90DF9152
:1036F000CF911F910F91FF90EF90DF90CF90BF90EF
:10370000AF909F908F907F906F905F904F903F9081
:103710002F9008956F927F928F929F92AF92BF9257
:10372000CF92DF92EF92FF920F931F93CF93DF938D
:10373000EC015B016A0139014801E881F9810284E9
:10374000F385E02D87010995E881F981A601480DEF
:10375000591D415051090284F385E02D9301B501B3
:10376000CE010995E881F9810084F185E02D94016D
:10377000A601B501CE010995E881F981B501660D73
:10378000771D615071090084F185E02D9401A60137
:10379000CE010995DF91CF911F910F91FF90EF908E
:1037A000DF90CF90BF90AF909F908F907F906F9061
:1037B0000895EF92FF920F931F93DC01ED91FC911E
:1037C000240F351F215031090680F781E02D780143
:1037D00089019B0109951F910F91FF90EF9008952A
:1037E000EF92FF920F931F93DC01ED91FC91260F56
:1037F000371F215031090680F781E02D78018A01B9
:1038000009951F910F91FF90EF9008956F927F920D
:103810008F929F92AF92BF92CF92DF92EF92FF92E0
:103820000F931F93CF93DF935C014A016901380125
:10383000EB01C60ED71ECC15DD0574F4D501ED9154
:10384000FC910084F185E02D87019301A401BE0164
:10385000C50109952196EFCFDF91CF911F910F916F
:10386000FF90EF90DF90CF90BF90AF909F908F90A0
:103870007F906F900895EF92FF920F931F93DC015A
:10388000ED91FC9111971A960D911C911B9718962A
:103890002D913C9119970684F785E02D7B0140E03E
:1038A00050E060E070E009951F910F91FF90EF905C
:1038B00008950895FC011382128281E894E09183B7
:1038C00080837583648357834683718760875387BA
:1038D0004287158A158614861786168621E0248B62
:1038E0008FEF9FEF938B828B918B808B268B178A28
:1038F000118E108E08952F923F924F925F926F9289
:103900007F928F929F92AF92BF92CF92DF92EF926F
:10391000FF920F931F93CF93DF93CDB7DEB76A97D4
:103920000FB6F894DEBF0FBECDBF1C0158874F8382
:103930001C870B87FA86E986CC82DC0158964D916C
:103940005C9159974115510509F0A6C018968D91C3
:103950009C911997681779070CF056C11A968D91AA
:103960009C911B97EF81F885E817F9070CF04CC183
:10397000D12CCB013C81F6E03F9F800D911D11249D
:10398000181619060CF040C1C60103E0880F991FF4
:103990000A95E1F74F815885840F951F181619066F
:1039A0000CF032C157968C91811103C0203B08F076
:1039B0002F5F7E876D874B01198214E2A12E11E0E3
:1039C000B12EA61AB70A55E0259FA00CB11C1124F0
:1039D0008981853039F0ED85FE85EA0DFB1D9491D6
:1039E0009A8301C01A826F8078842301A8E0AD8396
:1039F000BA81B0FF12C0D101ED91FC91BC81B13010
:103A000031F40480F581E02D2B853C8518C00684B7
:103A1000F785E02DEB84FC841DC0E985FA852B85B4
:103A20003C85E217F307E1F0D101ED91FC91BC81F7
:103A3000B13059F40480F581E02D29853A85A20141
:103A40006D857E85C10109950BC00684F785E02D43
:103A5000E984FA8486019601A301B401C1010995A4
:103A6000EA81E695EA83FD81F150FD836C0C7D1CB3
:103A70002FEF421A520AF111BBCF39813F5F3983D0
:103A80008C0C9D1C4D855E854F5F5F4F5E874D871B
:103A9000363009F09DCFB8C0FA0134963491329790
:103AA00085919491231BA7E02A9F800D911D1124DD
:103AB000FA0125913491398B288BFC014591549161
:103AC0005A8F498FFC013296549159873196A491AF
:103AD000AF873196E491FC0135962491319684911B
:103AE000BC81B23050F0622E772467FC7094E82FCE
:103AF000FF27E7FDF095FE87ED87FC81CF2ED12CC7
:103B00006C9C40016D9C900C7C9C900C1124860E4A
:103B1000971EA12C1982DE8ACD8AAB01420F511D5E
:103B200027FD5A955E834D83AF81B885A80FB11DDF
:103B300087FDBA95B88FAF8B59818F85581708F0DC
:103B400063C0852F90E02D853E85280F391F2C9D61
:103B5000D0012D9DB00D3C9DB00D1124EF81F88555
:103B6000EA0FFB1FFB83EA836D807E802401FA2D20
:103B70002D81F21BFA8B4F89588D480F591F5C8B92
:103B80004B8B9A89960D862D2D81821B3985831743
:103B9000B0F5977061F4898D9A8D0196E889F9895D
:103BA000298D3A8DE20FF31FB4909A8F898FB7FE5B
:103BB0001DC0D101ED91FC91BC81B13059F404805C
:103BC000F581E02D2B853C854B895C89B301C101D2
:103BD00009950CC00684F785E02DEB84FC848601F2
:103BE00096014A815B81B201C1010995BB0CED8947
:103BF000FE894E0E5F1EFFEF6F1A7F0AC2CFA30E23
:103C000049814F5F498398CF6A960FB6F894DEBF1B
:103C10000FBECDBFDF91CF911F910F91FF90EF901D
:103C2000DF90CF90BF90AF909F908F907F906F90DC
:103C30005F904F903F902F900895AF92BF92CF9298
:103C4000EF92FF920F931F93CF93DF93EC01262FF8
:103C5000888D998D009709F042C06A3069F42C89EB
:103C60008E859F8538E0239F800D911D11249F87AD
:103C70008E871D861C86ABC06D3009F4A8C08E8966
:103C80008823C1F03C898C859D8546E0349F800D5A
:103C9000911D112448855985841795075CF01D8670
:103CA0001C868E859F85E8E03E9F800D911D112426
:103CB0009F878E87EA88FB88088919894E855F85EA
:103CC0006C857D85CC88CE010E947B1C2C898C85DF
:103CD0009D85F6E02F9F800D911D112441C06A3013
:103CE00079F41D861C864C89FC01369684912E85BC
:103CF0003F85489F200D311D11243F872E8767C0C7
:103D00006D3009F464C0AC014C5F5F4FFA0134912F
:103D1000631708F45CC03196E491E61708F457C0C5
:103D2000FA014491362F341BFC013296A590B490D1
:103D3000F7E03F9FA00CB11C1124F5013296A4912D
:103D40003196E491AA2311F0E1110DC0F5013496EA
:103D5000A4902C898C859D85A29E800D911D112497
:103D60009D878C8734C0F5013596E4913E893323D5
:103D700009F13C89B0E0AE0FB11DE7FDBA953A9F5D
:103D8000A0013B9F500D11246C857D85460F571F68
:103D900068857985461757076CF01D861C86FC01DF
:103DA000369684914E855F85389F400D511D1124B4
:103DB0005F874E87EA88FB88088919894E855F8569
:103DC0006C857D85CC88CE010E947B1CBFCF81E0B5
:103DD00090E0DF91CF911F910F91FF90EF90CF90E6
:103DE000BF90AF900895FC01758764875787468719
:103DF0000895611101C061E0FC01648B0895FC012C
:103E0000718B608B538B428B0895FC01668B0895F8
:103E1000CF93DF93FC01E65BFF4F2081222311F05B
:103E200080E065C0EC01C55BDF4FA881B9811097C8
:103E300041F0ED91FC9111970480F581E02DCD01C9
:103E40000BC0EC01C35BDF4F88819981DC01ED91F0
:103E5000FC910480F581E02D0995892B09F3888177
:103E60009981DC01ED91FC910680F781E02D0995A7
:103E70008A3049F59091BE0AE091BC0AF091BD0AE2
:103E8000E90FF11D10822091BC0A3091BD0ABBE000
:103E900027333B0739F44FEB5AE05093BD0A409368
:103EA000BC0A08C027E33BE03093BD0A2093BC0A5C
:103EB0002FEB3AE03093BB0A2093BA0A1092BE0A65
:103EC00091E09093B90AE091BC0AF091BD0A9091FB
:103ED000BE0A21E0290F2093BE0AE90FF11D80835D
:103EE0009091BE0A983718F097E79093BE0ADF9139
:103EF000CF910895FC01DC01A55BBF4F11961C9288
:103F00001E92129611961C921E921092B90A139745
:103F10001C921092BE0A87E39BE09093BD0A8093A7
:103F2000BC0A8FEB9AE09093BB0A8093BA0A15AE55
:103F300014AE15821482138212821182108212AE84
:103F400011AE10AE13AE1782168214AA15AA16AAC5
:103F500017AA10AA11AA12AA13AA14A615A616A681
:103F600017A610A611A612A613A614A215A216A291
:103F700017A210A211A212A213A2148615861686E9
:103F80001786108611861286138608950F931F9345
:103F9000CF93DF93EC018B010E947A1FC35BDF4F4D
:103FA00019830883DF91CF911F910F910895FC0130
:103FB000E55BFF4F20813181AB0160E070E02115AE
:103FC000310521F0C9010E94531A08C0FC01E35BCE
:103FD000FF4F26E0808191810E94CF316AE070E03E
:103FE00080E090E00C94902FEF92FF920F931F933C
:103FF000DC01ED91FC9111971A960D911C911B9784
:1040000018962D913C9119970684F785E02D7B0138
:1040100040E050E060E070E009951F910F91FF9043
:10402000EF900895EF92FF920F931F93CF93DF933A
:104030001F92CDB7DEB77C01062F142F40E451E06C
:1040400060EF70E029830E945A1C89E994E0F7012F
:104050009183808306A317A3298120A781E0838F02
:1040600013A611A60F90DF91CF911F910F91FF9092
:10407000EF900895FC01838D811122C088E090E0CB
:1040800030E8A48DB58D24A5432F462321F04C9113
:10409000422B4C9304C04C91209524232C93A68D45
:1040A000B78D2C9145A5242B2C93A68DB78D4C91C3
:1040B00025A5209524232C933695019711F7089573
:1040C0006EBD0DB407FEFDCF0895CF93DF93EC01D5
:1040D000E8A1F9A190818FA5809589238083EE8D39
:1040E000FF8D90818DA5809589238083ECA1FDA112
:1040F00090818EA5809589238083CE010E943A20ED
:10410000ECA1FDA180819EA5892B8083DF91CF91B9
:104110000895662311F061E201C060E20C9465200D
:10412000CF93DF93EC01E8A1F9A180819FA5892BB2
:104130008083EE8DFF8D90818DA58095892380836E
:10414000ECA1FDA190818EA5809589238083CE016D
:104150000E943A20ECA1FDA180819EA5892B80833D
:10416000DF91CF910895CF93DF93EC0161E088A5B3
:104170000E94413060E088A50E947A3061E08FA102
:104180000E94413061E08EA10E9441304EA150E07A
:10419000FA01E059F94FE491F0E0EE0FFF1FE65607
:1041A000F94F859194919DA38CA32FA130E0F90143
:1041B000E059F94F849190E0880F991F8656994FE6
:1041C000FC018591949199A388A3FA01E05BF94FD2
:1041D00044914EA7F901E05BF94F24912FA78B8DF5
:1041E000882379F00E942D198CB58C7F8CBD8DB5FC
:1041F00081608DBD8CB58F7D8CBD8CB5837F8CBD72
:1042000041C061E08BA50E94413061E089A50E9418
:10421000413060E08AA50E9441304BA550E0FA0190
:10422000E059F94FE491F0E0EE0FFF1FE656F94F29
:10423000A591B491BF8FAE8F29A530E0F901E05967
:10424000F94F849190E0880F991F8656994FFC0191
:10425000859194919D8F8C8FFA01E05BF94F449189
:104260004DA7F901E05BF94F24912CA78C919DA5F6
:10427000909589238C93EC8DFD8D90818CA58095F4
:104280008923808361E088A50E947A3065E070E030
:1042900080E090E00E94902F60E088A50E947A3034
:1042A00064E170E080E090E00E94902F61E088A5DA
:1042B0000E947A3066E970E080E090E00E94902FE2
:1042C0006FEECE010E94652063E0CE010E94902037
:1042D00060E8CE010E94902062E0CE010E94902012
:1042E0006FECCE010E94652060E0CE010E9490201C
:1042F00061ECCE010E94902060E3CE010E949020EC
:104300006DEECE010E94652064E6CE010E949020F1
:1043100063E0CE010E94902062E1CE010E949020D5
:1043200061E8CE010E94902068EECE010E946520D7
:1043300065E8CE010E94902060E0CE010E949020AE
:1043400068E7CE010E9490206BECCE010E946520B0
:1043500069E3CE010E9490206CE2CE010E94902081
:1043600060E0CE010E94902064E3CE010E94902084
:1043700062E0CE010E94902067EFCE010E9465208E
:1043800060E2CE010E9490206AEECE010E9465207C
:1043900060E0CE010E94902060E0CE010E9490205B
:1043A00060ECCE010E94652063E2CE010E94902065
:1043B00061ECCE010E94652060E1CE010E94902058
:1043C00065ECCE010E9465206EE3CE010E94902034
:1043D00068E2CE010E94902067ECCE010E94652029
:1043E00066E8CE010E94902066E3CE010E9465201F
:1043F00068E4CE010E9490206AE3CE010E9465200D
:1044000065E5CE010E94902061EBCE010E946520FF
:1044100060E0CE010E94902068E1CE010E949020D1
:1044200066EBCE010E94652068E0CE010E949020DC
:1044300062E8CE010E94902067E2CE010E949020A7
:1044400062EFCE010E94652060E0CE010E949020C4
:1044500066E2CE010E94652061E0CE010E949020BC
:1044600060EECE010E9465206FE0CE010E94902098
:1044700061E3CE010E9490206BE2CE010E94902069
:104480006CE0CE010E9490206EE0CE010E94902050
:1044900068E0CE010E9490206EE4CE010E94902040
:1044A00061EFCE010E94902067E3CE010E94902030
:1044B00067E0CE010E94902060E1CE010E94902032
:1044C00063E0CE010E9490206EE0CE010E94902019
:1044D00069E0CE010E94902060E0CE010E94902011
:1044E00061EECE010E94652060E0CE010E94902026
:1044F0006EE0CE010E94902064E1CE010E949020E7
:1045000063E0CE010E94902061E1CE010E949020E4
:1045100067E0CE010E94902061E3CE010E949020CE
:1045200061ECCE010E94902068E4CE010E949020B0
:1045300068E0CE010E9490206FE0CE010E949020A2
:104540006CE0CE010E94902061E3CE010E94902099
:1045500066E3CE010E9490206FE0CE010E94902081
:1045600061E1CE010E94652068E770E080E090E0A4
:104570000E94902F69E2CE01DF91CF910C946520CB
:10458000CF92DF92FF920F931F93CF93DF9300D0D0
:1045900000D01F92CDB7DEB76C01F62E6AE22B83F6
:1045A0003A834D835C8379830E9465207981672FEC
:1045B000C6010E9490206F2DC6010E9490203A8172
:1045C000632FC6010E9490202B81622FC6010E949A
:1045D00090206BE2C6010E9465205C81652FC601B8
:1045E0000E9490204D81642FC6010E949020612F6F
:1045F000C6010E949020602FC6010E9490206CE2AC
:10460000C6010F900F900F900F900F90DF91CF91F8
:104610001F910F91FF90DF90CF900C946520EF9247
:10462000FF920F931F93CF93DF93EC01F22EE32EB3
:1046300077FD2FC0288539856217730754F557FD1C
:1046400028C02A853B85421753071CF58A010F5F56
:104650001F4F9B012F5F3F4F0E94C022E8A1F9A18D
:1046600080819FA5892B8083ECA1FDA190818EA5DF
:104670008095892380836E2DCE010E943A206F2D74
:10468000CE010E943A20ECA1FDA180819EA5892B3C
:104690008083DF91CF911F910F91FF90EF9008954C
:1046A000CF92DF92EF92FF920F931F93CF93DF93FE
:1046B000EC017901D02EC12E88859985681779077C
:1046C000CCF58A859B8548175907A4F59A012E0DCC
:1046D0003F1D821793071CF47C01E41AF50A8A0136
:1046E0000E0D1F1D015011099B01CE010E94C02219
:1046F000E8A1F9A180819FA5892B8083ECA1FDA170
:1047000090818EA5809589238083E114F10461F066
:104710006C2DCE010E943A206D2DCE010E943A20D0
:1047200081E0E81AF108F1CFECA1FDA180819EA5FE
:10473000892B8083DF91CF911F910F91FF90EF9094
:10474000DF90CF900895CF92DF92EF92FF920F9378
:104750001F93CF93DF93EC017901D02EC12E888572
:10476000998568177907CCF52A853B854217530749
:10477000A4F59B012E0D3F1D821793071CF47C01AD
:10478000E61AF70A9B012E0D3F1D215031098A01BF
:10479000CE010E94C022E8A1F9A180819FA5892BAA
:1047A0008083ECA1FDA190818EA5809589238083D3
:1047B000E114F10461F06C2DCE010E943A206D2DC0
:1047C000CE010E943A2081E0E81AF108F1CFECA175
:1047D000FDA180819EA5892B8083DF91CF911F91C0
:1047E0000F91FF90EF90DF90CF900895AF92BF921E
:1047F000CF92DF92EF92FF920F931F93CF93DF93AD
:10480000EC016901580128853985621773070CF09E
:104810004EC08A859B85481759070CF048C0FB019C
:10482000EC0DFD1D2E173F071CF46901C61AD70AAF
:104830009A012A0D3B1D821793071CF45C01A41AF0
:10484000B50A8A010A0D1B1D015011099B012C0D8F
:104850003D1D21503109CE010E94C022E8A1F9A1DD
:1048600080819FA5892B8083ECA1FDA190818EA5DD
:104870008095892380831A141B049CF486011016EA
:1048800011065CF46F2DCE010E943A206E2DCE01F0
:104890000E943A2001501109F2CF81E0A81AB10814
:1048A000EACFECA1FDA180819EA5892B8083DF91B9
:1048B000CF911F910F91FF90EF90DF90CF90BF901D
:1048C000AF9008951F93CF93DF93EC01162F66E30B
:1048D0000E946520612F63706D8B623041F0633000
:1048E00089F0613011F068E403C068E20CC068E848
:1048F000CE010E94902080EF90E09987888780E425
:1049000091E00AC068EECE010E94902080E491E020
:104910009987888780EF90E09B878A87DF91CF9186
:104920001F910895FC017183608342830895DC0127
:104930008D919C91DC01ED91FC910280F381E02D41
:104940000994DC018D919C91DC01ED91FC91048432
:10495000F585E02D0994DC018D919C91DC01ED91B0
:10496000FC910488F589E02D0994EF92FF920F9352
:104970001F93CF93DF931F92CDB7DEB77C018B01DE
:10498000622F49830E94AB24D7018D919C91DC0159
:10499000ED91FC910680F781E02D4981B8010F90DF
:1049A000DF91CF911F910F91FF90EF900994DC015F
:1049B0008D919C91DC01ED91FC910688F789E02DA9
:1049C00009941F93CF93DF93EC01162F888199816F
:1049D000DC01ED91FC910288F389E02D0995612FAE
:1049E000CE010E94D7241A83DF91CF911F910895A1
:1049F0001F93CF93DF93EC0188819981DC01ED91C6
:104A0000FC910190F081E02D0995182F882321F069
:104A10006A81CE010E94E124812FDF91CF911F9105
:104A20000895DC018D919C91DC01ED91FC91008C4D
:104A3000F18DE02D0994DC018D919C91DC01ED91CB
:104A4000FC91028CF38DE02D0994DC018D919C91F9
:104A5000DC01ED91FC91068CF78DE02D0994DC01D1
:104A60008D919C91DC01ED91FC9100A0F1A1E02DD4
:104A70000994DC018D919C91DC01ED91FC9102A0E7
:104A8000F3A1E02D0994DC018D919C91DC01ED9165
:104A9000FC9104A0F5A1E02D0994AF92BF92CF92B2
:104AA000DF92EF92FF920F931F93CF93DF93EC016E
:104AB000590188819981DC01ED91FC910480F58197
:104AC000E02D0995882309F1A114B10429F0CE0144
:104AD0000E942F25F50180830115110529F0CE01D3
:104AE0000E942525D8018C93E114F10429F0CE0110
:104AF0000E943925F7018083C114D10441F0CE0111
:104B00000E944325D6018C9302C080E001C081E061
:104B1000DF91CF911F910F91FF90EF90DF90CF9099
:104B2000BF90AF90089581E00895FC0165830895DA
:104B3000FC0164830895FC0162870895FC0163878A
:104B40000895FC01648708954095FC012585422362
:104B5000462B45870895FC0186810895FC018781D5
:104B60000895FC0180850895FC018185089580E009
:104B70000895CF93DF93EC01E881F9810280F381FE
:104B8000E02DCE010995811103C00E94652EF4CF5E
:104B9000DF91CF910895CF93DF93EC018A819B81C0
:104BA000039719F40E94652EF9CF81E0DF91CF9130
:104BB00008958F929F92AF92BF92CF92DF92EF9221
:104BC000FF92CF93DF93EC016B010E94612F4B01A9
:104BD0005C01E12CF12C0E94612F681979098A0986
:104BE0009B096C157D058E059F0560F4E881F981B0
:104BF0000280F381E02DCE010995811105C00E944C
:104C0000652EE9CF80E001C081E0DF91CF91FF9078
:104C1000EF90DF90CF90BF90AF909F908F900895CE
:104C20008F929F92AF92BF92CF92DF92EF92FF92BC
:104C3000CF93DF93EC016B010E94612F4B015C016C
:104C4000E12CF12C0E94612F681979098A099B09CE
:104C50006C157D058E059F0538F48A819B8103972D
:104C600029F40E94652EEECF80E001C081E0DF9143
:104C7000CF91FF90EF90DF90CF90BF90AF909F903B
:104C80008F900895FC0181EB94E0918380831382DF
:104C900012828FEF84838287838714861586108A19
:104CA0001786128A118A148A138A0895FC01868550
:104CB000089508950895FC01758364830895FC01A7
:104CC000778366830895FC01738362830895FC01F2
:104CD0008DED94E091838083738362835583448355
:104CE0003783268308956EBD00000DB407FEFDCF07
:104CF0008EB508958CB580688CBD08958CB58F777E
:104D00008CBD0895FC01268137812115310579F08C
:104D10002130310541F02230310539F023303105A1
:104D200031F49CE005C094E003C098E001C090E03D
:104D30008CB5837F892B8CBD84819581019719F473
:104D40008CB5806202C08CB58F7D8CBD82819381D1
:104D500001978430910528F4FC01E351FB4F9081C9
:104D600001C091E02CB5892F83702C7F822B8CBDE4
:104D70008DB592FB992790F98E7F892B8DBD0C9470
:104D80002D190C946319CF93DF93EC010E946726D1
:104D900085EF94E099838883DF91CF91089520E097
:104DA00030E040E050E060E070E08FEA9BE00C947F
:104DB000C326CF93DF93EC010E9492241B821C82B6
:104DC0001D821E821F8288EC90E09987888783E08D
:104DD0008A87DF91CF9108950F931F93CF93DF932D
:104DE00000D0CDB7DEB78C014A830E94112540E088
:104DF00060E8C8010E941B2581E289832A8141E085
:104E0000BE016F5F7F4FC8010E94B524C8010E9498
:104E1000A1240F900F90DF91CF911F910F910895D2
:104E20002F923F924F925F926F927F928F929F92BA
:104E3000AF92BF92CF92DF92EF92FF920F931F93A8
:104E4000CF93DF93CDB7DEB728970FB6F894DEBFC8
:104E50000FBECDBF5C0119012801470136014F8308
:104E600058876D837E830E9497244F8158856D817A
:104E70007E81882329F1CE0101966C01DE01129614
:104E80007D018E010D5F1F4F9E012C5F3F4FC501BD
:104E90000E944D25182F882399F0898187FD10C025
:104EA0008B818F3F29F04C816A81C5010E94EC26DD
:104EB0008A819C81F501E90FF11D2385821302C0CF
:104EC00010E017C02114310411F0D1019C9341145A
:104ED000510419F09B81D2019C938114910411F02B
:104EE000D4018C936114710419F09981D3019C93BE
:104EF0008387812F28960FB6F894DEBF0FBECDBFF3
:104F0000DF91CF911F910F91FF90EF90DF90CF90A5
:104F1000BF90AF909F908F907F906F905F904F90D9
:104F20003F902F900895CF93DF93EC018D899E8958
:104F3000DC01ED91FC910680F781E02D099561E09F
:104F40008F890E94413061E08F890E947A3064E647
:104F500070E080E090E00E94902F81E0DF91CF919F
:104F60000895EF92FF920F931F93CF93DF931F92B9
:104F7000CDB7DEB77C018A0169830E94422689E0B1
:104F800095E0F70191838083168B058B6981678B90
:104F90000F90DF91CF911F910F91FF90EF900895A7
:104FA0000F931F93CF93DF93EC01062F1FB7F89455
:104FB00060E08F890E947A308D899E89DC01ED91B5
:104FC000FC91602F6F770190F081E02D09958D891C
:104FD0009E89DC01ED91FC910190F081E02D60E073
:104FE0000995082F61E08F890E947A301FBF802FBA
:104FF000DF91CF911F910F910895EF92FF920F9340
:105000001F93CF93DF931F92CDB7DEB77C01162F8E
:105010000FB7F89460E0DC0157968C9149830E94A9
:105020007A30F70185899689DC01ED91FC91612F39
:1050300060680190F081E02D0995182FF7018589AE
:105040009689DC01ED91FC910190F081E02D498180
:10505000642F099561E0F70187890E947A300FBFBC
:10506000812F0F90DF91CF911F910F91FF90EF90C3
:105070000895AF92BF92DF92EF92FF920F931F932A
:10508000CF93DF9300D0CDB7DEB78C01D62EF22EB2
:10509000EFB6F89460E0DC0157968C9149835A830F
:1050A0000E947A30F80185899689DC01ED91FC91A6
:1050B0006D2D6F770190F081E02D0995D82E4981F3
:1050C000A42E5A81B52EF40EFA1479F0F8018589D0
:1050D0009689DC01ED91FC910190F081E02D60E07A
:1050E0000995F50181935F01EFCF61E0D8015796F3
:1050F0008C910E947A30EFBE8D2D0F900F90DF9132
:10510000CF911F910F91FF90EF90DF90BF90AF90E4
:105110000895AF92BF92DF92EF92FF920F931F9389
:10512000CF93DF9300D0CDB7DEB78C01D62EF22E11
:10513000EFB6F89460E0DC0157968C9149835A836E
:105140000E947A30F80185899689DC01ED91FC9105
:105150006D2D60680190F081E02D0995D82E498170
:10516000A42E5A81B52EF40EFA1471F0F801858937
:105170009689D5016D915D01DC01ED91FC91019065
:10518000F081E02D0995F0CF61E0F80187890E9458
:105190007A30EFBE8D2D0F900F90DF91CF911F9140
:1051A0000F91FF90EF90DF90BF90AF900895CF9355
:1051B000DF93EC018F890E94B03021E0892B09F444
:1051C00020E08A8D8227DF91CF910895FC01808DA8
:1051D0000C947A30FC01238D6227818D0C947A30F7
:1051E000CF93DF93EC018A819B81029761F060E0AD
:1051F000CE010E94EA2860E0CE010E94E62882E00B
:1052000090E09B838A83DF91CF910895862F8695C6
:105210008695887098E0980F891749F0E82FF0E09C
:10522000EF5CFA4F2081621719F08F5FF5CF80E0B5
:1052300008951F93CF93DF93EC010E94D728882312
:1052400019F09F8D9F5F9F8F9E8D891771F098A198
:10525000903518F42BE030E002C02DE130E098A149
:10526000290F311D28A38E8F03C088A18C5E88A3CF
:1052700088A1803A08F46EC08AA19BA19695879573
:105280009BA38AA38F8D853028F08AA19BA198606B
:105290009BA38AA388A1805A88A31F8E89A18823F3
:1052A00009F446C08CA18F5F8CA38C3008F452C0E7
:1052B0006AA17BA16F73CE010E940629182F6AA1F3
:1052C0007BA146E0769567954A95E1F7CE010E946D
:1052D000062990E1199F90011124822BBE01675984
:1052E0007F4FFB019081DE01A859BF4F9923B1F098
:1052F000FB01908121E0290F2083AE01490F511D50
:10530000FA0185A3FB0190818C91981778F019A27E
:1053100081E08C8FCE010E94F02808C08C939C9174
:10532000973090F09C91943478F4E2CF1CA212C094
:105330008AA19BA188339B4069F481E089A31CA2C8
:10534000C759DF4F188206C019A28F859889019628
:10535000988B8F87DF91CF911F910895CF92DF9225
:10536000EF92FF920F931F93CF93DF93EC018C0189
:1053700004591F4FF801808191E0980F90838111AB
:1053800036C06E01FAE6CF0ED11CF6018081EF56D1
:10539000FF4F9081891748F0CE010E94F0288B8939
:1053A0009C8901969C8B8B8B22C0FE01E80FF11D1E
:1053B000E359FF4F608170E07E01FBE6EF0EF11CC8
:1053C000F701808191E0980F908302C075956795F1
:1053D0008A95E2F76170CE010E94E628F70180818C
:1053E000863028F01082F60180818F5F8083F8017B
:1053F0008081883008F01082DF91CF911F910F914A
:10540000FF90EF90DF90CF900895FC0122813381CF
:105410002430310511F40C941929FC0122813381C7
:105420002330310511F40C94AE2908951F920F9288
:105430000FB60F9211240BB60F922F933F934F93F9
:105440005F936F937F938F939F93AF93BF93EF93EC
:10545000FF938091B70B9091B80B0E94052AFF91A2
:10546000EF91BF91AF919F918F917F916F915F91DC
:105470004F913F912F910F900BBE0F900FBE0F9049
:105480001F9018958BEF0895CF93DF93EC018A81DD
:105490009B81019749F040E061E0CE010E94FD2729
:1054A00081E090E09B838A8381E0DF91CF91089532
:1054B0001F93CF93DF93EC01142FA9010E94B12712
:1054C00085E695E099838883FE01E65EFE4F1082B3
:1054D000188F8FEF898FDF91CF911F910895FC0175
:1054E000828D8430D8F0838D8683848D8783858DEB
:1054F0008087868D81878581811107C0968184810F
:10550000981719F086818F3F49F481899289019615
:10551000928B818BE65EFE4F81E0808308952FB7EA
:10552000F894FC01E65EFE4F1082FC01128E2FBF44
:105530000895CF92DF92EF92FF920F931F93CF9334
:10554000DF93EC017B018A01E881F9810280F3811C
:10555000E02D0995D82E882311F1E114F104E1F032
:1055600001151105C9F0CFB6F8942A8D30E023500B
:105570003109F801408150E0421753071CF09A8D21
:1055800094509083F801408150E0BE01615E7F4FEE
:10559000C7010E94AE39CFBECE010E948F2A8D2D49
:1055A000DF91CF911F910F91FF90EF90DF90CF90FF
:1055B0000895CF92DF92EF92FF92CF93DF93EC01A9
:1055C000CB01BA0120E034E244E759E40E946A3892
:1055D00020E034E244E752E40E948D360E94FA361D
:1055E0006B017C01A7016627772766E0CE010E9448
:1055F000FD2777276F2D5E2D4D2D67E0CE010E9490
:10560000FD274C2D68E0CE010E94FD2781E0DF914F
:10561000CF91FF90EF90DF90CF900895CF93DF93DD
:10562000EC018A819B81029749F041E061E0CE0163
:105630000E94FD2782E090E09B838A83DF91CF91D7
:1056400008951F93CF93DF93EC0162E10E94D0276E
:105650002A813B812430310519F4982F907A41F446
:105660002A813B8124303105E1F586FD0EC039C029
:105670008F8598890196988B8F874FEF62E1CE01D5
:10568000DF91CF911F910C94FD2763E1CE010E9421
:10569000D027182F60E1CE010E94D027482F6DE05F
:1056A000CE010E94FD27212FAE01455E5F4F60E0D5
:1056B000CE010E9439281A8F4FEF62E1CE010E947D
:1056C000FD276AE1CE010E94D02789588E87CE013E
:1056D0000E946F2AFE01E65EFE4F8081882369F2F8
:1056E0000CC02A813B812330310539F683FFC5CFB9
:1056F0008B899C8901969C8B8B8BCE010E940E2BF3
:10570000BCCF8091BA0B9091BB0B009711F00C9419
:10571000212B08958091BC0B9091BD0B009711F047
:105720000C94212B08958091BE0B9091BF0B009794
:1057300011F00C94212B0895CF93DF93EC018A8113
:105740009B81049771F045E061E0CE010E94FD2746
:1057500040E060E4CE010E94FD2784E090E09B835E
:105760008A83DF91CF910895CF93DF93EC018A81F3
:105770009B81039739F0CE010E949C2BC65EDE4FC1
:10578000888101C080E0DF91CF910895CF93DF93AE
:10579000EC018A819B81039771F043E061E0CE01C7
:1057A0000E94FD2740E460E4CE010E94FD2783E0D3
:1057B00090E09B838A83DF91CF910895FF920F93AE
:1057C0001F93CF93DF93EC018B01F42E8BEF8417A3
:1057D000A0F1E881F9810484F585E02DCE010995D9
:1057E000CE010E940E2B40E06DE0CE010E94FD270D
:1057F0004A8560E0CE010E94FD274B8560E0CE0126
:105800000E94FD274C8560E0CE010E94FD274D855A
:1058100060E0CE010E94FD272F2DA80160E0CE019F
:105820000E94892844E04F0D62E2CE010E94FD27CC
:10583000CE010E94C62B81E001C080E0DF91CF91B4
:105840001F910F91FF9008951F93CF93DF93EC0169
:10585000162F68312CF465305CF0653154F001C0CE
:1058600017E147E06DE4CE010E94FD27135006C00A
:1058700015E044E06DE4CE010E94FD274BEF410F9F
:10588000406869E0CE01DF91CF911F910C94FD2714
:105890000F931F93CF93DF93EC018B01FB014081AA
:1058A0006DE10E94FD27F80141816EE1CE010E9469
:1058B000FD27F801428166E2CE01DF91CF911F9171
:1058C0000F910C94FD270F931F93CF93DF9300D07C
:1058D0001F92CDB7DEB78C0165307105B4F49B0122
:1058E000220F331F260F371F2C5D394F43E050E046
:1058F000B901CE0101960E94A539BE016F5F7F4FAD
:10590000C8010E94482C81E001C080E00F900F90F8
:105910000F90DF91CF911F910F9108951F93CF9317
:10592000DF93EC01162F472F60E20E94FD27412FE5
:1059300061E2CE01DF91CF911F910C94FD27FF9280
:105940000F931F93CF93DF93EC010E949327F82EC0
:10595000811102C0F12CA5C0888D8A3039F08B30BE
:1059600041F0823049F402E010E008C000E010E0AD
:1059700005C001E010E002C00FEF1FEF64E475E026
:1059800089EC9BE00E94D9334AE050E06AE070E085
:1059900089EC9BE00E9499346CE475E089EC9BE013
:1059A0000E94D9334AE050E0688D89EC9BE00E9468
:1059B000C53465E575E089EC9BE00E94D9334AE087
:1059C00050E0B80189EC9BE00E9499340F3F8FEFC3
:1059D000180709F4BFCF40E861E0CE010E94FD271F
:1059E0006AE070E080E090E00E94902F61E0CE01DC
:1059F0000E94D027803809F0ADCF60E0888D0E94EA
:105A00004130898D8F3F51F48091B90B843008F07B
:105A1000A1CF91E0980F9093B90B898F998DE92FC1
:105A2000F0E0EE0FFF1FE654F44FD183C0839111D5
:105A300005C043E050E061E87BE20EC0913029F4FC
:105A400043E050E06AE87BE207C0923009F082CF81
:105A500043E050E063E97BE2802F0E94672E40E044
:105A60006EE0CE010E94FD2740E06FE0CE010E9473
:105A7000FD27CE010E940E2B60E070E0CE010E9457
:105A8000632C68E070E0CE010E948E2C40E050EC68
:105A900064E674E4CE010E94D92A6DE0CE010E9432
:105AA000242C8F2DDF91CF911F910F91FF9008959E
:105AB0008EBD00000DB407FEFDCF8EB50895FC012C
:105AC00080E5858316826083528341830895FC01BB
:105AD0008CB583838DB58483358126818091730A4B
